:020000040800F2
:10000000000400201D0300081F0300081F03000850
:100010001F0300081F0300081F0300081F03000838
:100020001F0300081F0300081F030008CD3E00083F
:100030001F0300081F0300081F0300081F03000818
:100040001F0300081F0300081F0300081F03000808
:100050001F0300081F0300081F0300081F030008F8
:100060001F0300081F0300081F030008C542000803
:10007000ED42000819430008454300087143000899
:1000800099430008C54300081F0300081F03000828
:100090001F0300081F0300081F0300081F030008B8
:1000A0001F0300081F0300081F0300081F030008A8
:1000B000F54100081F0300081F03000885510008D0
:1000C000995200081F0300081F0300081F030008BF
:1000D0001F0300081F0300081F0300081F03000878
:1000E0001F0300081F0300081F0300081F03000868
:1000F0001F0300081F0300081F030008F143000846
:100100001F0300081F0300081F0300081F03000847
:100110001F0300081F0300081F0300081F03000837
:100120001D44000845440008714400089D4400082F
:10013000C94400081F0300081F0300081F0300082C
:100140001F0300081F0300081F030008695300086D
:10015000F14400081D450008494500081F03000838
:100160001F0300081F0300081F0300081F030008E7
:100170001F0300081F0300081F0300081F030008D7
:100180001F0300081F0300081F0300081F030008C7
:100190001F0300081F0300081F0300081F030008B7
:1001A0001F0300081F0300081F0300081F030008A7
:1001B0001F0300081F0300081F0300081F03000897
:1001C0001F0300081F0300081F0300081F03000887
:1001D0001F0300081F0300081F0300081F03000877
:1002000072B6374880F30888364880F30988364844
:100210003649086040F20000CCF200004EF634711E
:10022000CEF200010860BFF34F8FBFF36F8F40F233
:100230000000C0F2F0004EF68851CEF200010860D6
:10024000BFF34F8FBFF36F8F4FF00000E1EE100A46
:100250004EF63C71CEF200010860062080F314884F
:10026000BFF36F8F02F004FE02F004FE4FF0553032
:100270001F491B4A91423CBF41F8040BFAE71D4954
:10028000184A91423CBF41F8040BFAE71A491B4A4D
:100290001B4B9A423EBF51F8040B42F8040BF8E79F
:1002A00000201849184A91423CBF41F8040BFAE774
:1002B00002F0F8FE02F0F4FE144C154DAC4203DAE5
:1002C00054F8041B8847F9E704F0EAFA114C124D80
:1002D000AC4203DA54F8041B8847F9E702F0E1BEA8
:1002E00000040020000C00200000000808ED00E0E1
:1002F000000000200004002058680008000C0020C6
:10030000240C0020280C002050170120E0010008D8
:10031000E0010008E0010008E001000870E700F0DB
:1003200000F8FEE72DE9F04F2DED108AC1F80CD052
:10033000C3689D46BDEC108ABDE8F08F002383F3AF
:1003400011882846A047002002F04CFFFEE702F08B
:10035000D5FE00DFFEE7000053B94AB9002908BF07
:1003600000281CBF4FF0FF314FF0FF3000F00CB8F9
:10037000ADF1080C6DE904CE05F0D4FADDF804E027
:10038000DDE9022304B07047704700BF844641EAAC
:10039000000313F003036DD1403A41D351F8043BFD
:1003A00040F8043B51F8043B40F8043B51F8043B4F
:1003B00040F8043B51F8043B40F8043B51F8043B3F
:1003C00040F8043B51F8043B40F8043B51F8043B2F
:1003D00040F8043B51F8043B40F8043B51F8043B1F
:1003E00040F8043B51F8043B40F8043B51F8043B0F
:1003F00040F8043B51F8043B40F8043B51F8043BFF
:1004000040F8043B51F8043B40F8043B51F8043BEE
:1004100040F8043B51F8043B40F8043B403ABDD25D
:10042000303211D351F8043B40F8043B51F8043BFF
:1004300040F8043B51F8043B40F8043B51F8043BBE
:1004400040F8043B103AEDD20C3205D351F8043B8E
:1004500040F8043B043AF9D2043208D0D2071CBF5A
:1004600011F8013B00F8013B01D30B880380604683
:10047000704700BF082A13D38B078DD010F00303F9
:100480008AD0C3F10403D21ADB071CBF11F8013B69
:1004900000F8013B80D331F8023B20F8023B7BE7B8
:1004A000043AD9D3013A11F8013B00F8013BF9D2E3
:1004B0000B7803704B7843708B788370604670477D
:1004C000830730B547D0541E002A3ED0CAB2034637
:1004D00001E0013C39D303F8012B9D07F9D1032C2E
:1004E0002CD9CDB205EB05250F2C05EB054535D9EB
:1004F000A4F1100222F00F0C03F1100EE6444FEAB3
:10050000121C1A46156055609560D5601032724510
:10051000F8D10CF1010214F00C0F03EB021204F0FD
:100520000F0C13D0ACF1040323F003030433134482
:1005300042F8045B9A42FBD10CF003042CB1C9B21F
:100540001C4403F8011B9C42FBD130BD644613469A
:10055000002CF4D1F9E703461446C0E71A46A44636
:10056000E0E700BF00000000000000000000000005
:1005700001F0FF01102A2BDB10F0070F08D010F854
:10058000013B013A8B422DD010F0070F42B3F6D158
:10059000F0B441EA012141EA014122F007047FF071
:1005A00000070023F0E80256083C85EA010586EAC8
:1005B000010685FA47F5A3FA87F586FA47F6A5FA04
:1005C00087F68EB9EED1F0BC01F0FF0102F0070210
:1005D00032B110F8013B013A83EA010313B1F8D1BB
:1005E0000020704701387047002D06BF354603389C
:1005F000073815F0010F07D1013015F4807F02BFD5
:10060000013015F4C03F0130F0BC0138704700BF25
:10061000032A70B511D940EA01039B071FD1044694
:100620000B4602E0043A032A1DD91946204653F826
:10063000045B54F8046BAE42F4D0541EB2B1421EB7
:10064000013901E0C3180CD012F801EF11F801CF05
:10065000E645A4EB0203F5D0AEEB0C0070BD541ED2
:10066000EDE7184670BD20461946E6E7104670BD16
:10067000000000000000000000000000000000007A
:1006800030B490F800F020F007016FF0000C10F08B
:10069000070491F820F040F048804FF000046FF01C
:1006A0000700D1E9002391F840F000F1080082FA38
:1006B0004CF2A4FA8CF283FA4CF3A2FA8CF34BBB03
:1006C000D1E9022382FA4CF200F10800A4FA8CF27C
:1006D00083FA4CF3A2FA8CF3E3B9D1E9042382FA4A
:1006E0004CF200F10800A4FA8CF283FA4CF3A2FA5F
:1006F0008CF37BB9D1E9062301F1200182FA4CF297
:1007000000F10800A4FA8CF283FA4CF3A2FA8CF3FD
:10071000002BC6D0002A04BF04301A4612BAB2FA1F
:1007200082F200EBD20030BC7047D1E9002304F024
:100730000305C4F100004FEAC50514F0040F91F859
:1007400040F00CFA05F562EA05021CBF63EA0503F6
:1007500062464FF00004AAE7034A01231188834050
:100760000B431380704700BFC8160120034A0123C2
:100770008340108820EA030010807047C8160120CB
:1007800037B5ADF80400C0F3072006281ED89DF841
:100790000430102B1AD803EB0013034403F00702B4
:1007A000012090400A4AC3F3CF03C0B202EB830298
:1007B000002412F8015F21FA04F343F300036B40B5
:1007C000034001345D40042C1570F2D103B030BDFC
:1007D0006F16012013B5ADF80400C0F307200628FA
:1007E0001BD89DF80430102B17D800EB00101844CC
:1007F0000B4900F007040022C0F3CF0001EB800199
:1008000010468B5CE34003F0010393400132184330
:10081000042AC0B2F5D102B010BD0020FBE700BF32
:1008200070160120054B064A1B7812789A4200D1B7
:100830007047013303F00703F8E700BFCC1601202F
:10084000CB16012082B0ADF80410C1F307210629B0
:100850000CD89DF80430102B08D848B901EB0111D1
:100860001944044B33F8110002B070470020FBE735
:100870000120F9E720670008E72850D8DF2807D8CB
:10088000312865D00ED8292858D02A2867D070473B
:10089000A0F1E003072B42D8DFE803F0154124293B
:1008A00033413D42392804D0822802D0352840D037
:1008B0007047334B1A7892075CD15B7813F0080FBE
:1008C00018BF292070472E4A1378D9074ED4527882
:1008D00012F0010F23D013F0100F08BFE32018BF50
:1008E00000207047264B1B7813F0040FF2E7244AD0
:1008F000137859073CD45278D2073BD413F0100F29
:10090000EDE71F4B5A78910709D51B7813F0100FAC
:1009100008BFE720E3E71A4B1B781A07F6D47047A5
:10092000174A1378190727D452789107E6D5E4209F
:100930007047134B1B7813F0200FC1E7104B1A7848
:1009400092061BD45B7813F0080F18BF392070474C
:100950000B4B1B7813F0400F18BF2A207047084B31
:100960001B7813F0400F18BF3120704739207047B3
:10097000E2207047E0207047E62070473520CEE740
:10098000AE16012010B52F4C21784B0713D500F07F
:100990001402A2F1040C00F01803DCF1000242EB97
:1009A0000C02A3F1080CDCF1000343EB0C039A42A8
:1009B00018BF80F00C000B0713D500F01402A2F151
:1009C000140C00F01803DCF1000242EB0C02A3F15E
:1009D000180CDCF1000343EB0C039A4218BF80F0C3
:1009E0000C006478E30713D500F0110202F1FF3C1C
:1009F00000F01803DCF1000242EB0C02A3F1080C3A
:100A0000DCF1000343EB0C039A4218BF80F00900AD
:100A1000A30711D500F0110200F01803A2F1110490
:100A20006242A3F1180C6241DCF1000343EB0C03BA
:100A30009A4218BF80F00900CB0648BF00F0E700DB
:100A400010BD00BFAE16012038B5FFF715FFB0F599
:100A5000A04F044635D2B0F5804F80F09D80DF284E
:100A600013D9B0F5005F25D3C0F30420FFF78AFF48
:100A70000546E0B2FFF700FF2D0205F4F8550543E7
:100A800045F40055ACB2204638BDCC2873D8A72811
:100A900009D8A42861D80128F5D0031F9BB2A12B47
:100AA00028BF0024EFE7A0F1A8039BB21A2B5AD964
:100AB0000024E8E7FF2861D8A0F1E0039BB2082BEF
:100AC000EEE745F25F23984220D845F23F23984253
:100AD00077D845F21F23984206D900F01F044AF246
:100AE000F10343EA0424CEE7B0F5A44F5DD200F051
:100AF0001F00FFF747FFC30676D4C4F3431400B2C8
:100B000040EA042040F4104084B2BCE745F2BF2321
:100B1000984214D845F29F2398425DD8A0F5A4438B
:100B2000603B9BB21F2BC3D800F003040123C0F32A
:100B30008202A34043EA421343F40A433FE0A0F594
:100B4000A543403B9BB21F2BB2D8040204F4F854D7
:100B500044F4204444F0F00495E7A0F1240444F464
:100B60008044A4B28FE75834204BE4B233F81440E9
:100B700044F4884487E740F4A044F2E7C0F3072038
:100B8000FFF700FF0546E0B2FFF776FE2D0205F401
:100B9000F85540EA0504E4E7C0B2FFF76DFE04F43F
:100BA0007064044344F42044DBE700F003040123B1
:100BB000C0F38502A34043EA421343F40D439CB2C1
:100BC00061E700F003040123C0F38202A34043EA7B
:100BD000421343F40C43F2E700F01F00FFF7D2FE8C
:100BE000040204F4F8544EE7000186E70E6800089A
:100BF0007FB5114BADF804001D88104B1B881D43B9
:100C0000ADB20F2445FA04F3DB0705D4013CF9D259
:100C10000026304604B070BDBDF80430ADF80C308D
:100C2000E6B203993046FFF70DFEFFF70DFF80B2E5
:100C30000128EBD0EDE700BFC8160120C616012041
:100C400013B502884379ADF80420019873B169B1F6
:100C5000FFF7CEFF044601460198FFF791FD019989
:100C6000204602B0BDE81040FFF7ECBDFFF7B2FD33
:100C70000446F4E71FB5ADF804000198FFF7B8FF8C
:100C8000BDF80430ADF80C300399FFF7DBFD05B07B
:100C90005DF804EBFFF7D8BE08B503460079A8B1AC
:100CA0001888FFF7E7FFC3B2C0F30330062813D05C
:100CB00094BF0E30063000F00F00012810D8F02B42
:100CC00010D004D8E72B8CBF0020012008BDF42BE6
:100CD00014BF00200120F9E7E72B03D9F12BF7E738
:100CE0000020F3E70120F1E7002070470020704763
:100CF000704730BFFDE70000F0B5234CA45C00292D
:100D00003FD000EB4005FF226D00B5FBF2F56FF020
:100D100054026A4302EB400000EB4000C0B2C0F155
:100D2000FF0211FB00F64A4336121212C1F1FF070F
:100D3000C6F1FF06C2F1FF02674366436243C7F391
:100D40000727C6F30726C2F30722062D14D8DFE8CB
:100D500005F004060C0A0F130400264614465E70C4
:100D60001C709F70F0BD224634463E461746F6E79B
:100D7000164622463C46F9E722463C46374616468A
:100D8000EDE727462646EAE7C4640008084A1378D8
:100D9000032B09D8012161F387031370D378782BD3
:100DA00084BF7823D37070471F2BF7D90721F2E750
:100DB000B8160120094B1B7813F0010309D1084A2A
:100DC00019460133662B51701170917002F10302C4
:100DD000F7D10348662103F049BC00BFB8160120D3
:100DE0000013002070B5114B114E04460025F27817
:100DF0002079B178782A284405F1020528BF7822A5
:100E0000C0B2EDB2FFF778FFCC2D03F10303EED1B2
:100E1000FFF7D0FFA37813F0010F237914BF01333C
:100E200003F1FF335BB2237170BD00BF00130020DC
:100E3000B816012000B1104708470000064A074BCA
:100E4000002918BF134623F00F0203F00F031069A7
:100E5000D84000F0010070470A0402400F00024031
:100E60001C4970B507220126202406FA02F303402C
:100E70000C8319D00023072B06D14C830023032BAE
:100E80000AD1013AF1D270BD00BF00BF00BF00BF60
:100E900000BF00BF0133EEE700BF00BF00BF00BFCF
:100EA00000BF00BF0133EAE71D46032D0AD14C8382
:100EB000072BE6D000BF00BF00BF00BF00BF00BFD0
:100EC0000133F5E700BF00BF00BF00BF00BF00BF98
:100ED0000135EAE700000240024B186808B10368D8
:100EE00018477047641601200B4B07B51A888242D9
:100EF0000ED01880094B1B6853B103228DF80500F2
:100F0000000A8DF806001B698DF8042001A8984797
:100F100003B05DF804FB00BFAA0E00206416012098
:100F20000B4B07B51A8882420FD01880094B1B68FB
:100F30005BB104228DF80500000A8DF806001B69DC
:100F40008DF804200DEB0200984703B05DF804FB18
:100F5000A80E00206416012010B5164B1B7893B123
:100F6000154B93F90030002B0DDAEF284FEAD00330
:100F700008D8124A1A4400F00700917801238340F0
:100F80000B43937010BD0E4900224FF0FF3311F850
:100F9000014FA042F6D0B3F1FF3F01D104B953B2E3
:100FA0000132062AF3D15A1CECD0064A1344987039
:100FB000E8E700BF200C0020AE160120500E0020F4
:100FC000710E0020700E002010B5124B1B789BB1E3
:100FD000114B93F90030002B0EDAEF284FEAD002C4
:100FE00009D80E4B134400F007009A780121814084
:100FF00022EA01029A7010BD0023094A194612F82C
:10100000014F01338442DBB208BF1170062BF6D1C9
:10101000F1E700BF200C0020AE160120500E00208A
:10102000710E002070B5302383F311884FF0804398
:10103000114812495C6A03680A68E41AA242104A1D
:101040000AD9A3F58333E03B036010680D4B04F528
:1010500083340344E03413600C601668002181F38C
:1010600011880948094A4FF47A750023E4FB050109
:10107000FFF772F9304470BD401501203C15012086
:101080003815012088598F029F860100A086010033
:10109000BFF34F8F0549064BCA6802F4E062134361
:1010A000CB60BFF34F8F00BFFDE700BF00ED00E056
:1010B0000400FA0510B5244A0023536090F85F40FD
:1010C00090F85E1041EA042190F8604090F86100C9
:1010D00044EA00200C0A032C16D005D8012C0ED0AF
:1010E000022C2DD018461BE0212C1BD0222CF9D12C
:1010F000E8B10128F6D1154B53608B2302E0144B65
:101100005360122310460BE0C9B20229EAD8114BF2
:1011100053F82100104B506000285B5C18BF10464C
:10112000136010BD38B10128DCD10C4B04E00C4B2E
:1011300053604423E6E70B4B536003480923EFE772
:10114000094B53603B23DDE7A00E002080630008BD
:101150008A640008A06400089C6400087A6400089F
:101160000B640008616400084F64000870470000C9
:1011700090F8622090F86300084942EA0022022AAF
:101180000B7807D1012B01D0062B05D1044B4A78EF
:101190001A707047024A1370704700BF9C0E0020FF
:1011A0009B0E0020302383F31188002383F31188E2
:1011B00070470000014B1878704700BF9B0E00205D
:1011C00070470000034A516853685B1A9842FBD885
:1011D000704700BF001000E0C27A53099B0003F182
:1011E000604310B503F5614302F01F04012101FAC9
:1011F00004F4C3F88040C3F8804102F1604303F572
:101200006143002283F80023837A104A99401368CF
:1012100023EA01031360DAB24AB90D4A116B21F4D3
:1012200000111163116D21F400111165126D13F499
:101230007F4F09D1064B1A6B22F480021A631A6D94
:1012400022F480021A651B6D10BD00BF341401200A
:1012500000380240436B4FF400421A6000221A60CB
:101260005A605A61036B1A68116821F01F011160FE
:101270001168C907FCD4597A5A683D238B40136022
:10128000C36A1A68116821F01F0111601168C9074B
:10129000FCD4597A5A683D238B4013607047000094
:1012A00011F00C0F10B5446B04D072B60B4B0C4A06
:1012B000DA65FEE7036B1A68116821F01F011160FF
:1012C0001168C907FCD4597A5A683D238B401360D2
:1012D000636843F40073636010BD00BFC014012055
:1012E000C45B0008036F70B5C46E9E6800224FF0A7
:1012F000FF3504EB42135101D3F800090028BEBFAB
:10130000D3F8000940F08040C3F80009D3F8000B7F
:101310000028BEBFD3F8000B40F08040C3F8000B9C
:1013200001326318B242C3F80859C3F8085BE0D928
:101330004FF00113C4F81C3870BD00EB810370B589
:10134000DD68C36E6C69266826614A014EBB1A448B
:101350004FF40020C2F810092A6802F00302012AA3
:101360000AB20ED1D3F8080803EB421410F4807FC0
:10137000D4F8000914BF40F0805040F00050C4F889
:10138000000903EB4212D2F8000940F00440C2F811
:101390000009D3F8340801228A400243C3F83428F4
:1013A00070BD19B9402E84BF4020206020682E8A6D
:1013B0008419013CB4FBF6F440EAC44040F000500C
:1013C0001A44C7E7F0B400EB81040789E4680125FB
:1013D00064698D403D43058123600023A260636002
:1013E000E360F0BCFFF7A9BF10B590F84C30142BA8
:1013F00004462DD01CD8062B05D001D81BB110BD3A
:10140000093B022BFBD8E36ED3F8002942F400120B
:10141000C3F80029D3F8002B42F40012C3F8002BC4
:1014200063681B6813B1062120469847062318E01D
:10143000152BE4D10B2380F84C30302383F3118833
:1014400000231A461946FFF7BDFF81F31188D6E73E
:10145000C3689B695B68002BD1D1836D03B198474A
:10146000002384F84C30CAE74B6843608B68836084
:10147000CB68C3600B6943614B6903628B6943624C
:101480000B6803607047000005480178052906D104
:1014900090F86830037043681B6803B118477047C1
:1014A0007C15012010B5C468A26913681361402B34
:1014B00084BF402313601168638AC26E19440139E6
:1014C000B1FBF3F14B43033323F0030343EAC1437E
:1014D00043F0C043C2F8103B236803F00303012B21
:1014E0000CD1D2F8083813F4807FD2F8003B14BF37
:1014F00043F0805343F00053C2F8003BD2F8003B66
:1015000043F00443C2F8003B10BDC36810B44489E3
:101510009B6944F0010444811A6000225DF8044B89
:1015200099605A60DA60FFF7BDBF10B590F84C3093
:101530000446002B40D0063BDAB20F2A36D80F2BD8
:1015400034D8DFE803F03933330825343333333309
:1015500033333333393990F8623090F86320416D7A
:1015600043EA0223994213D2C3681B8AB1FBF3F208
:1015700003FB121161B9302383F311880B460A462D
:10158000FFF720FF81F311880A2384F84C300DE027
:10159000142384F84C30302383F311880022114641
:1015A0002046FFF7B2FF002383F3118810BD836D3F
:1015B00003B198470023E8E7E36ED3F8002942F42B
:1015C0000012C3F80029D3F8002B42F40012C3F82C
:1015D000002B63681B6813B1062120469847062339
:1015E000D3E70000F0B5254E0124376884403C4223
:1015F000024640D106EBC20C3C43CCF80410204913
:10160000CCF808101F4934600C6B1F4B44F40014D5
:101610000C630C6D0C25454344F400140C65096DF6
:1016200059590C6824F01F04E8180C600C6814F079
:101630000104FBD10C2505FB02333D225E7A5D6877
:10164000DB7AB2402A6021220C604A6103F16042D9
:1016500002F56142502182F8001303F01F015B097B
:101660009B0003F1604303F5614301228A40C3F804
:1016700080211A60F0BD0020FCE700BF3414012077
:101680001817012000380240C465000870B53023E7
:1016900083F311882F4D304B6B602B780022012B88
:1016A000EA602A616A61AA61EA612A624CD12B4B25
:1016B000EC6E596B41F080015963596D41F0800126
:1016C0005965596D596941F080015961596921F095
:1016D000800159615B69224BE02183F843130821A3
:1016E000C3F8881199601F4BE3601F4BC4F80038A2
:1016F000C023C4F8002E23604FF48033A363236912
:10170000002BFCDA012323610C20FFF75BFD23692A
:10171000DB07FCD41220FFF755FD2369002BFCDA10
:1017200000260C48A660FFF7DDFD104BC4F81068DA
:10173000C4F81468C4F81C68A3614FF0FF336361F8
:10174000A36843F00103A36002232B70002383F3FB
:10175000118870BD7C150120FC660008003802402D
:1017600000E100E04014004003002002083C30C0CB
:10177000890141F02001016103699B06FCD412201C
:10178000FFF720BD10B5064A064C117824784B1C93
:1017900003F00F039C421EBF034C1370605410BD36
:1017A00079150120781501206815012030B5084B06
:1017B0001C785D78621C02F00302AA4206D01C4429
:1017C00000F07F0040EAC111A1701A7030BD00BF67
:1017D00039160120F0B50D4B0D4C1B7826780D4CB9
:1017E000B34201D10020F0BD04EBC3056F788F42F6
:1017F00006D114F83370874202D16D79954203D136
:10180000013303F00703EBE70120ECE7CC160120DE
:10181000CB160120CE16012010B51B4B1B4A1B789E
:10182000127813431A4A1278DAB11A4A92F9002050
:10183000002A16DA184C1949637020222046FEF758
:10184000E7FE00B3154820222146FEF79FFD144B0A
:101850001B68C3B106229B6822702046BDE8104079
:101860001847104C1049237008222046FEF7D0FE7E
:1018700048B10D4808222146FEF788FD084B1B6839
:101880000BB15B68E9E710BDCA160120C416012040
:10189000200C0020AE160120500E00204216012020
:1018A00064160120700E00206816012008B503465A
:1018B000002845D082280BD13920FFF74DFBFFF7D8
:1018C000ABFF3920FFF780FBBDE80840FFF7A4BF5E
:1018D000832806D15320FFF73FFBFFF79DFF5320DE
:1018E000F0E7842806D14720FFF736FBFFF794FF87
:1018F0004720E7E7021FD2B2A02AE3D900F1200275
:10190000D2B2072A09D80F4900F0070301229A40F2
:101910000B7823EA02030B70D6E700F15B02D2B228
:10192000022A04D8BDE808400020FFF7DDBA58338A
:10193000DBB21A2B04D8BDE808400020FFF7F0BA4C
:1019400008BD00BFC416012028B1034B1A7810430C
:101950001870FFF761BF7047C416012030B1044A08
:10196000137823EA00031370FFF756BF704700BFD8
:10197000C416012002484FF6FF720021FEF7A0BDF9
:1019800034140020084B1B784BB1084B93F90030FE
:10199000002B04DA06481E220021FEF791BD0548FF
:1019A00006220021F9E700BF200C0020AE1601201E
:1019B000520E0020720E00202DE9F84300EB810644
:1019C00081465069F2600C4615460FB218B11422D8
:1019D0000021FEF775FDA86918B114220021FEF759
:1019E0006FFDF368D9F86C501E6806F00306721E8E
:1019F000022A05EB44124FF00001C2F8101B04F15B
:101A000010014FF0010298BFB60402FA01F2996981
:101A10008EBF344E06F1805606F50046600100295F
:101A20003CD0B3F812C004F1580149014CEA060C4D
:101A300045F801C0D5F81C180A43C5F81C282A1817
:101A40000021C2F810195A694FF00108611E08FA06
:101A500004F882B31F8A9B8BBA08012B88BF5A43B4
:101A6000D9F87430D01843EA024201F1400305EB83
:101A70008303214647EA845748346401C9F8740057
:101A800037435A602846FFF773FE2F51D5F81C38AC
:101A900048EA0303C5F81C38BDE8F88305EB471C8A
:101AA000DCF8001B21F40041CCF8001BD5F81C1811
:101AB00021EA0202C1E704F13F0305EB83030A4A6E
:101AC0005A6005EB471721462846FFF751FED7F825
:101AD000003923F40043C7F80039D5F81C3823EA4D
:101AE0000803D7E7008000100004000210B5044688
:101AF0000846052921D8DFE801F01A20031A1A1E2A
:101B0000302383F311880D4A20460121FFF754FF4B
:101B10000B4A02212046FFF74FFF002383F3118871
:101B2000084B1B7813B10520FFF72CFE0220BDE8FF
:101B30001040FFF727BE0520F9E710BD5C630008E1
:101B4000386300087A15012070B50D46144600214F
:101B50000646FEF7B5FC6319B3F5803F03D3C5F520
:101B60007F44FF343CB10449224629443046BDE855
:101B70007040FEF70BBC70BD3414002007B5002385
:101B8000014601220DF107008DF80730FFF7DCFF59
:101B90009DF8070003B05DF804FB07B5002301467C
:101BA00002220DF10600ADF80630FFF7CDFFBDF8BB
:101BB000060003B05DF804FB13B5042200230DEB0F
:101BC000020008210193FFF7BFFF2420019CFFF7CB
:101BD000D5FF0146204602B010BD00000B4651184B
:101BE000B1F5803F03D3C3F57F42FF3222B10146F6
:101BF00002481844FEF7CABB704700BF34140020E7
:101C000037B50C460546FFF7B9FFA04207D00122C1
:101C100029460DF107008DF80740FFF7DFFF03B0FD
:101C200030BD37B50C460546FFF7B7FFA04207D0D9
:101C3000022229460DF10600ADF80640FFF7CEFF5F
:101C400003B030BD37B5042200230D4604460146DB
:101C50000DEB02000193FFF777FF019B9D4206D039
:101C6000042221460DEB02000195FFF7B7FF03B0F8
:101C700030BD10B50C46FFF789F801460820FFF784
:101C8000E1FFE1B22420BDE81040FFF7B9BF00003A
:101C9000044A13790BB1013B1371D2E90001FFF73C
:101CA000E8BF00BFB8160120044A1379022B9CBF7D
:101CB00001331371D2E90001FFF7DBBFB816012031
:101CC0002DE9F743204C25781646EA070746894652
:101CD000984636D51D4AAB0805F0FC05D35C1C4A76
:101CE000042D137029D1782E01AB324628BF7822FB
:101CF000FFF702F82378DB0711D59DF805009DF862
:101D000004109DF80620134D00230133662B6870E4
:101D10002970AA7005F10305F7D1FFF74BF867703A
:101D200084F80290E670B8F1000F0AD0D4E90001FF
:101D300003B0BDE8F043FFF79CBF022B08BF6778F4
:101D4000EDE703B0BDE8F083B8160120BC640008DD
:101D5000B11601200013002004494878CA78897818
:101D600008300123C0B2FFF7ABBF00BFB816012097
:101D700004494878CA78897808380123C0B2FFF747
:101D80009FBF00BFB816012005488178C27840780F
:101D90000A31FF2928BFFF210123C9B2FFF790BFF5
:101DA000B816012005488178C27840780A3921EABE
:101DB000E1710123C9B2FFF783BF00BFB81601204C
:101DC0000548C278817840780A32FF2A28BFFF226E
:101DD0000123D2B2FFF774BFB81601200548C278BC
:101DE000817840780A3A22EAE2720123D2B2FFF700
:101DF00067BF00BFB816012070B5194C2378DB0708
:101E00002CD508B3072821D800F03F00237860F3D1
:101E10008703237019B1D4E90001FFF72AFF217865
:101E20001048114D01228908FEF7A2FB0F4B78B133
:101E300000225A700123EB70E278A17860780023C9
:101E4000BDE87040FFF73CBF0120DFE70720DDE77A
:101E500001225A70FFF7E6F82880EBE770BD00BF5B
:101E6000B8160120070C002030160120B116012001
:101E7000054B18788008013008284FF0010128BF71
:101E80000846FFF7B9BF00BFB8160120064B187807
:101E9000C0F38500013810F0FF004FF0010108BFCA
:101EA0000720FFF7A9BF00BFB8160120084B1B7819
:101EB000DA0708D5C3F385033E3303F03F03042B51
:101EC00001D8FFF7D5BF01210220FFF795BF00BF62
:101ED000B816012008B50A46642301467A2003F0AB
:101EE000A5FCB0FA80F0400908BD0000074B1B7844
:101EF00010B54BB1064C237833B106480221FFF7E9
:101F0000E9FF08B10023237010BD00BFF80E0020C8
:101F1000AC160120465C00080A4B1B7810B583B153
:101F2000FFF780F8084C094B00F56A4060301860F4
:101F3000237833B906480221FFF7CCFF08B101230B
:101F4000237010BDF80E0020AC160120F40E002006
:101F5000445C000810B503689C68A2420CD85C6819
:101F60008A600B604C60216059609968891A996099
:101F70004FF0FF33836010BD1B68121BECE70000BD
:101F8000022910B538BF022102234FF080444218C5
:101F90006263626A101A814203D8591C0B461046CC
:101FA000F5E7022B81BF034AD36A43F00103D362F2
:101FB00010BD00BFC0140120194A1369984210B423
:101FC0000FD00368416884680B60596099682144A8
:101FD0009960002303604FF0FF3393615DF8044B79
:101FE00070471346016843F8101F00244B600460DB
:101FF0001169994203D14FF08043DC60EEE78B68B2
:10200000806803448B604FF08041486AD169421A6E
:102010009342E3D9091A5DF8044B1944FFF7B0BFA6
:10202000C014012070B5134D05F11003E961436040
:102030002B698260022A036038BF0222586028613F
:102040004FF080408B184363002303610223C36079
:10205000446A661A964205D35A1C114441631346DA
:102060002146F5E7022B82BFEB6A43F00103EB62E6
:1020700070BD00BFC0140120F8B5114F3C464FF0B1
:10208000804354F8106F5B6AA64205460A4604D1A5
:102090001946BDE8F840FFF7C5BFFC69B2681C1BD4
:1020A0000C1928BF0C46A24202D91846FFF768FF58
:1020B000224629460348BDE8F840FFF74BBF00BF62
:1020C000C0140120D014012070B5094C23680546C6
:1020D0000E4613B12046FFF76FFF064BE360002367
:1020E0002661636129460248BDE87040FFF7C4BF1E
:1020F000201501205522000838B590F85C2002F028
:102100007F03212B044679D112F0800F90F85D30C7
:102110002FD0022B29D0032B1CD0012B6ED190F88D
:10212000603090F8612053EA022306D1414A0265EB
:1021300008226265A365012038BD3F4B90F85E2000
:102140001A7090F86220036590F8633042EA032227
:102150000023EEE790F8603090F8611053EA012315
:102160004CD1364A02650122E3E7354B0365012273
:10217000EEE70A2B39D00B2B10D0092B01D0002011
:10218000DAE790F8603090F8612043EA0223012BEF
:10219000F5D82C4B036502222B4BCAE790F8603030
:1021A00090F8612053EA02231CD190F85E50234B33
:1021B0001D70BDB9224B1A78A2B1302282F311886A
:1021C0001878224BA0FB03034FF47A72002300F22D
:1021D000E7300021FEF7C0F821468000FFF774FFCA
:1021E00085F3118800222265B2E71949144B09785A
:1021F00090F85F201A70CD09F4D1DDE702F09F025C
:10220000812ABCD194F85D30062BB8D194F86120B6
:10221000616894F860304D6894F85E1043EA0223D8
:10222000204694F85F20A8470028A8D04368026899
:1022300023658DE7930E00208B0E0020200C0020DC
:102240008A0E00209C0E002071110008A08601005B
:10225000AE16012038B50C46302383F311880B7875
:10226000042B03D0002383F3118838BD124B1B7855
:10227000DB09F7D1114D2B78002BF3D0104B1B78D5
:10228000002BEFD00B899B0705D40E4A08230121B0
:102290002046FFF797F828780B4BA0FB03034FF479
:1022A0007A72002300F2E7300021FEF755F821464C
:1022B0008000FFF709FFD5E7AE1601208A0E002047
:1022C000200C0020930E0020A0860100002303753F
:1022D000826803691B6899689142FBD25A6803605F
:1022E00042601060586070470346006820B10022C9
:1022F0001A608161FFF7EABF7047000011F00C0F10
:1023000038B5436B04D072B6144B154ADA65FEE754
:10231000C26A11680C6824F01F040C600C6814F089
:102320000104FBD1557A51683D22AA400A605A68DF
:1023300022F480525A601A6822F480621A601A6885
:1023400042F400721A60302383F3118821461C3056
:10235000FFF7CAFF84F3118838BD00BFC014012005
:10236000C45B00082DE9F84390F84C30044613B1E3
:10237000002380F84C3004EB81010822CB6804F183
:102380005C00196AFEF702F863689B68E3B994F889
:102390005C3013F060053ED0E36ED3F8002942F4C0
:1023A0000012C3F80029D3F8002B42F40012C3F83E
:1023B000002B63681B6813B106212046984706234B
:1023C00084F84C30BDE8F883204698470028DED0DA
:1023D00094F8632094F8623043EA0223626D9A42D3
:1023E00088BF636594F95C30656D002B4FF0300356
:1023F00080F24081002D00F03081092284F84C20C9
:1024000083F31188636D226D00212046FEF7DAFF09
:1024100081F31188D6E794F85D2003F07F0343EA47
:10242000022340F20232934200F0FB8021D8B3F540
:10243000807F4DD00DD8012B44D0022B00F0BE8000
:10244000002BA9D104F16402226502226265A36512
:10245000BEE7B3F5817F00F0C580B3F5407F9BD127
:1024600094F85E30012B97D1B4F8643043F0020346
:1024700037E0B3F5006F58D01CD8B3F5A06F36D055
:10248000A3F5C063012B87D894F86120616894F8A4
:1024900060304E6894F85F1043EA0223204694F8B7
:1024A0005E20B04700283FF477AF43682365036898
:1024B00063651AE0B3F5106F3CD040F602429342D8
:1024C0007FF46AAF774B2365022363650023BEE781
:1024D00094F85E30012B7FF45FAFB4F8643023F0E2
:1024E0000203A4F8643025656565A56570E7B4F856
:1024F0005C30B3F5A06F14D194F85E10E26E84F8EE
:102500006610D2F8003823F4FE6343EA0113C2F8E0
:10251000003863681B6813B10121204698470323E4
:10252000237000232365636591E704F16703236546
:102530000123BDE72378042B30D1302383F31188A6
:10254000A36803F00113A36004F10C0604F1200951
:10255000A84656F8047F6FB1786920B16FF0010189
:102560000C30FFF7C1FEB86920B16FF001010C30EB
:10257000FFF7BAFEB1453560EBD1236F1B68636787
:102580002046FEF7AFFE88F311880321636884F8C4
:10259000675021701B680BB12046984794F85E3055
:1025A000002BBED084F867300423237063681B6857
:1025B000002BB6D0022120469847B2E794F860106D
:1025C000E26E080601F00F030AD548335B01D358C9
:1025D0001A047FF5E1AE99024CBF334B334B72E7DF
:1025E0005833F3E794F85E30002B7FF4D5AE94F8BF
:1025F000601011F00F0294D0E36E12B211F0800F50
:1026000003EB421306D0D3F8002922F40012C3F8DA
:10261000002986E7D3F8002B22F40012C3F8002B20
:102620007FE794F85E30002B7FF4B6AE94F860102C
:1026300011F00F023FF475AFE36E12B211F0800F8C
:1026400003EB421304D0D3F8002942F40012DEE772
:10265000D3F8002B42F40012E0E7142284F84C2057
:1026600083F311882A4629462046FEF74EFF85F35C
:102670001188A7E66DB1152284F84C2083F31188E8
:10268000626D216D2046FEF740FF002383F3118821
:1026900098E60B2284F84C2083F311882B462A46B7
:1026A0002946B2E6D4610008D2610008D061000872
:1026B0002DE9F8433F4DD5F86C8008EB40130446F4
:1026C000D3F80899C3F8089919F0010F4FEA40169A
:1026D00019D0D8F81038DB0715D5871C05EB870310
:1026E00059684B6918681A6990422CD2121A00274F
:1026F0001A605F60302383F3118821462846FEF775
:102700001CFE87F3118819F0800F1AD0D8F83438DE
:102710000120A040034214D005EB8403ED6EDF6876
:102720000134E4B2796905EB043405EB060ED1E916
:1027300000369E4221D3D5F8343823EA0003C5F889
:102740003438BDE8F8832B890122A24023EA020332
:102750002B818B6813B1214628469847302383F399
:10276000118805EB870700217B6858690C30FFF75B
:10277000BBFD002383F31188C5E73A8A9B1B934274
:1027800028BF1346DEF8182992B2B3EB820FD8D8CF
:102790008A68A2F1040858F804CFC4F800C0A2EB7C
:1027A000080C9C44BCF1040FF5D81A4433448A60E9
:1027B0004B60BCE77C150120F8B5294DEE6E06EBA9
:1027C00040130446D3F8087BC3F8087B38070AD5C2
:1027D000D6F81438190706D505EB84032146DB68C3
:1027E00028465B689847FA071FD5D6F81438DB07E8
:1027F0001BD5A61C05EB860359688B69B4B9488ABA
:102800005A68B2FBF0F700FB17227AB918681A6908
:1028100090420BD2121AC3E90024302383F31188AB
:102820000F48FEF73FFE84F31188F8BD6B89012243
:10283000A24023EA02036B81CB6813B1084821460A
:102840009847302383F3118805EB86056B689869F8
:1028500041680C30FFF748FD002383F31188E4E75B
:102860007C15012008B50846302383F311880A7DC2
:102870000023052A06D8DFE802F00B050503120E37
:10288000826913604FF0FF338361FFF71FFD002360
:1028900083F3118808BD82699368013393604268AD
:1028A000036813605A60EDE7054BD968087518682E
:1028B00002681A60536001220275D860FDF732BDCC
:1028C000C014012030B50E4BDD684B1C87B00446A8
:1028D00012D00C4B03936846002305930495FFF731
:1028E000CBFB2046FFF7E0FF009B13B16846FFF7E4
:1028F00063FBA86907B030BDFFF7D6FFF9E700BF5B
:10290000C014012065280008054BDB6821B1036075
:1029100098610320FFF7D6BF4FF0FF30704700BF2C
:10292000C014012070B5302304460D46164683F3CB
:1029300011880F480378042B03D0002383F31188F8
:1029400070BD02890123A34013420AD000EB84002A
:102950004FF47A71C36858690C30FFF7D5FF013026
:10296000EBD0034833462A462146FEF72BFDE4E729
:102970007C15012007B50C4B1B688DF80130C3F3A3
:1029800007218DF80210C3F3074105228DF80310CB
:102990001B0E694602208DF800208DF80430FFF7E9
:1029A000C1FF03B05DF804FBC01601200A4B10B54F
:1029B00000241C70FEF7E6FF2046FEF795FA20463D
:1029C000FEF7AEFA054B1C70FEF726FF044B1C60A9
:1029D000BDE81040FFF7CEBFC4160120CA16012083
:1029E000C016012010B50146044608220120FFF759
:1029F00099FF082221460248FDF7C8FC10BD00BF20
:102A0000930E0020014620220220FFF78BBF0146D3
:102A100003220220FFF786BF302383F31188104B77
:102A20005B6813F4006317D0F1EE103AEFF30983FB
:102A3000683B4FF08072DA610A4AD26B1A6683F300
:102A40000988094A1168D2688968926891428CBFE6
:102A5000064A074A9A61704783F31188704700BF9E
:102A600000ED00E000EF00E0C01401204F0300087B
:102A7000520300080A28F8B5064604D10120BDE833
:102A8000F84000F053B80D2801D10020F7E7214DA0
:102A900021482C6806222146FDF778FCDF2E2FD92D
:102AA000062200212046FDF70BFD21461A4806228A
:102AB000FDF7AEFD1949641AA3B260B1184E1C4669
:102AC000378801209A09053400FA02F2A4093A4332
:102AD000A04002433280134A063312789BB2B3FB04
:102AE000F2F002FB1030121AD2B2052A9CBF9B18DA
:102AF0009BB2B3F5806F28BF002319442960F8BD4D
:102B0000094906EB4606062201EB46012046FDF781
:102B10003DFCCAE7FC120020840E0020FA0E0020C3
:102B2000F00E0020F90E00206A5C000870B5124D0E
:102B3000124C2A68124B121B1B7891B2B1FBF3F6B0
:102B400003FB16169B1BDBB258B10622B3FBF2F453
:102B5000631EDCB2FF2C00D170BD2020FFF78AFF7E
:102B6000F6E71944B1F5806FAABF034692B21A4640
:102B70001A4414442C60EFE7FC120020FA0E0020E7
:102B8000F90E002038B50446FDF77AFD2518A54258
:102B900000D838BD14F8010BFFF76CFFF7E7000011
:102BA0002DE9F04F734E337885B0002B00F0DF80B5
:102BB0007149724B724A0978724C1B78146069B380
:102BC000234471481360FFF7DDFF704B1A88130A26
:102BD000002B18BF1A464FEA920343EA121343EA46
:102BE00052039BB20CBF00210821002B6AD100299F
:102BF00068D16748FFF7C6FFFEF76EF9654F10F022
:102C0000010F0546644808BF3846FFF7BBFF15F0C3
:102C1000020F624808BF3846FFF7B4FF604F3B8899
:102C2000002B3DD03378002B3AD05E4B1D78002D21
:102C300036D1FFF771F9398891B32A46D6B241FAF5
:102C400006F0C007134602F10102F7D5564D2A7867
:102C5000D207DBB23DD49B01710803F0400303F1BE
:102C60003F020F4651488171072183704771C2703E
:102C7000FFF730F9A0B12B78DB074FEA86172FD486
:102C800064230093E219402319467A2002F002FEE1
:102C900030B9434901220B88B24023EA02030B807A
:102CA000354B1B78002B62D0FEF7BCF9404B1B68FC
:102CB000C01A6FF00043984259D205B0BDE8F04FFA
:102CC000FFF714B93B48FFF75DFF0120FFF72EFF28
:102CD00092E7DB00DBB2DA1DD2B200270721C1E7A1
:102CE0003548DFF8D8B0DFF8D8A040220021FDF742
:102CF000E7FB00201BF8013B224A3B4413441AF82F
:102D0000012B03932C4B013A1A4400240123C4F1F4
:102D1000070803FA04F912F801EF5FFA88F85FFA7E
:102D200089F90025039B595DA8EB050309EA010118
:102D300003F0070301FA03FC5B4203F00703D940E9
:102D40004CEA010C01354EEA0C0C082D5FFA8CFEA2
:102D5000E8D10134082C82F800E0D7D10130C0B2AC
:102D60000828C7D164230093134A40238CE705B099
:102D7000BDE8F08FF80E0020AC160120F90E0020FF
:102D8000FC120020FA0E0020DF5B0008C8160120AC
:102D9000E75B0008D55B0008D05B0008DA5B000841
:102DA000F00E0020EE0E0020ED0E0020000C0020A2
:102DB000F40E0020F05B0008AD0E0020B4640008A3
:102DC000AC64000810B51D4C002323701C4B8022FE
:102DD0001A7002F003FD1B480B21FFF77BF848B384
:102DE00023789B074FF0050125D41748FFF772F8A9
:102DF00000B316480D21FFF76DF8D8B1FEF712F9B0
:102E0000134B00F56A4060301860124B4FF480623B
:102E100018460021FDF754FB0F4A104B10604FF687
:102E2000FF721A800E4A012313700E4A13700E4B64
:102E300000221A7010BD0D48D8E700BFED0E00202B
:102E4000F90E00205F5C00085A5C0008485C00082E
:102E5000F40E0020FA0E0020FC120020F00E0020DC
:102E6000F80E0020AC160120EE0E0020555C000884
:102E700070470000794A08B552F8041C784B994213
:102E800030D1002342F8043C72B6BFF34F8FBFF33A
:102E90006F8F744A516A21F480315162D2F89410D4
:102EA00021F00101C2F894104FF0E0224FF0FF3101
:102EB0001361936153619A0002F1604202F561422D
:102EC0000133082BC2F88010C2F88011F3D100231F
:102ED00083F31488644B1A6882F3088862B65B68CF
:102EE0009847FEE7614A62491369624843F0FF036D
:102EF0001361136923F0FF0313611369136B43F02C
:102F0000FF031363136D43F0FF031365136DFEF7A7
:102F1000ABFA1C3100F58060FEF7A6FA1C3100F513
:102F20008060FEF7A1FA1C3100F58060FEF79CFA84
:102F30001C3100F58060FEF797FA1C3100F58060C7
:102F4000FEF792FA1C3100F58060FEF78DFA1C3115
:102F500000F58060FEF788FA4FF080531364464B0B
:102F60004FF480411960136843F001031360136844
:102F70009807FCD5936823F0030393603B4B9A6852
:102F800012F00C02FBD1196801F0F90119609A6086
:102F90001A6842F480321A601A689103FCD55A6F9D
:102FA00042F001025A67314B5A6F9207FCD5334AFF
:102FB0005A601A6842F080721A602F4A53685B04A4
:102FC000FCD52A4B1A689001FCD52D4AC3F8842001
:102FD0001A6842F080621A601A681101FCD5294A09
:102FE000C3F888201A6842F080521A601F4B1A6892
:102FF0009200FCD5244A9A60244AC3F88C2000220F
:10300000C3F89420224B1A68224B9A42224B21D1BA
:10301000144A1168214A91421CD140F203121A60ED
:103020001D4A136803F00F03032BFAD10F4B9A6864
:1030300042F002029A609A6802F00C02082AFAD161
:103040005A6C42F480425A645A6E42F480425A6684
:103050005B6E08BD40F20372E1E700BF0000022092
:10306000EFBEADDE00ED00E00000FF1F00380240C3
:103070005862000800000240007000400F24400524
:10308000103040221030004200944840010080007F
:10309000002004E011640020003C024041C20F41C6
:1030A0007047FEE770B5144C082560682368A26875
:1030B000043B01468A4219D8D31C1B1AC11E23F0B7
:1030C00003038A4238BF00231844E368DA1C121A4B
:1030D000C11E22F00302994288BF00220021FDF7A1
:1030E000EFF9013D04F11004DFD170BD53F8046F16
:1030F00041F8046BDEE700BFD86100080D4B18688B
:10310000D968026810B453601A6001220275D86051
:1031100000230B758A680B691B689C689442FBD876
:103120005A680B604A605DF8044B11605960FDF706
:10313000F9B800BFC0140120F8B5302383F311881B
:10314000234D2B78012B1AD02846EC6EFEF7CAF8D7
:10315000204A00230821C4F81C38A360A363C2F8E6
:103160008810C2F8881182F843331B4B5A6B22F047
:1031700080025A635A6D22F080025A655B6D00240A
:1031800001236C602B70154D274655F8046F6EB106
:10319000706920B16FF001010C30FFF7A5F8B0693C
:1031A00020B16FF001010C30FFF79EF80134062CBE
:1031B0002F60EAD10A4B1A68DB6892689B689A42D2
:1031C00001D9FFF79BFF002383F31188F8BD00BFEF
:1031D0007C15012000E100E0003802408415012048
:1031E000C0140120302383F31188034BDB689861FE
:1031F0000F20FFF759BB00BFC014012008B50146DE
:10320000302383F311880820FFF75CFB002383F34E
:10321000118808BD10B50446002878D082280FD147
:103220003920FDF799FEFEF7F7FA4FF4FA50FFF751
:10323000E5FF3920FDF7C8FEBDE81040FEF7ECBA07
:1032400083280AD15320FDF787FEFEF7E5FA42F204
:103250001070FFF7D3FF5320ECE784280AD14720F2
:10326000FDF77AFEFEF7D8FA42F21070FFF7C6FFBC
:103270004720DFE7031FDBB2A02B24D8244B1B78A9
:10328000A3B1244B93F90030002B0FDA224B03EB50
:10329000D00300F007019A7801238B401A420ED028
:1032A0002046FDF791FEFEF7B7FA08E01B4A00231F
:1032B00012F8011FA142F3D00133062BF8D12046AA
:1032C000FDF74AFEB8E700F12003DBB2072B08D870
:1032D000134A00F0070411780123A3400B43137035
:1032E000AAE700F15B03DBB2022B05D82438BDE866
:1032F000104080B2FDF7F8BD5834E4B21A2C06D85D
:10330000084B33F81400BDE81040FDF709BE10BDAE
:10331000200C0020AE160120500E0020710E00205F
:10332000C41601200E68000838B50C460546FFF7A4
:1033300071FFA4B10B4940F2E733A4FB0141E0184F
:103340004FF47A724FF0000341F10001FDF704F8E9
:10335000FFF754FF2846BDE83840FEF7A7BA012022
:10336000F6E700BFA08601002DE9F84398460C4619
:10337000264B1646074668B11970FDF753FE244BDD
:1033800004F0070418800120A040C0B2BDE8F84353
:10339000FEF7DABA1D788D4233D11D4BB3F8009099
:1033A000FDF740FEA0EB090080B2C72829D8B5423E
:1033B0000CD140463946FFF7B7FF06F0070601205B
:1033C000B040BDE8F843C0B2FEF7C8BA05F0070543
:1033D000012404FA05F5E8B2FEF7C0FA06F120036D
:1033E000DBB2072B07D806F0070304FA03F0C0B2DC
:1033F000FEF7AAFADDE739464046BDE8F843FFF795
:1034000093BF04F007040120A040DAE7AD160120C5
:10341000820E0020037973B50446002B00F08F83E1
:103420000121FDF70DFC47F64062034693426079A7
:103430000AD0A3F5F842183A062A3AD8DFE802F093
:1034400025291A222D313500002800F078839E4B63
:103450001B7813F0110F00F072839C4B1B7823B183
:1034600002B0BDE87040FEF741BD02B0BDE870405B
:10347000FEF752BD2623E122114602B0BDE870409E
:10348000FFF772BF2723E522F6E72623E122E0219A
:10349000F3E72723E522E421EFE72623E122E221D7
:1034A000EBE72723E522E621E7E728230122E521B0
:1034B000E3E788B947F61642934240F00F81844B08
:1034C0001B78002B14BF35202920FDF77DFD02B0AD
:1034D000BDE87040FEF7A0B97E4A0026A3F5E0459E
:1034E0001670AAB2222A00F2DA800420FEF755FBF9
:1034F000794C013D2080212D12D8DFE805F055C020
:103500005D2327612B657137B83B753F799F437DFC
:10351000A749838B2F69336D4F8796B1B61E59C863
:10352000237843F00103237021880420FEF779FB00
:1035300002B0BDE87040FFF739BA637843F0080382
:103540006370F1E7237843F00203ECE7237843F05C
:103550000403E8E7237843F00803E4E7637843F0E3
:103560000103EDE7637843F00203E9E7237843F0D2
:103570001003D8E7237843F02003D4E7237843F0FF
:103580004003D0E7FFF712FA237843F08003CAE73D
:10359000237823F00C0343F00C03C4E7637823F093
:1035A000030343F00303CBE723786FF30003BAE789
:1035B00063786FF3C303C3E723786FF34103B2E784
:1035C00023786FF38203AEE723786FF3C303AAE790
:1035D00063786FF30003B3E763786FF34103AFE7FA
:1035E00023786FF304139EE723786FF345139AE76C
:1035F00023786FF3861396E7FFF7D8F923786FF3F4
:10360000C71390E7237823F00C038CE7637823F04B
:10361000030395E72378C3F3800282F00102D2B25C
:1036200062F3820362F3C3037DE76378DA4302F057
:10363000010262F3000362F3410381E72378C3F3DD
:10364000801282F0010262F386136CE7FFF7AEF995
:103650002378C3F3C01282F0010262F3C71362E75A
:1036600001210E20FEF7CCFA5EE70021F9E723786E
:10367000C3F3001282F0010262F3041353E72378CC
:10368000C3F3000282F0010262F300034BE76378A8
:10369000C3F3C00282F0010262F3C30350E747F6AE
:1036A0001642934240F08280074B1B7803F0AA0336
:1036B000002B074B13BF01220022292035201A704E
:1036C000FDF74AFC03E700BFC4160120AC16012039
:1036D000B0160120AD160120AE1601209F4A1078C9
:1036E000A3F5F042203A00F02200142A00F29E8056
:1036F000DFE812F01500320039003C003F004200C4
:10370000450048004B004E005100540025022502A0
:103710005700250225022502250225022502904B8D
:103720001878C6070ED56FF300001870D3E90001B2
:10373000FEF79FFA8B4B00225A7002B0BDE8704032
:10374000FDF738BB40F0010018700121800802B07D
:10375000BDE87040FEF750BB834A844902B0BDE823
:103760007040FDF767BB814A7F49F7E7804A81498E
:10377000F4E7804A7E49F1E77F4A8049EEE77F4AD5
:103780007D49EBE77E4A7F49E8E77E4A7C49E5E7E9
:103790007D4A7E49E2E77D4A7B49DFE70121084611
:1037A000D5E702B0BDE87040FEF780BBA3F5E84264
:1037B000403A92B23F2A49D8A3F13F027449D2B2AB
:1037C000013A012393400A6813430B60FFF7D2F8D4
:1037D00022886379ADF800200098002B5AD0FDF7BD
:1037E00007FA054601460098FCF7CAFFBDF800300D
:1037F000ADF8043001992846FDF724F8FDF724F9C7
:10380000A17962790346C3F3033009090B2873D801
:10381000DFE810F0440044007B007B00C60072002B
:1038200072007200DD003E0150015001A3F5E84234
:10383000403A92B23F2ACBD83F3B5549DBB2013BDD
:1038400001229A400B6823EA0203BEE747F60142D1
:10385000934218D047F6034293420DD0B3F5F84F88
:10386000B6D1FFF7A3F846F2A810FFF7C7FC494B03
:10387000494A1A60FDF70CFCFEF77CF84FF6FF7121
:103880003046FEF7CEF9FFF791F846F2A810FFF7A1
:10389000B5FCEFE7FCF79EFF0546A7E7C3F307215A
:1038A000C3F303250F2988BF2D01DEB292B15DB1AC
:1038B00006F12003DBB2072B00D94EB9274A137853
:1038C0002B431370FDF7A8FF3046FFF7A3FC13E06E
:1038D000324AF4E73046FDF7E9FF6DB106F1200307
:1038E000DBB2ED43072BEDB200D966B91B4B1A785A
:1038F00015401D70FDF790FF0021204602B0BDE885
:103900007040FDF79DB9254BF1E7C3F3072505F09E
:10391000F005202DC3F30320DDB218BF0001012DF7
:103920000AD122B10529E7D8FEF70EF8E4E7042909
:10393000E2D8FEF713F8DFE71AB10029F4D02846E1
:10394000C3E70029F5D0392D0CBF4FF4FA50012000
:10395000FFF754FC2846FDF7A9FFCDE7C416012068
:10396000B8160120B11601208D1E0008711E000836
:10397000711D0008591D0008A51D0008891D0008BB
:10398000DD1D0008C11D0008911C0008A91C0008CD
:10399000C0160120FCFF0120EFBEADDECA160120DB
:1039A00013F4406FC3F3812107D00129A4D162B180
:1039B000C3F30900FDF7B4FA9EE722B1C3F309008F
:1039C000FDF792FA98E71046FAE71046F2E713F48B
:1039D000407F2BD1FAB9C3F34210DD064FEA8000D5
:1039E00048BF0F22C0B248BF824003F00F0148BF5A
:1039F000D243C3F3812301FA00F148BF92B2022BF4
:103A0000504889B20ED0032B3CD0012B06D003883E
:103A1000114319400180FDF75FFA6DE703881943F0
:103A20000A4328E0038811435940F3E7C3F3012018
:103A30001AB3C207EFD5C3F3421013F010014FEAD7
:103A4000800018BF0F21C0B218BF814003F00F02E1
:103A500018BFC943C3F3812302FA00F218BF89B229
:103A6000022B394892B20FD0032BD9D0012B07D0AB
:103A700003880A431A400280CDE70128CBD9DAE750
:103A800003881A431143C5E703880A435A40F2E703
:103A9000DEB2C3F3032532B12846FCF75DFE3046A3
:103AA000FDF752FFB7E73046FDF758FF2846FCF711
:103AB0005DFEB0E7DDB2A5F1F000032827D8DFE80E
:103AC00000F00210171C52B10429A4D81E4AC3F3F7
:103AD000042101238B4011884B4013809BE705296B
:103AE000F3E7C3F30420002AE1D0FCF735FE92E7A8
:103AF000C3F30420002AF8D0D9E713492AB1C3F34D
:103B00000422012393400B8085E70A8083E73AB1C2
:103B100019B12846FFF77EFB7DE7C3F30420E4E7F5
:103B200051B1392D0CBF4FF4FA500120FFF766FB5D
:103B30002846FDF7BBFE6EE7C3F30420B7E702B0EB
:103B400070BD00BFC6160120C81601201B48F8B57D
:103B500083790F2B0AD8437943B1194B194A1B7843
:103B6000157806884788184CAB4200D1F8BD04EBA5
:103B7000C3011AB20979E1B134F83220B24218D146
:103B800004EBC3014A79A2B94A88D21B92B2C72A70
:103B90000FD88379012262F3071383718B79074869
:103BA00062F307138B71FFF735FCBDE8F840FCF7B3
:103BB00039BE013303F00703D6E700BF0E1701201B
:103BC000CC160120CB160120CE1601202DE9FF478F
:103BD0007C4D0446014606226846FCF7D7FB95F863
:103BE000049094F8008061786779B4F802A0227993
:103BF000B9F1000F12D17AB1002F00F0DF8020461A
:103C0000FDF74AF8002800F0D980082221466D48C7
:103C1000FCF7BCFBFFF79AFF01253BE06B886E7950
:103C2000AAEB03039BB2002E00F09C80C72B61D847
:103C3000002AF1D0AB79288822880F2B4DD89042EA
:103C40000CD1002F44D1012262F307132846AB7137
:103C5000FFF7E0FBAB79A37100251BE0002F37D104
:103C60003A464046FDF7B6FD4046FDF7B3FD054632
:103C70000028F1D10098FCF7FDFFC0F30332032ABE
:103C8000C3B20BD8012A13D910F4706F15D0A279E2
:103C90000F2A12D8284604B0BDE8F087063202F099
:103CA0000F02012A0ED92046FFF7B4FB3546F1E793
:103CB00010F4706F01D0002BECD02033DBB2072B57
:103CC000E8D9F0E7EF2BE5D90F33DBB2022BF7E7AA
:103CD000AB7943F00103AB71BEE7904227D137BB0C
:103CE0002046A371FFF796FB082221462846FCF7E1
:103CF0004DFB91E7AB790F2B08D82846FFF78AFBDD
:103D0000082200212846FCF7DBFBA5E7002A83D028
:103D10002988228891420AD14FB92046A371FFF722
:103D200079FB082239462846FCF7CAFB74E720468F
:103D3000FCF7B2FF002841D0002F3FD0AB791F2BFA
:103D40007FF663AF2A88ADF8082002A80022ADF8FC
:103D50000AA08DF80C908DF80D208DF80E30FFF72D
:103D600059FB52E7C72BCBD8002A3FF455AF2FB3EE
:103D70002A8823889A4217D1AB79DA0710D40F2BFF
:103D80000ED9A37103F0F003F02B06D0A379C3F38F
:103D90000312013262F30713A3712046FFF73AFBC7
:103DA000084808222146A2E72046FCF775FF0028B4
:103DB0007FF42BAFAB7943F00103AB712046FFF7E3
:103DC00029FB29E70E170120F0B589B06B4683E87F
:103DD00003009DF80510002209B129490A70ADF8C9
:103DE0000E2093E80300ADF80C10C9B2029002ACAB
:103DF00019B101212046FCF723FF94E8030004AE2B
:103E000086E803003046FFF7E1FE1E4F1E4D0446D4
:103E1000C0B996E8030006AB83E803009DF81410D0
:103E200038782A7871B1461C06F00706964210D001
:103E30001946164B082203EBC000FCF7A7FA3E70A8
:103E4000FCF7F0FC114C28783B7883420BD109B089
:103E5000F0BDFEF7ABFD082221460D483C702C70EA
:103E6000FCF72EFBEEE704EBC000FFF7AFFE0028E7
:103E7000EDD02B78013303F007032B70E3E700BF8D
:103E8000CA160120CB160120CC160120CE16012027
:103E90000E17012073B5FDF7C5F80B4D2B8884B2C2
:103EA000A3420ED00026ADF80060FDF7BBF8ADF8D8
:103EB0000460ADF8020002AB13E90300FFF784FFD2
:103EC0002C8002B070BD00BF40160120EFF30983C3
:103ED00005494A6B22F001024A63683383F309887B
:103EE000002383F31188704700EF00E02DE9F041D3
:103EF000302304460E4683F3118890F80080456B0A
:103F00004160B8F1010F3BD140F25643836240F269
:103F1000164343624E4B984232D14E4F4E493B6A54
:103F200043F400133B623B6A23F400133B6200201E
:103F30003B6AFDF757FB4949E0620620FDF752FB5B
:103F40003B6C206343F400133B643B6E43F400136B
:103F50003B663B6E424B50224FF0004183F81F23DB
:103F6000C3F88011196083F82023C3F88481C3F853
:103F70000480636A3B4A13436362A36A1343A362E8
:103F8000E36A1A6805F110039360226B126893606C
:103F90004FF400432B604FF4106200232B606A60E3
:103FA00069687268307A21F03F010904090C696080
:103FB000696841F01D0169602B498A4220DC52008A
:103FC0002A4B93FBF2F31E22C3F30B032A62EB612D
:103FD00032782B68022A9BB230D0032A34D0012ACF
:103FE00002D123F00A039BB22B602B6843F001033C
:103FF0002B6002232370002080F31188BDE8F0813C
:104000001B498A42E3DC02280AD102EB4201174A2B
:10401000B2FBF1F292B21A4342F400430922D5E70F
:10402000032801BF19235343104AB2FBF3F212BF16
:1040300040F6FF7292B24FF48043ECE723F008039E
:104040009BB243F00203CFE743F00A03CCE700BF83
:104050001817012000380240FD220008A1120008B4
:1040600000E100E000000302A086010074C3C90162
:10407000801A060010B53023044683F311880378B4
:10408000012B27D0FDF7E6F8006BFDF7A5F8E06AF5
:10409000FDF7A2F8134B00229C422263E26219D181
:1040A000114B4FF00041C3F88010C3F8801101217B
:1040B00083F81F23C3F88410C3F8841183F82023E6
:1040C0000A4B1A6C22F400121A641A6E22F40012BF
:1040D0001A661B6E002301226360227083F311882D
:1040E00010BD00BF1817012000E100E000380240B9
:1040F000F8B50446302686F311880025856049000E
:10410000032020702184606B85F31188216BA76ADE
:1041100009680F60CA604B60E36A626A1B681A60D4
:10412000069ADA60079A5A604FF0804241F2873768
:10413000516A86F3118883699B0702D403689B0543
:104140002AD5536A5B1ABB4223D9236B1A681168BC
:1041500021F01F0111601168CF07FCD4597A5A6809
:104160003D238B401360E36A1A68116821F01F0138
:1041700011601168CE07FCD4597A5A683D238B40F0
:10418000136005234FF0FF302370002383F3118861
:10419000F8BD85F31188CCE74368089943F40073B0
:1041A0004360036843F48073036004F11C00FEF76E
:1041B000ABFBE8B1236B1A68116821F01F01116095
:1041C0001168CD07FCD4597A5A683D238B4013609F
:1041D000E36A1A68116821F01F0111601168C907AC
:1041E000FCD4597A5A683D238B401360431CC8D0D5
:1041F0000223C9E74FF080422DE9F8431369D168E3
:104200000B40D9B2C9439B07116147D5302383F3D3
:1042100011882A4D05F110084FF080492C69D9F812
:104220002400EE69A168264F821B8A423CD3236892
:1042300062680E44EE6113605A60002323602A69AD
:10424000BA4208BFC9F80C3083F31188E3682169CA
:1042500020469847302383F311886269002ADDD015
:104260004FF080432869596AA1EB060C62450BD2D6
:10427000EB6AB84243F00203EB6213D06246214678
:104280004046FDF767FEC7E7B842F8D1521A3244FC
:104290002046FDF7C7FE002383F31188BDE8F843ED
:1042A000FEF7BABB0022F3E7BC42F4D0091A31444E
:1042B000E861A160FDF764FEEDE700BFC0140120D6
:1042C000D014012008B5074B074A196801F03D01D9
:1042D000996053680BB190689847BDE80840FEF7B5
:1042E0009BBB00BF006002403414012008B5084B9E
:1042F0001968890901F03D018A019A60054AD3686D
:104300000BB110699847BDE80840FEF785BB00BFB8
:10431000006002403414012008B5084B1968090CEC
:1043200001F03D010A049A60054A53690BB1906996
:104330009847BDE80840FEF76FBB00BF0060024031
:104340003414012008B5084B1968890D01F03D01AE
:104350008A059A60054AD3690BB1106A9847BDE88F
:104360000840FEF759BB00BF006002403414012032
:1043700008B5074B074A596801F03D01D960536AF7
:104380000BB1906A9847BDE80840FEF745BB00BFF7
:10439000006002403414012008B5084B59688909AF
:1043A00001F03D018A01DA60054AD36A0BB1106B56
:1043B0009847BDE80840FEF72FBB00BF00600240F1
:1043C0003414012008B5084B5968090C01F03D016F
:1043D0000A04DA60054A536B0BB1906B9847BDE84D
:1043E0000840FEF719BB00BF0060024034140120F2
:1043F00008B5084B5968890D01F03D018A05DA605E
:10440000054AD36B0BB1106C9847BDE80840FEF726
:1044100003BB00BF006002403414012008B5074B05
:10442000074A196801F03D019960536C0BB1906C1B
:104430009847BDE80840FEF7EFBA00BF00640240AD
:104440003414012008B5084B1968890901F03D01B1
:104450008A019A60054AD36C0BB1106D9847BDE88C
:104460000840FEF7D9BA00BF0064024034140120AE
:1044700008B5084B1968090C01F03D010A049A605F
:10448000054A536D0BB1906D9847BDE80840FEF7A3
:10449000C3BA00BF006402403414012008B5084BC1
:1044A0001968890D01F03D018A059A60054AD36DAE
:1044B0000BB1106E9847BDE80840FEF7ADBA00BFDB
:1044C000006402403414012008B5074B074A5968BC
:1044D00001F03D01D960536E0BB1906E9847BDE875
:1044E0000840FEF799BA00BF00640240341401206E
:1044F00008B5084B5968890901F03D018A01DA6065
:10450000054AD36E0BB1106F9847BDE80840FEF71F
:1045100083BA00BF006402403414012008B5084B80
:104520005968090C01F03D010A04DA60054A536F2D
:104530000BB1906F9847BDE80840FEF76DBA00BF19
:10454000006402403414012008B5084B5968890DF5
:1045500001F03D018A05DA60054AD36F13B1D2F844
:1045600080009847BDE80840FEF756BA0064024054
:10457000341401202DE9F74FC2F3C31302F0030AEC
:10458000C2F38009C2F3C108C2F3411E019357462A
:1045900000224FF00F0BCB0737D5019C02F0070329
:1045A0009B0004FA03FC01254468954024EA0504B5
:1045B00044EA0904446085680324560004FA06F6B8
:1045C00025EA060545EA08058560C56825EA060569
:1045D00045EA0E050BFA03F3BAF1020F6FEA06047F
:1045E000C5606FEA03031BD1072A95BF056A456AB8
:1045F0001D401D4095BF45EA0C0545EA0C050562C6
:104600004562036823403B43036049081AD04FEAE0
:1046100049094FEA88084FEA8E0EBF000132BAE717
:1046200005682C403C430460072A95BF046A446A2D
:104630001C401C4095BF44EA0C0444EA0C0404628C
:104640004462E2E703B0BDE8F08F08B5302383F39E
:104650001188012100F00F039940202220F00F0063
:10466000FFF788FF002383F3118808BDF8B51D4EBE
:10467000337804460D4633B91B4801222021FFF749
:1046800079FF01233370302383F311880023DAB2DA
:10469000AA4203F101070FD3DFED147A002307EEDE
:1046A000103AB8EEC77AB4EEE77AF1EE10FA11D408
:1046B000002383F31188F8BD02EB4202A618A05C28
:1046C000FCF7CEFB7078FCF7CBFBB078FCF7C8FBAF
:1046D0003B46DCE700BF00BF00BF00BF00BF00BF1C
:1046E0000133DCE7AC0E002000000240FCFF154562
:1046F000064B0748002918BF184600F00F03012198
:1047000020F00F0020229940FFF734BF0A04024036
:104710000F0002402DE9F04788B01C22002101A8BB
:10472000FBF7CEFE0025564F01AE4FF03008A946EC
:1047300057F8041B4C1C54D088F311884FF0010A21
:1047400021F00F0001F00F010AFA01F42146524650
:10475000A4B2FFF70FFF448389F3118800BF00BFA5
:1047600000BF00BF00BF00BF00BF00BF00BF00BF51
:1047700000BF00BF00BF00BF00BF00BF00BF00BF41
:1047800000BF00BF00BF00BF00BF00BF00BF00BF31
:1047900000BF00BF00BF3B491123002451F8042B88
:1047A000501C48D022F00F0002F00F02006920FADE
:1047B00002F212F0010F0CBF52460022013B13F02F
:1047C000FF0344EA02044FEA4A0AE7D157F8040C0F
:1047D000411C01D0FFF739FF4FF46160FCF7F2FC98
:1047E00034600135EDB2072D06F10406A0D126484C
:1047F000264E1C2201A9FBF70BFFF0B101AC0FCC38
:10480000214D0FC594E807000123337085E80700A8
:10481000FCF708FC1E4B18601E4B1A691E4B520712
:10482000197825D441BB0122AE201A7008B0BDE82A
:10483000F047FEF779BD0022C0E73378002BEBD0BC
:10484000134B1C68FCF7EEFB001B0928E4D90E494A
:1048500012481C22FBF7DCFE38B10B4D0F4C0FCD7C
:104860000FC495E8070084E8070000233370D3E7FE
:10487000012904BF00221A7008B0BDE8F08700BF0C
:104880009C660008B866000844150120800E0020D0
:104890007C0E002000040240780E0020F415012058
:1048A0002DE98048B84B89B01A6962F0FF021A619D
:1048B0001A69D2B21A614FF0FF301A695A69586109
:1048C00000215A6959615A691A6A62F080521A6263
:1048D0001A6A02F080521A621A6A5A6A58625A6A4E
:1048E00059625A6A1A6C42F080521A641A6E42F087
:1048F00080521A661A6EA54A106840F480701060E3
:10490000186F00F44070B0F5007F1EBF4FF4803088
:104910001867196753689E4923F4007353609D4BD1
:10492000002200AF43F8042BFA600C201446FA680A
:1049300042438A581460FA6843F832400132102A20
:10494000FA60F4D1944B954D4FF0FF3BC3F808B09B
:10495000C3F80CB0C3F808B4C3F80CB4904B702281
:1049600083F81C234FF08052C3F880211A608D4BCE
:10497000284603F10C020126DA601A618A4A5A635A
:1049800000F8246B282200211E705C605C61DC61F1
:10499000DC621C63FBF794FD4FF0A043EB66834B96
:1049A0002B67794B6C601A6CAC6032431A641A6ED8
:1049B00032431A667E4A1B6E93684FF08049334338
:1049C000936040F25623C9F828307A4B7A4AC9F8E6
:1049D0002CB0C9F81840C9F83440C9F80C40C9F8DF
:1049E0000440C9F81460C9F800601A60734A5A603C
:1049F000734B744A9C621A634FF0300A8AF3118831
:104A000062B6714A7149D06820F4E0600004000C7D
:104A10000143D160D2F8FC106D4841F08071C2F8BA
:104A2000FC1001684FF020083143016082F81F80BC
:104A300082F822A0C3E906B49C60DC6203F1100294
:104A4000C3E90422D9F824205B6410462146C3E957
:104A5000080180225F48DA639A6503F13402DA6064
:104A600000F5AA72C0F8C4215B4AC0F894215B4AE1
:104A7000C0F8B4210222C0F89841C0F8C061A0F883
:104A8000CC21C3E90033C3E91444DC65A3F84860D2
:104A9000C0F8C831C0E97646C0F8D44100F5DC70F2
:104AA000FDF714FC84F311884D4B4E4A1A60FCF755
:104AB00061FF324641464C48DFF86481FFF75AFDFA
:104AC0000021FA684948FBF7FBFCEA6E484B88F87E
:104AD00000401C70D2F8043843F00203C2F80438D6
:104AE000FEF72AFB41F28830FEF788FBFCF7CEFD8B
:104AF000EA6ED2F8043823F00203C2F804383D4BC2
:104B00003D4A1C6041F288303C4B1360FEF776FB57
:104B10008AF311883A4BD9F824201A60394B1C606B
:104B2000394B1C6084F31188062200213748FBF7BB
:104B3000C7FC374B002108461E70FFF7D9FD3146F0
:104B40000020FFF7D5FD42F6E060FCF73BFB0021BB
:104B50000846FCF773F9314604460020FCF76EF96D
:104B60002C4B2D4E44EA40041C70072456F8040BCD
:104B7000421C01D0FFF769FD013C14F0FF04F5D1A0
:104B8000264E11244EE000BF003802400070004065
:104B9000C465000834140120006002407C15012027
:104BA00000E100E01817012000540040846600086E
:104BB000002004E0B814012050170120000002205A
:104BC000C01401209066000800ED00E00003FA0523
:104BD000001000E0700C0020F30C00083D030008FA
:104BE000080C0020E90C00080000024068150120B4
:104BF0007915012020150120641501200C0C0020DE
:104C0000401501203C1501203815012039160120DE
:104C100038160120371601209C660008B866000887
:104C20007815012056F8040B431C01D0FFF70DFD49
:104C3000013C14F0FF04F5D11C222146C148C24EAC
:104C4000FBF73EFC1C222146C048FBF739FC2046FE
:104C5000FCF7A3FF4FF6E669484554D0FCF78AFEFF
:104C600020464946FCF7DDFF21460220FCF7C8FF3D
:104C7000012103203180FCF7C3FF4FF4A051042031
:104C8000FCF7CFFF21460620FCF7BAFF214607209C
:104C9000FCF7B6FF21460820FCF7D4FF214624206C
:104CA000FCF7AEFF21461720FCF7AAFF21460C2097
:104CB000FCF7A6FF21460D20FCF7A2FF18210022D9
:104CC00000237818C7E904230822FCF73DFF0822D7
:104CD00007F1180107F110006C46FBF799FC28B1A9
:104CE0000822182107F11000FCF778FF0021A546E3
:104CF0002020FCF7A7FF00210F20FCF7A3FF0021D5
:104D00001320FCF79FFF0220FCF738FF904B187030
:104D10000420FCF742FF8F4B1880FFF7FBFC4FF499
:104D2000FA60FEF76BFAFFF7F5FC864B1B68D904B7
:104D30000BD5FCF71FFE4FF6FF710020FCF771FF4B
:104D4000854B864A1A60FCF7A3F90320FCF716FF8F
:104D5000834C3080FEF736F894F80090814EB9F11C
:104D6000000F1FD1FCF728FFC6E90001C0B20328DD
:104D70000BD87D4B336086F80490D6E90001FCF730
:104D800078FFFCF719FFC6E90001FBF7FFFF307859
:104D9000764B0021C207597002D58008FDF72CF828
:104DA0000123237042F21070FEF728FA307840F0A9
:104DB0000100307001218008FDF71EF80121062056
:104DC000FDF71AF8FDF7FEFFFDF7A6F8684B1A6825
:104DD000684B1A60684B1C7898F800304FF0000E52
:104DE00072469C427AD10AB188F800402B78052B94
:104DF00005D12B78052B00F08D80FCF70DFDFFF71A
:104E000089FCDFF88C914F4ACC4610460724634654
:104E1000013C53F8041B14F0FF049C4650F8043B7B
:104E200000F0E7809942F2D0002452F804AB59F820
:104E3000043B53452BD0002183EA0A03F9604FF06D
:104E4000010B1BEA030F18D07B60FB683B767C7676
:104E5000BA60FCF7E7F81BEA0A0F14BF0121002132
:104E60004FF001033B77788307F11803797793E8D4
:104E70000300FEF7A9FF7B68BA68F9680131C9B27F
:104E80001129F9604FEA4B0BDBD149F804AC01342E
:104E9000E4B2072CC9D1FCF7C5F80124AEE088F8CC
:104EA0000030364B4FF001021A7093E788F800305B
:104EB000324B00241C70324B1C70324B1C70FCF7C0
:104EC00061FD314B1C60FDF755FD2046FCF70CF8E9
:104ED0002046FCF725F8FBF7FFFF7BE719462B4838
:104EE000415C0133012203F00F03964605293FF68A
:104EF00078AF0FF2080C5CF821F000BFE14D00081C
:104F0000E34D0008E14D0008E14D00089F4E000808
:104F1000AD4E0008FCF7EAFF40F2A460FEF76EF920
:104F2000B5F864309B077FF564AFFFF7F3FB054AE4
:104F3000072352F8041B69BB013B13F0FF03F8D1B0
:104F400057E700BFF4150120C616012044150120C3
:104F500010160120AE160120FCFF0120EFBEADDED1
:104F600060150120B81601201900FF64B116012058
:104F70006415012064160120791501207A1501209D
:104F8000C4160120CA160120C01601206815012090
:104F9000141601202B78052B18D1EB6ED3F80428BA
:104FA00042F00102C3F804285A6942F008025A612B
:104FB0009A6942F008029A61C820FEF71FF9EA6E6A
:104FC000D2F8043823F00103C2F80438EA6ED2F8AC
:104FD000043843F00203C2F80438FEF7ADF8FCF7DA
:104FE00055FBEA6ED2F8043823F00203C2F8043805
:104FF000FFE699427FF419AFFEF74CFF564B5A7803
:10500000002A31D01A783378DFF85CA1C2EB930321
:10501000DBB2022A8AF802300BBF504A504B5B08C1
:105020004FF4FA6904BF12F803904E4BFB609AF8F4
:1050300003304BB14FF0000B8AF803B0FBF7F2FFDF
:10504000AAF804B0AAF80000FBF7ECFFBAF80030A9
:10505000C01A80B247F6FE72904205D84B44AAF8B7
:1050600000304148FB6898470023DFF81491FB604B
:105070003E4B97F80CA01B7853450ED800223C49B4
:105080004B780978994246D1002A55D0FBF7CAFFE0
:10509000FDF786FDFCF740FF52E000215046FBF78C
:1050A000CDFE012183465046FBF7C8FE314B13F875
:1050B0000A304BEA4000C0B203F00302904226D00F
:1050C00040EA83002B4BC0B203F80A002A4B00F0E1
:1050D0000F0013F80A3019F800B09B444FFA8BFB0D
:1050E000BBF1030F04DD00215046FCF75FFB02E03B
:1050F0001BF1030FF8DBDBF1000303F003030BF0FC
:10510000030B58BFC3F1000B1B4B03F80AB0FB683D
:105110000133FB60ACE71649CA18013303F00303FF
:105120004B709378DB094FF00A0114BFA920AA2025
:10513000FEF7FAF80122A2E7FDF732FD002CA9D113
:10514000FBF7CAFE0D4B1A7882423FF443AE18704B
:10515000FBF768FF3EE600BFB11601200C670008B0
:10516000F10C0008E50D000830160120381601206A
:105170003916012037160120361601203F1601206E
:105180000F6700084048414A70B5446BA3696569E0
:1051900045EA034303F0FF13934225D014D8073A9E
:1051A000934205D00132934222D0B3F1011F14D1B2
:1051B000028C130A16D003F0060302F00102134317
:1051C00043F0F003236108E0314A934226D00232D3
:1051D00093422ED02F4A93424ED015F00A0F18BF9B
:1051E000A36933E02261F8E7038CC3F34703E9E7DF
:1051F000636823F400736360C36A1B681A6842F033
:1052000001021A60626842F4805262605B68012B9E
:10521000E3D8236823F480632360DEE7636823F424
:1052200000736360036B1A68136843F00103136033
:10523000D3E72369C36A1B685E685EB1038C43F0E1
:1052400001030384236843F4A0632360BDE8704036
:10525000FDF7E2BB636823F400736360236843F4E3
:1052600000732360302383F3118831461C30FDF72F
:105270003BF886F31188B0E7FBF7ECFF636823F493
:1052800000736360A9E700BF18170120080003003E
:105290008200070011000300314B596B70B54C6957
:1052A00004F45F40C0434861186B05682E6826F01F
:1052B0001F06A2B22E602E68F607FCD4467A456817
:1052C0003D20B0402860D86A05682E6826F01F0689
:1052D0002E602E68F607FCD4467A45683D20B04023
:1052E0002860C2F30020950548BF40F00200986096
:1052F00050050BD54D68986825F400754D600D6814
:1053000040F0040045F400750D609860160542BF3A
:10531000996841F008019960550442BF996841F0CD
:1053200020019960D00442BF9A6842F010029A604E
:1053300021049A680ED542F040029A60302383F32C
:10534000118808486FF00101FCF7CEFF002383F3BA
:10535000118801E0002AF1D1BDE87040FDF75CBB87
:1053600018170120341701202DE9F74F454CE56E41
:105370006E69AB691E4016F480586E6100F088803B
:1053800025460027022345F8087F23706766062616
:105390004FF03009BA4655F8043FABB189F3118894
:1053A000D5F80080D8F8140020B16FF001010C305E
:1053B000FCF79AFFD8F8180020B16FF001010C300B
:1053C000FCF792FF8AF31188013E2F60E3D1E56E6E
:1053D00084F84C6031462846FCF7CAF9226FC5F8BC
:1053E00034684FF001139768C5F81C384FF000601F
:1053F0004FF0FF3105EB46130136BE42C3F80009FA
:10540000C3F8000BC3F80819C3F8081BF2D91668D3
:105410006E6210232B612F6917F01007FBD1122049
:10542000FBF7D0FED5F8003823F4FE63C5F800384A
:10543000AB6943F4402343F01003AB610923C5F883
:105440001038C5F81438104BE3604FF0C043C5F86E
:10545000103B0E4BC5F8003BC5F81079C5F8003974
:1054600006F11003636763681B6846F48016AE623A
:1054700013B104483946984703B0BDE8F04FFDF733
:10548000CBBA00BF7C150120AC6100084080001041
:10549000002E11DAD5F8003E9B071EBFD5F8003E5E
:1054A00023F00303C5F8003ED5F8043823F00103C8
:1054B000C5F80438FBF7E8FF370533D5A648FBF7F6
:1054C00011FF2378052B2DD084F868300523237035
:1054D00063681B6813B1A048042198470027DFF8D0
:1054E0007CA2A7604FF006094FF0300B5AF8043F3A
:1054F000ABB18BF31188DAF80030586930B16FF036
:1055000001010C300093FCF7EFFE009B986920B17D
:105510006FF001010C30FCF7E7FE87F31188B9F159
:105520000109E3D1B0040CD5D5F8083813F0060F03
:10553000EB6823F470530CBF43F4105343F4A053AF
:10554000EB6031071AD56368DB681BB9AB6923F0E0
:105550000803AB612378052B0BD1D5F8003E9A07E1
:105560001EBFD5F8003E23F00303C5F8003EFBF74D
:105570008BFF6368DB680BB177489847F30243D52C
:105580000021D4F86CA00F460AEB4713D3F800298A
:1055900002F44022B2F5802F2FD1D3F80029002A3F
:1055A0002BDAD3F8002942F09042C3F80029D3F84F
:1055B0000029002AFBDBE06EFCF7DAF823890122E0
:1055C000BA4023EA020307F10209238104EB8903AD
:1055D0005B689B6813B1604839469847302383F372
:1055E000118804EB89090021D9F8043058690C307E
:1055F000FCF77AFE002383F31188236F01379B6841
:10560000FFB29F423946BFD9B70238D5E36E009347
:1056100000274FF001094FF0300ABB46009B03EB17
:105620004712D2F8003B03F44023B3F5802F20D17A
:10563000D2F8003B002B1CDA638909FA07F223EA4F
:1056400002036381BB1C04EB83025268D26822B15F
:105650004148019339469047019B8AF3118804EB36
:1056600083035B68986941680C30FCF73DFE8BF35F
:105670001188236F01379B68FFB29F42CED9F00695
:1056800016D5E76E3A6AC2F30A1002F00F0302F46D
:10569000F012B2F5802F63D0B2F5402F08D104EBA1
:1056A00083030022DB681B6A07F58057904244D1D0
:1056B0003303D5F818481DD5E70302D50020FDF7C0
:1056C0007BF8A50302D50120FDF776F8600302D52B
:1056D0000220FDF771F8210302D50320FDF76CF8D5
:1056E000E20202D50420FDF767F8A30202D50520E7
:1056F000FDF762F877037FF5BFAEE60702D500201D
:10570000FCF7D6FFA50702D50120FCF7D1FF600703
:1057100002D50220FCF7CCFF210702D50320FCF7BD
:10572000C7FFE20602D50420FCF7C2FFA3067FF5FF
:10573000A3AE0520FCF7BCFF9EE6910708BFD7F893
:105740000080072A98BF03F8018B02F1010298BF7D
:105750004FEA1828AAE700BF7C1501208415012014
:10576000023304EB830207F580575268D2F818C061
:10577000DCF80820DCE9001CA1EB0C0C00218842BD
:105780000AD104EB830463689B699A6802449A60B7
:105790005A6802445A608BE711F0030F08BFD7F82C
:1057A00000808C4588BF02F8018B01F1010188BFA0
:1057B0004FEA1828E3E700BF7047000010B5044621
:1057C00040B10548FEF756FC013414BF4FF0FF30DE
:1057D0006FF0010010BD00BF18170120114B10B56C
:1057E0001C78ECB901221A700F4822464021FEF7BE
:1057F000C1FE224680210C48FEF7BCFE4FF47A70B1
:10580000FDF7FCFC084840F206224021FEF7B2FEFC
:10581000BDE81040044840F206228021FEF7AABEEF
:1058200010BD00BF16170120000402402DE9F0430F
:10583000DFF85C8085B00E460546134940461746A2
:105840001C46FEF753FB114940F2E733A4FB01412C
:10585000E01841F100014FF47A720023FAF77CFD61
:105860004FF000096D080290CDF80490CDF800903B
:105870003B46324629464046FEF73AFC05B0BDE8B5
:10588000F043FFF79BBF00BF44680008A0860100FB
:10589000181701202DE9F04F1F4E87B004AF88463E
:1058A00005461E493C8E7B6030469346FEF71EFB44
:1058B0007A6802F108036946DB08A1EBC3039D4641
:1058C00059460DF1110002F1010AFAF75FFD144982
:1058D0008DF81080A4FB013140F2E732981841F1B5
:1058E00000014FF47A720023FAF736FD4FF00008FA
:1058F0000DF110096D08029053464A462946CDF82D
:105900000480CDF800803046FEF7F2FBFFF756FF2B
:105910000C37BD46BDE8F08F181701204468000819
:10592000A08601002DE9F04786468C460846089E71
:10593000154674461946002B40F0C2808542B2FAE3
:1059400082F245D94AB1C2F1200300FA02FC2EFAD4
:1059500003F3954043EA0C0C94404FEA154EA8B26D
:10596000BCFBFEF8230C0EFB18CC08FB00F943EA45
:105970000C43994528D9EB1808F1FF3704D2994513
:1059800002D9A8F102072B44A3EB0903A4B2B3FB8D
:10599000FEFC0EFB1C330CFB00F044EA0344A04267
:1059A00014D92C190CF1FF3304D2A04202D9ACF166
:1059B00002032C44241A43EA07401EB1D4400023BA
:1059C00034607360BDE8F0874746DDE76346F1E782
:1059D00092BB431B01214FEA154EAFB2B3FBFEFC55
:1059E000200C0EFB1C330CFB07F840EA03439845E0
:1059F00062D9EB180CF1FF3004D2984502D9ACF112
:105A000002002B44A3EB0803A4B2B3FBFEFC0EFB85
:105A10001C330CFB07F744EA0344A7424ED92C1968
:105A20000CF1FF3304D2A74202D9ACF102032C449B
:105A3000E41B43EA0040C0E7C2F1200320FA03F16F
:105A4000954090402EFA03F303434FEA154EAFB250
:105A5000B1FBFEFC0EFB1C10190C0CFB07F841EA15
:105A60000041884504FA02F422D969180CF1FF308C
:105A700004D2884502D9ACF102002944A1EB080107
:105A80009BB2B1FBFEFC0EFB1C110CFB07F743EABB
:105A900001439F420ED9EB180CF1FF3104D29F4213
:105AA00002D9ACF102012B44DB1B41EA004192E731
:105AB0006046E3E76146F7E76046A3E76346B7E77A
:105AC000834206D916B9002108467BE7C6E900E003
:105AD000F9E7B3FA83F78FB9834201D3724508D847
:105AE000BEEB020460EB030301209C461EB90021BB
:105AF00068E73846FAE7C6E9004CF8E7C7F1200C3A
