:020000040800F2
:1000000000040020FD020008FF020008FF020008B3
:10001000FF020008FF020008FF020008FF020008BC
:10002000FF020008FF020008FF020008ED7600084A
:10003000FF020008FF020008FF020008FF0200089C
:10004000FF020008FF020008FF020008FF0200088C
:10005000FF020008FF020008FF020008FF0200087C
:10006000FF020008FF020008FF020008097B0008E9
:10007000317B00085D7B0008897B0008B57B0008A8
:10008000DD7B0008097C0008FF020008FF02000871
:10009000FF020008FF020008FF020008FF0200083C
:1000A000FF020008FF020008FF020008FF0200082C
:1000B000397A0008FF020008FF020008698E000874
:1000C0007D8F0008FF020008FF020008FF02000801
:1000D000FF020008FF020008FF020008FF020008FC
:1000E000FF020008FF020008FF020008FF020008EC
:1000F000FF020008FF020008FF020008357C00082C
:10010000FF020008FF020008FF020008FF020008CB
:10011000FF020008FF020008FF020008FF020008BB
:10012000617C0008897C0008B57C0008E17C00083F
:100130000D7D0008FF020008FF020008FF02000812
:10014000FF020008FF020008FF0200084D900008AF
:10015000357D0008617D00088D7D0008FF020008E4
:10016000FF020008FF020008FF020008FF0200086B
:10017000FF020008FF020008FF020008FF0200085B
:10018000FF020008FF020008FF020008FF0200084B
:10019000FF020008FF020008FF020008FF0200083B
:1001A000FF020008FF020008FF020008FF0200082B
:1001B000FF020008FF020008FF020008FF0200081B
:1001C000FF020008FF020008FF020008FF0200080B
:1001D000FF020008FF020008FF020008FF020008FB
:1001E00072B6374880F30888364880F30988364865
:1001F0003649086040F20000CCF200004EF634713F
:10020000CEF200010860BFF34F8FBFF36F8F40F253
:100210000000C0F2F0004EF68851CEF200010860F6
:10022000BFF34F8FBFF36F8F4FF00000E1EE100A66
:100230004EF63C71CEF200010860062080F314886F
:10024000BFF36F8F06F05AF806F05AF84FF05530AA
:100250001F491B4A91423CBF41F8040BFAE71D4974
:10026000184A91423CBF41F8040BFAE71A491B4A6D
:100270001B4B9A423EBF51F8040B42F8040BF8E7BF
:1002800000201849184A91423CBF41F8040BFAE794
:1002900006F04EF906F04AF9144C154DAC4203DA5B
:1002A00054F8041B8847F9E707F066FF114C124D1C
:1002B000AC4203DA54F8041B8847F9E706F037B973
:1002C00000040020000C00200000000808ED00E001
:1002D00000000020000400201CF30008000C002097
:1002E000F80F0020F80F0020381F0120E00100085F
:1002F000E0010008E0010008E001000870E700F0FC
:1003000000F8FEE72DE9F04F2DED108AC1F80CD072
:10031000C3689D46BDEC108ABDE8F08F002383F3CF
:1003200011882846A047002006F052FAFEE706F0A2
:1003300025F900DFFEE7000053B94AB9002908BFDC
:1003400000281CBF4FF0FF314FF0FF3000F00CB819
:10035000ADF1080C6DE904CE09F0A8F9DDF804E070
:10036000DDE9022304B07047704700BF00000000C1
:1003700038B5124B1D682A6B04461AB10023C2E936
:10038000044338BD182000F097F80246286378B17E
:1003900001200021C2E90401094B0A480A49916081
:1003A000C2E900030B2393810023C2E9044338BD53
:1003B000064B0748462100F059F800BF000C00200A
:1003C00034126DE60E33CDABECDE050044F20008CE
:1003D0005CF200081C4B10B51C68226B8AB11369D3
:1003E0001A4954691A4803FB01F100FB0411A3FBED
:1003F0000030013341EB0001C2E9043121F000403B
:1004000010BD182000F058F80246206388B1114C46
:10041000114B0E48114991609FED097BC2E90043E1
:100420000B2393810E4B014682ED047BC2E904311C
:1004300010BD0C4B0C48522100F018F8AFF30080AF
:100440000100000000000000000C00202DF45158B5
:100450002D7F954C0E33CDAB34126DE6ECDE0500EE
:100460002E7F954C44F200085CF2000800B50B4C5E
:1004700025681446EE681A4685B003460D464CB111
:1004800007490095CDE901143046064900F0DEF831
:1004900000F004F904490C46F3E700BF000C00200B
:1004A00098F20008A8F20008A4F2000808B5134664
:1004B0000022FFF7DBFF00BF024B0146186800F087
:1004C0002FB800BF000C0020024B0146186800F056
:1004D000EDB800BF000C002070B5104E3368054623
:1004E0000C46B3B12146284608F0E4FF431C0CD06B
:1004F000C41C24F00304A04205D0211A284608F0A9
:10050000D9FF013001D0204670BD4FF0FF342046A6
:1005100070BD194608F0CEFF3060E3E7F80F002009
:100520002DE9F041CD1C25F0030508350C2D38BF11
:100530000C25002D82B0064616DBA94214D8354F93
:1005400000F06AF87A68AAB1144603E063682246AC
:1005500083B11C4623685B1BF8D40B2B21D8A24225
:10056000636855D053600DE00C233360002002B067
:10057000BDE8F08129463046FFF7AEFF431C044634
:1005800019D00560304600F04DF804F10B00231D32
:1005900020F00700C21A1CBF1B1AA35002B0BDE80E
:1005A000F0816119A242256014BF516079606351E6
:1005B00063684B60E6E77B6823B31C465B68002BEF
:1005C000FBD1226801931946304604EB020808F07B
:1005D00071FF804516D12268AD1A29463046FFF7D3
:1005E0007BFF01300ED022687868019B2A4422608C
:1005F000426812B90CE010465268A242FBD10023B7
:100600004360BFE70C233360304600F00BF8ADE7E2
:100610007B60B7E7F80F0020014800F035B800BF55
:1006200010100020014800F037B800BF1010002063
:100630000CB400B583B004AB53F8042B019300F065
:10064000D9F803B05DF804EB02B070470EB410B5F2
:1006500083B005AB064C53F8042B01930146206888
:1006600000F0C8F803B0BDE8104003B0704700BF09
:10067000000C0020704700BF704700BF704700BFEC
:10068000704700BF704700BF704700BF0120704730
:1006900001207047704700BF704700BF08B50620B3
:1006A00001F05AF9012008F031FF00BF002950D0B5
:1006B00038B551F8043C0C1F002BB8BFE4180546B0
:1006C000FFF7AAFF274A13682BB1A3420CD9216870
:1006D000601883422CD0636028461460BDE838401F
:1006E000FFF7A0BFA3420FD81A465B68002BF9D1D1
:1006F00011685018844217D02CD363605460284688
:10070000BDE83840FFF78EBF11685018A04214D0E2
:1007100020D8216860188342EFD118685B680844CC
:10072000C4E900035460EAE723680B441360E6E77A
:1007300018685B6808442060CDE7206801445018C1
:1007400083421160DBD1D3E900040144C2E9001403
:10075000D5E770470C232B602846BDE83840FFF7EB
:1007600061BF00BFFC0F00209368013B002B93602A
:1007700011DA10B49469A34209DB0A2907D013687F
:10078000581C1060197008465DF8044B70475DF8FE
:10079000044B00F0CBBE1368581C1060197008465B
:1007A000704700BF9BB1F8B5134406460F46541E70
:1007B0005D1E01E0AC4208D014F8011F3A463046F5
:1007C000FFF7D2FF431CF5D1F8BD0020F8BD002093
:1007D000704700BF936810B514461BB91846002334
:1007E000636010BD00F0B4FC0023A36000236360CD
:1007F00010BD00BF2DE9F04FA1B08B4691461C46BD
:10080000049018B1036A002B00F04781DBF86420E4
:10081000BBF90C30D20702D49F0540F137811E0787
:1008200040F19E80DBF81030002B00F0998000230F
:10083000CA460D9343F22003ADF839309AF80030E0
:10084000974E07940127002B7AD0D14604E019F87F
:10085000013F002B00F09A80252BF8D1B9EB0A0854
:1008600040F0978099F80030002B69D000234FF0BA
:10087000FF32CDE9092309F1010908930B938DF8A3
:1008800063301E9305E0089A07FA03F31A430892AF
:10089000A1464C46052214F8011B304601F010F920
:1008A000A246831B0028EED1089BD80644BF202215
:1008B0008DF86320190799F8001044BF2B228DF89A
:1008C00063202A297BD1079A1168043200290792F4
:1008D000C0F2B0800B9199F801102E2900F08680AB
:1008E000704C0322204601F0EBF838B1089B001B46
:1008F0004022824013430AF1010A08931AF8011BAF
:1009000069488DF83810062201F0DAF8002800F066
:100910009780664B002B7ED007AA0092644B049808
:100920005A4608A9AFF300800390039B013307D018
:100930000D9B039A13440D939AF80030002B84D139
:10094000DBF8643013F0010FBBF80C3002D19A05CC
:1009500040F195805B0616D40D9821B0BDE8F08F6C
:100960000498594600F032FE00283FF460AFDBF8EF
:100970006430DD0707D4BBF80C309C0503D4DBF8EA
:100980005800FFF789FE4FF0FF30E6E7B9EB0A08A1
:10099000D6D00AF1FF35CDF81490A946049D01E0A8
:1009A000A0453FD94C465A4619F8011F2846FFF783
:1009B000DBFE02340130A4EB0A04F1D1C0E7A1F15F
:1009C0003002092A88BFCA4687D80B9B00E0013451
:1009D000217803EB830302EB4303A1F13002092AE0
:1009E000F5D92E290B93A2467FF47AAF9AF801101D
:1009F0002A292FD1079B9AF802101A68099204330A
:100A0000002A0AF102000793B8BF4FF0FF33824675
:100A1000B8BF099364E7079B073323F00703083344
:100A2000079385E70D99DDF81490414499F800305B
:100A30000D9119E7494243F002030B9108934AE7ED
:100A400007AA00921A4B04985A4608A900F0D2F857
:100A500003906AE7A1F130020023092A09930AF101
:100A6000010A3FF63DAF1AF8011F03EB830302EBC7
:100A70004303A1F13002092AF5D9099330E7DBF8E5
:100A80005800FFF709FEBBF80C3063E7DBF85800AD
:100A9000FFF7FAFDBBF90C30C1E600F009FBB5E643
:100AA000D8F20008E0F20008E4F2000800000000BC
:100AB000A507000810B4054C8446134620685DF86D
:100AC000044B0A466146FFF795BE00BF000C0020AC
:100AD0002DE9F84F92461F460A698B68DDF8289089
:100AE0009A42B8BF1A46CAF8002091F843300C4623
:100AF000064613B10132CAF80020226891065FD57C
:100B0000DAF800300233CAF80030226812F0060F1B
:100B100011461DD1E1689942D8BF114618DD04F194
:100B2000190B4FF0000805E0E568DAF80030ED1A1F
:100B300045450CDD01235A4639463046C847013049
:100B400008F10108F0D14FF0FF30BDE8F88F2168BF
:100B500094F84330003B18BF01238A060AD5E118F8
:100B60005A1C302081F84300224494F8451082F842
:100B70004310023304F1430239463046C84701307E
:100B8000E1D02368DAF80050216903F00603042B52
:100B9000D4E902201BD08A4220DD4FF00008521A0F
:100BA00090441A34002501E0454517DA0123224616
:100BB00039463046C847013005F10105F4D1C2E796
:100BC00012F0060F0DD0003B18BF0123D2E7401BE7
:100BD0008A4220EAE078E2DC0028E2DC0020BDE87E
:100BE000F88FE168DAF800309942D8BF114696DCF8
:100BF000AEE700BF2DE9F0470C4684B01746227ED1
:100C00000C990646984604F1430C002A35D0A2F10F
:100C10005803D8B2202869D8202B67D8DFE813F012
:100C2000E00066006600660066006600660066001A
:100C3000660066006600940070006600660066004C
:100C40006600700066006600660066002100830092
:100C5000AE00660066009E006600830066006600C7
:100C6000E6000B68226860691D1D0D6011061B6897
:100C700002D4520600F1DC8018600023E1462361B3
:100C8000CDF800803B4603AA21463046FFF720FFFF
:100C9000013020D023694A4639463046C0470130EA
:100CA00019D02368E068DDF80C909B0718D54845FB
:100CB00016DD04F1190A002504E0E068A0EB090341
:100CC000AB420DDD0123524639463046C047013064
:100CD00005F10105F1D14FF0FF3004B0BDE8F08718
:100CE0004845B8BF484604B0BDE8F08784F84220C4
:100CF000012004F142090023206184F84330BFE75A
:100D00000A682368101D0860180602D4590600F10D
:100D100093801068014600286268C0F291805348B1
:100D20004FF00A0E4AE00B6820681D1D0D60050695
:100D300001D441067ED419684C486F2A14BF4FF085
:100D40000A0E4FF0080E35E00B681A6804330B608A
:100D500004F1420984F842200120CCE70B68626864
:100D6000181D0860D3F800900021484600F0A8FE46
:100D7000002879D0A0EB09006060BCE7236843F04D
:100D80002003236078223A4884F845200A68151D1C
:100D90000D601D064AD4590648D51188DD0744BFA9
:100DA00043F02003236019B9236823F02003236054
:100DB0004FF0100E0023626884F84330002AA260CE
:100DC00016DB236823F00403236089B9002A45D188
:100DD000E146BEF1080F1CD0ACEB090323614FE7DD
:100DE000582384F8453021482368CFE72368C9E7B2
:100DF0007546E146B1FBF5F305FB131A0A46AA4214
:100E000010F80A1009F8011D1946F3D2BEF1080FB7
:100E1000E2D12368D807DFD5626823699A42DBDC18
:100E2000302309F8013C09F1FF39D5E71168B5E72E
:100E3000188022E719887FE7B2F9001008466AE7B0
:100E40002D20002AA26084F8430002DB23F0040373
:100E500023600A2505484942AE46CAE7037884F86C
:100E6000423004F14209B4E7606844E7ECF200085C
:100E700000F30008024A0349034800F0E9BA00BF42
:100E8000500C00201D1E0008040C00200C4B416873
:100E9000994210B5044601D000F0C0FFA168094B8B
:100EA000994202D0204600F0B9FFE168064B994212
:100EB00004D02046BDE8104000F0B0BF10BD00BF18
:100EC0002010002088100020F010002008B54B6E84
:100ED000DA0702D48B899B0501D5002008BD886DF7
:100EE000FFF7D2FB002008BD08B54B6EDA0702D42D
:100EF0008B899B0501D5002008BD886DFFF7CCFBD1
:100F0000002008BD2DE9F843314C324BDFF8D89072
:100F1000DFF8D880304FC4F8383100252946042343
:100F2000082204F15C002D4EE360C4E90055C4E9D9
:100F30000455A5606566A56100F028FC04F1580021
:100F4000C4E90849C4E90A872663FFF795FB2946E7
:100F5000234B6367082204F1C400C4E91A55C4E9AD
:100F60001E552567C4F8CC50C4F8805000F00EFC24
:100F700004F1680304F1C000C4F88830C4E9239880
:100F8000C4E92576FFF778FB164BC4F8DC30294618
:100F900004F596700822C4E93455C4E93855C4F8FC
:100FA000D850C4F83451C4F8E85000F0EFFB04F115
:100FB000D003C4E93E87C4F8F49004F59470C4F8F3
:100FC0000061C4F8F030BDE8F843FFF755BB00BF3F
:100FD00020100020750E00080115000825150008D6
:100FE000090001001200020099140008C114000851
:100FF000F8B506462A48FFF747FB2A4BD3F83831A5
:10100000002B43D0284FD7E90134013B04D524E01D
:101010005A1C04F1680420D0B4F90C50013B002D97
:10102000F6D1224BE36004F158006566FFF724FB1C
:101030001B48FFF731FBC4E90155C4E9045525609D
:10104000A5610822294604F15C0000F09FFBC4E979
:101050000D55C4E912552046F8BD3D680DB12F4627
:10106000D1E74FF4D6713046FFF75AFA044680B103
:101070000423056043600C302946A06025464FF4E8
:10108000D07200F083FB3C602F46BCE7FFF73AFFCD
:10109000B8E703483C60FFF7FFFA0C233360DAE758
:1010A0001C10002020100020500C00200100FFFF29
:1010B00010B504460B48FFF7E7FA236A2BB90A4B31
:1010C0000A4AD3F83831226223B1BDE810400548FE
:1010D000FFF7E2BAFFF716FFBDE810400148FFF73F
:1010E000DBBA00BF1C100020201000208D0E00086D
:1010F0000148FFF7C9BA00BF1C1000200148FFF7E4
:10110000CBBA00BF1C10002008B50548FFF7BCFA99
:10111000BDE80840034A0449002000F099B900BF27
:101120001C100020500C0020CD0E000808B5054A08
:101130000549002000F08CF9BDE808400348FFF79E
:10114000ABBA00BF500C0020E90E00081C100020B4
:101150009368002B00F0F8802DE9F04FB1F90CC036
:101160001CF0080F83B0904681460C4631D00B69C5
:101170007BB31CF00207D8F8006038D00027D4F801
:1011800028B0216ADFF8C4A23D4655452B463A46B1
:1011900028BF53464846C5B1D847002840F3CA8007
:1011A000D8F808301B1A07442D1AC8F80830002B4D
:1011B00000F0B68055452B46D4F828B0216A28BFE8
:1011C00053463A464846002DE6D1D6E90075083622
:1011D000DBE72146484600F0F9F9002840F0AF80EF
:1011E000B4F90CC0D8F800601CF00207C6D11CF09E
:1011F000010A63D12368A168574618468B46002F21
:1012000058D01CF4007F00F0B580B9420A4600F2C5
:10121000E1801CF4906F2FD0216962695D1A02EBA6
:10122000420202EBD2726B1C52103B44934292BFBB
:1012300093469B461A461CF4806F00F0EA801146E4
:101240004846FFF76DF9002800F0F9802A46216929
:10125000009000F085FCA289009B22F4906242F08D
:101260008002A2815819ABEB0505C4F814B02361C4
:10127000A5602060BB463A465146009200F006FA4F
:10128000A1682368009AA1EB0B011A443D46A160B6
:1012900022600027D8F808305B1BAA44C8F8083041
:1012A000002B3DD02368A168B4F90CC018468B46CA
:1012B000002FA6D1D6E900A708369EE73846BB46E0
:1012C0003D460097002D41D0002846D0009A206866
:1012D000A168D4E90473AA4228BF2A46B84204D9B7
:1012E00001EB030A524500F38580934275DC216AC5
:1012F000A76A5A464846B847B0F1000A1ADD009B73
:10130000B3EB0A0300930FD00120D8F80830A3EB09
:101310000A03D344A5EB0A05C8F80830002BD1D145
:10132000002003B0BDE8F08F2146484600F076FD6E
:101330000028EAD0B4F90C3043F04003A3814FF009
:10134000FF3003B0BDE8F08F00207047756833466A
:101350000836002DFAD0D3F800B02A460A215846A4
:1013600000F0AEFB002867D00130A0EB0B03009328
:101370001A46ACE722699A4214D36269BA4211D87C
:101380006FF00043BB4228BF3B46A56A93FBF2F3D4
:10139000216A02FB03F348465246A847051EC9DDF1
:1013A0007F1B77E7B94228BF39460D4618460A46E3
:1013B000514600F06BF9A1682368491B2B44A160DA
:1013C00023600029ECD12146484600F027FD002883
:1013D000E6D0AFE7BB463A464EE75946019200F0E9
:1013E00055F9019AA3689B1AA360236813442360EC
:1013F000924684E75946524600F048F92368534420
:1014000023602146484600F009FD00283FF477AFED
:1014100090E7484600F03EFC034600287FF422AFE8
:1014200021694846FFF742F9B4F90C300C2223F049
:101430008003C9F800207FE76A1C009247E70C226E
:10144000B4F90C30C9F8002076E700BF00FCFF7F3C
:101450002DE9F84380460F4616464FF00009D6E9BD
:101460000154013D11D4A389012B05F1FF3508D9A1
:10147000B4F90E300133214603D04046B84749EA5B
:1014800000096B1C04F16804EDD13668002EE6D12A
:101490004846BDE8F88300BF10B50C46B1F90E1000
:1014A00007F0FCFF002803DB636D0344636510BD98
:1014B000A38923F48053A38110BD00BF002070478F
:1014C0002DE9F0410C46B1F90C101F46CB0505463D
:1014D00016460BD421F48051A1813B46B4F90E107D
:1014E00032462846BDE8F04107F0DFBFB4F90E10E0
:1014F0000223002207F0D7FFB4F90C10EAE700BF7F
:1015000010B50C46B1F90E1007F0CDFFB4F90C3050
:10151000421C0EBF23F4805343F480536065A381C3
:1015200010BD00BFB1F90E1007F0C1BFF8B50D46F0
:101530001446064610B1036A002B37D0A389A2696E
:10154000A2601A0719D52369BBB122686169D31A51
:10155000EDB299422F4620DD0133A1680139A16027
:10156000511C2160157062699A420DD0A389DB0776
:1015700001D50A2D08D03846F8BD2146304600F086
:1015800025F838B92369E0E72146304600F046FCEB
:101590000028F0D04FF0FF37EDE72146304600F04D
:1015A0003DFC0028F6D122680123D6E7FFF780FD35
:1015B000C4E700BF10B4044C03460A4620685DF837
:1015C000044B1946FFF7B2BF000C002038B52E4B74
:1015D0001B6805460C4613B11A6A002A4BD0B4F9B1
:1015E0000C3018071CD5226922B313F0010107D073
:1015F000616900204942A060A1613AB1002038BD74
:10160000980758BF6169A160002AF7D1190658BF31
:101610001046F4D543F04003A3814FF0FF3038BDAE
:10162000D9062CD55A0712D4226943F00803A381A6
:10163000002ADAD103F42071B1F5007FD5D021461C
:10164000284600F02BFCB4F90C302269CDE7616B21
:1016500051B104F14402914204D02846FFF726F824
:10166000B4F90C300022626322690021C4E9002130
:1016700023F02403D9E71846FFF71AFDAFE7092244
:101680002A6043F04003C7E7000C002088420ED9CF
:101690008B1883420BD900EB020C002A6ED06246F5
:1016A00013F801CD02F801CD9942F9D170470F2A04
:1016B0000FD8034602F1FF3C002A5FD00CF1010C69
:1016C000013B8C4411F8012B03F8012F6145F9D13E
:1016D000704740EA01039B0751D1A2F1100370B596
:1016E00001F1200C23F00F0501F1100E00F11004A0
:1016F000AC441B095EF8105C44F8105C5EF80C5CAE
:1017000044F80C5C5EF8085C44F8085C5EF8045C25
:1017100044F8045C0EF1100EE64504F11004E9D122
:10172000013312F00C0F01EB031102F00F0400EB78
:10173000031328D0043C24F003064FEA940C1E4403
:101740001C1F8E465EF8045B44F8045FB442F9D176
:101750000CF1010402F0030203EB840301EB8401AA
:1017600002F1FF3C4AB10CF1010C013B8C4411F831
:10177000012B03F8012F6145F9D170BD704702F1CB
:10178000FF3C03469AE72246EAE700BF830730B5ED
:1017900047D0541E002A3ED0CAB2034601E0013CA5
:1017A00039D303F8012B9D07F9D1032C2CD9CDB2E5
:1017B00005EB05250F2C05EB054535D9A4F11002E5
:1017C00022F00F0C03F1100EE6444FEA121C1A46E9
:1017D000156055609560D56010327245F8D10CF1F6
:1017E000010214F00C0F03EB021204F00F0C13D0E3
:1017F000ACF1040323F003030433134442F8045B05
:101800009A42FBD10CF003042CB1C9B21C4403F87A
:10181000011B9C42FBD130BD64461346002CF4D121
:10182000F9E703461446C0E71A46A446E0E700BFBE
:1018300038B5C46B0CB1002038BD80210546FEF7D9
:101840006FFE0246E86330B1031F7C3243F8044F59
:101850009342FBD1EFE74FF0FF3038BD30B51F2981
:1018600083B0054608D8C36B0C4653B153F8240027
:1018700043F8242003B030BD162303604FF0FF303F
:10188000F8E780210192FEF74BFE019AE8630346D8
:101890000028F3D0011F00F17C05002041F8040F5F
:1018A000A942FBD1E2E700BF1F2938B505461ED883
:1018B000C26B0C466AB152F8213053B1012B06D0ED
:1018C000591C10D0002142F82410204698470020CF
:1018D00038BD284600F0F2F8224601462846BDE809
:1018E000384000F0D5B816230360012038BD162318
:1018F00003604FF0FF3038BD1F292AD838B5C36BBD
:101900000C460546A3B153F8242003EB84034AB1E7
:10191000511C0BD0012A07D0002520461D6090479E
:10192000284638BD012038BD032038BD022038BD0F
:101930008021FEF7F5FD0346E86338B1021F002160
:101940007C3042F8041F9042FBD1DCE74FF0FF30BF
:1019500038BD4FF0FF30704738B5134B1F281D6856
:101960001DD8EA6B044662B152F820304BB1012B0E
:1019700005D0591C0FD0002142F8201098470020B4
:1019800038BD284600F09AF8224601462846BDE8B0
:10199000384000F07DB816232B60012038BD162397
:1019A0002B604FF0FF3038BD000C0020114B1F287A
:1019B00070B51E6808D8F36B04460D464BB153F85A
:1019C000240043F8245070BD162333604FF0FF30DD
:1019D00070BD80213046FEF7A3FD0346F06300286A
:1019E000F4D0021F00217C3042F8041F9042FBD14A
:1019F000E5E700BF000C002038B50B4B1D68EC6B11
:101A00000CB1002038BD80212846FEF789FDE8632F
:101A100038B1031F00F17C0243F8044F9342FBD11D
:101A2000EFE74FF0FF3038BD000C002038B5174B02
:101A30001F281D6826D80446E86BA0B150F8243052
:101A400000EB84004BB15A1C0BD0012B07D00025B2
:101A5000056020469847284638BD012038BD032040
:101A600038BD022038BD80212846FEF759FDE863C5
:101A700040B1031F00F17C01002243F8042F99427A
:101A8000FBD1DBE74FF0FF3038BD00BF000C00207A
:101A900070B50C46084D03460026204611461C46EC
:101AA0002E6007F03DFD431C00D070BD2B68002B5D
:101AB000FBD0236070BD00BF5C11002007F03ABD71
:101AC00001F0FF01102A2BDB10F0070F08D010F8EF
:101AD000013B013A8B422DD010F0070F42B3F6D1F3
:101AE000F0B441EA012141EA014122F007047FF00C
:101AF00000070023F0E80256083C85EA010586EA63
:101B0000010685FA47F5A3FA87F586FA47F6A5FA9E
:101B100087F68EB9EED1F0BC01F0FF0102F00702AA
:101B200032B110F8013B013A83EA010313B1F8D155
:101B30000020704701387047002D06BF3546033836
:101B4000073815F0010F07D1013015F4807F02BF6F
:101B5000013015F4C03F0130F0BC0138704700BFC0
:101B6000844641EA000313F003036DD1403A41D3A8
:101B700051F8043B40F8043B51F8043B40F8043B67
:101B800051F8043B40F8043B51F8043B40F8043B57
:101B900051F8043B40F8043B51F8043B40F8043B47
:101BA00051F8043B40F8043B51F8043B40F8043B37
:101BB00051F8043B40F8043B51F8043B40F8043B27
:101BC00051F8043B40F8043B51F8043B40F8043B17
:101BD00051F8043B40F8043B51F8043B40F8043B07
:101BE00051F8043B40F8043B51F8043B40F8043BF7
:101BF000403ABDD2303211D351F8043B40F8043B97
:101C000051F8043B40F8043B51F8043B40F8043BD6
:101C100051F8043B40F8043B103AEDD20C3205D3A6
:101C200051F8043B40F8043B043AF9D2043208D09E
:101C3000D2071CBF11F8013B00F8013B01D30B8810
:101C400003806046704700BF082A13D38B078DD0EE
:101C500010F003038AD0C3F10403D21ADB071CBFC0
:101C600011F8013B00F8013B80D331F8023B20F82A
:101C7000023B7BE7043AD9D3013A11F8013B00F863
:101C8000013BF9D20B7803704B7843708B788370EB
:101C9000604670472DE9F041144649B3EAB1064663
:101CA0000D4600F085F98442074602D8B4EB500F88
:101CB0001AD821463046FEF733FC804678B1BC4244
:101CC0002246294628BF3A46FFF74AFF30462946B2
:101CD000FEF7ECFC4046BDE8F081FEF7E7FC4FF074
:101CE00000084046BDE8F081A8464046BDE8F081C6
:101CF000BDE8F0411146FEF713BC00BFB1F90C304E
:101D00001A072DE9F0410C4680463DD44A68002A66
:101D100056DDE56A002D34D00022D8F80060C8F8FE
:101D2000002013F48052216A57D101234046A8476E
:101D3000431C024661D0B4F90C30E56A216A5F07A2
:101D400005D56368D21A636B0BB1236CD21A0023DA
:101D50004046A847451C42D00023636023692360A6
:101D6000A389D90400D56065616BC8F8006041B1F2
:101D700004F14403994202D04046FEF797FC002349
:101D800063630020BDE8F0810E69002EF9D09B0747
:101D90000D6808BF4B690E6018BF0023AD1B8B6038
:101DA0000BE02B463246216AA76A4046B847B0F19D
:101DB000000CA5EB0C05664406DD002DF1DCE0E728
:101DC0000A6C002AA5DCDCE7B4F90C3043F04003D0
:101DD000A3814FF0FF30BDE8F081626DAFE7D8F826
:101DE0000020B4F90C309AB11D2A01D0162AEDD189
:101DF00023690022C4E90032B6E7D8F80030002B8E
:101E000099D01D2B01D0162BDED1C8F80060B8E7A1
:101E1000626022692260DA04A5D4A5E738B50B69AF
:101E2000CBB10C46054608B1036ABBB1B4F90C301E
:101E30008BB1626ED00701D4990512D52846214690
:101E4000FFF75CFF636EDA07054602D4A3899B05A2
:101E50000BD5284638BD0025284638BDFFF728F9A0
:101E6000E4E7A06DFEF710FCE8E7A06DFEF714FCB8
:101E7000EFE700BF014618B1044B1868FFF7CEBF6B
:101E8000034A04490448FFF7E3BA00BF000C0020EE
:101E9000500C00201D1E0008040C002070B5B1F984
:101EA0000C300C46990796B007D504F14703012280
:101EB000C4E90432236016B070BDB4F90E100029D5
:101EC000054629DB6A4607F013FB002822DB4FF4A6
:101ED00080612846019EFEF723FB88B3A38920601A
:101EE00043F0800306F47046A381B6F5005F4FF41B
:101EF0008063C4E90403DED1B4F90E10284607F06C
:101F000003FB0028D7D0A38923F0030343F0010388
:101F1000A381D0E7B4F90C3013F0800F14BF402632
:101F20004FF4806631462846FEF7FAFA40B1A3899D
:101F3000206043F08003C4E90406A38116B070BD9D
:101F4000B4F90C309A05B6D423F0030304F1470228
:101F500043F002030121C4E90421A3812260AAE71E
:101F600070B50C46B1F90E10002996B015461E4604
:101F70000FDB6A4607F0BCFA00280ADB019B03F47A
:101F80007043A3F50053B3FA83F34FF480625B0907
:101F900008E0A28912F0800F4FF0000314BF402226
:101FA0004FF48062002033602A6016B070BD00BF1D
:101FB00051F8043C181F002BBCBF0B58C0187047C9
:101FC000032A70B511D940EA01039B071FD10446CB
:101FD0000B4602E0043A032A1DD91946204653F85D
:101FE000045B54F8046BAE42F4D0541EB2B1421EEE
:101FF000013901E0C3180CD012F801EF11F801CF3C
:10200000E645A4EB0203F5D0AEEB0C0070BD541E08
:10201000EDE7184670BD20461946E6E7104670BD4C
:10202000A0F58072B2F5F85F10B4034622D213F423
:10203000805F00F4007403F48062C0F3002003F4B6
:1020400000630CD000010CB140F020000AB140F058
:1020500040000BB140F080005DF8044B08470CB124
:1020600040F002000AB140F00400002BF4D040F030
:102070000800F1E70020EFE7034A012311888340BD
:102080000B431380704700BFB01E0120034A012399
:102090008340108820EA030010807047B01E0120A2
:1020A00001F0070330B5C908012402EB81029C400E
:1020B000E4B2013A002112F8015F20FA01F343F380
:1020C00000036B40234001315D4004291570F2D1BB
:1020D00030BD10B5002200F00704C00801EB8001FC
:1020E00010468B5CE34003F0010393400132184338
:1020F000042AC0B2F5D110BD17B40C46C1B2C0F36A
:10210000072006280BD810290FD801EB0011094A27
:102110000144204603B05DF8044BFFF7C1BF031D27
:10212000DBB2012B01D8044AF3E703B05DF8044B9E
:10213000704700BF441E0120401E0120C3B2C0F3FF
:102140000720062882B008D8102B0DD803EB001307
:102150000749184402B0FFF7BCBF0430C0B20128E1
:1021600002D804491846F5E7002002B0704700BFC6
:10217000441E0120401E0120054B064A1B781278A0
:102180009A4200D17047013303F00703F8E700BF1C
:10219000B41E0120B31E0120CBB2C1F307210629D2
:1021A00082B00AD8102B1AD8B8B901EB0111194422
:1021B0000C4B33F8110002B07047FD2906D173B9FA
:1021C000002847F6416018BF0120F4E7FC2906D13A
:1021D0002BB9002847F64060F5E70120EBE7002027
:1021E000E9E700BF12F10008E7284FD8DF2807D839
:1021F000312864D00ED8292857D02A2866D07047B5
:10220000A0F1E003072B41D8DFE803F015402328B5
:1022100031403C41392804D0822802D035283FD0B3
:102220007047324B1A7892071FD15B7813F0080F72
:1022300018BF292070472D4A1378D9074DD45278FA
:1022400012F0010F22D013F0100F14BF0020E32072
:102250007047264B1B7813F0040FF3E7234A1378DB
:1022600059073CD45278D207EDD5E02070471F4B78
:102270005A7891070AD51B7813F0100F14BF00206D
:10228000E7207047194B1B781A07F5D47047174A97
:102290001378190725D452789107EDD5E4207047BB
:1022A000124B1B7813F0200FC2E7104B1A789206DE
:1022B00019D45B7813F0080F18BF392070470B4B07
:1022C0001B7813F0400F18BF2A207047074B1B786C
:1022D00013F0400F18BF3120704739207047E220BB
:1022E0007047E62070473520D0E700BF961E0120DA
:1022F00010B52F4C21784B0713D500F01402A2F132
:10230000040C00F01803DCF1000242EB0C02A3F114
:10231000080CDCF1000343EB0C039A4218BF80F079
:102320000C000B0713D500F01402A2F1140C00F0FE
:102330001803DCF1000242EB0C02A3F1180CDCF1F3
:10234000000343EB0C039A4218BF80F00C00647842
:10235000E30713D500F0110202F1FF3C00F018036F
:10236000DCF1000242EB0C02A3F1080CDCF10003EB
:1023700043EB0C039A4218BF80F00900A30711D564
:1023800000F0110200F01803A2F111046242A3F15F
:10239000180C6241DCF1000343EB0C039A4218BFB6
:1023A00080F00900CB0648BF00F0E70010BD00BF79
:1023B000961E012038B5FFF717FFB0F5A04F044671
:1023C00036D2B0F5804F80F09E80DF2816D8CC281A
:1023D00000F28880A7280AD8A42875D8012804D03C
:1023E000031F9BB2A12B28BF0024204638BDA0F1BB
:1023F000A8039BB21A2B6DD90024F6E7B0F5005F55
:1024000006D2FF2871D8A0F1E0039BB2082BEAE7BF
:10241000C0F30420FFF76CFF0546E0B2FFF7E4FECF
:102420002D0205F4F855054345F40055ACB2DCE740
:1024300045F25F23984220D845F23F23984278D84E
:1024400045F21F23984211D8B0F5A44F65D200F091
:102450001F00FFF74DFFC4F34314C2064FEA0424E4
:1024600003B279D41C4344F4104431E000F01F045B
:102470004AF2F10343EA0424B7E745F2BF23984246
:1024800014D845F29F2398425ED8A0F5A443603B40
:102490009BB21F2BB0D800F003040123C0F38202CB
:1024A000A34043EA421343F40A4340E0A0F5A543A6
:1024B000403B9BB21F2B9FD8040204F4F85444F411
:1024C000204444F0F00490E7A0F1240444F4804454
:1024D000A4B28AE75834224BE4B233F8144044F4EF
:1024E000884482E740F4A044F2E7C0F30720FFF7F6
:1024F000FFFE0546E0B2FFF777FE2D0205F4F85522
:1025000040EA0504E4E7C0B2FFF76EFE04F470642D
:10251000204340F4204084B267E700F00304012325
:10252000C0F38502A34043EA421343F40D439CB237
:102530005BE700F003040123C0F38202A34043EAF7
:10254000421343F40C43F2E700F01F00FFF7D0FE04
:10255000040204F4F85448E71B011BB282E700BFF1
:1025600000F200087FB5114BADF804001D88104B38
:102570001B881D43ADB20F2445FA04F3DB0705D4D5
:10258000013CF9D20026304604B070BDBDF80430DD
:10259000ADF80C30E6B203993046FFF7FDFDFFF7CA
:1025A00009FF80B20128EBD0EDE700BFB01E01208B
:1025B000AE1E012013B502884379ADF804200198BE
:1025C00073B169B1FFF7CEFF044601460198FFF7EA
:1025D00093FD0199204602B0BDE81040FFF7DCBD35
:1025E000FFF7ACFD0446F4E71FB5ADF80400019811
:1025F000FFF7B8FFBDF80430ADF80C300399FFF7D2
:10260000CBFD05B05DF804EBFFF7D4BE08B503467B
:102610000079A8B11888FFF7E7FFC3B2C0F3033011
:10262000062813D094BF0E30063000F00F000128AA
:1026300010D8F02B10D004D8E72B8CBF002001203D
:1026400008BDF42B14BF00200120F9E7E72B03D9C4
:10265000F12BF7E70020F3E70120F1E700207047B6
:102660000020704730BFFDE77FB52949C0F307431D
:1026700010F47F4FC95CC2B2C0F3072644D002EB0E
:102680004204FF236400B4FBF3F46FF0540363438C
:1026900003EB420303EB4303DBB216FB03F2C3F18C
:1026A000FF03734312121B12C6F1FF05C2F1FF02B2
:1026B000C3F1FF034D434A434B43C5F30725C2F320
:1026C0000722C3F30723062C19D8DFE804F0040619
:1026D000110F141804000A461946002061F3070080
:1026E00062F30F2065F3174004B070BD0B4611462E
:1026F0002A461D46F1E71A460B462946F9E70B46DE
:10270000294615461A46E8E70D460A46E5E700BFA2
:1027100010ED0008012830B501D8C0B230BDB0F5C9
:10272000F75F9DBF42090832D2B2FF220124A318ED
:102730005910C3F34705C3F34F0313FB03F39BB2D5
:10274000834206D9013DEAB29442F0D9013CE0B29D
:10275000E4E7FF2902D00135ECB2F5E70846DDE7F2
:10276000074B188800EB402200EB820000F5585020
:10277000193080B2188000EB1020C0B2704700BF43
:102780004C0E002010F040021ABFC343DBB20346D8
:1027900010B503F00F0102B101310A4CC3F301136C
:1027A00004EB430214F81330527812FB01F203EBEE
:1027B0002213DBB2020644BF5B42DBB283F080002F
:1027C00010BD00BF08ED0008024610B9C90FC801CE
:1027D000704780EAE073A3EBE073002918B201FAB6
:1027E00083F30CDB091A490191FBF3F1C1F12001DC
:1027F0004BB2D8B2002ABCBF4042C0B270475B01A6
:10280000401A93FBF0F3C3F160035BB2F1E7000001
:10281000154B03EB4103E42193F8773013FB01F3ED
:10282000C2EB132384B01C33002B0190B8BF5B4272
:10283000C0F30720A0EBC3031BB223EAE37313FB2F
:1028400000F31B128DF80530019B0020DAB262F311
:102850000700C3F3072262F30F20C3F3074363F3B8
:10286000174004B0704700BF58EF0008154B03EB4A
:102870004103E42193F8773013FB01F3C2EB1323F8
:1028800084B01C33002B0190B8BF5B42C0F30740FB
:10289000A0EBC3031BB223EAE37313FB00F31B1289
:1028A0008DF80630019B0020DAB262F30700C3F313
:1028B000072262F30F20C3F3074363F3174004B00A
:1028C000704700BF58EF000830B585B0C0F307254A
:1028D000EB1A01901046DCB2FFF776FFC0EB8013D5
:1028E00000EB83000444E4B214FB05F424128DF8D9
:1028F0000540019B0020DAB262F30700C3F3072210
:1029000062F30F20C3F3074363F3174005B030BDF4
:1029100030B585B0C0F30745EB1A01901046DCB224
:10292000FFF752FFC0EB801300EB83000444E4B2D6
:1029300014FB05F424128DF80640019B0020DAB246
:1029400062F30700C3F3072262F30F20C3F30743C8
:1029500063F3174005B030BD30B585B0C0F307252F
:1029600001909DF820001C1A1046FFF72DFF2C4403
:10297000E4B2241AE4B214FB05F424128DF80540E5
:10298000019B0020DAB262F30700C3F3072262F36F
:102990000F20C3F3074363F3174005B030BD30B5D4
:1029A00085B0C0F3074501909DF820001C1A104621
:1029B000FFF70AFF2C44E4B2241AE4B214FB05F436
:1029C00024128DF80640019B0020DAB262F3070062
:1029D000C3F3072262F30F20C3F3074363F31740E7
:1029E00005B030BD84B001908DF80420019B00201B
:1029F000DAB262F30700C3F3072262F30F20C3F3D6
:102A0000074363F3174004B0704700000C4B03EB1F
:102A1000410384B093F8773001909B1A8DF804300D
:102A2000019B0020DAB262F30700C3F3072262F3CE
:102A30000F20C3F3074363F3174004B0704700BF90
:102A400058EF00080C4B03EB410384B093F8783047
:102A500001909B1A8DF80430019B0020DAB262F3DA
:102A60000700C3F3072262F30F20C3F3074363F3A6
:102A7000174004B0704700BF58EF0008134B3831BF
:102A800030B503EB410403EB4103257ADB79A5F173
:102A9000200464B2002C85B0BCBFC5F120056CB227
:102AA0009A1A01902244C0B210448DF80400019B90
:102AB0000020DAB262F30700C3F3072262F30F20AB
:102AC000C3F3074363F3174005B030BD58EF000868
:102AD00084B003EB43039DF81020019002EB5303F5
:102AE0008DF80430019B0020DAB262F30700C3F3D3
:102AF000072262F30F20C3F3074363F3174004B0C8
:102B000070471FB5019048B20028BCBF494248B287
:102B10005243C0F1380010FB002080B21C46FFF782
:102B2000F9FD00EB400004448DF80440019B0020B7
:102B3000DAB262F30700C3F3072262F30F20C3F394
:102B4000074363F3174004B010BD1FB50190104652
:102B50001C46FFF739FE03198DF80430019B002055
:102B6000DAB262F30700C3F3072262F30F20C3F364
:102B7000074363F3174004B010BD1FB501909DF8E3
:102B800018001C1A1046FFF71FFEE4B2241A8DF835
:102B90000440019B0020DAB262F30700C3F307226E
:102BA00062F30F20C3F3074363F3174004B010BD73
:102BB00084B0019003F13800104B03EB4003187A06
:102BC000DB79703B4B43203802FB0032002A9DF832
:102BD0000430B8BF7F3203EBE2138DF80430019B61
:102BE0000020DAB262F30700C3F3072262F30F207A
:102BF000C3F3074363F3174004B0704758EF00086E
:102C000084B0019003F13800104B03EB4003187AB5
:102C1000DB79703B4B43203802FB0032002A9DF8E1
:102C20000430B8BF3F3203EBA2138DF80430019B90
:102C30000020DAB262F30700C3F3072262F30F2029
:102C4000C3F3074363F3174004B0704758EF00081D
:102C50001FB5164C0190383304EB4304C0B2237AFD
:102C6000E479203B5343A4F1700252B2002ABCBF66
:102C7000C4F1700462B2C2F1380201FB023111EBFF
:102C8000410148BF7F3100EBE1108DF80400019B4A
:102C90000020DAB262F30700C3F3072262F30F20C9
:102CA000C3F3074363F3174004B010BD58EF0008A7
:102CB000104B383103EB410384B0197ADB79019072
:102CC0005B1A03EB4303DBB220298CBFD2189A1A9C
:102CD000D2B28DF80420019B0020DAB262F3070023
:102CE000C3F3072262F30F20C3F3074363F31740D4
:102CF00004B0704758EF000830B585B0C4B20190F9
:102D000010460D46FFF73EFD134901EB450191F8D2
:102D10007730C218D2B2A2F180035BB2002BBCBFE5
:102D2000C2F1800253B25B0003F0FE0303EB4303E6
:102D300004EB93148DF80440019B0020DAB262F397
:102D40000700C3F3072262F30F20C3F3074363F3C3
:102D5000174005B030BD00BF58EF0008114B03EB22
:102D6000410384B093F8771001908B1A5BB2002B6B
:102D7000BCBF521A53B2DBB203EB4303C0B200EB49
:102D800053108DF80400019B0020DAB262F30700B3
:102D9000C3F3072262F30F20C3F3074363F3174023
:102DA00004B0704758EF0008134B144A1B7912887F
:102DB000083384B0FF2B28BFFF23C9430190C9B259
:102DC000C0F30740C3F3031310FB01F05343000AA1
:102DD0001B128DF806008DF80430019B0020DAB23A
:102DE00062F30700C3F3072262F30F20C3F3074324
:102DF00063F3174004B07047A01E0120781B002029
:102E0000114B124A1B7912880833FF2B28BFFF236E
:102E1000C3F30313C94384B05343C1F3850101EBEA
:102E2000232101908DF80410019B0020DAB262F397
:102E30000700C3F3072262F30F20C3F3074363F3D2
:102E4000174004B0704700BFA01E0120781B00206F
:102E500084B003EB8302BDF81030019013449BB2A1
:102E6000FF2B154A15491279098828BFFF23C0F3A3
:102E70000740DB4350FA83F3FF2B02F1080228BF1F
:102E8000FF23FF2A28BFFF22C2F303124A43121274
:102E90008DF804208DF80630019B0020DAB262F331
:102EA0000700C3F3072262F30F20C3F3074363F362
:102EB000174004B0704700BFA01E0120781B0020FF
:102EC00000291FB5B8BF4942002AB8BF524209B213
:102ED000090112B2FF294FEA0212A8BFFF21FF2AFF
:102EE000A8BFFF2209B212B2BDF81840019091426A
:102EF000A8BF1146234411FA83F39BB2FF2B154A56
:102F000015491279098828BFFF23C0F30740DB4326
:102F100050FA83F3FF2B02F1080228BFFF23FF2A98
:102F200028BFFF22C2F303124A4312128DF8042075
:102F30008DF80630019B0020DAB262F30700C3F37C
:102F4000072262F30F20C3F3074363F3174004B073
:102F500010BD00BFA01E0120781B00201FB5482B0C
:102F60000190C0F307403CD8BDF81840E31A9BB26B
:102F7000FF2B28BFFF23083189B2102905D902F1A0
:102F8000080189B2112928BFFF231749174C097975
:102F900024880831FF2928BFFF21C1F30311DB4337
:102FA00050FA83F3002A04FB01F14FEA2121B8BF54
:102FB0000332FF2B01EBA20228BFFF238DF8042070
:102FC0008DF80630019B0020DAB262F30700C3F3EC
:102FD000072262F30F20C3F3074363F3174004B0E3
:102FE00010BDFF23C7E700BFA01E0120781B0020F3
:102FF00084B0C0F30741BDF810200190D31A9BB2F2
:10300000FF2B28BFFF23DBB2DA4351FA82F2FF2AFB
:1030100028BFFF2253FA80F08DF804008DF80620B7
:10302000019B0020DAB262F30700C3F3072262F3C8
:103030000F20C3F3074363F3174004B0704784B015
:10304000BDF810200190D21A92B2FF2A28BFFF22A9
:10305000C0F30740D24350FA82F2FF2A28BFFF2272
:103060008DF80620019B0020DAB262F30700C3F35B
:10307000072262F30F20C3F3074363F3174004B042
:10308000704700F027B800F043B800EB4000C0EBF9
:10309000C000C3B203F11502D2B2662A4FF000009D
:1030A00063F30700134628BF662382B063F30F2043
:1030B00002B07047054B1A7892071EBF044A0021E0
:1030C00011701A7822F003021A707047A01E0120B6
:1030D000F40F0020F0B50C4D00EB4007EE19440052
:1030E00096F801C08C4505D1EF5D974202D1B678C4
:1030F0009E4207D020442C18044E2A5401273770D2
:103100006170A370F0BD00BF081900203A1A0020BA
:1031100070B5134605460E46002420463246294621
:103120000134FFF7D7FF662CF7D170BD00B110470F
:1031300008470000144BF0B51A68144D144E521B8A
:1031400093B211FA82F2B2F5806FC4BFC3F5806109
:1031500089B23488002219444FF0010C8B4202DB03
:1031600002B13480F0BD10F8017B15F803E0BE45D4
:1031700006D09A090CFA02F22243EF5494B20122CB
:1031800001339BB2EAE700BF0415002008150020B8
:1031900002150020064A074B002918BF134623F0EA
:1031A0000F0203F00F031069D84000F001007047D0
:1031B0000A0402400F0002401C4970B50722012694
:1031C000202406FA02F303400C8319D00023072BB6
:1031D00006D14C830023032B0AD1013AF1D270BDF2
:1031E00000BF00BF00BF00BF00BF00BF0133EEE75C
:1031F00000BF00BF00BF00BF00BF00BF0133EAE750
:103200001D46032D0AD14C83072BE6D000BF00BF1B
:1032100000BF00BF00BF00BF0133F5E700BF00BF24
:1032200000BF00BF00BF00BF0135EAE70000024059
:1032300070B5174E337813B3302383F31188154CD0
:1032400000252078FFF7B8FF6078FFF7B5FF01355C
:10325000A078FFF7B1FF662D04F10304F1D1DFED93
:103260000E7A002307EE103AB8EEC77AB4EEE77A8A
:10327000F1EE10FA04D4002383F31188337070BD8B
:1032800000BF00BF00BF00BF00BF00BF0133E9E7C0
:103290003A1A002008190020FCFF154502B110471A
:1032A00070470000024B186808B103681847704760
:1032B000341E01200B4B07B51A8882420ED01880AD
:1032C000094B1B6853B103228DF80500000A8DF8E5
:1032D00006001B698DF8042001A8984703B05DF82B
:1032E00004FB00BFB6140020341E01200B4B07B5B1
:1032F0001A8882420FD01880094B1B685BB10422E8
:103300008DF80500000A8DF806001B698DF8042071
:103310000DEB0200984703B05DF804FBB4140020E5
:10332000341E012010B5164B1B7893B1154B93F941
:103330000030002B0DDAEF284FEAD00308D8124AEC
:103340001A4400F007009178012383400B439370E7
:1033500010BD0E4900224FF0FF3311F8014FA0427B
:10336000F6D0B3F1FF3F01D104B953B20132062ABE
:10337000F3D15A1CECD0064A13449870E8E700BF1A
:10338000B80F0020961E01202014002041140020B8
:103390004014002010B5124B1B789BB1114B93F9D0
:1033A0000030002B0EDAEF284FEAD00209D80E4B7E
:1033B000134400F007009A780121814022EA0102BB
:1033C0009A7010BD0023094A194612F8014F0133C3
:1033D0008442DBB208BF1170062BF6D1F1E700BFC3
:1033E000B80F0020961E0120201400204114002058
:1033F00070B5302383F311884FF080431148124990
:103400005C6A03680A68E41AA242104A0AD9A3F562
:103410008333E03B036010680D4B04F583340344B1
:10342000E03413600C601668002181F311880948AC
:10343000094A4FF47A750023E4FB0501FCF77CFF91
:10344000304470BD701C01206C1C0120681C0120E0
:1034500088598F029F860100A0860100BFF34F8F1D
:103460000549064BCA6802F4E0621343CB60BFF320
:103470004F8F00BFFDE700BF00ED00E00400FA053C
:1034800090F85F2090F85E3090F8611043EA0223D4
:1034900090F8602042EA0122190A032914D00CD8BE
:1034A000012926D002290CD1164A3B231648002AAE
:1034B0004260036008BF1046704721290DD02229C1
:1034C00011D000231A46F1E7DBB2022BF9D80F4ADC
:1034D0000F4952F82320CB5CE8E76AB1012AF0D10A
:1034E0000C4A0923E2E752B1012AEAD10A4A8B23A6
:1034F000DCE70A4A1223D9E7094A0923D6E7094A31
:103500004423D3E799E80008AC140020ECE8000855
:10351000E6E80008C4E80008CAE70008D4E80008A4
:10352000ABE8000855E8000890F8622090F86300C6
:10353000084942EA0022022A0B7807D1012B01D068
:10354000062B05D1044B4A781A707047024A137053
:10355000704700BFA8140020A514002070B590F893
:103560005C2002F07F03212B044640F0948012F08F
:10357000800F90F85D3051D0022B33D0032B23D035
:10358000012B4BD190F8603090F85E10012B01D9DF
:10359000002070BD0829FBD8564AD25C012AF7D812
:1035A000554BA82000FB0233D3F8A430002BEFD0FA
:1035B000524D5E6818682A46B04705F10803236536
:1035C000AB6C636500230AE090F8603090F86110FE
:1035D00053EA01235FD14A4A026501224265A3658D
:1035E0000120D6E790F8603090F85E10012BCFD81C
:1035F0000829CDD83F4AD25C012AC9D83E4BA82021
:1036000000FB0233D3F8A430002BC1D05A691868EC
:1036100090473C4B236518700123D2E70A2B20D03A
:103620000B2B0FD0092B36D194F8603094F8611031
:1036300043EA0123012B2ED8334B23650223636514
:10364000324BCCE794F8603094F8612053EA0223BF
:1036500003D12B4B94F85E201A7000232365636519
:10366000BDE794F8603094F85E1094F85F20012B69
:103670008ED808298CD81F48C05C012888D81E4BDA
:10368000A82505FB0033D3F8A430002B80D01D699A
:103690001868A847E1E702F09F02812A03D194F855
:1036A0005D30062B11D0144DD5F89C3043B9D5F8B8
:1036B0004431002B3FF46CAF2046BDE87040184702
:1036C000204698470028F2D08AE794F86120616884
:1036D00094F860304D6894F85E1043EA0223204667
:1036E00094F85F20A84700283FF452AF4368236551
:1036F000036866E7C8E70008680E00205814002039
:10370000B80F0020A4140020A814002029350008B8
:1037100070470000014B1878704700BFA5140020C7
:103720007047302383F31188026943699A4210D1AC
:10373000C36883B1D0F8882090F88C1012890123D7
:103740008B4013420CBF01200020002383F311881B
:1037500070470020F9E71846F7E70000036843B117
:103760009100196003490B78002A18BF43F0010348
:103770000B707047101E0120006810B10068C0F384
:1037800087007047036870B50BB9002070BD302307
:1037900083F31188036800211C685B6881F311883A
:1037A000002CF2D04FF080420748556A074AED1AC4
:1037B0004FF47A760023E5FB0601FCF7BDFD844259
:1037C0008CBF00200120E1E79F860100A086010058
:1037D0004B1E072B0BD850F8213043B191001960D4
:1037E00003490B78002A18BF43F001030B707047A0
:1037F000101E0120082906D850F8210020B10068C9
:10380000C0F387007047002070470000082970B59A
:1038100001D9002070BD09B250F82130002BF8D03A
:10382000302383F3118850F8213000211C685B6835
:1038300081F31188002CECD04FF080420748556A84
:10384000074AED1A4FF47A760023E5FB0601FCF7F0
:1038500073FD84428CBF00200120DBE79F860100BE
:10386000A0860100034A516853685B1A9842FBD84E
:10387000704700BF001000E0034640691A698242A9
:1038800001D1DB681BB950F8043B0B607047002383
:103890001846FAE703691960C268013AC260C26952
:1038A000134482690361934224BF436A0361002386
:1038B0008362036B03B1184770470000C27A530953
:1038C0009B0003F1604310B503F5614302F01F0450
:1038D000012101FA04F4C3F88040C3F8804102F1E9
:1038E000604303F56143002283F80023837A104A82
:1038F0009940136823EA01031360DAB24AB90D4A0A
:10390000116B21F400111163116D21F40011116587
:10391000126D13F47F4F09D1064B1A6B22F480020B
:103920001A631A6D22F480021A651B6D10BD00BF68
:103930007C1B012000380240436B4FF400421A60A8
:1039400000221A605A605A61036B1A68116821F0EC
:103950001F0111601168C907FCD4597A5A683D23C8
:103960008B401360C36A1A68116821F01F0111604F
:103970001168C907FCD4597A5A683D238B401360FB
:103980007047000011F00C0F10B5446B04D072B6F4
:103990000B4B0C4ADA65FEE7036B1A68116821F0DD
:1039A0001F0111601168C907FCD4597A5A683D2378
:1039B0008B401360636843F40073636010BD00BF05
:1039C000081C01204C990008036F70B5C46E9E68F6
:1039D00000224FF0FF3504EB42135101D3F80009E8
:1039E0000028BEBFD3F8000940F08040C3F80009AA
:1039F000D3F8000B0028BEBFD3F8000B40F0804086
:103A0000C3F8000B01326318B242C3F80859C3F877
:103A1000085BE0D94FF00113C4F81C3870BD00EB0F
:103A2000810370B5DD68C36E6C69266826614A0142
:103A30004EBB1A444FF40020C2F810092A6802F065
:103A40000302012A0AB20ED1D3F8080803EB42148C
:103A500010F4807FD4F8000914BF40F0805040F08B
:103A60000050C4F8000903EB4212D2F8000940F0FC
:103A70000440C2F80009D3F8340801228A40024306
:103A8000C3F8342870BD19B9402E84BF402020608F
:103A900020682E8A8419013CB4FBF6F440EAC44045
:103AA00040F000501A44C7E7F0B400EB81040789E6
:103AB000E468012564698D403D430581236000234E
:103AC000A2606360E360F0BCFFF7A9BF37B5406B4D
:103AD000D0F888402378042B13D190F88C50228999
:103AE0000123AB4013420CD101A9FFF7C5FE0246EA
:103AF00038B1019B2946204603B0BDE83040FFF7AE
:103B0000D3BF03B030BD10B590F84C30142B044631
:103B10002DD01CD8062B05D001D81BB110BD093BF8
:103B2000022BFBD8E36ED3F8002942F40012C3F84D
:103B30000029D3F8002B42F40012C3F8002B63686D
:103B40001B6813B1062120469847062318E0152B61
:103B5000E4D10B2380F84C30302383F31188002309
:103B60001A461946FFF7A0FF81F31188D6E7C3680C
:103B70009B695B68002BD1D1836D03B1984700230B
:103B800084F84C30CAE74B6843608B688360CB682D
:103B9000C3600B6943614B6903628B6943620B68C5
:103BA0000360704705480178052906D190F8683010
:103BB000037043681B6803B118477047D81C012085
:103BC00010B5C468A26913681361402B84BF4023F9
:103BD00013601168638AC26E19440139B1FBF3F1B5
:103BE0004B43033323F0030343EAC14343F0C04391
:103BF000C2F8103B236803F00303012B0CD1D2F869
:103C0000083813F4807FD2F8003B14BF43F0805390
:103C100043F00053C2F8003BD2F8003B43F00443AA
:103C2000C2F8003B10BDC36810B444899B6944F0DE
:103C3000010444811A6000225DF8044B99605A60C7
:103C4000DA60FFF7BDBF10B590F84C300446002B8A
:103C500040D0063BDAB20F2A36D80F2B34D8DFE833
:103C600003F03933330825343333333333333333C9
:103C7000393990F8623090F86320416D43EA0223AD
:103C8000994213D2C3681B8AB1FBF3F203FB1211F2
:103C900061B9302383F311880B460A46FFF704FF0E
:103CA00081F311880A2384F84C300DE0142384F842
:103CB0004C30302383F31188002211462046FFF751
:103CC000B2FF002383F3118810BD836D03B19847C1
:103CD0000023E8E7E36ED3F8002942F40012C3F8AA
:103CE0000029D3F8002B42F40012C3F8002B6368BC
:103CF0001B6813B10621204698470623D3E700002E
:103D0000F0B5254E0124376884403C42024640D13C
:103D100006EBC20C3C43CCF804102049CCF8081048
:103D20001F4934600C6B1F4B44F400140C630C6D82
:103D30000C25454344F400140C65096D59590C6871
:103D400024F01F04E8180C600C6814F00104FBD187
:103D50000C2505FB02333D225E7A5D68DB7AB240BA
:103D60002A6021220C604A6103F1604202F561423F
:103D7000502182F8001303F01F015B099B0003F13F
:103D8000604303F5614301228A40C3F880211A6031
:103D9000F0BD0020FCE700BF7C1B0120001F0120BC
:103DA0000038024010EE00082DE9F04FDFF8B8B0FF
:103DB0002A4F85B081469BF80000FFF766F9284B33
:103DC0001E883B795B085E43264BC5B2C0F3072AC9
:103DD000C6F30726284603EB450403F24318EBB26B
:103DE0009A4507D8BAF1650F8CBF0020012005B0B5
:103DF000BDE8F08F18F805309BF8012013422AD057
:103E0000BB78787897F803C094F8782094F8771006
:103E100040EA0320203A7039334640EA0C40C84754
:103E20008DF80400C0F30723C0F307408DF80600A7
:103E30008DF80530019BADF808301B0C8DF80A3069
:103E40000298FEF711FCC0F30743C2B2C0F307218A
:103E50002846FFF716F902340135C0E7A01E0120FD
:103E6000781B002058EF0008470E00202DE9F04F86
:103E7000DFF8E0B0344F8BB004909BF80000FFF700
:103E800004F9324B1E883B795B085E43C6F3072377
:103E900003932F4BC5B2C0F3072A03EB4504284612
:103EA00003F24318EBB29A4507D8BAF1650F8CBFFD
:103EB000002001200BB0BDE8F08F18F805309BF80A
:103EC000012013423CD094F8773094F87800703B8E
:103ED0001FFA83F920385B4382B200FB003080B2C6
:103EE0000592FEF717FC039A009297F801C097F825
:103EF00003E0059A049E0346B8784CEA002012B20B
:103F00000FFA89F140EA0E40B0478DF81C00C0F36B
:103F10000723C0F307408DF81E008DF81D30079B66
:103F2000ADF820301B0C8DF822300898FEF79CFB72
:103F3000C0F30743C2B2C0F307212846FFF7A1F838
:103F400002340135AEE700BFA01E0120781B00201F
:103F500058EF0008470E00202DE9F04FDFF8C0A011
:103F6000DFF8C080DFF8C0B089B081469AF8000061
:103F7000FFF78BF8294B1E8898F804309B085E43A6
:103F8000C6F30726C5B2C0F3072406F14000C0B24D
:103F9000FEF7F8FB803843B230460393FEF7F2FB9E
:103FA000A0F180077FB2EBB29C4206D8652C8CBF93
:103FB0000020012009B0BDE8F08F1BF805209AF819
:103FC00001100A4228D0009698F8022098F80100C3
:103FD00098F803C0039940EA022040EA0C403A46B0
:103FE000C8478DF81400C0F30723C0F307408DF8CD
:103FF00016008DF81530059BADF818301B0C8DF8A8
:104000001A300698FEF730FBC0F30743C2B2C0F384
:1040100007212846FFF735F80135C4E7781B002053
:10402000470E0020A01E01209BF000082DE9FF474D
:10403000DFF89C90244EDFF89CA0074699F800001A
:10404000FFF723F8214A337915889B0803FB0555B0
:10405000C0F30728C5F30725C4B2E1B2884507D8E5
:10406000B8F1650F8CBF0020012004B0BDE8F087D7
:104070001AF8043099F80120134223D0B2787378EB
:10408000F07843EA022343EA00402A46B8478DF815
:104090000400C0F30723C0F307408DF806008DF835
:1040A0000530019BADF808301B0C8DF80A300298E2
:1040B000FEF7DAFAC0F30743C2B2C0F30721204685
:1040C000FEF7DFFF0134C8E7A01E0120781B0020A7
:1040D000470E00209BF000082DE9F04FDFF8E49038
:1040E000364DDFF8E4B0DFF8E4A085B0074699F874
:1040F0000000FEF7CAFF2B790133FF2BC0F307281E
:10410000C4B228BFFF234FF6FF76B6FBF3F6E1B249
:10411000884507D8B8F1650F8CBF0020012005B095
:10412000BDE8F08F1BF8043099F80120134232D01B
:104130009AF800302248013B5BB21A062DD5324670
:1041400029796B78E8780131FF2928BFFF21514395
:10415000AA7843EA0223C1F30F2143EA0040B8479B
:104160008DF80400C0F30723C0F307408DF8060064
:104170008DF80530019BADF808301B0C8DF80A3026
:104180000298FEF771FAC0F30743C2B2C0F30721E9
:104190002046FEF776FF0134B9E7C25C8A420AD1B5
:1041A00003F10C020AEB420292F801C092784CEA49
:1041B00002229642C4D8013BBFE700BFA01E0120E7
:1041C000A61C0120470E00209BF00008951C012032
:1041D0002DE9F04F494BDFF834A18DB002901878EB
:1041E0000491FEF752FF464B1B780393454BC5B233
:1041F00003EB450403F24313C0F307290593284654
:10420000EBB2994507D8B9F1650F8CBF00200120AA
:104210000DB0BDE8F08F059B384A5B5D52781342C4
:1042200026D03949DFF8D8B0032209A8FDF798FC59
:10423000029F002107EB0B08039AFBB29A421AD89F
:104240009AF8033013FB01F31B128DF82630099BFB
:10425000ADF828301B0C8DF82A300A98FEF704FAC6
:10426000C0F30743C2B2C0F307212846FEF709FF97
:1042700001350234C4E718F8013F94F8770098F844
:1042800008200791C01A83B21E4694F878309B1A12
:104290009AB213FB03F300FB003080B20692FEF7E4
:1042A00039FA07F10C0E9AF804C00799069A0BEB3D
:1042B0004E0E0CF1010C9EF801309EF802E08DF8D4
:1042C0002610BCF1FF0F43EA0E2328BF4FF0FF0C6E
:1042D00003FB0CFCCCF30F2331B20093049E034686
:1042E00012B20998B047C0F307238DF824008DF867
:1042F0002530C0F3074101379EE700BF470E00207D
:10430000951C012058EF0008A11E0120A01E0120CD
:1043100073B5174B174E1D883379DB085D43711C4D
:10432000032204462D126846FDF71AFCE8B2FEF798
:1043300029FAA0F180035BB2002BBCBFC0F1800062
:1043400043B2F6785B00DBB213FB06F31B128DF869
:1043500002300098FEF788F9C0F30743C2B2C0F3F9
:104360000721204602B0BDE87040FEF78ABE00BFBC
:10437000781B0020A01E0120024A137843F001039D
:1043800013707047941C0120064A137813F003033E
:1043900004BF05490B701378012161F30103137009
:1043A000FFF7EABFA01E0120F40F0020044A137992
:1043B0001033FF2B28BFFF231371FFF7DDBF00BFB2
:1043C000A01E0120034A1379103B23EAE373137103
:1043D000FFF7D2BFA01E0120084B10B41C78A40721
:1043E00009D0B42A28BFB4225DF8044B58709970E4
:1043F000DA70FFF7C1BF5DF8044B7047A01E0120C3
:10440000034B5878DA7899780830FFF7E5BF00BF9A
:10441000A01E0120034B5878DA789978083880B2CA
:10442000FFF7DABFA01E0120054B9978DA7858789B
:104430001031FF2928BFFF21C9B2FFF7CDBF00BF50
:10444000A01E0120044B9978DA785878103921EAB7
:10445000E171C9B2FFF7C0BFA01E0120054BDA7899
:10446000997858781032FF2A28BFFF22D2B2FFF77E
:10447000B3BF00BFA01E0120044BDA7899785878AA
:10448000103A22EAE272D2B2FFF7A6BFA01E0120C4
:10449000074A137899070AD0292828BF292060F3F2
:1044A00087031370034B00221A70FFF765BF704734
:1044B000A01E0120F40F0020044B18788008013062
:1044C0002A2828BF0120FFF7E3BF00BFA01E01205C
:1044D000054B1878C0F38500013810F0FF0008BFC5
:1044E0002920FFF7D5BF00BFA01E0120890141F0A0
:1044F0002001016103699B06FCD41220FFF7B2B9C9
:1045000010B5064A064C117824784B1C03F00F03B3
:104510009C421EBF034C1370605410BDD51C01207B
:10452000D41C0120C41C0120F0B50D4B0D4C1B7890
:1045300026780D4CB34201D10020F0BD04EBC30539
:104540006F788F4206D114F83370874202D16D79AB
:10455000954203D1013303F00703EBE70120ECE7B9
:10456000B41E0120B31E0120B61E012010B51B4B46
:104570001B4A1B78127813431A4A1278DAB11A4A86
:1045800092F90020002A16DA184C1949637020228B
:104590002046FDF715FD00B3154820222146FDF702
:1045A000DFFA144B1B68C3B106229B6822702046B9
:1045B000BDE810401847104C1049237008222046CF
:1045C000FDF7FEFC48B10D4808222146FDF7C8FA68
:1045D000084B1B680BB15B68E9E710BDB21E0120F8
:1045E000AC1E0120B80F0020961E012020140020D0
:1045F000141E0120341E012040140020381E01200A
:1046000028B1034B1A7810431870FFF7AFBF7047FB
:10461000AC1E012030B1044A137823EA0003137062
:10462000FFF7A4BF704700BFAC1E012028B1034BA9
:104630001A7810431870FFF799BF7047B21E012017
:1046400030B1044A137823EA00031370FFF78EBFDA
:10465000704700BFB21E0120842808B503460BD165
:104660004720FEF75FFEFFF781FF4720FEF792FE2F
:10467000BDE80840FFF77ABF021FD2B2A02AF5D9E1
:1046800000F12002D2B2072A09D80F4900F007032F
:1046900001229A400B7823EA02030B70E8E700F14D
:1046A0005B02D2B2022A04D8BDE808400020FEF71F
:1046B00001BE5833DBB21A2B04D8BDE808400020F5
:1046C000FEF714BE08BD00BFAC1E012008B5D0B176
:1046D00082280BD13920FEF725FEFFF747FF39204E
:1046E000FEF758FEBDE80840FFF740BF832806D11B
:1046F0005320FEF717FEFFF739FF5320F0E7BDE820
:104700000840FFF7A9BF08BD10B50446C0B2FFF7C7
:10471000DDFFA4F1E003072B00D92CB903492046A3
:10472000BDE81040FDF77CBC0149F8E715460008DC
:104730004146000810B5026981690446FEF7AEFDE6
:10474000054AE178137823EA01031370FFF70EFF9F
:1047500000232360A38010BDB21E012003799A07B5
:1047600010B504460ED40D4A43F0020311780371CC
:10477000C3780B431370FFF7F9FEE268A169204686
:10478000FEF78CFD064B00221A802379DB0704D448
:104790002046BDE81040FFF7CDBF10BDB21E01207E
:1047A000901E01200B465118B1F5803F03D3C3F58D
:1047B0007F42FF3222B1014602481844FDF7D0B9CA
:1047C000704700BF7C1B0020006810B450B14FF050
:1047D00080440830646A40F8044C02645DF8044B7D
:1047E000FDF7BEB95DF8044B70470168134631B15F
:1047F0008A6C9A64083103F10800FDF7B1B970477B
:1048000010B40C78082C0DD850F8240050B14FF09B
:1048100080440830646A40F8044C02645DF8044B3C
:10482000FDF79EB95DF8044B70470829134609D877
:1048300050F8211031B18A6C9A64083103F10800F4
:10484000FDF78EB97047000002484FF6FF72002155
:10485000FCF79CBF7C1B002070B50D461446002160
:104860000646FCF793FF6319B3F5803F03D3C5F504
:104870007F44FF343CB10449224629443046BDE818
:104880007040FDF76DB970BD7C1B002037B500236B
:104890000D460446014601220DF107008DF8073050
:1048A000FFF7DAFF9DF807309D4207D0012221462D
:1048B0000DF107008DF80750FFF774FF03B030BD0E
:1048C00007B50023014602220DF10600ADF80630BF
:1048D000FFF7C2FFBDF8060003B05DF804FB37B573
:1048E0000C460546FFF7ECFFA04207D002222946FE
:1048F0000DF10600ADF80640FFF754FF03B030BDE0
:1049000037B504220146044600250DEB020001954F
:10491000FFF7A2FF019B33B1042221460DEB0200F9
:104920000195FFF73FFF03B030BD000008B5074B0E
:104930004FF4806218460021FCF728FF044A054B1B
:1049400010604FF6FF721A8008BD00BF08150020E6
:10495000041500200215002070B5184C237863B3AD
:10496000174D2E88FEF744FD801B80B2962824D96F
:10497000FEF73EFD134A1378132180B201332860FD
:10498000B3FBF1F001FB103313700F4A32F8131030
:104990000E4A52F82300FEF7CDFB0D4B1D68FEF7C3
:1049A00027FD0C4B401B984207D900232370FFF7CB
:1049B000BDFFFEF71DFD084B186070BDB90F00204C
:1049C00048140020BE1C0120A2E50008C8E500082C
:1049D0008C1E0120C0270900881E0120084B1B786F
:1049E0004BB1084B93F90030002B04DA06481E2225
:1049F0000021FCF7CBBE054806220021F9E700BFE5
:104A0000B80F0020961E012022140020421400201E
:104A100010B50446006840B1826C00210830FCF7F4
:104A2000B5FE236800221A605A6010BD70B5051FDC
:104A300000F12004002655F8040F38B1826C0021E3
:104A40000830FCF7A3FE2B681E605E60A542F2D121
:104A500070BD0000F7B51D4B1D4E1C883379DB0877
:104A60005C43711C0322054624126846FDF778F862
:104A7000E0B2FDF787FEA0F1800464B2002CBCBF59
:104A8000C0F1800044B2B778F678FBF7A3FC64006D
:104A90003D23E4B290FBF3F21E3F02FB130014FB34
:104AA00006F4384424128DF801008DF80240009875
:104AB000FDF7DAFDC0F30743C2B2C0F30721284671
:104AC00003B0BDE8F040FEF7DCBA00BF781B002061
:104AD000A01E0120F7B51D4B1D4E1C883379DB0845
:104AE0005C43711C0322054624126846FDF738F822
:104AF000E0B2FDF747FEA0F1800464B2002CBCBF19
:104B0000C0F1800044B27778F678FBF763FC64006C
:104B10003D23E4B290FBF3F21E3F02FB130014FBB3
:104B200006F4384424128DF800008DF802400098F5
:104B3000FDF79AFDC0F30743C2B2C0F30721284630
:104B400003B0BDE8F040FEF79CBA00BF781B002020
:104B5000A01E012008B50A46642301467A2004F00D
:104B600025FDB0FA80F0400908BD0000074B1B7816
:104B700010B54BB1064C237833B106480221FFF73C
:104B8000E9FF08B10023237010BD00BF001500200D
:104B9000801E012016E600080A4B1B7810B583B171
:104BA000FEF726FC084C094B00F56A40603018609F
:104BB000237833B906480221FFF7CCFF08B101235F
:104BC000237010BD00150020801E0120FC14002061
:104BD00014E600082DE9F04F744E337885B0002BB1
:104BE00000F0E180724B734C1C60734B1B789BB1DF
:104BF000FEF758FB714B724D1978C0F34002914299
:104C000026D01A70FAB100232B70FFF78FFE6D4883
:104C10004FF48061FEF78EFA6B4F3B8893BB664B77
:104C20001B78002B00F0BF80FEF7E2FB674B1B6890
:104C3000C01A6FF00043984280F0B58005B0BDE81F
:104C4000F04FFFF793BFFFF771FE01232B70E3E7EF
:104C500095F80080B8F1000F11D15D4FD7F80090A2
:104C6000FEF7C6FB5B4BA0EB09009842D4D90123A9
:104C70002B70FEF7BDFB584BC7F800801860FFF79C
:104C80006BFEC9E73378002BC9D0544B1D78002D3B
:104C9000C5D1FFF781FF39880029C0D02A46D6B296
:104CA00041FA06F0C007134602F10102F7D54C4D58
:104CB0002A78D207DBB269D5DB00DBB2DA1DD2B2CB
:104CC0000027072147488171072183704771C2700F
:104CD000FFF740FF0028A2D02B78DB074FEA8617AA
:104CE0005CD54148DFF804B1DFF804A1402200217F
:104CF000FCF74CFD00201BF8013B2E4A3B441344BB
:104D00001AF8012B0393384B013A1A44002401236B
:104D1000C4F1070803FA04F912F801EF5FFA88F802
:104D20005FFA89F90025039B595DA8EB050309EAA1
:104D3000010103F0070301FA03FC5B4203F00703E0
:104D4000D9404CEA010C01354EEA0C0C082D5FFAF3
:104D50008CFEE8D10134082C82F800E0D7D1013074
:104D6000C0B20828C7D164231F4A009340231946C4
:104D70007A2004F04FFC00287FF451AF1249012241
:104D80000B88B24023EA02030B8048E79B017108BD
:104D900003F0400303F13F020F4693E764230093BF
:104DA000E2194023E3E705B0BDE8F08F00150020CD
:104DB0000415002008150020801E0120B9140020D1
:104DC000B90F0020F8E8000802150020FC140020AC
:104DD000881E012040771B008C1E0120FB14002040
:104DE000FA140020400E0020BA14002000ED000844
:104DF000F8EC000810B503689C68A2420CD85C6807
:104E00008A600B604C60216059609968891A9960CA
:104E10004FF0FF33836010BD1B68121BECE70000EE
:104E2000022910B538BF022102234FF080444218F6
:104E30006263626A101A814203D8591C0B461046FD
:104E4000F5E7022B81BF034AD36A43F00103D36223
:104E500010BD00BF081C012070B5134D05F11003F3
:104E6000E96143602B698260022A036038BF022235
:104E7000586028614FF080408B1843630023036122
:104E80000223C360446A661A964205D35A1C114431
:104E9000416313462146F5E7022B82BFEB6A43F0DC
:104EA0000103EB6270BD00BF081C012000230375E5
:104EB000826803691B6899689142FBD25A68036053
:104EC000426010605860704700EB8103F7B51C6AC0
:104ED00005460E46002C41D0302383F31188002371
:104EE000226984F8A03063699A4201D1E3683BBB30
:104EF00005EB8603DB685B691B680BB3D4F8A47011
:104F000047B101A92046FEF7B7FCBB68019A0146EC
:104F100038689847E368E26920680133E3606369B1
:104F20001344A2696361934224BF636A636184424C
:104F300006D0036823605C6000238361FFF7B6FF3F
:104F400001A92046FEF798FC024648B1019B314674
:104F50002846FEF7A9FD002383F3118803B0F0BDB6
:104F600005EB8603DB681A68022AF4D15A691268D5
:104F7000002AF0D01B8A013B1340ECD105F15C0202
:104F8000E5E708B50846302383F311880A7D00233E
:104F9000052A06D8DFE802F00B050503120E826928
:104FA00013604FF0FF338361FFF780FF002383F32B
:104FB000118808BD82699368013393604268036871
:104FC00013605A60EDE70346006820B100221A60C2
:104FD0008161FFF76BBF704711F00C0F38B5436B61
:104FE00004D072B6144B154ADA65FEE7C26A11683E
:104FF0000C6824F01F040C600C6814F00104FBD151
:10500000557A51683D22AA400A605A6822F48052BB
:105010005A601A6822F480621A601A6842F40072B8
:105020001A60302383F3118821461C30FFF7CBFF31
:1050300084F3118838BD00BF081C01204C9900087A
:105040002DE9F84390F84C30044613B1002380F862
:105050004C3004EB81010822CB6804F15C00196A32
:10506000FCF77EFD63689B68E3B994F85C3013F04D
:1050700060053ED0E36ED3F8002942F40012C3F875
:105080000029D3F8002B42F40012C3F8002B636808
:105090001B6813B1062120469847062384F84C303C
:1050A000BDE8F883204698470028DED094F86320B6
:1050B00094F8623043EA0223626D9A4288BF6365C6
:1050C00094F95C30656D002B4FF0300380F2428123
:1050D000002D00F03281092284F84C2083F31188DE
:1050E000636D226D00212046FEF7DEFC81F31188FE
:1050F000D6E794F85D2003F07F0343EA022340F2F1
:105100000232934200F0FD8021D8B3F5807F4DD06C
:105110000DD8012B44D0022B00F0BE80002BA9D16A
:1051200004F16402226502226265A365BEE7B3F55D
:10513000817F00F0C780B3F5407F9BD194F85E304B
:10514000012B97D1B4F8643043F0020337E0B3F594
:10515000006F58D01CD8B3F5A06F36D0A3F5C0634C
:10516000012B87D894F86120616894F860304E680C
:1051700094F85F1043EA0223204694F85E20B0477B
:1051800000283FF477AF43682365036863651AE03E
:10519000B3F5106F3CD040F6024293427FF46AAF01
:1051A000784B2365022363650023BEE794F85E30E5
:1051B000012B7FF45FAFB4F8643023F00203A4F84E
:1051C000643025656565A56570E7B4F85C30B3F5B6
:1051D000A06F14D194F85E10E26E84F86610D2F8D5
:1051E000003823F4FE6343EA0113C2F80038636811
:1051F0001B6813B101212046984703232370002325
:105200002365636591E704F1670323650123BDE727
:105210002378042B30D1302383F31188A36803F063
:105220000113A36004F10C0604F12009A84656F806
:10523000047F6FB1786920B16FF001010C30FFF786
:10524000C2FEB86920B16FF001010C30FFF7BBFE60
:10525000B1453560EBD1236F1B6863672046FEF7CD
:10526000B3FB88F311880321636884F867502170C9
:105270001B680BB12046984794F85E30002BBED0D7
:1052800084F867300423237063681B68002BB6D052
:10529000022120469847B2E794F9602094F86030E4
:1052A000002A03F00F03E26E0ADA48335B01D35899
:1052B0001A047FF5DFAE99024CBF334B334B70E7D6
:1052C0005833F3E794F85E30002B7FF4D3AE94F8B4
:1052D000603013F00F0292D013F0800FE36E12B221
:1052E00003EB421306D0D3F8002922F40012C3F8CE
:1052F000002984E7D3F8002B22F40012C3F8002B16
:105300007DE794F85E30002B7FF4B4AE94F8603003
:1053100013F00F023FF473AF13F0800FE36E12B27D
:1053200003EB421304D0D3F8002942F40012DEE765
:10533000D3F8002B42F40012E0E7142284F84C204A
:1053400083F311882A4629462046FEF76CFC85F334
:105350001188A5E66DB1152284F84C2083F31188DD
:10536000626D216D2046FEF75EFC002383F31188F9
:1053700096E60B2284F84C2083F311882B462A46AC
:105380002946B0E664E6000862E6000860E6000828
:105390002DE9F8433F4DD5F86C8008EB40130446E7
:1053A000D3F80899C3F8089919F0010F4FEA40168D
:1053B00019D0D8F81038DB0715D5871C05EB870303
:1053C00059684B6918681A6990422CD2121A002742
:1053D0001A605F60302383F3118821462846FEF768
:1053E0001EFB87F3118819F0800F1AD0D8F83438D3
:1053F0000120A040034214D005EB8403ED6EDF686A
:105400000134E4B2796905EB043405EB060ED1E909
:1054100000369E4221D3D5F8343823EA0003C5F87C
:105420003438BDE8F8832B890122A24023EA020325
:105430002B818B6813B1214628469847302383F38C
:10544000118805EB870700217B6858690C30FFF74E
:10545000BAFD002383F31188C5E73A8A9B1B934268
:1054600028BF1346DEF8182992B2B3EB820FD8D8C2
:105470008A68A2F1040858F804CFC4F800C0A2EB6F
:10548000080C9C44BCF1040FF5D81A4433448A60DC
:105490004B60BCE7D81C0120F8B5294DEE6E06EB39
:1054A00040130446D3F8087BC3F8087B38070AD5B5
:1054B000D6F81438190706D505EB84032146DB68B6
:1054C00028465B689847FA071FD5D6F81438DB07DB
:1054D0001BD5A61C05EB860359688B69B4B9488AAD
:1054E0005A68B2FBF0F700FB17227AB918681A69FC
:1054F00090420BD2121AC3E90024302383F311889F
:105500000F48FEF75DFB84F31188F8BD6B8901221B
:10551000A24023EA02036B81CB6813B108482146FD
:105520009847302383F3118805EB86056B689869EB
:1055300041680C30FFF747FD002383F31188E4E74F
:10554000D81C012038B504466FF00105206884425C
:1055500000D138BD036823605C608561FFF7A6FC5D
:10556000F4E7026AC260426A42610261002282621A
:10557000C262FFF7E7BF00002DE9F74F0846052993
:1055800000F2ED80DFE811F0C500EB000600C50079
:10559000C500EE00302383F311884FF00009774DEA
:1055A0004F4695F88C40D5F88880E86C08EB840B62
:1055B00005F138032646CBF80C3018B1142200212F
:1055C000FCF7E4F8286D18B114220021FCF7DEF88E
:1055D000DBF80C10D8F86CA00B6803F003035A1E1C
:1055E000022A0AEB441204F1100CC2F8107B4FF0AF
:1055F000010298BF9B0402FA0CFC8A698EBF604BC3
:1056000003F1805303F500434FEA441E002A5CD0A7
:10561000B1F812B004F1580252014BEA03004AF803
:105620000200DAF81C2842EA0C02CAF81C280122FF
:10563000D64402FA04FB4A69CEF8107904F1FF3C23
:10564000002A4FD08A8B0E8A01934FEA960E012AC8
:1056500088BF02FB0EFE0CF1400CD8F874200AEB58
:105660008C0C0EEB020142EA0E42C8F87410504650
:105670002146CCF80420FEF739FF46EA8456019B08
:10568000483464011E434AF80460DAF81C3843EADF
:105690000B032846CAF81C38FFF763FFA83505F846
:1056A000A07CB9F1000F0DD087F31188354B1B7822
:1056B00013B10520FEF724FF022003B0BDE8F04F30
:1056C000FEF71EBF4FF001096BE70AEB461BDBF844
:1056D000002B22F40042CBF8002BDAF81C2822EA37
:1056E0000C02A2E704F13F030AEB8303264A5A6047
:1056F0000AEB461621465046FEF7F8FED6F800396A
:1057000023F40043C6F80039DAF81C3823EA0B0307
:10571000BFE7FEF7F5FE302383F31188174C012312
:1057200020462372FFF70EFF2046FFF71AFFD4F83A
:10573000A43013B1DA68186890470123134884F83D
:10574000B030FFF7FFFE1148FFF70BFFD4F84C31E4
:1057500013B1DA6818689047002383F3118803B007
:10576000BDE8F08F302383F31188044A00231372BD
:1057700082F8B03083F3118805209EE7680E002080
:1057800000800010D61C012000040002100F002031
:10579000054BD9680875186802681A6053600122C1
:1057A0000275D860FAF7AEBD081C01202DE9F04360
:1057B0002F4D4B1CD5F80C8087B081460A4653D03C
:1057C0002C4B0393002305932E464FF08043CDF8D6
:1057D0001080586A56F8103FB3426F461AD10146FE
:1057E0003846FFF739FB4846FFF7D2FF009B63B10D
:1057F0002A69BA421ED0019A029913605A609A68C7
:105800000A449A604FF0FF33AB61D8F8180007B034
:10581000BDE8F083EC699B68041B0C1928BF0C469B
:10582000A34201D9FFF7FCFA134822463946FFF795
:10583000E1FAD8E70022B3422B6100925E6003D107
:105840004FF08043DA60E0E79A6802990A449A6070
:105850004FF08043E969586A431A9A42D5D9091A28
:105860001144FFF7DDFAD0E7FFF792FFCDE700BF65
:10587000081C0120834F0008181C0120302383F3EB
:105880001188104B5B6813F4006317D0F1EE103AE7
:10589000EFF30983683B4FF08072DA610A4AD26BFA
:1058A0001A6683F30988094A1168D2688968926880
:1058B00091428CBF064A074A9A61704783F3118868
:1058C000704700BF00ED00E000EF00E0081C012081
:1058D0002F0300083203000813B5082204461721DD
:1058E0006846FEF7B9FF082269462046FCF768FBC8
:1058F00038B108221721204602B0BDE81040FEF75B
:1059000051BF02B010BD00002DE9F04F8D4C8E4EFE
:10591000D4F800808DB0FDF76BFD8146A0EB080543
:10592000FDF766FD96F800C0206008F57F4300246F
:10593000FF3361462746A3EB090EE3B29C4515D819
:1059400007B13170814D2B7813F0030218BF9B080B
:10595000019218BF01937E4B1B78032B00F28980C4
:10596000DFE813F01B0028005B04680404F10C025C
:1059700006EB42020134537892F8028043EA08238E
:105980009E4529BF5B1901F1FF315370C3F3072313
:105990003ABFC9B201279370CFE76E4B6A49002224
:1059A0001A706D4B292218606C48FCF7D9F8012356
:1059B000674A5DE06A4B019A1B78934242D1694A7B
:1059C0002B78127803F003039B1A18BF0123614E52
:1059D0007278B3706B799A4205D000221146104656
:1059E0007370FDF750FB019A292A34D8DFE812F0D2
:1059F0002C0044007200C0001201160118011D01A4
:105A00001F0123012501270129012B012D012F0150
:105A100031013301350139013B013D01B401FF0181
:105A200001023002E302E702E902F302F602FD029C
:105A3000FF02060308030F03110318031A034A03A6
:105A40007A03C4030123C2E7B37823B100221146CD
:105A50001046FDF718FB002433780133337044B946
:105A60003B4A02231370B3781BB9019B0BB9032384
:105A700013700DB0BDE8F08F30783B49DFF8EC9043
:105A8000FDF703FB03220446ADF82800C5B20BA8BE
:105A9000FCF766F80B98FCF7E7FDC4F307245FFA00
:105AA00080FAC0F30728C0F30747EBB29C4204D842
:105AB000652C8CBF00240124CEE719F805307278DC
:105AC000134205D03B46524641462846FDF7D9FAD7
:105AD0000135EAE73078DFF89490FDF7D6FA95F8CB
