:020000040800F2
:1000000000040020FD020008FF020008FF020008B3
:10001000FF020008FF020008FF020008FF020008BC
:10002000FF020008FF020008FF020008BD3E0008B2
:10003000FF020008FF020008FF020008FF0200089C
:10004000FF020008FF020008FF020008FF0200088C
:10005000FF020008FF020008FF020008FF0200087C
:10006000FF020008FF020008FF020008B542000876
:10007000DD420008094300083543000861430008D9
:1000800089430008B5430008FF020008FF0200088A
:10009000FF020008FF020008FF020008FF0200083C
:1000A000FF020008FF020008FF020008FF0200082C
:1000B000E5410008FF020008FF020008E1520008C5
:1000C000F5530008FF020008FF020008FF020008C5
:1000D000FF020008FF020008FF020008FF020008FC
:1000E000FF020008FF020008FF020008FF020008EC
:1000F000FF020008FF020008FF020008E1430008B9
:10010000FF020008FF020008FF020008FF020008CB
:10011000FF020008FF020008FF020008FF020008BB
:100120000D44000835440008614400088D4400086F
:10013000B9440008FF020008FF020008FF0200089F
:10014000FF020008FF020008FF020008C554000873
:10015000E14400080D45000839450008FF02000889
:10016000FF020008FF020008FF020008FF0200086B
:10017000FF020008FF020008FF020008FF0200085B
:10018000FF020008FF020008FF020008FF0200084B
:10019000FF020008FF020008FF020008FF0200083B
:1001A000FF020008FF020008FF020008FF0200082B
:1001B000FF020008FF020008FF020008FF0200081B
:1001C000FF020008FF020008FF020008FF0200080B
:1001D000FF020008FF020008FF020008FF020008FB
:1001E00072B6374880F30888364880F30988364865
:1001F0003649086040F20000CCF200004EF634713F
:10020000CEF200010860BFF34F8FBFF36F8F40F253
:100210000000C0F2F0004EF68851CEF200010860F6
:10022000BFF34F8FBFF36F8F4FF00000E1EE100A66
:100230004EF63C71CEF200010860062080F314886F
:10024000BFF36F8F02F026FE02F026FE4FF055300E
:100250001F491B4A91423CBF41F8040BFAE71D4974
:10026000184A91423CBF41F8040BFAE71A491B4A6D
:100270001B4B9A423EBF51F8040B42F8040BF8E7BF
:1002800000201849184A91423CBF41F8040BFAE794
:1002900002F01AFF02F016FF144C154DAC4203DABF
:1002A00054F8041B8847F9E704F07EFB114C124D0B
:1002B000AC4203DA54F8041B8847F9E702F003BFA5
:1002C00000040020000C00200000000808ED00E001
:1002D00000000020000400207C6C0008000C0020BE
:1002E000740C0020780C002008190120E00100089F
:1002F000E0010008E0010008E001000870E700F0FC
:1003000000F8FEE72DE9F04F2DED108AC1F80CD072
:10031000C3689D46BDEC108ABDE8F08F002383F3CF
:1003200011882846A047002002F06EFFFEE702F089
:10033000F7FE00DFFEE7000053B94AB9002908BF05
:1003400000281CBF4FF0FF314FF0FF3000F00CB819
:10035000ADF1080C6DE904CE05F0B0FBDDF804E06A
:10036000DDE9022304B07047704700BF844641EACC
:10037000000313F003036DD1403A41D351F8043B1D
:1003800040F8043B51F8043B40F8043B51F8043B6F
:1003900040F8043B51F8043B40F8043B51F8043B5F
:1003A00040F8043B51F8043B40F8043B51F8043B4F
:1003B00040F8043B51F8043B40F8043B51F8043B3F
:1003C00040F8043B51F8043B40F8043B51F8043B2F
:1003D00040F8043B51F8043B40F8043B51F8043B1F
:1003E00040F8043B51F8043B40F8043B51F8043B0F
:1003F00040F8043B51F8043B40F8043B403ABDD27E
:10040000303211D351F8043B40F8043B51F8043B1F
:1004100040F8043B51F8043B40F8043B51F8043BDE
:1004200040F8043B103AEDD20C3205D351F8043BAE
:1004300040F8043B043AF9D2043208D0D2071CBF7A
:1004400011F8013B00F8013B01D30B8803806046A3
:10045000704700BF082A13D38B078DD010F0030319
:100460008AD0C3F10403D21ADB071CBF11F8013B89
:1004700000F8013B80D331F8023B20F8023B7BE7D8
:10048000043AD9D3013A11F8013B00F8013BF9D203
:100490000B7803704B7843708B788370604670479D
:1004A000024B0146186800F02FB800BF000C002076
:1004B000024B0146186800F0C3B800BF000C0020D2
:1004C00070B5104E336805460C46B3B12146284638
:1004D00005F020FA431C0CD0C41C24F00304A042F5
:1004E00005D0211A284605F015FA013001D0204622
:1004F00070BD4FF0FF34204670BD194605F00AFA72
:100500003060E3E7780C00202DE9F041CD1C25F0A8
:10051000030508350C2D38BF0C25002D82B006468A
:1005200016DBA94214D8354F00F06AF87A68AAB1F0
:10053000144603E06368224683B11C4623685B1BB4
:10054000F8D40B2B21D8A242636855D053600DE03C
:100550000C233360002002B0BDE8F081294630460C
:10056000FFF7AEFF431C044619D00560304600F08B
:100570004DF804F10B00231D20F00700C21A1CBF28
:100580001B1AA35002B0BDE8F0816119A242256098
:1005900014BF51607960635163684B60E6E77B6824
:1005A00023B31C465B68002BFBD1226801931946DC
:1005B000304604EB020805F0ADF9804516D12268FB
:1005C000AD1A29463046FFF77BFF01300ED0226876
:1005D0007868019B2A442260426812B90CE01046F8
:1005E0005268A242FBD100234360BFE70C23336073
:1005F000304600F00BF8ADE77B60B7E7780C0020E1
:10060000014800F013B800BF900C0020014800F032
:1006100015B800BF900C0020704700BF704700BFA6
:10062000704700BF704700BF704700BF704700BFF2
:100630000120704701207047704700BF704700BF1E
:10064000002950D038B551F8043C0C1F002BB8BF1E
:10065000E4180546FFF7D4FF274A13682BB1A342DD
:100660000CD92168601883422CD06360284614603E
:10067000BDE83840FFF7CABFA3420FD81A465B68EF
:10068000002BF9D111685018844217D02CD3636025
:1006900054602846BDE83840FFF7B8BF11685018CD
:1006A000A04214D020D8216860188342EFD1186886
:1006B0005B680844C4E900035460EAE723680B441C
:1006C0001360E6E718685B6808442060CDE720689F
:1006D0000144501883421160DBD1D3E90004014486
:1006E000C2E90014D5E770470C232B602846BDE80B
:1006F0003840FFF78BBF00BF7C0C0020830730B56C
:1007000047D0541E002A3ED0CAB2034601E0013C45
:1007100039D303F8012B9D07F9D1032C2CD9CDB285
:1007200005EB05250F2C05EB054535D9A4F1100285
:1007300022F00F0C03F1100EE6444FEA121C1A4689
:10074000156055609560D56010327245F8D10CF196
:10075000010214F00C0F03EB021204F00F0C13D083
:10076000ACF1040323F003030433134442F8045BA5
:100770009A42FBD10CF003042CB1C9B21C4403F81B
:10078000011B9C42FBD130BD64461346002CF4D1C2
:10079000F9E703461446C0E71A46A446E0E700BF5F
:1007A00001F0FF01102A2BDB10F0070F08D010F822
:1007B000013B013A8B422DD010F0070F42B3F6D126
:1007C000F0B441EA012141EA014122F007047FF03F
:1007D00000070023F0E80256083C85EA010586EA96
:1007E000010685FA47F5A3FA87F586FA47F6A5FAD2
:1007F00087F68EB9EED1F0BC01F0FF0102F00702DE
:1008000032B110F8013B013A83EA010313B1F8D188
:100810000020704701387047002D06BF3546033869
:10082000073815F0010F07D1013015F4807F02BFA2
:10083000013015F4C03F0130F0BC0138704700BFF3
:10084000032A70B511D940EA01039B071FD1044662
:100850000B4602E0043A032A1DD91946204653F8F4
:10086000045B54F8046BAE42F4D0541EB2B1421E85
:10087000013901E0C3180CD012F801EF11F801CFD3
:10088000E645A4EB0203F5D0AEEB0C0070BD541EA0
:10089000EDE7184670BD20461946E6E7104670BDE4
:1008A000034A0123118883400B431380704700BF24
:1008B00080180120034A01238340108820EA0300A6
:1008C000108070478018012037B5ADF80400C0F3E0
:1008D000072006281ED89DF80430102B1AD803EBE9
:1008E0000013034403F00702012090400A4AC3F3B7
:1008F000CF03C0B202EB8302002412F8015F21FA99
:1009000004F343F300036B40034001345D40042CC7
:100910001570F2D103B030BD2718012013B5ADF822
:100920000400C0F3072006281BD89DF80430102BC4
:1009300017D800EB001018440B4900F00704002200
:10094000C0F3CF0001EB800110468B5CE34003F065
:100950000103934001321843042AC0B2F5D102B01A
:1009600010BD0020FBE700BF28180120054B064AF8
:100970001B7812789A4200D17047013303F00703C5
:10098000F8E700BF841801208318012082B0ADF879
:100990000410C1F3072106290CD89DF80430102B50
:1009A00008D848B901EB01111944044B33F8110080
:1009B00002B070470020FBE70120F9E7446B000814
:1009C000E72850D8DF2807D8312865D00ED8292845
:1009D00058D02A2867D07047A0F1E003072B42D8EF
:1009E000DFE803F01541242933413D42392804D082
:1009F000822802D0352840D07047334B1A789207AE
:100A00005CD15B7813F0080F18BF292070472E4A7D
:100A10001378D9074ED4527812F0010F23D013F077
:100A2000100F08BFE32018BF00207047264B1B782B
:100A300013F0040FF2E7244A137859073CD4527894
:100A4000D2073BD413F0100FEDE71F4B5A789107F4
:100A500009D51B7813F0100F08BFE720E3E71A4B06
:100A60001B781A07F6D47047174A1378190727D44A
:100A700052789107E6D5E4207047134B1B7813F0AA
:100A8000200FC1E7104B1A7892061BD45B7813F045
:100A9000080F18BF392070470B4B1B7813F0400F1D
:100AA00018BF2A207047084B1B7813F0400F18BF5F
:100AB0003120704739207047E2207047E0207047AE
:100AC000E62070473520CEE76A18012010B52F4C7C
:100AD00021784B0713D500F01402A2F1040C00F0AA
:100AE0001803DCF1000242EB0C02A3F1080CDCF16C
:100AF000000343EB0C039A4218BF80F00C000B0775
:100B000013D500F01402A2F1140C00F01803DCF16C
:100B1000000242EB0C02A3F1180CDCF1000343EBE2
:100B20000C039A4218BF80F00C006478E30713D5D9
:100B300000F0110202F1FF3C00F01803DCF10002AA
:100B400042EB0C02A3F1080CDCF1000343EB0C03B5
:100B50009A4218BF80F00900A30711D500F01102D6
:100B600000F01803A2F111046242A3F1180C6241D3
:100B7000DCF1000343EB0C039A4218BF80F009003C
:100B8000CB0648BF00F0E70010BD00BF6A18012087
:100B900038B5FFF715FFB0F5A04F044635D2B0F5D4
:100BA000804F80F09D80DF2813D9B0F5005F25D3FA
:100BB000C0F30420FFF78AFF0546E0B2FFF700FF0D
:100BC0002D0205F4F855054345F40055ACB2204616
:100BD00038BDCC2873D8A72809D8A42861D8012803
:100BE000F5D0031F9BB2A12B28BF0024EFE7A0F193
:100BF000A8039BB21A2B5AD90024E8E7FF2861D832
:100C0000A0F1E0039BB2082BEEE745F25F23984288
:100C100020D845F23F23984277D845F21F239842C7
:100C200006D900F01F044AF2F10343EA0424CEE798
:100C3000B0F5A44F5DD200F01F00FFF747FFC306D9
:100C400076D4C4F3431400B240EA042040F41040C8
:100C500084B2BCE745F2BF23984214D845F29F23E3
:100C600098425DD8A0F5A443603B9BB21F2BC3D82C
:100C700000F003040123C0F38202A34043EA4213BD
:100C800043F40A433FE0A0F5A543403B9BB21F2B32
:100C9000B2D8040204F4F85444F4204444F0F004BC
:100CA00095E7A0F1240444F48044A4B28FE75834BB
:100CB000204BE4B233F8144044F4884487E740F40E
:100CC000A044F2E7C0F30720FFF700FF0546E0B2BB
:100CD000FFF776FE2D0205F4F85540EA0504E4E737
:100CE000C0B2FFF76DFE04F47064044344F4204482
:100CF000DBE700F003040123C0F38502A34043EACD
:100D0000421343F40D439CB261E700F00304012356
:100D1000C0F38202A34043EA421343F40C43F2E7D8
:100D200000F01F00FFF7D2FE040204F4F8544EE76F
:100D3000000186E7326C00087FB5114BADF8040066
:100D40001D88104B1B881D43ADB20F2445FA04F3D8
:100D5000DB0705D4013CF9D20026304604B070BD53
:100D6000BDF80430ADF80C30E6B203993046FFF719
:100D70000DFEFFF70DFF80B20128EBD0EDE700BFBD
:100D8000801801207E18012013B502884379ADF840
:100D90000420019873B169B1FFF7CEFF0446014604
:100DA0000198FFF791FD0199204602B0BDE810407F
:100DB000FFF7ECBDFFF7B2FD0446F4E71FB5ADF851
:100DC00004000198FFF7B8FFBDF80430ADF80C300F
:100DD0000399FFF7DBFD05B05DF804EBFFF7D8BE24
:100DE00008B503460079A8B11888FFF7E7FFC3B23A
:100DF000C0F30330062813D094BF0E30063000F045
:100E00000F00012810D8F02B10D004D8E72B8CBF8E
:100E10000020012008BDF42B14BF00200120F9E7B9
:100E2000E72B03D9F12BF7E70020F3E70120F1E7E7
:100E30000020704700207047704730BFFDE700007A
:100E4000F0B5234CA45C00293FD000EB4005FF2205
:100E50006D00B5FBF2F56FF054026A4302EB4000FF
:100E600000EB4000C0B2C0F1FF0211FB00F64A43A4
:100E700036121212C1F1FF07C6F1FF06C2F1FF02DE
:100E8000674366436243C7F30727C6F30726C2F3E7
:100E90000722062D14D8DFE805F004060C0A0F130C
:100EA0000400264614465E701C709F70F0BD2246FA
:100EB00034463E461746F6E7164622463C46F9E7D4
:100EC00022463C4637461646EDE727462646EAE7E1
:100ED000E8680008084A1378032B09D8012161F358
:100EE00087031370D378782B84BF7823D37070472F
:100EF0001F2BF7D90721F2E770180120094B1B7847
:100F000013F0010309D1084A19460133662B5170C9
:100F10001170917002F10302F7D10348662103F0CA
:100F20009DBB00BF70180120AE14002070B5114B9E
:100F3000114E04460025F2782079B178782A2844A9
:100F400005F1020528BF7822C0B2EDB2FFF778FFA5
:100F5000CC2D03F10303EED1FFF7D0FFA37813F0FC
:100F6000010F237914BF013303F1FF335BB2237107
:100F700070BD00BFAE1400207018012000B11047F2
:100F800008470000064A074B002918BF134623F004
:100F90000F0203F00F031069D84000F00100704702
:100FA0000A0402400F0002401C4970B507220126C6
:100FB000202406FA02F303400C8319D00023072BE8
:100FC00006D14C830023032B0AD1013AF1D270BD24
:100FD00000BF00BF00BF00BF00BF00BF0133EEE78E
:100FE00000BF00BF00BF00BF00BF00BF0133EAE782
:100FF0001D46032D0AD14C83072BE6D000BF00BF4E
:1010000000BF00BF00BF00BF0133F5E700BF00BF56
:1010100000BF00BF00BF00BF0135EAE7000002408B
:10102000024B186808B10368184770471C18012064
:101030000B4B07B51A8882420ED01880094B1B68EB
:1010400053B103228DF80500000A8DF806001B69D4
:101050008DF8042001A8984703B05DF804FB00BF99
:10106000561000201C1801200B4B07B51A8882422D
:101070000FD01880094B1B685BB104228DF8050066
:10108000000A8DF806001B698DF804200DEB0200A4
:10109000984703B05DF804FB541000201C18012091
:1010A00010B5164B1B7893B1154B93F90030002BFC
:1010B0000DDAEF284FEAD00308D8124A1A4400F09C
:1010C00007009178012383400B43937010BD0E49B4
:1010D00000224FF0FF3311F8014FA042F6D0B3F1D8
:1010E000FF3F01D104B953B20132062AF3D15A1C91
:1010F000ECD0064A13449870E8E700BF700C00205B
:101100006A1801200010002021100020201000206B
:1011100010B5124B1B789BB1114B93F90030002B8B
:101120000EDAEF284FEAD00209D80E4B134400F034
:1011300007009A780121814022EA01029A7010BDCD
:101140000023094A194612F8014F01338442DBB2E9
:1011500008BF1170062BF6D1F1E700BF700C00201C
:101160006A180120001000202110002070B53023E3
:1011700083F311884FF08043114812495C6A036879
:101180000A68E41AA242104A0AD9A3F58333E03B65
:10119000036010680D4B04F583340344E03413609E
:1011A0000C601668002181F311880948094A4FF440
:1011B0007A750023E4FB0501FFF7BEF8304470BDEB
:1011C000F0160120EC160120E816012088598F0244
:1011D0009F860100A0860100BFF34F8F0549064B93
:1011E000CA6802F4E0621343CB60BFF34F8F00BFC5
:1011F000FDE700BF00ED00E00400FA0510B5244A49
:101200000023536090F85F4090F85E1041EA04219B
:1012100090F8604090F8610044EA00200C0A032C2A
:1012200016D005D8012C0ED0022C2DD018461BE06C
:10123000212C1BD0222CF9D1E8B10128F6D1154B75
:1012400053608B2302E0144B5360122310460BE0D3
:10125000C9B20229EAD8114B53F82100104B506053
:1012600000285B5C18BF1046136010BD38B1012820
:10127000DCD10C4B04E00C4B53604423E6E70B4BF2
:10128000536003480923EFE7094B53603B23DDE735
:101290004C100020A45F0008AE600008C460000885
:1012A000C06000089E6000082F600008856000088C
:1012B000736000087047000090F8622090F86300A7
:1012C000084942EA0022022A0B7807D1012B01D0FB
:1012D000062B05D1044B4A781A707047024A1370E6
:1012E000704700BF4810002045100020302383F3D2
:1012F0001188002383F3118870470000014B187890
:10130000704700BF4510002070470000034A516835
:1013100053685B1A9842FBD8704700BF001000E08A
:10132000C27A53099B0003F1604310B503F5614392
:1013300002F01F04012101FA04F4C3F88040C3F84D
:10134000804102F1604303F56143002283F80023EA
:10135000837A104A9940136823EA01031360DAB2D2
:101360004AB90D4A116B21F400111163116D21F47A
:1013700000111165126D13F47F4F09D1064B1A6BE2
:1013800022F480021A631A6D22F480021A651B6D22
:1013900010BD00BFE015012000380240436B4FF440
:1013A00000421A6000221A605A605A61036B1A6880
:1013B000116821F01F0111601168C907FCD4597A26
:1013C0005A683D238B401360C36A1A68116821F084
:1013D0001F0111601168C907FCD4597A5A683D236E
:1013E0008B4013607047000011F00C0F10B5446B78
:1013F00004D072B60B4B0C4ADA65FEE7036B1A6831
:10140000116821F01F0111601168C907FCD4597AD5
:101410005A683D238B401360636843F40073636034
:1014200010BD00BF701601205C5D0008036F70B531
:10143000C46E9E6800224FF0FF3504EB4213510149
:10144000D3F800090028BEBFD3F8000940F080405F
:10145000C3F80009D3F8000B0028BEBFD3F8000B77
:1014600040F08040C3F8000B01326318B242C3F869
:101470000859C3F8085BE0D94FF00113C4F81C38D1
:1014800070BD00EB810370B5DD68C36E6C692668C2
:1014900026614A014EBB1A444FF40020C2F81009DD
:1014A0002A6802F00302012A0AB20ED1D3F8080812
:1014B00003EB421410F4807FD4F8000914BF40F00D
:1014C000805040F00050C4F8000903EB4212D2F8FB
:1014D000000940F00440C2F80009D3F834080122A2
:1014E0008A400243C3F8342870BD19B9402E84BF26
:1014F0004020206020682E8A8419013CB4FBF6F459
:1015000040EAC44040F000501A44C7E7F0B400EB92
:1015100081040789E468012564698D403D430581A4
:1015200023600023A2606360E360F0BCFFF7A9BF03
:1015300010B590F84C30142B04462DD01CD8062B37
:1015400005D001D81BB110BD093B022BFBD8E36EBF
:10155000D3F8002942F40012C3F80029D3F8002B75
:1015600042F40012C3F8002B63681B6813B1062114
:1015700020469847062318E0152BE4D10B2380F86A
:101580004C30302383F3118800231A461946FFF7A5
:10159000BDFF81F31188D6E7C3689B695B68002BA8
:1015A000D1D1836D03B19847002384F84C30CAE74A
:1015B0004B6843608B688360CB68C3600B69436191
:1015C0004B6903628B6943620B68036070470000DC
:1015D00005480178052906D190F868300370436802
:1015E0001B6803B1184770473017012010B5C46855
:1015F000A26913681361402B84BF402313601168F4
:10160000638AC26E19440139B1FBF3F14B430333D2
:1016100023F0030343EAC14343F0C043C2F8103B45
:10162000236803F00303012B0CD1D2F8083813F41C
:10163000807FD2F8003B14BF43F0805343F0005347
:10164000C2F8003BD2F8003B43F00443C2F8003B31
:1016500010BDC36810B444899B6944F001044481FF
:101660001A6000225DF8044B99605A60DA60FFF757
:10167000BDBF10B590F84C300446002B40D0063B5F
:10168000DAB20F2A36D80F2B34D8DFE803F039331B
:10169000330825343333333333333333393990F824
:1016A000623090F86320416D43EA0223994213D2DD
:1016B000C3681B8AB1FBF3F203FB121161B930233B
:1016C00083F311880B460A46FFF720FF81F3118848
:1016D0000A2384F84C300DE0142384F84C30302376
:1016E00083F31188002211462046FFF7B2FF002342
:1016F00083F3118810BD836D03B198470023E8E799
:10170000E36ED3F8002942F40012C3F80029D3F89D
:10171000002B42F40012C3F8002B63681B6813B15E
:101720000621204698470623D3E70000F0B5254E52
:101730000124376884403C42024640D106EBC20C8B
:101740003C43CCF804102049CCF808101F49346001
:101750000C6B1F4B44F400140C630C6D0C254543BB
:1017600044F400140C65096D59590C6824F01F04E9
:10177000E8180C600C6814F00104FBD10C2505FB83
:1017800002333D225E7A5D68DB7AB2402A60212214
:101790000C604A6103F1604202F56142502182F817
:1017A000001303F01F015B099B0003F1604303F585
:1017B000614301228A40C3F880211A60F0BD0020F5
:1017C000FCE700BFE0150120D018012000380240DE
:1017D000E8690008144BF0B51A68144D521B93B217
:1017E0001A466BB1C3F5806189B2114E3488002767
:1017F00011444FF0010C8B4205DB07B13480F0BD82
:101800004FF48061F1E710F8012B15F803E09645DD
:1018100006D0EA549A090CFA02F2224394B2012744
:1018200001339BB2E7E700BF5C100020A11000204D
:10183000A414002070B5302383F311882F4D304B52
:101840006B602B780022012BEA602A616A61AA6131
:10185000EA612A624CD12B4BEC6E596B41F080014E
:101860005963596D41F080015965596D596941F0CD
:1018700080015961596921F0800159615B69224BEE
:10188000E02183F843130821C3F8881199601F4BA6
:10189000E3601F4BC4F80038C023C4F8002E236057
:1018A0004FF48033A3632369002BFCDA0123236107
:1018B0000C20FFF72BFD2369DB07FCD41220FFF778
:1018C00025FD2369002BFCDA00260C48A660FFF7F3
:1018D000ADFD104BC4F81068C4F81468C4F81C6857
:1018E000A3614FF0FF336361A36843F00103A3607A
:1018F00002232B70002383F3118870BD3017012061
:10190000206B00080038024000E100E04014004075
:1019100003002002083C30C0890141F02001016130
:1019200003699B06FCD41220FFF7F0BC10B5064AF1
:10193000064C117824784B1C03F00F039C421EBF09
:10194000034C1370605410BD2D1701202C1701207B
:101950001C170120F0B50D4B0D4C1B7826780D4C53
:10196000B34201D10020F0BD04EBC3056F788F4274
:1019700006D114F83370874202D16D79954203D1B4
:10198000013303F00703EBE70120ECE784180120A3
:10199000831801208618012010B51B4B1B4A1B78A9
:1019A000127813431A4A1278DAB11A4A92F90020CF
:1019B000002A16DA184C1949637020222046FEF7D7
:1019C0003FFF00B3154820222146FEF7CFFC144B01
:1019D0001B68C3B106229B6822702046BDE81040F8
:1019E0001847104C1049237008222046FEF728FFA4
:1019F00048B10D4808222146FEF7B8FC084B1B6889
:101A00000BB15B68E9E710BD821801207C1801204A
:101A1000700C00206A18012000100020FC17012023
:101A20001C180120201000202018012008B50346B2
:101A3000002845D082280BD13920FFF731FBFFF772
:101A4000ABFF3920FFF764FBBDE80840FFF7A4BFF8
:101A5000832806D15320FFF723FBFFF79DFF532078
:101A6000F0E7842806D14720FFF71AFBFFF794FF21
:101A70004720E7E7021FD2B2A02AE3D900F12002F3
:101A8000D2B2072A09D80F4900F0070301229A4071
:101A90000B7823EA02030B70D6E700F15B02D2B2A7
:101AA000022A04D8BDE808400020FFF7C1BA583325
:101AB000DBB21A2B04D8BDE808400020FFF7D4BAE7
:101AC00008BD00BF7C18012028B1034B1A781043D1
:101AD0001870FFF761BF70477C18012030B1044ACD
:101AE000137823EA00031370FFF756BF704700BF57
:101AF0007C18012002484FF6FF720021FEF7FEBD60
:101B0000E0150020084B1B784BB1084B93F90030CF
:101B1000002B04DA06481E220021FEF7EFBD05481F
:101B200006220021F9E700BF700C00206A1801208E
:101B300002100020221000202DE9F84300EB81065E
:101B400081465069F2600C4615460FB218B1142256
:101B50000021FEF7D3FDA86918B114220021FEF779
:101B6000CDFDF368D9F86C501E6806F00306721EAE
:101B7000022A05EB44124FF00001C2F8101B04F1D9
:101B800010014FF0010298BFB60402FA01F2996900
:101B90008EBF344E06F1805606F5004660010029DE
:101BA0003CD0B3F812C004F1580149014CEA060CCC
:101BB00045F801C0D5F81C180A43C5F81C282A1896
:101BC0000021C2F810195A694FF00108611E08FA85
:101BD00004F882B31F8A9B8BBA08012B88BF5A4333
:101BE000D9F87430D01843EA024201F1400305EB02
:101BF0008303214647EA845748346401C9F87400D6
:101C000037435A602846FFF787FE2F51D5F81C3816
:101C100048EA0303C5F81C38BDE8F88305EB471C08
:101C2000DCF8001B21F40041CCF8001BD5F81C188F
:101C300021EA0202C1E704F13F0305EB83030A4AEC
:101C40005A6005EB471721462846FFF765FED7F88F
:101C5000003923F40043C7F80039D5F81C3823EACB
:101C60000803D7E7008000100004000210B5044606
:101C70000846052921D8DFE801F01A20031A1A1EA8
:101C8000302383F311880D4A20460121FFF754FFCA
:101C90000B4A02212046FFF74FFF002383F31188F0
:101CA000084B1B7813B10520FFF740FE0220BDE86A
:101CB0001040FFF73BBE0520F9E710BD805F00082C
:101CC0005C5F00082E17012070B50D4614460021F8
:101CD0000646FEF713FD6319B3F5803F03D3C5F540
:101CE0007F44FF343CB10449224629443046BDE8D4
:101CF0007040FEF73BBB70BDE015002007B5002328
:101D0000014601220DF107008DF80730FFF7DCFFD7
:101D10009DF8070003B05DF804FB07B500230146FA
:101D200002220DF10600ADF80630FFF7CDFFBDF839
:101D3000060003B05DF804FB13B5042200230DEB8D
:101D4000020008210193FFF7BFFF2420019CFFF749
:101D5000D5FF0146204602B010BD00000B465118C9
:101D6000B1F5803F03D3C3F57F42FF3222B1014674
:101D700002481844FEF7FABA704700BFE015002089
:101D800037B50C460546FFF7B9FFA04207D0012240
:101D900029460DF107008DF80740FFF7DFFF03B07C
:101DA00030BD37B50C460546FFF7B7FFA04207D058
:101DB000022229460DF10600ADF80640FFF7CEFFDE
:101DC00003B030BD37B5042200230D46044601465A
:101DD0000DEB02000193FFF777FF019B9D4206D0B8
:101DE000042221460DEB02000195FFF7B7FF03B077
:101DF00030BD10B50C46FFF76DF801460820FFF71F
:101E0000E1FFE1B22420BDE81040FFF7B9BF0000B8
:101E100008B5084B1A786FF300021A70D3E9000175
:101E2000FFF7E7FF044B00225A70BDE80840FFF7B8
:101E300065B800BF70180120EA170120044A137921
:101E40000BB1013B1371D2E90001FFF7D2BF00BF14
:101E500070180120044A1379022B9CBF01331371BF
:101E6000D2E90001FFF7C5BF701801202DE9F74343
:101E7000204C25781646EA0707468946984636D507
:101E80001D4AAB0805F0FC05D35C1C4A042D1370F9
:101E900029D1782E01AB324628BF7822FEF7D0FF39
:101EA0002378DB0711D59DF805009DF804109DF8F7
:101EB0000620134D00230133662B68702970AA7029
:101EC00005F10305F7D1FFF719F8677084F8029060
:101ED000E670B8F1000F0AD0D4E9000103B0BDE804
:101EE000F043FFF786BF022B08BF6778EDE703B02A
:101EF000BDE8F08370180120E0680008EA170120AF
:101F0000AE14002004494878CA7889780830012343
:101F1000C0B2FFF7ABBF00BF70180120044948787A
:101F2000CA78897808380123C0B2FFF79FBF00BF85
:101F30007018012005488178C27840780A31FF295D
:101F400028BFFF210123C9B2FFF790BF70180120FD
:101F500005488178C27840780A3921EAE171012385
:101F6000C9B2FFF783BF00BF701801200548C278CF
:101F7000817840780A32FF2A28BFFF220123D2B29B
:101F8000FFF774BF701801200548C2788178407847
:101F90000A3A22EAE2720123D2B2FFF767BF00BF1A
:101FA0007018012070B5194C2378DB072CD508B3C5
:101FB000072821D800F03F00237860F387032370BF
:101FC00019B1D4E90001FFF714FF21781048114D31
:101FD00001228908FEF7E4FB0F4B78B100225A700A
:101FE0000123EB70E278A17860780023BDE87040AF
:101FF000FFF73CBF0120DFE70720DDE701225A7031
:10200000FFF7B4F82880EBE770BD00BF701801201F
:10201000570C0020E4170120EA170120044B187820
:1020200040F00100187001218008FFF7BBBF00BF1E
:1020300070180120054B18788008013008284FF0EF
:10204000010128BF0846FFF7ADBF00BF701801208F
:10205000064B1878C0F38500013810F0FF004FF0F0
:10206000010108BF0720FFF79DBF00BF70180120C6
:10207000084B1B78DA0708D5C3F385033E3303F01A
:102080003F03042B01D8FFF7D5BF01210220FFF742
:1020900089BF00BF7018012008B50A4664230146B5
:1020A0007A2003F08FFCB0FA80F0400908BD0000F0
:1020B0000A4B1B7810B583B1FFF758F8084C094B51
:1020C00000F56A4060301860237833B90648022171
:1020D000FFF7E2FF08B10123237010BDAD1400200B
:1020E000AC140020A8140020A75D0008074B1B7843
:1020F00010B54BB1064C237833B106480221FFF7E7
:10210000CBFF08B10023237010BD00BFAD14002029
:10211000AC140020A95D00082DE9F04F5C4D2B7830
:1021200085B0002B00F0B0805A4B5B4C1C605B4BC1
:102130001B783BB1FEF774FF86074CBF58485948DF
:10214000FFF748FB584E3388002B3DD02B78002BEF
:102150003AD0564B1D78002D36D1FFF7A9FF3188B4
:1021600091B32A46D6B241FA06F0C007134602F1EF
:102170000102F7D54E4D2A78D207DBB236D49B0147
:10218000710803F0400303F13F020F464948817193
:10219000072183704771C270FFF77EFFA0B12B78D3
:1021A000DB074FEA861728D464230093E219402303
:1021B00019467A2003F03AFC30B93B4901220B88DA
:1021C000B24023EA02030B80344B1B78002B5BD018
:1021D000FEF7CCFF384B1B68C01A6FF000439842E3
:1021E00052D205B0BDE8F04FFFF780BFDB00DBB295
:1021F000DA1DD2B200270721C8E73048DFF8C0B0A7
:10220000DFF8C0A040220021FEF778FA00201BF87A
:10221000013B214A3B4413441AF8012B0393274BFB
:10222000013A1A4400240123C4F1070803FA04F90F
:1022300012F801EF5FFA88F85FFA89F90025039B2D
:10224000595DA8EB050309EA010103F0070301FA50
:1022500003FC5B4203F00703D9404CEA010C013553
:102260004EEA0C0C082D5FFA8CFEE8D10134082CE4
:1022700082F800E0D7D10130C0B20828C7D164236A
:1022800000930E4A402393E705B0BDE8F08F00BFEE
:10229000AD1400205C100020A1100020AC14002020
:1022A000D0640008D0600008A4140020A21400200C
:1022B000A1140020500C0020A81400206110002060
:1022C000D8680008D068000810B503689C68A2426E
:1022D0000CD85C688A600B604C602160596099681A
:1022E000891A99604FF0FF33836010BD1B68121B81
:1022F000ECE70000022910B538BF022102234FF09D
:10230000804442186263626A101A814203D8591CE1
:102310000B461046F5E7022B81BF034AD36A43F010
:102320000103D36210BD00BF70160120194A136962
:10233000984210B40FD00368416884680B605960FC
:10234000996821449960002303604FF0FF33936143
:102350005DF8044B70471346016843F8101F0024D2
:102360004B6004601169994203D14FF08043DC60F7
:10237000EEE78B68806803448B604FF08041486AC9
:10238000D169421A9342E3D9091A5DF8044B194402
:10239000FFF7B0BF7016012070B5134D05F11003A3
:1023A000E96143602B698260022A036038BF022220
:1023B000586028614FF080408B184363002303610D
:1023C0000223C360446A661A964205D35A1C11441C
:1023D000416313462146F5E7022B82BFEB6A43F0C7
:1023E0000103EB6270BD00BF70160120F8B5114FFC
:1023F0003C464FF0804354F8106F5B6AA642054696
:102400000A4604D11946BDE8F840FFF7C5BFFC698C
:10241000B2681C1B0C1928BF0C46A24202D91846F0
:10242000FFF768FF224629460348BDE8F840FFF75A
:102430004BBF00BF701601208016012070B5094CFB
:10244000236805460E4613B12046FFF76FFF064B83
:10245000E36000232661636129460248BDE87040BD
:10246000FFF7C4BFD0160120C925000838B590F881
:102470005C2002F07F03212B044679D112F0800FFB
:1024800090F85D302FD0022B29D0032B1CD0012BCC
:102490006ED190F8603090F8612053EA022306D1A3
:1024A000414A026508226265A365012038BD3F4BA1
:1024B00090F85E201A7090F86220036590F86330FF
:1024C00042EA03220023EEE790F8603090F86110B2
:1024D00053EA01234CD1364A02650122E3E7354B2A
:1024E00003650122EEE70A2B39D00B2B10D0092B04
:1024F00001D00020DAE790F8603090F8612043EADC
:102500000223012BF5D82C4B036502222B4BCAE783
:1025100090F8603090F8612053EA02231CD190F8C3
:102520005E50234B1D70BDB9224B1A78A2B13022E8
:1025300082F311881878224BA0FB03034FF47A72C0
:10254000002300F2E7300021FDF7F6FE214680006F
:10255000FFF774FF85F3118800222265B2E719495D
:10256000144B097890F85F201A70CD09F4D1DDE79B
:1025700002F09F02812ABCD194F85D30062BB8D1BD
:1025800094F86120616894F860304D6894F85E10AA
:1025900043EA0223204694F85F20A8470028A8D0E9
:1025A0004368026823658DE73D1000203510002048
:1025B000700C00203410002048100020B9120008D0
:1025C000A08601006A18012038B50C46302383F339
:1025D00011880B78042B03D0002383F3118838BDB6
:1025E000124B1B78DB09F7D1114D2B78002BF3D060
:1025F000104B1B78002BEFD00B899B0705D40E4A9C
:10260000082301212046FEF781FF28780B4BA0FB11
:1026100003034FF47A72002300F2E7300021FDF744
:102620008BFE21468000FFF709FFD5E76A180120DD
:1026300034100020700C00203D100020A086010006
:1026400000230375826803691B6899689142FBD275
:102650005A68036042601060586070470346006823
:1026600020B100221A608161FFF7EABF70470000C5
:1026700011F00C0F38B5436B04D072B6144B154AE9
:10268000DA65FEE7C26A11680C6824F01F040C606A
:102690000C6814F00104FBD1557A51683D22AA4020
:1026A0000A605A6822F480525A601A6822F48062E2
:1026B0001A601A6842F400721A60302383F311889A
:1026C00021461C30FFF7CAFF84F3118838BD00BFD4
:1026D000701601205C5D00082DE9F84390F84C303D
:1026E000044613B1002380F84C3004EB810108222A
:1026F000CB6804F15C00196AFDF738FE63689B68DB
:10270000E3B994F85C3013F060053ED0E36ED3F883
:10271000002942F40012C3F80029D3F8002B42F438
:102720000012C3F8002B63681B6813B10621204612
:102730009847062384F84C30BDE8F8832046984734
:102740000028DED094F8632094F8623043EA022334
:10275000626D9A4288BF636594F95C30656D002BA9
:102760004FF0300380F24081002D00F030810922CB
:1027700084F84C2083F31188636D226D002120467C
:10278000FEF7C4FE81F31188D6E794F85D2003F0CC
:102790007F0343EA022340F20232934200F0FB80BF
:1027A00021D8B3F5807F4DD00DD8012B44D0022B1A
:1027B00000F0BE80002BA9D104F164022265022240
:1027C0006265A365BEE7B3F5817F00F0C580B3F510
:1027D000407F9BD194F85E30012B97D1B4F86430E0
:1027E00043F0020337E0B3F5006F58D01CD8B3F5BF
:1027F000A06F36D0A3F5C063012B87D894F8612071
:10280000616894F860304E6894F85F1043EA0223E0
:10281000204694F85E20B04700283FF477AF436825
:102820002365036863651AE0B3F5106F3CD040F68A
:10283000024293427FF46AAF774B236502236365BC
:102840000023BEE794F85E30012B7FF45FAFB4F84D
:10285000643023F00203A4F8643025656565A5653E
:1028600070E7B4F85C30B3F5A06F14D194F85E1043
:10287000E26E84F86610D2F8003823F4FE6343EA6F
:102880000113C2F8003863681B6813B101212046A8
:1028900098470323237000232365636591E704F1C0
:1028A000670323650123BDE72378042B30D1302350
:1028B00083F31188A36803F00113A36004F10C06ED
:1028C00004F12009A84656F8047F6FB1786920B159
:1028D0006FF001010C30FFF7C1FEB86920B16FF055
:1028E00001010C30FFF7BAFEB1453560EBD1236F23
:1028F0001B6863672046FEF799FD88F31188032162
:10290000636884F8675021701B680BB120469847B4
:1029100094F85E30002BBED084F867300423237017
:1029200063681B68002BB6D0022120469847B2E7A7
:1029300094F86010E26E080601F00F030AD54833E0
:102940005B01D3581A047FF5E1AE99024CBF334BBB
:10295000334B72E75833F3E794F85E30002B7FF483
:10296000D5AE94F8601011F00F0294D0E36E12B25D
:1029700011F0800F03EB421306D0D3F8002922F4A4
:102980000012C3F8002986E7D3F8002B22F40012C6
:10299000C3F8002B7FE794F85E30002B7FF4B6AECF
:1029A00094F8601011F00F023FF475AFE36E12B2AD
:1029B00011F0800F03EB421304D0D3F8002942F446
:1029C0000012DEE7D3F8002B42F40012E0E71422F5
:1029D00084F84C2083F311882A4629462046FEF7C6
:1029E00038FE85F31188A7E66DB1152284F84C20D6
:1029F00083F31188626D216D2046FEF72AFE0023C5
:102A000083F3118898E60B2284F84C2083F3118815
:102A10002B462A462946B2E6F85D0008F65D000816
:102A2000F45D00082DE9F8433F4DD5F86C8008EBC4
:102A300040130446D3F80899C3F8089919F0010F18
:102A40004FEA401619D0D8F81038DB0715D5871C87
:102A500005EB870359684B6918681A6990422CD2B4
:102A6000121A00271A605F60302383F31188214611
:102A70002846FEF706FD87F3118819F0800F1AD05B
:102A8000D8F834380120A040034214D005EB840369
:102A9000ED6EDF680134E4B2796905EB043405EBCF
:102AA000060ED1E900369E4221D3D5F8343823EA08
:102AB0000003C5F83438BDE8F8832B890122A24011
:102AC00023EA02032B818B6813B1214628469847DD
:102AD000302383F3118805EB870700217B68586951
:102AE0000C30FFF7BBFD002383F31188C5E73A8A5A
:102AF0009B1B934228BF1346DEF8182992B2B3EB12
:102B0000820FD8D88A68A2F1040858F804CFC4F814
:102B100000C0A2EB080C9C44BCF1040FF5D81A4489
:102B200033448A604B60BCE730170120F8B5294D6B
:102B3000EE6E06EB40130446D3F8087BC3F8087B1F
:102B400038070AD5D6F81438190706D505EB8403DB
:102B50002146DB6828465B689847FA071FD5D6F8F8
:102B60001438DB071BD5A61C05EB860359688B6957
:102B7000B4B9488A5A68B2FBF0F700FB17227AB959
:102B800018681A6990420BD2121AC3E90024302344
:102B900083F311880F48FEF729FD84F31188F8BDEF
:102BA0006B890122A24023EA02036B81CB6813B137
:102BB000084821469847302383F3118805EB8605A2
:102BC0006B68986941680C30FFF748FD002383F378
:102BD0001188E4E73017012008B50846302383F355
:102BE00011880A7D0023052A06D8DFE802F00B05CC
:102BF0000503120E826913604FF0FF338361FFF704
:102C00001FFD002383F3118808BD82699368013397
:102C100093604268036813605A60EDE7054BD9681A
:102C20000875186802681A60536001220275D8603E
:102C3000FDF768BB7016012030B50E4BDD684B1CEC
:102C400087B0044612D00C4B0393684600230593CB
:102C50000495FFF7CBFB2046FFF7E0FF009B13B185
:102C60006846FFF763FBA86907B030BDFFF7D6FFE2
:102C7000F9E700BF70160120D92B0008054BDB686F
:102C800021B1036098610320FFF7D6BF4FF0FF30FA
:102C9000704700BF7016012070B5302304460D4602
:102CA000164683F311880F480378042B03D00023C2
:102CB00083F3118870BD02890123A34013420AD017
:102CC00000EB84004FF47A71C36858690C30FFF749
:102CD000D5FF0130EBD0034833462A462146FEF7A4
:102CE00015FCE4E73017012007B50C4B1B688DF885
:102CF0000130C3F307218DF80210C3F30741052209
:102D00008DF803101B0E694602208DF800208DF807
:102D10000430FFF7C1FF03B05DF804FB7818012011
:102D20000A4B10B500241C70FEF7ECFE2046FEF79F
:102D30007FF92046FEF798F9054B1C70FEF72CFE34
:102D4000044B1C60BDE81040FFF7CEBF7C1801208B
:102D5000821801207818012010B501460446082287
:102D60000120FFF799FF082221460248FDF7FEFAED
:102D700010BD00BF3D100020014620220220FFF7B9
:102D80008BBF014603220220FFF786BF302383F367
:102D90001188104B5B6813F4006317D0F1EE103A02
:102DA000EFF30983683B4FF08072DA610A4AD26B15
:102DB0001A6683F30988094A1168D268896892689B
:102DC00091428CBF064A074A9A61704783F3118883
:102DD000704700BF00ED00E000EF00E0701601203A
:102DE0002F0300083203000810B51D4C0023237088
:102DF0001C4B80221A7002F0BDFD1B480B21FFF70F
:102E00004BF948B323789B074FF0050125D41748A9
:102E1000FFF742F900B316480D21FFF73DF9D8B18D
:102E2000FEF7A4F9134B00F56A4060301860124BAE
:102E30004FF4806218460021FDF760FC0F4A104BEA
:102E400010604FF6FF721A800E4A012313700E4A6B
:102E500013700E4B00221A7010BD0D48D8E700BF4A
:102E6000A114002060100020C25D0008BD5D0008B4
:102E7000AB5D0008A8140020A11000205C10002009
:102E8000A4140020AD140020AC140020A2140020D3
:102E9000B85D000870470000794A08B552F8041C74
:102EA000784B994230D1002342F8043C72B6BFF30C
:102EB0004F8FBFF36F8F744A516A21F48031516292
:102EC000D2F8941021F00101C2F894104FF0E022E2
:102ED0004FF0FF311361936153619A0002F1604238
:102EE00002F561420133082BC2F88010C2F880114C
:102EF000F3D1002383F31488644B1A6882F30888A3
:102F000062B65B689847FEE7614A624913696248A6
:102F100043F0FF031361136923F0FF031361136987
:102F2000136B43F0FF031363136D43F0FF0313654B
:102F3000136DFEF73DFB1C3100F58060FEF738FB9A
:102F40001C3100F58060FEF733FB1C3100F580601A
:102F5000FEF72EFB1C3100F58060FEF729FB1C31CB
:102F600000F58060FEF724FB1C3100F58060FEF761
:102F70001FFB1C3100F58060FEF71AFB4FF08053F9
:102F80001364464B4FF480411960136843F001030A
:102F9000136013689807FCD5936823F003039360CC
:102FA0003B4B9A6812F00C02FBD1196801F0F90151
:102FB00019609A601A6842F480321A601A689103A4
:102FC000FCD55A6F42F001025A67314B5A6F920793
:102FD000FCD5334A5A601A6842F080721A602F4A50
:102FE00053685B04FCD52A4B1A689001FCD52D4A26
:102FF000C3F884201A6842F080621A601A681101CE
:10300000FCD5294AC3F888201A6842F080521A6019
:103010001F4B1A689200FCD5244A9A60244AC3F8D0
:103020008C200022C3F89420224B1A68224B9A422B
:10303000224B21D1144A1168214A91421CD140F2FD
:1030400003121A601D4A136803F00F03032BFAD111
:103050000F4B9A6842F002029A609A6802F00C02E2
:10306000082AFAD15A6C42F480425A645A6E42F4E9
:1030700080425A665B6E08BD40F20372E1E700BF12
:1030800000000220EFBEADDE00ED00E00000FF1FFB
:10309000003802407C5E00080000024000700040E2
:1030A0000F24400510304022103000420094484068
:1030B00001008000002004E011640020003C024078
:1030C00041C20F417047FEE770B5144C0825606897
:1030D0002368A268043B01468A4219D8D31C1B1AF4
:1030E000C11E23F003038A4238BF00231844E3685B
:1030F000DA1C121AC11E22F00302994288BF002274
:103100000021FDF7FBFA013D04F11004DFD170BD91
:1031100053F8046F41F8046BDEE700BFFC5D000864
:103120000D4B1868D968026810B453601A60012208
:103130000275D86000230B758A680B691B689C6850
:103140009442FBD85A680B604A605DF8044B1160EA
:103150005960FDF7D7B800BF70160120F8B53023CD
:1031600083F31188234D2B78012B1AD02846EC6E5F
:10317000FEF75CF9204A00230821C4F81C38A3603C
:10318000A363C2F88810C2F8881182F843331B4B3E
:103190005A6B22F080025A635A6D22F080025A65FF
:1031A0005B6D002401236C602B70154D274655F88C
:1031B000046F6EB1706920B16FF001010C30FFF740
:1031C0004DFAB06920B16FF001010C30FFF746FAFB
:1031D0000134062C2F60EAD10A4B1A68DB6892682A
:1031E0009B689A4201D9FFF79BFF002383F3118864
:1031F000F8BD00BF3017012000E100E000380240B8
:103200003817012070160120302383F31188034BF7
:10321000DB6898610F20FFF701BD00BF7016012029
:1032200008B50146302383F311880820FFF704FD19
:10323000002383F3118808BD10B50446002878D018
:1032400082280FD13920FDF72BFFFEF7A5FB4FF4A5
:10325000FA50FFF7E5FF3920FDF75AFFBDE81040AF
:10326000FEF79ABB83280AD15320FDF719FFFEF71A
:1032700093FB42F21070FFF7D3FF5320ECE7842852
:103280000AD14720FDF70CFFFEF786FB42F21070D3
:10329000FFF7C6FF4720DFE7031FDBB2A02B24D8D0
:1032A000244B1B78A3B1244B93F90030002B0FDA89
:1032B000224B03EBD00300F007019A7801238B40E7
:1032C0001A420ED02046FDF723FFFEF765FB08E00B
:1032D0001B4A002312F8011FA142F3D00133062B31
:1032E000F8D12046FDF7DCFEB8E700F12003DBB2A1
:1032F000072B08D8134A00F0070411780123A340D4
:103300000B431370AAE700F15B03DBB2022B05D875
:103310002438BDE8104080B2FDF78ABE5834E4B2CC
:103320001A2C06D8084B33F81400BDE81040FDF7FE
:103330009BBE10BD700C00206A18012000100020F8
:10334000211000207C180120326C000838B50C4692
:103350000546FFF771FFA4B10B4940F2E733A4FB28
:103360000141E0184FF47A724FF0000341F100017F
:10337000FCF7E2FFFFF754FF2846BDE83840FEF7B0
:1033800055BB0120F6E700BFA08601002DE9F843F8
:1033900098460C46264B1646074668B11970FDF74D
:1033A000E5FE244B04F0070418800120A040C0B2C1
:1033B000BDE8F843FEF788BB1D788D4233D11D4B25
:1033C000B3F80090FDF7D2FEA0EB090080B2C72849
:1033D00029D8B5420CD140463946FFF7B7FF06F071
:1033E00007060120B040BDE8F843C0B2FEF776BB47
:1033F00005F00705012404FA05F5E8B2FEF76EFBB7
:1034000006F12003DBB2072B07D806F0070304FA06
:1034100003F0C0B2FEF758FBDDE739464046BDE891
:10342000F843FFF793BF04F007040120A040DAE758
:1034300068180120321000200379F7B50546002BEB
:1034400000F075830121FDF79FFC6B7904464BB1B9
:10345000FDF78CFE9D4B18609D4B1B78DE0701D459
:10346000FEF7DCFDA4F5F843183B6879062B24D859
:10347000DFE803F00F13040C171B1F002623E122C3
:10348000114603B0BDE8F040FFF780BF2723E522D7
:10349000F6E72623E122E021F3E72723E522E421D2
:1034A000EFE72623E122E221EBE72723E522E621CD
:1034B000E7E728230122E521E3E788B947F6164329
:1034C0009C4240F00F81834B1B78002B14BF3520AA
:1034D0002920FDF71DFE03B0BDE8F040FEF75CBA01
:1034E0007D4B0027A4F5E0461F70B3B2222B00F2FB
:1034F000DA800420FEF711FC784C013E2080212E5A
:1035000012D8DFE806F055C05D2327612B657137BF
:10351000B83B753F799F437DA749838B2F69336DF6
:103520004F8796B1B61E59C8237843F00103237024
:1035300021880420FEF735FC03B0BDE8F040FFF71A
:10354000EFBB637843F008036370F1E7237843F03F
:103550000203ECE7237843F00403E8E7237843F021
:103560000803E4E7637843F00103EDE7637843F091
:103570000203E9E7237843F01003D8E7237843F008
:103580002003D4E7237843F04003D0E7FFF7C8FBDC
:10359000237843F08003CAE7237823F00C0343F039
:1035A0000C03C4E7637823F0030343F00303CBE782
:1035B00023786FF30003BAE763786FF3C303C3E7BD
:1035C00023786FF34103B2E723786FF38203AEE70A
:1035D00023786FF3C303AAE763786FF30003B3E7BD
:1035E00063786FF34103AFE723786FF304139EE72B
:1035F00023786FF345139AE723786FF3861396E7E2
:10360000FFF78EFB23786FF3C71390E7237823F03F
:103610000C038CE7637823F0030395E72378C3F367
:10362000800282F00102D2B262F3820362F3C3032A
:103630007DE76378DA4302F0010262F3000362F38C
:10364000410381E72378C3F3801282F0010262F321
:1036500086136CE7FFF764FB2378C3F3C01282F094
:10366000010262F3C71362E701210E20FEF788FB17
:103670005EE70021F9E72378C3F3001282F001022C
:1036800062F3041353E72378C3F3000282F00102CC
:1036900062F300034BE76378C3F3C00282F00102D8
:1036A00062F3C30350E747F616439C4277D10C4BB5
:1036B0001B7803F0AA03002B064B13BF0122002244
:1036C000292035201A70FDF7EBFC04E7641801206F
:1036D000701801206C180120681801206A18012058
:1036E0007C180120A04B1878A4F5F043203B00F093
:1036F0002200142B00F29280DFE813F01500230063
:103700002A002D0030003300360039003C003F0015
:1037100042004500190219024C001902190219024F
:10372000190219021902914B1B78DD0704D503B069
:10373000BDE8F040FEF76CBB03B0BDE8F040FEF71B
:103740006DBC8B4A8B4903B0BDE8F040FDF716BC59
:10375000884A8749F7E7884A8849F4E7874A8649CB
:10376000F1E7874A8749EEE7864A8549EBE7864ACB
:103770008649E8E7854A8449E5E7854A8549E2E7DD
:10378000844A8349DFE70121084603B0BDE8F040E1
:10379000FEF708BC03B0BDE8F040FEF769BCA4F535
:1037A000E843403B9BB23F2B49D87B4A3F3CE4B2C5
:1037B0001168013C0123A3400B431360FFF794FA07
:1037C0002A886B79ADF800200098002B5BD0FDF7BC
:1037D000B3FA044601460098FDF776F8BDF80030CC
:1037E000ADF8043001992046FDF7D0F8FDF7D0F987
:1037F000A9796A790346C3F3033009090B2874D801
:10380000DFE810F0450045007C007C00A500730057
:1038100073007300DC003E0150015001A4F5E84341
:10382000403B9BB23F2BCBD85B493F3CE4B20B689B
:10383000013C0122A24023EA02030B60BEE747F6E7
:1038400001439C4218D047F603439C420DD0B4F587
:10385000F84FB5D1FFF764FA46F2A810FFF7E0FC85
:103860004E4B4F4A1A60FDF7B7FCFEF743F94FF68F
:10387000FF713846FEF795FAFFF752FA46F2A810A4
:10388000FFF7CEFCEFE7FDF749F80446A6E7C3F3E0
:103890000721C3F303240F2988BF2401DEB292B1AC
:1038A0005CB106F12003DBB2072B00D94EB92E4ADA
:1038B000137823431370FEF76FF83046FFF7BCFC14
:1038C00013E0384AF4E73046FEF7B0F86CB106F181
:1038D0002003DBB2E443072BE4B200D966B9224BE4
:1038E0001A7814401C70FEF757F80021284603B0E0
:1038F000BDE8F040FDF748BA2A4BF1E7C3F30724CF
:1039000004F0F004202CC3F30320DCB218BF000144
:10391000012C0AD122B10529E7D8FEF7D5F8E4E752
:103920000429E2D8FEF7DAF8DFE71AB10029F4D06B
:103930002046C3E70029F5D0392C0CBF4FF4FA50CC
:103940000120FFF76DFC2046FEF770F8CDE713F479
:10395000406FC3F3812127D00129C6D162B3C3F3DD
:103960000900FDF781FBC0E77C18012070180120D9
:1039700051200008352000081D1F0008051F000801
:10398000511F0008351F0008891F00086D1F00081F
:103990003D1E0008551E000878180120FCFF01207C
:1039A000EFBEADDE8218012022B1C3F30900FDF79E
:1039B0003FFB9AE71046FAE71046D2E713F4407F40
:1039C0002AD1002A51D1C3F34210DC064FEA80000D
:1039D00048BF0F22C0B248BF824003F00F0148BF6A
:1039E000D243C3F3812301FA00F148BF92B2022B04
:1039F000504889B20CD0032B3CD0012B04D0038853
:103A000011431940018030E0038819430A4328E03C
:103A1000038811435940F5E7C3F301201AB3C207E5
:103A200023D5C3F3421013F010014FEA800018BFF2
:103A30000F21C0B218BF814003F00F0218BFC94365
:103A4000C3F3812302FA00F218BF89B2022B3A486D
:103A500092B211D0032BD9D0012B09D003880A438D
:103A60001A40028001E00128DBD8FDF7D9FA3CE7D3
:103A700003881A431143C5E703880A435A40F0E715
:103A8000DEB2C3F3032432B12046FCF709FF30460F
:103A9000FEF71AF8E9E73046FEF720F82046FCF773
:103AA00009FFE2E7DCB2A4F1F000032827D8DFE841
:103AB00000F00210171C52B10429D6D81E4AC3F3D5
:103AC000042101238B4011884B401380CDE7052949
:103AD000F3E7C3F30420002AE1D0FCF7E1FEC4E7DA
:103AE000C3F30420002AF8D0D9E713492AB1C3F35D
:103AF0000422012393400B80B7E70A80B5E73AB16F
:103B000019B12046FFF798FBAFE7C3F30420E4E7C1
:103B100051B1392C0CBF4FF4FA500120FFF780FB54
:103B20002046FDF783FFA0E7C3F30420B7E703B007
:103B3000F0BD00BF7E180120801801201B48F8B599
:103B400083790F2B0AD8437943B1194B194A1B7853
:103B5000157806884788184CAB4200D1F8BD04EBB5
:103B6000C3011AB20979E1B134F83220B24218D156
:103B700004EBC3014A79A2B94A88D21B92B2C72A80
:103B80000FD88379012262F3071383718B79074879
:103B900062F307138B71FFF74FFCBDE8F840FCF7A9
:103BA000E5BE013303F00703D6E700BFC6180120C6
:103BB0008418012083180120861801202DE9FF4771
:103BC0007C4D0446014606226846FCF7CFFB95F87B
:103BD000049094F8008061786779B4F802A02279A3
:103BE000B9F1000F12D17AB1002F00F0DF8020462A
:103BF000FDF7F6F8002800F0D980082221466D482C
:103C0000FCF7B4FBFFF79AFF01253BE06B886E7968
:103C1000AAEB03039BB2002E00F09C80C72B61D857
:103C2000002AF1D0AB79288822880F2B4DD89042FA
:103C30000CD1002F44D1012262F307132846AB7147
:103C4000FFF7FAFBAB79A37100251BE0002F37D1FA
:103C50003A464046FDF77EFE4046FDF77BFE0546B0
:103C60000028F1D10098FDF7A9F8C0F30332032A28
:103C7000C3B20BD8012A13D910F4706F15D0A279F2
:103C80000F2A12D8284604B0BDE8F087063202F0A9
:103C90000F02012A0ED92046FFF7CEFB3546F1E789
:103CA00010F4706F01D0002BECD02033DBB2072B67
:103CB000E8D9F0E7EF2BE5D90F33DBB2022BF7E7BA
:103CC000AB7943F00103AB71BEE7904227D137BB1C
:103CD0002046A371FFF7B0FB082221462846FCF7D7
:103CE00045FB91E7AB790F2B08D82846FFF7A4FBDB
:103CF000082200212846FCF701FDA5E7002A83D011
:103D00002988228891420AD14FB92046A371FFF732
:103D100093FB082239462846FCF7F0FC74E720465E
:103D2000FDF75EF8002841D0002F3FD0AB791F2B64
:103D30007FF663AF2A88ADF8082002A80022ADF80C
:103D40000AA08DF80C908DF80D208DF80E30FFF73D
:103D500073FB52E7C72BCBD8002A3FF455AF2FB3E4
:103D60002A8823889A4217D1AB79DA0710D40F2B0F
:103D70000ED9A37103F0F003F02B06D0A379C3F39F
:103D80000312013262F30713A3712046FFF754FBBD
:103D9000084808222146A2E72046FDF721F800281E
:103DA0007FF42BAFAB7943F00103AB712046FFF7F3
:103DB00043FB29E7C6180120F0B589B06B4683E8BC
:103DC00003009DF80510002209B129490A70ADF8D9
:103DD0000E2093E80300ADF80C10C9B2029002ACBB
:103DE00019B101212046FCF7CFFF94E8030004AE8F
:103DF00086E803003046FFF7E1FE1E4F1E4D0446E5
:103E0000C0B996E8030006AB83E803009DF81410E0
:103E100038782A7871B1461C06F00706964210D011
:103E20001946164B082203EBC000FCF79FFA3E70C0
:103E3000FCF79CFD114C28783B7883420BD109B0EC
:103E4000F0BDFEF76DFF082221460D483C702C7036
:103E5000FCF754FCEEE704EBC000FFF7AFFE0028D0
:103E6000EDD02B78013303F007032B70E3E700BF9D
:103E7000821801208318012084180120861801204F
:103E8000C618012073B5FDF771F90B4D2B8884B26C
:103E9000A3420ED00026ADF80060FDF767F9ADF83B
:103EA0000460ADF8020002AB13E90300FFF784FFE2
:103EB0002C8002B070BD00BFFA170120EFF3098318
:103EC00005494A6B22F001024A63683383F309888B
:103ED000002383F31188704700EF00E02DE9F041E3
:103EE000302304460E4683F3118890F80080456B1A
:103EF0004160B8F1010F3BD140F25643836240F27A
:103F0000164343624E4B984232D14E4F4E493B6A64
:103F100043F400133B623B6A23F400133B6200202E
:103F20003B6AFDF703FC4949E0620620FDF7FEFB12
:103F30003B6C206343F400133B643B6E43F400137B
:103F40003B663B6E424B50224FF0004183F81F23EB
:103F5000C3F88011196083F82023C3F88481C3F863
:103F60000480636A3B4A13436362A36A1343A362F8
:103F7000E36A1A6805F110039360226B126893607C
:103F80004FF400432B604FF4106200232B606A60F3
:103F900069687268307A21F03F010904090C696090
:103FA000696841F01D0169602B498A4220DC52009A
:103FB0002A4B93FBF2F31E22C3F30B032A62EB613D
:103FC00032782B68022A9BB230D0032A34D0012ADF
:103FD00002D123F00A039BB22B602B6843F001034C
:103FE0002B6002232370002080F31188BDE8F0814C
:103FF0001B498A42E3DC02280AD102EB4201174A3C
:10400000B2FBF1F292B21A4342F400430922D5E71F
:10401000032801BF19235343104AB2FBF3F212BF26
:1040200040F6FF7292B24FF48043ECE723F00803AE
:104030009BB243F00203CFE743F00A03CCE700BF93
:10404000D01801200038024071260008E91300084A
:1040500000E100E000000302A086010074C3C90172
:10406000801A060010B53023044683F311880378C4
:10407000012B27D0FDF792F9006BFDF751F9E06AAB
:10408000FDF74EF9134B00229C422263E26219D1E4
:10409000114B4FF00041C3F88010C3F8801101218B
:1040A00083F81F23C3F88410C3F8841183F82023F6
:1040B0000A4B1A6C22F400121A641A6E22F40012CF
:1040C0001A661B6E002301226360227083F311883D
:1040D00010BD00BFD018012000E100E00038024010
:1040E000F8B50446302686F311880025856049001E
:1040F000032020702184606B85F31188216BA76AEF
:1041000009680F60CA604B60E36A626A1B681A60E4
:10411000069ADA60079A5A604FF0804241F2873778
:10412000516A86F3118883699B0702D403689B0553
:104130002AD5536A5B1ABB4223D9236B1A681168CC
:1041400021F01F0111601168CF07FCD4597A5A6819
:104150003D238B401360E36A1A68116821F01F0148
:1041600011601168CE07FCD4597A5A683D238B4000
:10417000136005234FF0FF302370002383F3118871
:10418000F8BD85F31188CCE74368089943F40073C0
:104190004360036843F48073036004F11C00FEF77E
:1041A0006DFDE8B1236B1A68116821F01F011160E1
:1041B0001168CD07FCD4597A5A683D238B401360AF
:1041C000E36A1A68116821F01F0111601168C907BC
:1041D000FCD4597A5A683D238B401360431CC8D0E5
:1041E0000223C9E74FF080422DE9F8431369D168F3
:1041F0000B40D9B2C9439B07116147D5302383F3E4
:1042000011882A4D05F110084FF080492C69D9F822
:104210002400EE69A168264F821B8A423CD32368A2
:1042200062680E44EE6113605A60002323602A69BD
:10423000BA4208BFC9F80C3083F31188E3682169DA
:1042400020469847302383F311886269002ADDD025
:104250004FF080432869596AA1EB060C62450BD2E6
:10426000EB6AB84243F00203EB6213D06246214688
:104270004046FEF729F8C7E7B842F8D1521A32444F
:104280002046FEF789F8002383F31188BDE8F84340
:10429000FEF77CBD0022F3E7BC42F4D0091A31449A
:1042A000E861A160FEF726F8EDE700BF7016012077
:1042B0008016012008B5074B074A196801F03D0137
:1042C000996053680BB190689847BDE80840FEF7C5
:1042D0005DBD00BF00600240E015012008B5084B3D
:1042E0001968890901F03D018A019A60054AD3687D
:1042F0000BB110699847BDE80840FEF747BD00BF05
:1043000000600240E015012008B5084B1968090C4F
:1043100001F03D010A049A60054A53690BB19069A6
:104320009847BDE80840FEF731BD00BF006002407D
:10433000E015012008B5084B1968890D01F03D0111
:104340008A059A60054AD3690BB1106A9847BDE89F
:104350000840FEF71BBD00BF00600240E0150120D1
:1043600008B5074B074A596801F03D01D960536A07
:104370000BB1906A9847BDE80840FEF707BD00BF43
:1043800000600240E015012008B5084B5968890912
:1043900001F03D018A01DA60054AD36A0BB1106B66
:1043A0009847BDE80840FEF7F1BC00BF006002403E
:1043B000E015012008B5084B5968090C01F03D01D2
:1043C0000A04DA60054A536B0BB1906B9847BDE85D
:1043D0000840FEF7DBBC00BF00600240E015012092
:1043E00008B5084B5968890D01F03D018A05DA606E
:1043F000054AD36B0BB1106C9847BDE80840FEF737
:10440000C5BC00BF00600240E015012008B5074BA5
:10441000074A196801F03D019960536C0BB1906C2B
:104420009847BDE80840FEF7B1BC00BF00640240F9
:10443000E015012008B5084B1968890901F03D0114
:104440008A019A60054AD36C0BB1106D9847BDE89C
:104450000840FEF79BBC00BF00640240E01501204D
:1044600008B5084B1968090C01F03D010A049A606F
:10447000054A536D0BB1906D9847BDE80840FEF7B3
:1044800085BC00BF00640240E015012008B5084B60
:104490001968890D01F03D018A059A60054AD36DBE
:1044A0000BB1106E9847BDE80840FEF76FBC00BF27
:1044B00000640240E015012008B5074B074A59681F
:1044C00001F03D01D960536E0BB1906E9847BDE885
:1044D0000840FEF75BBC00BF00640240E01501200D
:1044E00008B5084B5968890901F03D018A01DA6075
:1044F000054AD36E0BB1106F9847BDE80840FEF730
:1045000045BC00BF00640240E015012008B5084B1F
:104510005968090C01F03D010A04DA60054A536F3D
:104520000BB1906F9847BDE80840FEF72FBC00BF65
:1045300000640240E015012008B5084B5968890D58
:1045400001F03D018A05DA60054AD36F13B1D2F854
:1045500080009847BDE80840FEF718BC00640240A0
:10456000E01501202DE9F74FC2F3C31302F0030A4F
:10457000C2F38009C2F3C108C2F3411E019357463A
:1045800000224FF00F0BCB0737D5019C02F0070339
:104590009B0004FA03FC01254468954024EA0504C5
:1045A00044EA0904446085680324560004FA06F6C8
:1045B00025EA060545EA08058560C56825EA060579
:1045C00045EA0E050BFA03F3BAF1020F6FEA06048F
:1045D000C5606FEA03031BD1072A95BF056A456AC8
:1045E0001D401D4095BF45EA0C0545EA0C050562D6
:1045F0004562036823403B43036049081AD04FEAF1
:1046000049094FEA88084FEA8E0EBF000132BAE727
:1046100005682C403C430460072A95BF046A446A3D
:104620001C401C4095BF44EA0C0444EA0C0404629C
:104630004462E2E703B0BDE8F08F08B5302383F3AE
:104640001188012100F00F039940202220F00F0073
:10465000FFF788FF002383F3118808BDF8B51D4ECE
:10466000337804460D4633B91B4801222021FFF759
:1046700079FF01233370302383F311880023DAB2EA
:10468000AA4203F101070FD3DFED147A002307EEEE
:10469000103AB8EEC77AB4EEE77AF1EE10FA11D418
:1046A000002383F31188F8BD02EB4202A618A05C38
:1046B000FCF77AFC7078FCF777FCB078FCF774FCB8
:1046C0003B46DCE700BF00BF00BF00BF00BF00BF2C
:1046D0000133DCE75810002000000240FCFF1545C4
:1046E000064B0748002918BF184600F00F030121A8
:1046F00020F00F0020229940FFF734BF0A04024047
:104700000F0002402DE9F04F8BB01C22002103A8BE
:10471000FBF7F4FF0025974F03AE4FF03008A94692
:1047200057F8041B4C1C54D088F311884FF0010A31
:1047300021F00F0001F00F010AFA01F42146524660
:10474000A4B2FFF70FFF448389F3118800BF00BFB5
:1047500000BF00BF00BF00BF00BF00BF00BF00BF61
:1047600000BF00BF00BF00BF00BF00BF00BF00BF51
:1047700000BF00BF00BF00BF00BF00BF00BF00BF41
:1047800000BF00BF00BF00247B4A234652F8041B31
:10479000481C3FD021F00F0001F00F01006920FA02
:1047A00001F111F0010F0CBF514600210133DBB2C2
:1047B000112B44EA01044FEA4A0AE7D157F8040CE6
:1047C000411C01D0FFF739FF4FF49660FCF79EFDC6
:1047D00034600135EDB2072D06F10406A0D167481B
:1047E000DFF8AC81664F1C2203A9FCF729F898F882
:1047F00000C0044680B93870BCF1000F00F08B8017
:10480000FCF7B4FC5F4A13681060C31AFF2B3CD955
:10481000FF233CE00021C9E703AD0FCD574E0FC683
:1048200095E80700002386E807003B70BCF1000F05
:10483000E6D1FCF79BFC534B1860534B4F4F1B6862
:10484000524E03F1770C00254FF00F0E56F8042B53
:1048500057F8044B002154401A4624FA01F010F096
:1048600001007DD0107810B982F800E001250131F7
:10487000112902F10102F0D111339C45E6D1002D3E
:1048800049D0434B01221A7045E0002B41D03E4AEB
:104890003E4E1268DFF8E4C039780020DBB288F8B9
:1048A0000000019302F17708074686464FF00109A0
:1048B0008246551E002015F801BFBBF1000F15D030
:1048C000019B5B4544D385F800A03368DCF8007099
:1048D00083EA070B09FA00F70BEA0707394387EA6F
:1048E0000307376014BF012100210127013011287F
:1048F000E1D11132904506F104060CF1040CD8D137
:104900000FB11F4B1970BEF1000F02D0204B0122D6
:104910001A70002C91D11F4B1A691F4B520719783E
:1049200020D421B90122AE201A70FEF70FFD1B4BD7
:104930001C68FCF71BFC1A4B001B984217D9194B3B
:104940001B78DB0713D50BB0BDE8F04FFDF760BA5D
:10495000019BABEB030B85F800B04FF0010EC5E7F0
:10496000107084E7012904BF00221A70DFE70BB042
:10497000BDE8F08FC06A0008DC6A0008F816012064
:10498000311000202C100020F4160120A81701205F
:10499000301000200004024028100020641801207C
:1049A000E0930400701801202DE98048BA4B89B0CB
:1049B0001A6962F0FF021A611A69D2B21A614FF0E5
:1049C000FF301A695A69586100215A6959615A6958
:1049D0001A6A62F080521A621A6A02F080521A62EF
:1049E0001A6A5A6A58625A6A59625A6A1A6C42F0CA
:1049F00080521A641A6E42F080521A661A6EA74AE2
:104A0000106840F480701060186F00F44070B0F5CA
:104A1000007F1EBF4FF48030186719675368A049A4
:104A200023F4007353609F4B002643F8046B00AFE0
:104A30000C20344600FB06F28A58146043F83640D6
:104A40000136102EF6D1984BDFF8E0824FF0FF3B95
:104A5000C3F808B0C3F80CB0C3F808B4C3F80CB47A
:104A6000924B702283F81C234FF08052C3F88021B0
:104A70001A608F4B404603F10C020125DA601A617F
:104A80008C4A5A6300F8245B282200211D705C6068
:104A90005C61DC61DC621C63FBF730FE4FF0A0431D
:104AA000C8F86C30844BC8F870307B4BC8F80440B1
:104AB0001A6CC8F808402A431A641A6E2A431A6608
:104AC0007E4A1B6E93682B4393604FF0804240F206
:104AD000562393627A4BC2F82CB094469461546387
:104AE000D460546055611560764A1A60764A5A60FF
:104AF000764B774A9C621A634FF0300989F311882C
:104B000062B6744A7449D06820F4E0600004000C76
:104B10000143D160D2F8FC10704841F08071C2F8B6
:104B2000FC1001684FF0200A2943016082F81FA0A1
:104B300082F82290C3E906B49C60DC6203F11002A3
:104B4000C3E90422DCF824205B6410462146C3E953
:104B5000080180226248DA639A6503F13402DA6060
:104B600000F5AA72C0F8C4215E4AC0F894215E4ADA
:104B7000C0F8B4210222C0F89841C0F8C051A0F892
:104B8000CC21C3E90033C3E91444DC65A3F84850E1
:104B9000C0F8C831C0E97645C0F8D44100F5DC70F2
:104BA000E346FDF74DFD84F31188504B504A1A60DF
:104BB000FCF7A0FF2A4651464E48DFF874A1FFF7E4
:104BC000D1FC002132464C484C4EFBF797FDD8F8FB
:104BD0006C204B4B8AF800401C70D2F8043843F02C
:104BE0000203C2F80438FEF7B9FA41F28830FEF742
:104BF00017FBFCF71FFED8F86C20D2F8043823F01E
:104C00000203C2F804383F4B41F288301C603E4B2F
:104C10003360FEF705FB89F311883C4BDBF8242059
:104C20001A603B4B1C603B4B1C6084F311880822CC
:104C300000213948FBF762FD384B002108461D7002
:104C4000FFF74EFD29460020FFF74AFD42F6E060DF
:104C5000FCF75CFB00210846FCF794F92946044662
:104C60000020FCF78FF92E4B2E4D44EA40041C70B7
:104C7000002455F8040B411C01D0FFF7DEFC013481
:104C8000E4B2072CF5D1284D112455F8040B421C31
:104C900050D0FFF7D2FC4DE00038024000700040D9
:104CA000E8690008E01501200060024000E100E032
:104CB000D018012000540040A86A0008002004E039
:104CC000641601200819012000000220701601203E
:104CD000B46A000800ED00E00003FA05001000E0EF
:104CE000200E00203B0E00081D030008580C002079
:104CF000310E0008000002401C1701201817012087
:104D00002D170120D01601205C0C0020F016012088
:104D1000EC160120E8160120EF170120EE17012004
:104D2000ED170120C06A0008DC6A00083017012076
:104D30002C170120013C14F0FF04A6D11C222146AF
:104D4000C748FBF7DBFC1C222146C648FBF7D6FC14
:104D50007720FBF7A5FBC44B772221461860FBF7B1
:104D6000CDFC2046FCF7D9FF4FF6E665A84255D0AA
:104D7000FCF7C0FE20462946FDF713F82146022025
:104D8000FCF7FEFFB94B012103201980FCF7F8FF67
:104D90004FF4A0510420FDF704F821460620FCF74B
:104DA000EFFF21460720FCF7EBFF21460820FDF727
:104DB00009F821462420FCF7E3FF21461720FCF7E1
:104DC000DFFF21460C20FCF7DBFF21460D20FCF71E
:104DD000D7FF1821002200237818C7E904230822EE
:104DE000FCF772FF082207F1180107F110006C466A
:104DF000FBF726FD28B10822182107F11000FCF767
:104E0000ADFF0021A5462020FCF7DCFF00210F208C
:104E1000FCF7D8FF00211320FCF7D4FF0220FCF799
:104E20006DFF934B934D18700420FCF776FF28809C
:104E3000FFF768FC40F6B830FEF7F2F9FFF762FCC6
:104E4000874B1B68DB040BD5FCF754FE4FF6FF7154
:104E50000020FCF7A6FF884B884A1A60FCF7BCF9D3
:104E60000320FCF74BFF814B1880FDF7BDFF844BFF
:104E700093F80090B9F1000F21D1FCF75DFF814C50
:104E8000C4E90001C0B203280BD87F4B236084F82B
:104E90000490D4E90001FCF7ACFFFCF74DFFC4E936
:104EA0000001FCF717F82078784B0021C4075970EF
:104EB00002D58008FDF776F8714A0123137042F29B
:104EC0001070FEF7ADF92B7843F080032B70FDF7DF
:104ED000A5F801210620FDF765F8FDF785FFFDF730
:104EE000E7F86B4B32681A606A4B6B4D1C789AF886
:104EF0000030002002469C427DD10AB18AF8004071
:104F000098F80030052B06D198F80030052B00F0FA
:104F10008B80FCF741FDFFF7F5FB604E504A3046B1
:104F200015460724013C14F0FF0450F8041B55F803
:104F3000043B00F0F1809942F4D0002452F8043B85
:104F4000FB60F96856F8043B8B4228D04B400025A3
:104F50004FF0010907F1180B19EA030F16D03D763F
:104F60007C767A60BB60FCF701F94FF001033B7778
:104F7000FB68788319EA030F14BF012100217977B8
:104F80009BE80300FEF718FF7A68BB680135EDB2B5
:104F9000112D4FEA4909DFD1FB6846F8043C013482
:104FA000E4B2072CCAD1FCF7E1F80123FB60B9E0B9
:104FB0008AF800303A4B4FF001021A7094E78AF8F1
:104FC0000030374B00241C70364B1C70364B1C7065
:104FD000FCF798FD354B1C60FDF786FE2046FCF77C
:104FE00027F82046FCF740F8FCF71AF8FDF760F8C0
:104FF000FDF714F878E719460122695C013303F0E4
:105000000F03104605293FF676AF01A656F821F0AA
:10501000F54E0008F74E0008F54E0008F54E000862
:10502000B14F0008BF4F0008FDF760F8FCF7F0FE35
:10503000FDF75CF840F2A460FEF7F2F8B8F86430CF
:1050400099077FF561AFFFF75DFB054A072352F82B
:10505000041B69BB013B13F0FF03F8D154E700BF09
:10506000A8170120F8160120F41601207E1801204F
:10507000C41701206A180120FCFF0120EFBEADDE3D
:1050800014170120701801201900FF64EA1701208D
:105090001C1801202D1701201C170120C817012002
:1050A0002E1701207C180120821801207818012079
:1050B00098F80030052B1AD1D8F86C30D3F80428B2
:1050C00042F00102C3F804285A6942F008025A610A
:1050D0009A6942F008029A61C820FEF7A1F8D8F850
:1050E0006C20D2F8043823F00103C2F80438D8F851
:1050F0006C20D2F8043843F00203C2F80438FEF7FB
:105100002DF8FCF797FBD8F86C20D2F8043823F080
:105110000203C2F80438F7E699427FF40FAFFEF7B6
:10512000B1FEFC60614B5A784AB31A78604B614E0D
:105130001B78C2EB9303022ADBB2B37005BF5E4A51
:105140005E4C5F4C5B0814BF4FF4FA65D55CF37896
:1051500043B14FF0000986F80390FCF707F8A6F872
:1051600004903080FCF702F83388C01A80B247F60A
:10517000FE72904203D82B444E483380A047514AD8
:10518000137833B1504B0020997810701A78D97089
:105190005A704D4C00234D49A678097894F8039035
:1051A0005FFA83FB594513D80022E378A17899422E
:1051B00064D0E218013303F003031279E3706378DB
:1051C000D20903F10103637052D10A21AA2051E0F0
:1051D00000215846BB60FBF7D5FE01210546584625
:1051E000FBF7D0FE3A4ABB6812F80B1045EA4005BF
:1051F000EDB201F0030085422CD045EA8105EDB205
:10520000344802F80B50344905F00F05495D10F899
:105210000B50294449B2032900F80B101CDD09F199
:10522000FF3909F003094E450BD0351903F07F0C07
:1052300085F804C02578013606F003060135A6700E
:1052400025704D4205F0030501F0030158BF694286
:1052500000F80B1001339EE7CA1CF2DA09F1FF399E
:1052600009F003094E45ECD0351963F07F0CDFE7F8
:105270000A21A920FEF76AF8012296E732B1FBF76E
:1052800075FFFCF749FFFCF713FF04E0FCF744FF50
:10529000FB68002BF7D1FBF7C3FE104B1A78824254
:1052A0003FF422AE1870FBF761FF1DE6EA170120FC
:1052B00070180120E4170120306B00082D0F000842
:1052C000390E0008F7170120EF170120EE17012013
:1052D000ED170120EC170120336B0008F8170120AF
:1052E0004048414A70B5446BA369656945EA034388
:1052F00003F0FF13934225D014D8073A934205D008
:105300000132934222D0B3F1011F14D1028C130A4F
:1053100016D003F0060302F00102134343F0F0033A
:10532000236108E0314A934226D0023293422ED0C4
:105330002F4A93424ED015F00A0F18BFA36933E0ED
:105340002261F8E7038CC3F34703E9E7636823F4BA
:1053500000736360C36A1B681A6842F001021A6036
:10536000626842F4805262605B68012BE3D8236874
:1053700023F480632360DEE7636823F400736360D3
:10538000036B1A68136843F001031360D3E72369C2
:10539000C36A1B685E685EB1038C43F0010303843B
:1053A000236843F4A0632360BDE87040FDF7EEBCC2
:1053B000636823F400736360236843F4007323601D
:1053C000302383F3118831461C30FDF747F986F30B
:1053D0001188B0E7FBF7E2FF636823F400736360B2
:1053E000A9E700BFD01801200800030082000700D1
:1053F00011000300314B596B70B54C6904F45F40E8
:10540000C0434861186B05682E6826F01F06A2B2DB
:105410002E602E68F607FCD4467A45683D20B040E1
:105420002860D86A05682E6826F01F062E602E6850
:10543000F607FCD4467A45683D20B0402860C2F3A8
:105440000020950548BF40F00200986050050BD53C
:105450004D68986825F400754D600D6840F00400B3
:1054600045F400750D609860160542BF996841F0DB
:1054700008019960550442BF996841F02001996084
:10548000D00442BF9A6842F010029A6021049A68E0
:105490000ED542F040029A60302383F31188084809
:1054A0006FF00101FDF7DAF8002383F3118801E0C2
:1054B000002AF1D1BDE87040FDF768BCD01801208A
:1054C000EC1801202DE9F74F454CE56E6E69AB698C
:1054D0001E4016F480586E6100F088802546002733
:1054E000022345F8087F2370676606264FF03009CF
:1054F000BA4655F8043FABB189F31188D5F800805E
:10550000D8F8140020B16FF001010C30FDF7A6F8B7
:10551000D8F8180020B16FF001010C30FDF79EF8AB
:105520008AF31188013E2F60E3D1E56E84F84C6068
:1055300031462846FCF7F0F9226FC5F834684FF081
:1055400001139768C5F81C384FF000604FF0FF3129
:1055500005EB46130136BE42C3F80009C3F8000B41
:10556000C3F80819C3F8081BF2D916686E62102335
:105570002B612F6917F01007FBD11220FBF7C6FE35
:10558000D5F8003823F4FE63C5F80038AB6943F45E
:10559000402343F01003AB610923C5F81038C5F868
:1055A0001438104BE3604FF0C043C5F8103B0E4B6E
:1055B000C5F8003BC5F81079C5F8003906F11003AD
:1055C000636763681B6846F48016AE6213B10448D3
:1055D0003946984703B0BDE8F04FFDF7D7BB00BF91
:1055E00030170120D05D000840800010002E11DA35
:1055F000D5F8003E9B071EBFD5F8003E23F00303FD
:10560000C5F8003ED5F8043823F00103C5F8043886
:10561000FBF7DEFF370533D5A648FBF707FF2378F6
:10562000052B2DD084F868300523237063681B6830
:1056300013B1A048042198470027DFF87CA2A76097
:105640004FF006094FF0300B5AF8043FABB18BF323
:105650001188DAF80030586930B16FF001010C3070
:105660000093FCF7FBFF009B986920B16FF00101EC
:105670000C30FCF7F3FF87F31188B9F10109E3D18E
:10568000B0040CD5D5F8083813F0060FEB6823F4F6
:1056900070530CBF43F4105343F4A053EB60310735
:1056A0001AD56368DB681BB9AB6923F00803AB61EB
:1056B0002378052B0BD1D5F8003E9A071EBFD5F8ED
:1056C000003E23F00303C5F8003EFBF781FF63684B
:1056D000DB680BB177489847F30243D50021D4F833
:1056E0006CA00F460AEB4713D3F8002902F44022BE
:1056F000B2F5802F2FD1D3F80029002A2BDAD3F866
:10570000002942F09042C3F80029D3F80029002A6A
:10571000FBDBE06EFCF700F923890122BA4023EAA3
:10572000020307F10209238104EB89035B689B688C
:1057300013B1604839469847302383F3118804EB4E
:1057400089090021D9F8043058690C30FCF786FF2C
:10575000002383F31188236F01379B68FFB29F42B8
:105760003946BFD9B70238D5E36E009300274FF012
:1057700001094FF0300ABB46009B03EB4712D2F8F9
:10578000003B03F44023B3F5802F20D1D2F8003B37
:10579000002B1CDA638909FA07F223EA020363810A
:1057A000BB1C04EB83025268D26822B141480193CA
:1057B00039469047019B8AF3118804EB83035B68A9
:1057C000986941680C30FCF749FF8BF31188236F0F
:1057D00001379B68FFB29F42CED9F00616D5E76E1F
:1057E0003A6AC2F30A1002F00F0302F4F012B2F5A3
:1057F000802F63D0B2F5402F08D104EB8303002241
:10580000DB681B6A07F58057904244D13303D5F813
:1058100018481DD5E70302D50020FDF787F9A50339
:1058200002D50120FDF782F9600302D50220FDF7C1
:105830007DF9210302D50320FDF778F9E20202D5B4
:105840000420FDF773F9A30202D50520FDF76EF9D8
:1058500077037FF5BFAEE60702D50020FDF7E2F83B
:10586000A50702D50120FDF7DDF8600702D502206B
:10587000FDF7D8F8210702D50320FDF7D3F8E2069B
:1058800002D50420FDF7CEF8A3067FF5A3AE0520D0
:10589000FDF7C8F89EE6910708BFD7F80080072AF1
:1058A00098BF03F8018B02F1010298BF4FEA182854
:1058B000AAE700BF3017012038170120023304EB9C
:1058C000830207F580575268D2F818C0DCF8082028
:1058D000DCE9001CA1EB0C0C002188420AD104EB8E
:1058E000830463689B699A6802449A605A68024418
:1058F0005A608BE711F0030F08BFD7F800808C4582
:1059000088BF02F8018B01F1010188BF4FEA182816
:10591000E3E700BF10B50346302282F311880B4C39
:1059200020686268014491424FF0000206D982F378
:1059300011880C221A604FF0FF3006E08842F6D83A
:10594000216082F311880028F3D010BD6416012075
:105950007047000010B5044640B10548FEF782FBD1
:10596000013414BF4FF0FF306FF0010010BD00BFD5
:10597000D0180120114B10B51C78ECB901221A7017
:105980000F4822464021FEF7EDFD224680210C48BB
:10599000FEF7E8FD4FF47A70FDF742FC084840F24C
:1059A00006224021FEF7DEFDBDE81040044840F22B
:1059B00006228021FEF7D6BD10BD00BFCE18012003
:1059C000000402402DE9F043DFF85C8085B00E460C
:1059D00005461349404617461C46FEF77FFA114913
:1059E00040F2E733A4FB0141E01841F100014FF41C
:1059F0007A720023FAF7A0FC4FF000096D080290BC
:105A0000CDF80490CDF800903B46324629464046FA
:105A1000FEF766FB05B0BDE8F043FFF79BBF00BF94
:105A2000686C0008A0860100D01801202DE9F04F15
:105A30001F4E87B004AF884605461E493C8E7B60EA
:105A400030469346FEF74AFA7A6802F1080369463F
:105A5000DB08A1EBC3039D4659460DF1110002F18D
:105A6000010AFAF783FC14498DF81080A4FB013178
:105A700040F2E732981841F100014FF47A720023A6
:105A8000FAF75AFC4FF000080DF110096D0802906A
:105A900053464A462946CDF80480CDF8008030466A
:105AA000FEF71EFBFFF756FF0C37BD46BDE8F08F33
:105AB000D0180120686C0008A08601002DE9F0478D
:105AC00086468C460846089E154674461946002BA5
:105AD00040F0C2808542B2FA82F245D94AB1C2F1A1
