:020000040800F2
:1000000000040020FD020008FF020008FF020008B3
:10001000FF020008FF020008FF020008FF020008BC
:10002000FF020008FF020008FF020008C57D00086B
:10003000FF020008FF020008FF020008FF0200089C
:10004000FF020008FF020008FF020008FF0200088C
:10005000FF020008FF020008FF020008FF0200087C
:10006000FF020008FF020008FF020008BD8100082F
:10007000E5810008118200083D82000869820008BD
:1000800091820008BD820008FF020008FF020008FC
:10009000FF020008FF020008FF020008FF0200083C
:1000A000FF020008FF020008FF020008FF0200082C
:1000B000ED800008FF020008FF02000845950008D7
:1000C00059960008FF020008FF020008FF0200081E
:1000D000FF020008FF020008FF020008FF020008FC
:1000E000FF020008FF020008FF020008FF020008EC
:1000F000FF020008FF020008FF020008E982000872
:10010000FF020008FF020008FF020008FF020008CB
:10011000FF020008FF020008FF020008FF020008BB
:10012000158300083D830008698300089583000853
:10013000C1830008FF020008FF020008FF02000858
:10014000FF020008FF020008FF02000829970008CC
:10015000E98300081584000841840008FF020008B4
:10016000FF020008FF020008FF020008FF0200086B
:10017000FF020008FF020008FF020008FF0200085B
:10018000FF020008FF020008FF020008FF0200084B
:10019000FF020008FF020008FF020008FF0200083B
:1001A000FF020008FF020008FF020008FF0200082B
:1001B000FF020008FF020008FF020008FF0200081B
:1001C000FF020008FF020008FF020008FF0200080B
:1001D000FF020008FF020008FF020008FF020008FB
:1001E00072B6374880F30888364880F30988364865
:1001F0003649086040F20000CCF200004EF634713F
:10020000CEF200010860BFF34F8FBFF36F8F40F253
:100210000000C0F2F0004EF68851CEF200010860F6
:10022000BFF34F8FBFF36F8F4FF00000E1EE100A66
:100230004EF63C71CEF200010860062080F314886F
:10024000BFF36F8F05F014FF06F0E0FB4FF0553061
:100250001F491B4A91423CBF41F8040BFAE71D4974
:10026000184A91423CBF41F8040BFAE71A491B4A6D
:100270001B4B9A423EBF51F8040B42F8040BF8E7BF
:1002800000201849184A91423CBF41F8040BFAE794
:1002900006F0D4FC06F0D0FC144C154DAC4203DA49
:1002A00054F8041B8847F9E708F010FB114C124D75
:1002B000AC4203DA54F8041B8847F9E706F0BDBCEA
:1002C00000040020000C00200000000808ED00E001
:1002D000000000200004002048FF0008000C00205F
:1002E000AC0C0020B00C0020F81B0120E00100083D
:1002F000E0010008E0010008E001000870E700F0FC
:1003000000F8FEE72DE9F04F2DED108AC1F80CD072
:10031000C3689D46BDEC108ABDE8F08F002383F3CF
:1003200011882846A047002006F064FDFEE706F08D
:10033000B1FC00DFFEE7000053B94AB9002908BF4D
:1003400000281CBF4FF0FF314FF0FF3000F00CB819
:10035000ADF1080C6DE904CE09F012FDDDF804E002
:10036000DDE9022304B07047704700BF00000000C1
:1003700038B5124B1D682A6B04461AB10023C2E936
:10038000044338BD182000F031F90246286378B1E3
:1003900001200021C2E90401094B0A480A49916081
:1003A000C2E900030B2393810023C2E9044338BD53
:1003B000064B0748462100F0F3F800BF000C002070
:1003C00034126DE60E33CDABECDE050070FE000896
:1003D00088FE00081C4B10B51C68226B8AB113699B
:1003E0001A4954691A4803FB01F100FB0411A3FBED
:1003F0000030013341EB0001C2E9043121F000403B
:1004000010BD182000F0F2F80246206388B1114CAC
:10041000114B0E48114991609FED097BC2E90043E1
:100420000B2393810E4B014682ED047BC2E904311C
:1004300010BD0C4B0C48522100F0B2F8AFF3008015
:100440000100000000000000000C00202DF45158B5
:100450002D7F954C0E33CDAB34126DE6ECDE0500EE
:100460002E7F954C70FE000888FE0008844641EA05
:10047000000313F003036DD1403A41D351F8043B1C
:1004800040F8043B51F8043B40F8043B51F8043B6E
:1004900040F8043B51F8043B40F8043B51F8043B5E
:1004A00040F8043B51F8043B40F8043B51F8043B4E
:1004B00040F8043B51F8043B40F8043B51F8043B3E
:1004C00040F8043B51F8043B40F8043B51F8043B2E
:1004D00040F8043B51F8043B40F8043B51F8043B1E
:1004E00040F8043B51F8043B40F8043B51F8043B0E
:1004F00040F8043B51F8043B40F8043B403ABDD27D
:10050000303211D351F8043B40F8043B51F8043B1E
:1005100040F8043B51F8043B40F8043B51F8043BDD
:1005200040F8043B103AEDD20C3205D351F8043BAD
:1005300040F8043B043AF9D2043208D0D2071CBF79
:1005400011F8013B00F8013B01D30B8803806046A2
:10055000704700BF082A13D38B078DD010F0030318
:100560008AD0C3F10403D21ADB071CBF11F8013B88
:1005700000F8013B80D331F8023B20F8023B7BE7D7
:10058000043AD9D3013A11F8013B00F8013BF9D202
:100590000B7803704B7843708B788370604670479C
:1005A00000B50B4C25681446EE681A4685B0034624
:1005B0000D464CB107490095CDE901143046064976
:1005C00000F0DEF800F004F904490C46F3E700BF40
:1005D000000C0020C4FE0008D4FE0008D0FE000875
:1005E00008B513460022FFF7DBFF00BF024B0146B0
:1005F000186800F02FB800BF000C0020024B014625
:10060000186800F0EDB800BF000C002070B5104E67
:10061000336805460C46B3B12146284609F0B8FABE
:10062000431C0CD0C41C24F00304A04205D0211AA2
:10063000284609F0ADFA013001D0204670BD4FF0D8
:10064000FF34204670BD194609F0A2FA3060E3E796
:10065000B00C00202DE9F041CD1C25F00305083534
:100660000C2D38BF0C25002D82B0064616DBA942A2
:1006700014D8354F00F06AF87A68AAB1144603E03E
:100680006368224683B11C4623685B1BF8D40B2B9E
:1006900021D8A242636855D053600DE00C2333602B
:1006A000002002B0BDE8F08129463046FFF7AEFFDA
:1006B000431C044619D00560304600F04DF804F1A3
:1006C0000B00231D20F00700C21A1CBF1B1AA350E9
:1006D00002B0BDE8F0816119A242256014BF5160EB
:1006E0007960635163684B60E6E77B6823B31C461F
:1006F0005B68002BFBD1226801931946304604EB5E
:10070000020809F045FA804516D12268AD1A29463B
:100710003046FFF77BFF01300ED022687868019BDE
:100720002A442260426812B90CE010465268A24284
:10073000FBD100234360BFE70C233360304600F059
:100740000BF8ADE77B60B7E7B00C0020014800F084
:1007500035B800BFC80C0020014800F037B800BF12
:10076000C80C00200CB400B583B004AB53F8042BC4
:10077000019300F0D9F803B05DF804EB02B07047C4
:100780000EB410B583B005AB064C53F8042B01939F
:100790000146206800F0C8F803B0BDE8104003B07F
:1007A000704700BF000C0020704700BF704700BFBB
:1007B000704700BF704700BF704700BF704700BF61
:1007C0000120704701207047704700BF704700BF8D
:1007D00008B5062001F05AF9012009F005FA00BF1A
:1007E000002950D038B551F8043C0C1F002BB8BF7D
:1007F000E4180546FFF7AAFF274A13682BB1A34266
:100800000CD92168601883422CD06360284614609C
:10081000BDE83840FFF7A0BFA3420FD81A465B6877
:10082000002BF9D111685018844217D02CD3636083
:1008300054602846BDE83840FFF78EBF1168501855
:10084000A04214D020D8216860188342EFD11868E4
:100850005B680844C4E900035460EAE723680B447A
:100860001360E6E718685B6808442060CDE72068FD
:100870000144501883421160DBD1D3E900040144E4
:10088000C2E90014D5E770470C232B602846BDE869
:100890003840FFF761BF00BFB40C00209368013BF4
:1008A000002B936011DA10B49469A34209DB0A2982
:1008B00007D01368581C1060197008465DF8044B87
:1008C00070475DF8044B00F0CBBE1368581C1060F5
:1008D00019700846704700BF9BB1F8B5134406462F
:1008E0000F46541E5D1E01E0AC4208D014F8011FF3
:1008F0003A463046FFF7D2FF431CF5D1F8BD002041
:10090000F8BD0020704700BF936810B514461BB9AE
:1009100018460023636010BD00F0B4FC0023A36000
:100920000023636010BD00BF2DE9F04FA1B08B46DE
:1009300091461C46049018B1036A002B00F04781D1
:10094000DBF86420BBF90C30D20702D49F0540F1DC
:1009500037811E0740F19E80DBF81030002B00F03D
:1009600099800023CA460D9343F22003ADF8393035
:100970009AF80030974E07940127002B7AD0D14681
:1009800004E019F8013F002B00F09A80252BF8D1E4
:10099000B9EB0A0840F0978099F80030002B69D035
:1009A00000234FF0FF32CDE9092309F10109089333
:1009B0000B938DF863301E9305E0089A07FA03F352
:1009C0001A430892A1464C46052214F8011B3046F2
:1009D00001F016F9A246831B0028EED1089BD80629
:1009E00044BF20228DF86320190799F8001044BFF6
:1009F0002B228DF863202A297BD1079A11680432B3
:100A000000290792C0F2B0800B9199F801102E29AD
:100A100000F08680704C0322204601F0F1F838B1D6
:100A2000089B001B4022824013430AF1010A0893ED
:100A30001AF8011B69488DF83810062201F0E0F819
:100A4000002800F09780664B002B7ED007AA00920A
:100A5000644B04985A4608A9AFF300800390039BA7
:100A6000013307D00D9B039A13440D939AF800307D
:100A7000002B84D1DBF8643013F0010FBBF80C308D
:100A800002D19A0540F195805B0616D40D9821B0ED
:100A9000BDE8F08F0498594600F032FE00283FF47C
:100AA00060AFDBF86430DD0707D4BBF80C309C0581
:100AB00003D4DBF85800FFF789FE4FF0FF30E6E77C
:100AC000B9EB0A08D6D00AF1FF35CDF81490A94643
:100AD000049D01E0A0453FD94C465A4619F8011F34
:100AE0002846FFF7DBFE02340130A4EB0A04F1D103
:100AF000C0E7A1F13002092A88BFCA4687D80B9BFC
:100B000000E00134217803EB830302EB4303A1F1FE
:100B10003002092AF5D92E290B93A2467FF47AAF29
:100B20009AF801102A292FD1079B9AF802101A6807
:100B300009920433002A0AF102000793B8BF4FF06C
:100B4000FF338246B8BF099364E7079B073323F05E
:100B500007030833079385E70D99DDF814904144A6
:100B600099F800300D9119E7494243F002030B91C7
:100B700008934AE707AA00921A4B04985A4608A914
:100B800000F0D2F803906AE7A1F130020023092AAD
:100B900009930AF1010A3FF63DAF1AF8011F03EB72
:100BA000830302EB4303A1F13002092AF5D909932B
:100BB00030E7DBF85800FFF709FEBBF80C3063E7BD
:100BC000DBF85800FFF7FAFDBBF90C30C1E600F086
:100BD00009FBB5E604FF00080CFF000810FF000841
:100BE00000000000D908000810B4054C84461346E4
:100BF00020685DF8044B0A466146FFF795BE00BFCA
:100C0000000C00202DE9F84F92461F460A698B68B8
:100C1000DDF828909A42B8BF1A46CAF8002091F829
:100C200043300C46064613B10132CAF80020226850
:100C300091065FD5DAF800300233CAF80030226836
:100C400012F0060F11461DD1E1689942D8BF114636
:100C500018DD04F1190B4FF0000805E0E568DAF83B
:100C60000030ED1A45450CDD01235A463946304621
:100C7000C847013008F10108F0D14FF0FF30BDE85E
:100C8000F88F216894F84330003B18BF01238A068F
:100C90000AD5E1185A1C302081F84300224494F808
:100CA000451082F84310023304F1430239463046BE
:100CB000C8470130E1D02368DAF80050216903F019
:100CC0000603042BD4E902201BD08A4220DD4FF01A
:100CD0000008521A90441A34002501E0454517DAFD
:100CE0000123224639463046C847013005F1010547
:100CF000F4D1C2E712F0060F0DD0003B18BF01235C
:100D0000D2E7401B8A4220EAE078E2DC0028E2DCFD
:100D10000020BDE8F88FE168DAF800309942D8BFCA
:100D2000114696DCAEE700BF2DE9F0470C4684B0D3
:100D30001746227E0C990646984604F1430C002A79
:100D400035D0A2F15803D8B2202869D8202B67D813
:100D5000DFE813F0E00066006600660066006600EB
:100D6000660066006600660066009400700066001B
:100D70006600660066007000660066006600660039
:100D800021008300AE00660066009E0066008300BE
:100D900066006600E6000B68226860691D1D0D6034
:100DA00011061B6802D4520600F1DC801860002393
:100DB000E1462361CDF800803B4603AA2146304638
:100DC000FFF720FF013020D023694A4639463046DC
:100DD000C047013019D02368E068DDF80C909B070C
:100DE00018D5484516DD04F1190A002504E0E0682D
:100DF000A0EB0903AB420DDD0123524639463046D4
:100E0000C047013005F10105F1D14FF0FF3004B0CA
:100E1000BDE8F0874845B8BF484604B0BDE8F08754
:100E200084F84220012004F142090023206184F863
:100E30004330BFE70A682368101D0860180602D413
:100E4000590600F193801068014600286268C0F2DC
:100E5000918053484FF00A0E4AE00B6820681D1D30
:100E60000D60050601D441067ED419684C486F2AEE
:100E700014BF4FF00A0E4FF0080E35E00B681A68E9
:100E800004330B6004F1420984F842200120CCE7CE
:100E90000B686268181D0860D3F80090002148466E
:100EA00000F0AEFE002879D0A0EB09006060BCE73E
:100EB000236843F02003236078223A4884F84520D1
:100EC0000A68151D0D601D064AD4590648D51188BB
:100ED000DD0744BF43F02003236019B9236823F0E2
:100EE000200323604FF0100E0023626884F8433023
:100EF000002AA26016DB236823F00403236089B96B
:100F0000002A45D1E146BEF1080F1CD0ACEB090325
:100F100023614FE7582384F8453021482368CFE701
:100F20002368C9E77546E146B1FBF5F305FB131AE3
:100F30000A46AA4210F80A1009F8011D1946F3D210
:100F4000BEF1080FE2D12368D807DFD562682369B4
:100F50009A42DBDC302309F8013C09F1FF39D5E77F
:100F60001168B5E7188022E719887FE7B2F9001009
:100F700008466AE72D20002AA26084F8430002DBBD
:100F800023F0040323600A2505484942AE46CAE718
:100F9000037884F8423004F14209B4E7606844E71A
:100FA00018FF00082CFF0008024A0349034800F01C
:100FB000E9BA00BF500C0020291E0008040C0020D4
:100FC0000C4B4168994210B5044601D000F02CFF4B
:100FD000A168094B994202D0204600F025FFE16844
:100FE000064B994204D02046BDE8104000F01CBFDB
:100FF00010BD00BFD80C0020400D0020A80D00201F
:1010000008B54B6EDA0702D48B899B0501D5002009
:1010100008BD886DFFF7D2FB002008BD08B54B6EF8
:10102000DA0702D48B899B0501D5002008BD886DA5
:10103000FFF7CCFB002008BD2DE9F843314C324BC3
:10104000DFF8D890DFF8D880304FC4F83831002569
:1010500029460423082204F15C002D4EE360C4E914
:101060000055C4E90455A5606566A56100F028FC3B
:1010700004F15800C4E90849C4E90A872663FFF768
:1010800095FB2946234B6367082204F1C400C4E999
:101090001A55C4E91E552567C4F8CC50C4F88050D1
:1010A00000F00EFC04F1680304F1C000C4F88830BD
:1010B000C4E92398C4E92576FFF778FB164BC4F8FA
:1010C000DC30294604F596700822C4E93455C4E999
:1010D0003855C4F8D850C4F83451C4F8E85000F07A
:1010E000EFFB04F1D003C4E93E87C4F8F49004F5A3
:1010F0009470C4F80061C4F8F030BDE8F843FFF71D
:1011000055BB00BFD80C0020A90F000835160008F9
:10111000591600080900010012000200CD15000850
:10112000F5150008F8B506462A48FFF747FB2A4B95
:10113000D3F83831002B43D0284FD7E90134013B95
:1011400004D524E05A1C04F1680420D0B4F90C50F2
:10115000013B002DF6D1224BE36004F15800656697
:10116000FFF724FB1B48FFF731FBC4E90155C4E935
:1011700004552560A5610822294604F15C0000F0B1
:101180009FFBC4E90D55C4E912552046F8BD3D68E2
:101190000DB12F46D1E74FF4D6713046FFF75AFA1A
:1011A000044680B10423056043600C302946A060EA
:1011B00025464FF4D07200F083FB3C602F46BCE71D
:1011C000FFF73AFFB8E703483C60FFF7FFFA0C234C
:1011D0003360DAE7D40C0020D80C0020500C00203B
:1011E0000100FFFF10B504460B48FFF7E7FA236A3A
:1011F0002BB90A4B0A4AD3F83831226223B1BDE831
:1012000010400548FFF7E2BAFFF716FFBDE81040AF
:101210000148FFF7DBBA00BFD40C0020D80C002037
:10122000C10F00080148FFF7C9BA00BFD40C002065
:101230000148FFF7CBBA00BFD40C002008B5054821
:10124000FFF7BCFABDE80840034A0449002000F05B
:1012500099B900BFD40C0020500C002001100008E8
:1012600008B5054A0549002000F08CF9BDE80840A2
:101270000348FFF7ABBA00BF500C00201D10000858
:10128000D40C00209368002B00F0F8802DE9F04F7B
:10129000B1F90CC01CF0080F83B0904681460C4693
:1012A00031D00B697BB31CF00207D8F8006038D04E
:1012B0000027D4F828B0216ADFF8C4A23D4655457E
:1012C0002B463A4628BF53464846C5B1D847002862
:1012D00040F3CA80D8F808301B1A07442D1AC8F802
:1012E0000830002B00F0B68055452B46D4F828B0C6
:1012F000216A28BF53463A464846002DE6D1D6E932
:1013000000750836DBE72146484600F0F9F9002869
:1013100040F0AF80B4F90CC0D8F800601CF00207B0
:10132000C6D11CF0010A63D12368A168574618464C
:101330008B46002F58D01CF4007F00F0B580B942D6
:101340000A4600F2E1801CF4906F2FD02169626997
:101350005D1A02EB420202EBD2726B1C52103B444C
:10136000934292BF93469B461A461CF4806F00F04E
:10137000EA8011464846FFF76DF9002800F0F98031
:101380002A4621690090FFF771F8A289009B22F498
:10139000906242F08002A2815819ABEB0505C4F8B7
:1013A00014B02361A5602060BB463A4651460092C6
:1013B00000F006FAA1682368009AA1EB0B011A4419
:1013C0003D46A16022600027D8F808305B1BAA4484
:1013D000C8F80830002B3DD02368A168B4F90CC0D0
:1013E00018468B46002FA6D1D6E900A708369EE7FF
:1013F0003846BB463D460097002D41D0002846D0D8
:10140000009A2068A168D4E90473AA4228BF2A463A
:10141000B84204D901EB030A524500F38580934298
:1014200075DC216AA76A5A464846B847B0F1000AF7
:101430001ADD009BB3EB0A0300930FD00120D8F80C
:101440000830A3EB0A03D344A5EB0A05C8F808301B
:10145000002BD1D1002003B0BDE8F08F21464846D3
:1014600000F0E2FC0028EAD0B4F90C3043F040036D
:10147000A3814FF0FF3003B0BDE8F08F002070472C
:10148000756833460836002DFAD0D3F800B02A46E6
:101490000A21584600F0B4FB002867D00130A0EBC9
:1014A0000B0300931A46ACE722699A4214D362698F
:1014B000BA4211D86FF00043BB4228BF3B46A56A31
:1014C00093FBF2F3216A02FB03F348465246A84716
:1014D000051EC9DD7F1B77E7B94228BF39460D4697
:1014E00018460A46514600F06BF9A1682368491B6B
:1014F0002B44A16023600029ECD12146484600F02E
:1015000093FC0028E6D0AFE7BB463A464EE7594683
:10151000019200F055F9019AA3689B1AA360236811
:1015200013442360924684E75946524600F048F936
:101530002368534423602146484600F075FC002888
:101540003FF477AF90E7484600F0AAFB0346002837
:101550007FF422AF21694846FFF742F9B4F90C3015
:101560000C2223F08003C9F800207FE76A1C009258
:1015700047E70C22B4F90C30C9F8002076E700BF29
:1015800000FCFF7F2DE9F84380460F4616464FF0DA
:101590000009D6E90154013D11D4A389012B05F1BD
:1015A000FF3508D9B4F90E300133214603D0404647
:1015B000B84749EA00096B1C04F16804EDD13668AC
:1015C000002EE6D14846BDE8F88300BF10B50C46B2
:1015D000B1F90E1008F0D0FA002803DB636D034464
:1015E000636510BDA38923F48053A38110BD00BFA0
:1015F000002070472DE9F0410C46B1F90C101F4650
:10160000CB05054616460BD421F48051A1813B46FB
:10161000B4F90E1032462846BDE8F04108F0B3BADE
:10162000B4F90E100223002208F0ABFAB4F90C1042
:10163000EAE700BF10B50C46B1F90E1008F0A1FAA8
:10164000B4F90C30421C0EBF23F4805343F4805392
:101650006065A38110BD00BFB1F90E1008F095BA06
:10166000F8B50D461446064610B1036A002B37D074
:10167000A389A269A2601A0719D52369BBB12268A0
:101680006169D31AEDB299422F4620DD0133A1687A
:101690000139A160511C2160157062699A420DD018
:1016A000A389DB0701D50A2D08D03846F8BD2146AD
:1016B000304600F025F838B92369E0E72146304686
:1016C00000F0B2FB0028F0D04FF0FF37EDE72146E5
:1016D000304600F0A9FB0028F6D122680123D6E7A6
:1016E000FFF780FDC4E700BF10B4044C03460A4670
:1016F00020685DF8044B1946FFF7B2BF000C0020CC
:1017000038B52E4B1B6805460C4613B11A6A002AE1
:101710004BD0B4F90C3018071CD5226922B313F052
:10172000010107D0616900204942A060A1613AB17E
:10173000002038BD980758BF6169A160002AF7D121
:10174000190658BF1046F4D543F04003A3814FF06B
:10175000FF3038BDD9062CD55A0712D4226943F080
:101760000803A381002ADAD103F42071B1F5007FC8
:10177000D5D02146284600F097FBB4F90C302269F9
:10178000CDE7616B51B104F14402914204D0284687
:10179000FFF726F8B4F90C300022626322690021B9
:1017A000C4E9002123F02403D9E71846FFF71AFD06
:1017B000AFE709222A6043F04003C7E7000C00208E
:1017C00088420ED98B1883420BD900EB020C002AF9
:1017D0006ED0624613F801CD02F801CD9942F9D1DD
:1017E00070470F2A0FD8034602F1FF3C002A5FD052
:1017F0000CF1010C013B8C4411F8012B03F8012F73
:101800006145F9D1704740EA01039B0751D1A2F12C
:10181000100370B501F1200C23F00F0501F1100E3B
:1018200000F11004AC441B095EF8105C44F8105C35
:101830005EF80C5C44F80C5C5EF8085C44F8085CEC
:101840005EF8045C44F8045C0EF1100EE64504F109
:101850001004E9D1013312F00C0F01EB031102F077
:101860000F0400EB031328D0043C24F003064FEAD6
:10187000940C1E441C1F8E465EF8045B44F8045F03
:10188000B442F9D10CF1010402F0030203EB84032A
:1018900001EB840102F1FF3C4AB10CF1010C013B68
:1018A0008C4411F8012B03F8012F6145F9D170BD6B
:1018B000704702F1FF3C03469AE72246EAE700BF81
:1018C000830730B547D0541E002A3ED0CAB2034623
:1018D00001E0013C39D303F8012B9D07F9D1032C1A
:1018E0002CD9CDB205EB05250F2C05EB054535D9D7
:1018F000A4F1100222F00F0C03F1100EE6444FEA9F
:10190000121C1A46156055609560D56010327245FC
:10191000F8D10CF1010214F00C0F03EB021204F0E9
:101920000F0C13D0ACF1040323F00303043313446E
:1019300042F8045B9A42FBD10CF003042CB1C9B20B
:101940001C4403F8011B9C42FBD130BD6446134686
:10195000002CF4D1F9E703461446C0E71A46A44622
:10196000E0E700BF38B5C46B0CB1002038BD802162
:101970000546FEF76FFE0246E86330B1031F7C3276
:1019800043F8044F9342FBD1EFE74FF0FF3038BDEF
:1019900030B51F2983B0054608D8C36B0C4653B138
:1019A00053F8240043F8242003B030BD162303600D
:1019B0004FF0FF30F8E780210192FEF74BFE019ACD
:1019C000E86303460028F3D0011F00F17C050020E6
:1019D00041F8040FA942FBD1E2E700BF1F2938B547
:1019E00005461ED8C26B0C466AB152F8213053B17D
:1019F000012B06D0591C10D0002142F8241020469B
:101A00009847002038BD284600F0F2F822460146EB
:101A10002846BDE8384000F0D5B816230360012001
:101A200038BD162303604FF0FF3038BD1F292AD878
:101A300038B5C36B0C460546A3B153F8242003EB1D
:101A400084034AB1511C0BD0012A07D0002520463F
:101A50001D609047284638BD012038BD032038BDA1
:101A6000022038BD8021FEF7F5FD0346E86338B15A
:101A7000021F00217C3042F8041F9042FBD1DCE7BA
:101A80004FF0FF3038BD4FF0FF30704738B5134B83
:101A90001F281D681DD8EA6B044662B152F8203039
:101AA0004BB1012B05D0591C0FD0002142F820105A
:101AB0009847002038BD284600F09AF82246014693
:101AC0002846BDE8384000F07DB816232B60012081
:101AD00038BD16232B604FF0FF3038BD000C0020BE
:101AE000114B1F2870B51E6808D8F36B04460D46CD
:101AF0004BB153F8240043F8245070BD16233360D3
:101B00004FF0FF3070BD80213046FEF7A3FD034645
:101B1000F0630028F4D0021F00217C3042F8041F3B
:101B20009042FBD1E5E700BF000C002038B50B4B1D
:101B30001D68EC6B0CB1002038BD80212846FEF7F3
:101B400089FDE86338B1031F00F17C0243F8044FBC
:101B50009342FBD1EFE74FF0FF3038BD000C00207F
:101B600038B5174B1F281D6826D80446E86BA0B16E
:101B700050F8243000EB84004BB15A1C0BD0012BE1
:101B800007D00025056020469847284638BD01202B
:101B900038BD032038BD022038BD80212846FEF71D
:101BA00059FDE86340B1031F00F17C01002243F8B6
:101BB000042F9942FBD1DBE74FF0FF3038BD00BF67
:101BC000000C002070B50C46084D03460026204648
:101BD00011461C462E6008F011F8431C00D070BD61
:101BE0002B68002BFBD0236070BD00BF140E0020BB
:101BF00008F00EB800000000000000000000000027
:101C000001F0FF01102A2BDB10F0070F08D010F8AD
:101C1000013B013A8B422DD010F0070F42B3F6D1B1
:101C2000F0B441EA012141EA014122F007047FF0CA
:101C300000070023F0E80256083C85EA010586EA21
:101C4000010685FA47F5A3FA87F586FA47F6A5FA5D
:101C500087F68EB9EED1F0BC01F0FF0102F0070269
:101C600032B110F8013B013A83EA010313B1F8D114
:101C70000020704701387047002D06BF35460338F5
:101C8000073815F0010F07D1013015F4807F02BF2E
:101C9000013015F4C03F0130F0BC0138704700BF7F
:101CA0002DE9F041144649B3EAB106460D4600F06D
:101CB00085F98442074602D8B4EB500F1AD8214662
:101CC0003046FEF7C7FC804678B1BC422246294622
:101CD00028BF3A46FEF7CAFB30462946FEF780FD8C
:101CE0004046BDE8F081FEF77BFD4FF0000840461E
:101CF000BDE8F081A8464046BDE8F081BDE8F0416E
:101D00001146FEF7A7BC00BFB1F90C301A072DE948
:101D1000F0410C4680463DD44A68002A56DDE56A0B
:101D2000002D34D00022D8F80060C8F8002013F449
:101D30008052216A57D101234046A847431C0246DE
:101D400061D0B4F90C30E56A216A5F0705D5636894
:101D5000D21A636B0BB1236CD21A00234046A847FA
:101D6000451C42D00023636023692360A389D90402
:101D700000D56065616BC8F8006041B104F14403AF
:101D8000994202D04046FEF72BFD002363630020FA
:101D9000BDE8F0810E69002EF9D09B070D6808BFE1
:101DA0004B690E6018BF0023AD1B8B600BE02B4608
:101DB0003246216AA76A4046B847B0F1000CA5EB4D
:101DC0000C05664406DD002DF1DCE0E70A6C002A14
:101DD000A5DCDCE7B4F90C3043F04003A3814FF0FD
:101DE000FF30BDE8F081626DAFE7D8F80020B4F9AC
:101DF0000C309AB11D2A01D0162AEDD12369002298
:101E0000C4E90032B6E7D8F80030002B99D01D2B7A
:101E100001D0162BDED1C8F80060B8E762602269F5
:101E20002260DA04A5D4A5E738B50B69CBB10C461E
:101E3000054608B1036ABBB1B4F90C308BB1626ED0
:101E4000D00701D4990512D528462146FFF75CFF3B
:101E5000636EDA07054602D4A3899B050BD5284695
:101E600038BD0025284638BDFFF7BCF9E4E7A06D72
:101E7000FEF7A4FCE8E7A06DFEF7A8FCEFE700BFC3
:101E8000014618B1044B1868FFF7CEBF034A044956
:101E90000448FFF777BB00BF000C0020500C002067
:101EA000291E0008040C002070B5B1F90C300C4656
:101EB000990796B007D504F147030122C4E904321B
:101EC000236016B070BDB4F90E100029054629DB59
:101ED0006A4607F07BFE002822DB4FF4806128462B
:101EE000019EFEF7B7FB88B3A389206043F080030F
:101EF00006F47046A381B6F5005F4FF48063C4E931
:101F00000403DED1B4F90E10284607F06BFE00285A
:101F1000D7D0A38923F0030343F00103A381D0E7C3
:101F2000B4F90C3013F0800F14BF40264FF48066D4
:101F300031462846FEF78EFB40B1A389206043F06E
:101F40008003C4E90406A38116B070BDB4F90C3057
:101F50009A05B6D423F0030304F1470243F00203C9
:101F60000121C4E90421A3812260AAE770B50C46CF
:101F7000B1F90E10002996B015461E460FDB6A46D1
:101F800007F024FE00280ADB019B03F47043A3F54D
:101F90000053B3FA83F34FF480625B0908E0A2892F
:101FA00012F0800F4FF0000314BF40224FF4806204
:101FB000002033602A6016B070BD00BF51F8043CA9
:101FC000181F002BBCBF0B58C0187047032A70B5F0
:101FD00011D940EA01039B071FD104460B4602E0DA
:101FE000043A032A1DD91946204653F8045B54F8D5
:101FF000046BAE42F4D0541EB2B1421E013901E06E
:10200000C3180CD012F801EF11F801CFE645A4EB8C
:102010000203F5D0AEEB0C0070BD541EEDE7184680
:1020200070BD20461946E6E7104670BDA0F58072E7
:10203000B2F5F85F10B4034622D213F4805F00F4C7
:10204000007403F48062C0F3002003F400630CD03A
:1020500000010CB140F020000AB140F040000BB18B
:1020600040F080005DF8044B08470CB140F00200DE
:102070000AB140F00400002BF4D040F00800F1E772
:102080000020EFE70301DBB243EA10108300801069
:1020900000F0330003F0CC03034358005B1003F05F
:1020A000550300F0AA00184370470000034A0123BB
:1020B000118883400B431380704700BF701B0120C1
:1020C000034A01238340108820EA030010807047F0
:1020D000701B012001F0070330B5C908012402EB91
:1020E00081029C40E4B2013A002112F8015F20FA1B
:1020F00001F343F300036B40234001315D400429A9
:102100001570F2D130BD10B5002200F00704C008F0
:1021100001EB800110468B5CE34003F00103934028
:1021200001321843042AC0B2F5D110BD17B40C46D1
:10213000C1B2C0F3072006280BD810290FD801EB35
:102140000011094A0144204603B05DF8044BFFF733
:10215000C1BF031DDBB2012B01D8044AF3E703B072
:102160005DF8044B704700BF081B0120041B0120D1
:10217000C3B2C0F30720062882B008D8102B0DD8B0
:1021800003EB00130749184402B0FFF7BCBF04304B
:10219000C0B2012802D804491846F5E7002002B071
:1021A000704700BF081B0120041B0120054B064A95
:1021B0001B7812789A4200D17047013303F007036D
:1021C000F8E700BF741B0120731B0120CBB2C1F3E1
:1021D0000721062982B00AD8102B1AD8B8B901EB0A
:1021E000011119440C4B33F8110002B07047FD295E
:1021F00006D173B9002847F6416018BF0120F4E703
:10220000FC2906D12BB9002847F64060F5E70120EC
:10221000EBE70020E9E700BF94FB0008E72850D86F
:10222000DF2807D8312865D00ED8292858D02A2889
:1022300067D07047A0F1E003072B42D8DFE803F036
:102240001541242933413D42392804D0822802D047
:10225000352840D07047334B1A7892075CD15B78B1
:1022600013F0080F18BF292070472E4A1378D9079A
:102270004ED4527812F0010F23D013F0100F08BF84
:10228000E32018BF00207047264B1B7813F0040F83
:10229000F2E7244A137859073CD45278D2073BD44A
:1022A00013F0100FEDE71F4B5A78910709D51B78F3
:1022B00013F0100F08BFE720E3E71A4B1B781A074B
:1022C000F6D47047174A1378190727D45278910724
:1022D000E6D5E4207047134B1B7813F0200FC1E7BD
:1022E000104B1A7892061BD45B7813F0080F18BFB6
:1022F000392070470B4B1B7813F0400F18BF2A2072
:102300007047084B1B7813F0400F18BF31207047FF
:1023100039207047E2207047E0207047E620704780
:102320003520CEE75A1B012010B52F4C21784B07E2
:1023300013D500F01402A2F1040C00F01803DCF134
:10234000000242EB0C02A3F1080CDCF1000343EBAA
:102350000C039A4218BF80F00C000B0713D500F055
:102360001402A2F1140C00F01803DCF1000242EB9D
:102370000C02A3F1180CDCF1000343EB0C039A42AE
:1023800018BF80F00C006478E30713D500F0110249
:1023900002F1FF3C00F01803DCF1000242EB0C02FA
:1023A000A3F1080CDCF1000343EB0C039A4218BFC5
:1023B00080F00900A30711D500F0110200F0180306
:1023C000A2F111046242A3F1180C6241DCF1000396
:1023D00043EB0C039A4218BF80F00900CB0648BFBC
:1023E00000F0E70010BD00BF5A1B012038B5FFF711
:1023F00015FFB0F5A04F044635D2B0F5804F80F000
:102400009D80DF2813D9B0F5005F25D3C0F30420E9
:10241000FFF78AFF0546E0B2FFF700FF2D0205F443
:10242000F855054345F40055ACB2204638BDCC28DC
:1024300073D8A72809D8A42861D80128F5D0031F8C
:102440009BB2A12B28BF0024EFE7A0F1A8039BB209
:102450001A2B5AD90024E8E7FF2861D8A0F1E0033D
:102460009BB2082BEEE745F25F23984220D845F255
:102470003F23984277D845F21F23984206D900F0AF
:102480001F044AF2F10343EA0424CEE7B0F5A44F57
:102490005DD200F01F00FFF747FFC30676D4C4F3F8
:1024A000431400B240EA042040F4104084B2BCE778
:1024B00045F2BF23984214D845F29F2398425DD835
:1024C000A0F5A443603B9BB21F2BC3D800F00304CC
:1024D0000123C0F38202A34043EA421343F40A43B8
:1024E0003FE0A0F5A543403B9BB21F2BB2D80402AE
:1024F00004F4F85444F4204444F0F00495E7A0F1C7
:10250000240444F48044A4B28FE75834204BE4B24E
:1025100033F8144044F4884487E740F4A044F2E7D9
:10252000C0F30720FFF700FF0546E0B2FFF776FE95
:102530002D0205F4F85540EA0504E4E7C0B2FFF7C0
:102540006DFE04F47064044344F42044DBE700F0BF
:1025500003040123C0F38502A34043EA421343F47A
:102560000D439CB261E700F003040123C0F3820233
:10257000A34043EA421343F40C43F2E700F01F0088
:10258000FFF7D2FE040204F4F8544EE7000186E798
:1025900082FC00087FB5114BADF804001D88104B7C
:1025A0001B881D43ADB20F2445FA04F3DB0705D4A5
:1025B000013CF9D20026304604B070BDBDF80430AD
:1025C000ADF80C30E6B203993046FFF7FFFDFFF798
:1025D0000DFF80B20128EBD0EDE700BF701B01209A
:1025E0006E1B012013B502884379ADF804200198D1
:1025F00073B169B1FFF7CEFF044601460198FFF7BA
:1026000095FD0199204602B0BDE81040FFF7DEBD00
:10261000FFF7AEFD0446F4E71FB5ADF804000198DE
:10262000FFF7B8FFBDF80430ADF80C300399FFF7A1
:10263000CDFD05B05DF804EBFFF7D8BE08B5034645
:102640000079A8B11888FFF7E7FFC3B2C0F30330E1
:10265000062813D094BF0E30063000F00F0001287A
:1026600010D8F02B10D004D8E72B8CBF002001200D
:1026700008BDF42B14BF00200120F9E7E72B03D994
:10268000F12BF7E70020F3E70120F1E70020704786
:1026900030BFFDE703460846DA68511C10B4D96024
:1026A00019698A4208D21C6824B1596823465DF82A
:1026B000044B18479B6898545DF8044B7047000022
:1026C000014B1B68184700BF700C00202DE9F04734
:1026D000DDF820A0D0F80C801AF0030F05460F4655
:1026E00014461E4610D03C44BC420FD11AF0020FD3
:1026F00016D1BDE8F08720212846FFF7CBFF09F16E
:102700000109B145F7D3EEE79146FAE714F8011D48
:102710002846FFF7BFFFE7E720212846FFF7BAFF6B
:10272000EB68A3EB0803B342F6D3E2E72DE9F04FE1
:102730008BB00D461E46169CDDE914E3944602A9B3
:10274000FDB9270518D430228DF8082024F0100494
:102750000125A20755D404F0010243B1002A50D04C
:10276000BCF1000F02D114F00C0F00D0013B002A85
:1027700047D02A46302728E0102EEAD124F0100452
:10278000E7E714F0200F14BF4FF041084FF0610845
:102790002A4689460025A8F10A08B2FBF6FA06FB8C
:1027A0001A2B5FFA8BF7BBF1090F94BF3037474400
:1027B000FFB2964209F8017B05F10105C9D8202D29
:1027C000C7D05246E9E757540132934201D9202A33
:1027D000F9D1302701E057540132964528D9202AF3
:1027E000F9D1082E0FD1202D31D014F4005F24F040
:1027F000100727D13C460094FFF768FF0BB0BDE8F7
:10280000F08F2A46E5E742F210073C42F3D0270555
:102810004CD5102E00F08880022E70D01F2AEAD8E6
:1028200002F128056D44302605F8206C013231E0B4
:10283000082E2BD1954229D214F4005F24F0100702
:1028400000F08880240540F196803C46E6E742F29D
:1028500010073C42CFD02705DBD43ABB102E1CD149
:1028600014F0200F14BF582278228DF8082030224F
:102870008DF809200222BCF1000F6DD002F128056D
:102880006D442D2605F8206C0132B4E742F21007A2
:102890003C42E0D11F2AEED9ADE7022E01D16222DF
:1028A000E3E730228DF808200122E4E7964501D0C5
:1028B0009342AED19542ACD22746B2F1010E16D169
:1028C000102E0DD117F0200F0CBF782258228DF852
:1028D000082030228DF809203C46CBE76222F6E73B
:1028E000022EFBD030228DF808203C46DCE7102E6B
:1028F0000DD0022E2BD1754526D2023A3C461F2A16
:102900003FF679AF02F128056D44622615E0754562
:1029100008D3BD0672463C460BD502F128056D442E
:1029200058260AE0023A3C46A7060AD41F2A3FF678
:1029300062AF02F128056D44782605F8206C01325B
:102940006CE71F2AE9D956E772463C46DAE73C466F
:10295000724663E73C469DE7660704D502F1280509
:102960006D442B268EE725077FF545AF02F128053C
:102970006D44202686E796459FD093427FF465AF4D
:102980009BE700007FB52949C0F3074310F47F4F50
:10299000C95CC2B2C0F3072644D002EB4204FF2355
:1029A0006400B4FBF3F46FF05403634303EB42039E
:1029B00003EB4303DBB216FB03F2C3F1FF037343E4
:1029C00012121B12C6F1FF05C2F1FF02C3F1FF0391
:1029D0004D434A434B43C5F30725C2F30722C3F3D4
:1029E0000723062C19D8DFE804F00406110F141889
:1029F00004000A461946002061F3070062F30F2025
:102A000065F3174004B070BD0B4611462A461D46BB
:102A1000F1E71A460B462946F9E70B4629461546C3
:102A20001A46E8E70D460A46E5E700BF3CF900080C
:102A3000012830B501D8C0B230BDB0F5F75F9DBFF9
:102A400042090832D2B2FF220124A3185910C3F35D
:102A50004705C3F34F0313FB03F39BB2834206D92D
:102A6000013DEAB29442F0D9013CE0B2E4E7FF292B
:102A700002D00135ECB2F5E70846DDE7074B1888D0
:102A800000EB402200EB820000F55850193080B274
:102A9000188000EB1020C0B2704700BF6C0C002003
:102AA000410648BFC34310B54CBFDAB202460D4CD5
:102AB000C2F3011204EB420148BF03F00F0349784F
:102AC00054BF00F00F03013311FB03F114F812306F
:102AD00003EB2113DBB2020644BF5B42DBB283F09F
:102AE000800010BD34F90008024610B9C90FC801B2
:102AF000704780EAE073A3EBE073002918B201FA93
:102B000083F30CDB091A490191FBF3F1C1F12001B8
:102B10004BB2D8B2002ABCBF4042C0B270475B0182
:102B2000401A93FBF0F3C3F160035BB2F1E70000DE
:102B3000154B03EB4103E42193F8773013FB01F3CA
:102B4000C2EB132384B01C33002B0190B8BF5B424F
:102B5000C0F30720A0EBC3031BB223EAE37313FB0C
:102B600000F31B128DF80530019B0020DAB262F3EE
:102B70000700C3F3072262F30F20C3F3074363F395
:102B8000174004B0704700BFB8FC0008154B03EBBA
:102B90004103E42193F8773013FB01F3C2EB1323D5
:102BA00084B01C33002B0190B8BF5B42C0F30740D8
:102BB000A0EBC3031BB223EAE37313FB00F31B1266
:102BC0008DF80630019B0020DAB262F30700C3F3F0
:102BD000072262F30F20C3F3074363F3174004B0E7
:102BE000704700BFB8FC000830B585B0C0F30725BA
:102BF000EB1A01901046DCB2FFF776FFC0EB8013B2
:102C000000EB83000444E4B214FB05F424128DF8B5
:102C10000540019B0020DAB262F30700C3F30722EC
:102C200062F30F20C3F3074363F3174005B030BDD1
:102C300030B585B0C0F30745EB1A01901046DCB201
:102C4000FFF752FFC0EB801300EB83000444E4B2B3
:102C500014FB05F424128DF80640019B0020DAB223
:102C600062F30700C3F3072262F30F20C3F30743A5
:102C700063F3174005B030BD30B585B0C0F307250C
:102C800001909DF820001C1A1046FFF72DFF2C44E0
:102C9000E4B2241AE4B214FB05F424128DF80540C2
:102CA000019B0020DAB262F30700C3F3072262F34C
:102CB0000F20C3F3074363F3174005B030BD30B5B1
:102CC00085B0C0F3074501909DF820001C1A1046FE
:102CD000FFF70AFF2C44E4B2241AE4B214FB05F413
:102CE00024128DF80640019B0020DAB262F307003F
:102CF000C3F3072262F30F20C3F3074363F31740C4
:102D000005B030BD84B001908DF80420019B0020F7
:102D1000DAB262F30700C3F3072262F30F20C3F3B2
:102D2000074363F3174004B0704700000C4B03EBFC
:102D3000410384B093F8773001909B1A8DF80430EA
:102D4000019B0020DAB262F30700C3F3072262F3AB
:102D50000F20C3F3074363F3174004B0704700BF6D
:102D6000B8FC00080C4B03EB410384B093F87830B7
:102D700001909B1A8DF80430019B0020DAB262F3B7
:102D80000700C3F3072262F30F20C3F3074363F383
:102D9000174004B0704700BFB8FC0008134B38312F
:102DA00030B503EB410403EB4103257ADB79A5F150
:102DB000200464B2002C85B0BCBFC5F120056CB204
:102DC0009A1A01902244C0B210448DF80400019B6D
:102DD0000020DAB262F30700C3F3072262F30F2088
:102DE000C3F3074363F3174005B030BDB8FC0008D8
:102DF00084B003EB43039DF81020019002EB5303D2
:102E00008DF80430019B0020DAB262F30700C3F3AF
:102E1000072262F30F20C3F3074363F3174004B0A4
:102E200070471FB5019048B20028BCBF494248B264
:102E30005243C0F1380010FB002080B21C46FFF75F
:102E4000F7FD00EB400004448DF80440019B002096
:102E5000DAB262F30700C3F3072262F30F20C3F371
:102E6000074363F3174004B010BD1FB5019010462F
:102E70001C46FFF739FE03198DF80430019B002032
:102E8000DAB262F30700C3F3072262F30F20C3F341
:102E9000074363F3174004B010BD1FB501909DF8C0
:102EA00018001C1A1046FFF71FFEE4B2241A8DF812
:102EB0000440019B0020DAB262F30700C3F307224B
:102EC00062F30F20C3F3074363F3174004B010BD50
:102ED00084B0019003F13800104B03EB4003187AE3
:102EE000DB79703B4B43203802FB0032002A9DF80F
:102EF0000430B8BF7F3203EBE2138DF80430019B3E
:102F00000020DAB262F30700C3F3072262F30F2056
:102F1000C3F3074363F3174004B07047B8FC0008DD
:102F200084B0019003F13800104B03EB4003187A92
:102F3000DB79703B4B43203802FB0032002A9DF8BE
:102F40000430B8BF3F3203EBA2138DF80430019B6D
:102F50000020DAB262F30700C3F3072262F30F2006
:102F6000C3F3074363F3174004B07047B8FC00088D
:102F70001FB5164C0190383304EB4304C0B2237ADA
:102F8000E479203B5343A4F1700252B2002ABCBF43
:102F9000C4F1700462B2C2F1380201FB023111EBDC
:102FA000410148BF7F3100EBE1108DF80400019B27
:102FB0000020DAB262F30700C3F3072262F30F20A6
:102FC000C3F3074363F3174004B010BDB8FC000817
:102FD000104B383103EB410384B0197ADB7901904F
:102FE0005B1A03EB4303DBB220298CBFD2189A1A79
:102FF000D2B28DF80420019B0020DAB262F3070000
:10300000C3F3072262F30F20C3F3074363F31740B0
:1030100004B07047B8FC000830B585B0C4B2019068
:1030200010460D46FFF73CFD134901EB450191F8B1
:103030007730C218D2B2A2F180035BB2002BBCBFC2
:10304000C2F1800253B25B0003F0FE0303EB4303C3
:1030500004EB93148DF80440019B0020DAB262F374
:103060000700C3F3072262F30F20C3F3074363F3A0
:10307000174005B030BD00BFB8FC0008114B03EB92
:10308000410384B093F8771001908B1A5BB2002B48
:10309000BCBF521A53B2DBB203EB4303C0B200EB26
:1030A00053108DF80400019B0020DAB262F3070090
:1030B000C3F3072262F30F20C3F3074363F3174000
:1030C00004B07047B8FC0008134B144A1B791288EF
:1030D000083384B0FF2B28BFFF23C9430190C9B236
:1030E000C0F30740C3F3031310FB01F05343000A7E
:1030F0001B128DF806008DF80430019B0020DAB217
:1031000062F30700C3F3072262F30F20C3F3074300
:1031100063F3174004B07047601B01206C17002058
:10312000114B124A1B7912880833FF2B28BFFF234B
:10313000C3F30313C94384B05343C1F3850101EBC7
:10314000232101908DF80410019B0020DAB262F374
:103150000700C3F3072262F30F20C3F3074363F3AF
:10316000174004B0704700BF601B01206C1700209F
:1031700084B003EB8302BDF81030019013449BB27E
:10318000FF2B154A15491279098828BFFF23C0F380
:103190000740DB4350FA83F3FF2B02F1080228BFFC
:1031A000FF23FF2A28BFFF22C2F303124A43121251
:1031B0008DF804208DF80630019B0020DAB262F30E
:1031C0000700C3F3072262F30F20C3F3074363F33F
:1031D000174004B0704700BF601B01206C1700202F
:1031E00000291FB5B8BF4942002AB8BF524209B2F0
:1031F000090112B2FF294FEA0212A8BFFF21FF2ADC
:10320000A8BFFF2209B212B2BDF818400190914246
:10321000A8BF1146234411FA83F39BB2FF2B154A32
:1032200015491279098828BFFF23C0F30740DB4303
:1032300050FA83F3FF2B02F1080228BFFF23FF2A75
:1032400028BFFF22C2F303124A4312128DF8042052
:103250008DF80630019B0020DAB262F30700C3F359
:10326000072262F30F20C3F3074363F3174004B050
:1032700010BD00BF601B01206C1700201FB5482B3C
:103280000190C0F307403CD8BDF81840E31A9BB248
:10329000FF2B28BFFF23083189B2102905D902F17D
:1032A000080189B2112928BFFF231749174C097952
:1032B00024880831FF2928BFFF21C1F30311DB4314
:1032C00050FA83F3002A04FB01F14FEA2121B8BF31
:1032D0000332FF2B01EBA20228BFFF238DF804204D
:1032E0008DF80630019B0020DAB262F30700C3F3C9
:1032F000072262F30F20C3F3074363F3174004B0C0
:1033000010BDFF23C7E700BF601B01206C17002022
:1033100084B0C0F30741BDF810200190D31A9BB2CE
:10332000FF2B28BFFF23DBB2DA4351FA82F2FF2AD8
:1033300028BFFF2253FA80F08DF804008DF8062094
:10334000019B0020DAB262F30700C3F3072262F3A5
:103350000F20C3F3074363F3174004B0704784B0F2
:10336000BDF810200190D21A92B2FF2A28BFFF2286
:10337000C0F30740D24350FA82F2FF2A28BFFF224F
:103380008DF80620019B0020DAB262F30700C3F338
:10339000072262F30F20C3F3074363F3174004B01F
:1033A000704700F02DB800F049B800EB4000C0EBCA
:1033B000C000C3B203F11502D2B2662A4FF000007A
:1033C00063F30700134628BF662382B063F30F2020
:1033D00002B07047054B1A7892071EBF044A0021BD
:1033E00011701A786FF301021A707047601B012088
:1033F000A80C0020014B00221A7070472F160020E5
:10340000F0B50C4D00EB4007EE19440096F801C0F2
:103410008C4505D1EF5D974202D1B6789E4207D028
:1034200020442C18044E2A54012737706170A37071
:10343000F0BD00BFFD1400202F16002070B513460C
:1034400005460E4600242046324629460134FFF741
:10345000D7FF662CF7D170BD00B1104708470000B8
:10346000144BF0B51A68144D144E521B93B211FA56
:1034700082F2B2F5806FC4BFC3F5806189B234882F
:10348000002219444FF0010C8B4202DB02B1348060
:10349000F0BD10F8017B15F803E0BE4506D09A098F
:1034A0000CFA02F22243EF5494B2012201339BB290
:1034B000EAE700BFF8100020FC100020F610002002
:1034C000064A074B002918BF134623F00F0203F0EA
:1034D0000F031069D84000F0010070470A04024051
:1034E0000F0002401C4970B507220126202406FA6D
:1034F00002F303400C8319D00023072B06D14C8321
:103500000023032B0AD1013AF1D270BD00BF00BFE6
:1035100000BF00BF00BF00BF0133EEE700BF00BF28
:1035200000BF00BF00BF00BF0133EAE71D46032D07
:103530000AD14C83072BE6D000BF00BF00BF00BFFD
:1035400000BF00BF0133F5E700BF00BF00BF00BFF1
:1035500000BF00BF0135EAE70000024002B110479A
:1035600070470000024B186808B10368184770479D
:10357000F81A01200B4B07B51A8882420ED018802A
:10358000094B1B6853B103228DF80500000A8DF822
:1035900006001B698DF8042001A8984703B05DF868
:1035A00004FB00BFAA100020F81A01200B4B07B53E
:1035B0001A8882420FD01880094B1B685BB1042225
:1035C0008DF80500000A8DF806001B698DF80420AF
:1035D0000DEB0200984703B05DF804FBA810002033
:1035E000F81A012070B5302383F311884FF080431F
:1035F000114812495C6A03680A68E41AA242104A38
:103600000AD9A3F58333E03B036010680D4B04F542
:1036100083340344E03413600C601668002181F3A6
:1036200011880948094A4FF47A750023E4FB050123
:10363000FCF782FE304470BD801801207C18012008
:103640007818012088598F029F860100A08601000A
:10365000BFF34F8F0549064BCA6802F4E06213437B
:10366000CB60BFF34F8F00BFFDE700BF00ED00E070
:103670000400FA0510B5224900234B6090F85F4022
:1036800090F85E2042EA042290F8604090F86100D1
:1036900044EA0024100A03281CD005D801280FD0C2
:1036A000022813D018460FE0212821D02228F9D172
:1036B000022CF7D8134B53F82400134B1B5D11E079
:1036C000124B4B60122308460B6010BD104B4B6031
:1036D0005423F8E7D2B2022AE4D80E4B53F8220062
:1036E0000D4B9B5C064A4860002818BF1046EBE76C
:1036F000022CD7D8094B53F824000923F2E700BF66
:10370000A0100020FCF40008F6F40008E4F400081F
:1037100090F4000818F5000814F5000808F50008F2
:103720007047000090F8622090F86300084942EA70
:103730000022022A0B7807D1012B01D0062B05D1DC
:10374000044B4A781A707047024A1370704700BFE2
:103750009C10002099100020302383F3118800234F
:1037600083F3118870470000014B1878704700BF41
:10377000991000207047EFF3118020B9EFF3058313
:10378000302282F311887047034A516853685B1AEC
:103790009842FBD8704700BF001000E0C27A53097E
:1037A0009B0003F1604310B503F5614302F01F0471
:1037B000012101FA04F4C3F88040C3F8804102F10A
:1037C000604303F56143002283F80023837A104AA3
:1037D0009940136823EA01031360DAB24AB90D4A2B
:1037E000116B21F400111163116D21F400111165A9
:1037F000126D13F47F4F09D1064B1A6B22F480022D
:103800001A631A6D22F480021A651B6D10BD00BF89
:103810007017012000380240436B4FF400421A60D9
:1038200000221A605A605A61036B1A68116821F00D
:103830001F0111601168C907FCD4597A5A683D23E9
:103840008B401360C36A1A68116821F01F01116070
:103850001168C907FCD4597A5A683D238B4013601C
:103860007047000011F00C0F10B5446B04D072B615
:103870000B4B0C4ADA65FEE7036B1A68116821F0FE
:103880001F0111601168C907FCD4597A5A683D2399
:103890008B401360636843F40073636010BD00BF26
:1038A0000018012020A00008036F70B5C46E9E6848
:1038B00000224FF0FF3504EB42135101D3F8000909
:1038C0000028BEBFD3F8000940F08040C3F80009CB
:1038D000D3F8000B0028BEBFD3F8000B40F08040A7
:1038E000C3F8000B01326318B242C3F80859C3F899
:1038F000085BE0D94FF00113C4F81C3870BD00EB31
:10390000810370B5DD68C36E6C69266826614A0163
:103910004EBB1A444FF40020C2F810092A6802F086
:103920000302012A0AB20ED1D3F8080803EB4214AD
:1039300010F4807FD4F8000914BF40F0805040F0AC
:103940000050C4F8000903EB4212D2F8000940F01D
:103950000440C2F80009D3F8340801228A40024327
:10396000C3F8342870BD19B9402E84BF40202060B0
:1039700020682E8A8419013CB4FBF6F440EAC44066
:1039800040F000501A44C7E7F0B400EB8104078907
:10399000E468012564698D403D430581236000236F
:1039A000A2606360E360F0BCFFF7A9BF10B590F8B8
:1039B0004C30142B04462DD01CD8062B05D001D832
:1039C0001BB110BD093B022BFBD8E36ED3F80029D5
:1039D00042F40012C3F80029D3F8002B42F400127D
:1039E000C3F8002B63681B6813B106212046984773
:1039F000062318E0152BE4D10B2380F84C3030233C
:103A000083F3118800231A461946FFF7BDFF81F39F
:103A10001188D6E7C3689B695B68002BD1D1836DA1
:103A200003B19847002384F84C30CAE74B684360E1
:103A30008B688360CB68C3600B6943614B69036229
:103A40008B6943620B68036070470000054801788A
:103A5000052906D190F86830037043681B6803B1EC
:103A6000184770475C1A012010B5C468A269136832
:103A70001361402B84BF402313601168638AC26EB8
:103A800019440139B1FBF3F14B43033323F0030332
:103A900043EAC14343F0C043C2F8103B236803F03C
:103AA0000303012B0CD1D2F8083813F4807FD2F82D
:103AB000003B14BF43F0805343F00053C2F8003B77
:103AC000D2F8003B43F00443C2F8003B10BDC3688A
:103AD00010B444899B6944F0010444811A600022B7
:103AE0005DF8044B99605A60DA60FFF7BDBF10B50E
:103AF00090F84C300446002B40D0063BDAB20F2A37
:103B000036D80F2B34D8DFE803F0393333082534A7
:103B10003333333333333333393990F8623090F8F9
:103B20006320416D43EA0223994213D2C3681B8A82
:103B3000B1FBF3F203FB121161B9302383F3118857
:103B40000B460A46FFF720FF81F311880A2384F809
:103B50004C300DE0142384F84C30302383F311886B
:103B6000002211462046FFF7B2FF002383F311889D
:103B700010BD836D03B198470023E8E7E36ED3F8E7
:103B8000002942F40012C3F80029D3F8002B42F4B4
:103B90000012C3F8002B63681B6813B1062120468E
:103BA00098470623D3E70000F0B5254E0124376877
:103BB00084403C42024640D106EBC20C3C43CCF868
:103BC00004102049CCF808101F4934600C6B1F4BBF
:103BD00044F400140C630C6D0C25454344F40014AC
:103BE0000C65096D59590C6824F01F04E8180C6025
:103BF0000C6814F00104FBD10C2505FB02333D22B7
:103C00005E7A5D68DB7AB2402A6021220C604A61EC
:103C100003F1604202F56142502182F8001303F083
:103C20001F015B099B0003F1604303F5614301221F
:103C30008A40C3F880211A60F0BD0020FCE700BF75
:103C400070170120C01B0120003802403CFA000818
:103C50002DE9F04FDFF8B8B02A4F85B081469BF8C8
:103C60000000FFF7A2FB284B1E883B795B085E43F0
:103C7000264BC5B2C0F3072AC6F30726284603EB36
:103C8000450403F24318EBB29A4507D8BAF1650F21
:103C90008CBF0020012005B0BDE8F08F18F805307A
:103CA0009BF8012013422AD0BB78787897F803C09C
:103CB00094F8782094F8771040EA0320203A70397D
:103CC000334640EA0C40C8478DF80400C0F3072390
:103CD000C0F307408DF806008DF80530019BADF864
:103CE00008301B0C8DF80A300298FEF74BFEC0F32B
:103CF0000743C2B2C0F307212846FFF752FB023444
:103D00000135C0E7601B01206C170020B8FC0008DB
:103D1000690C00202DE9F04FDFF8E0B0344F8BB094
:103D200004909BF80000FFF740FB324B1E883B7964
:103D30005B085E43C6F3072303932F4BC5B2C0F362
:103D4000072A03EB4504284603F24318EBB29A45D1
:103D500007D8BAF1650F8CBF002001200BB0BDE879
:103D6000F08F18F805309BF8012013423CD094F8EE
:103D7000773094F87800703B1FFA83F920385B4362
:103D800082B200FB003080B20592FEF751FE039A2A
:103D9000009297F801C097F803E0059A049E034645
:103DA000B8784CEA002012B20FFA89F140EA0E40CE
:103DB000B0478DF81C00C0F30723C0F307408DF80F
:103DC0001E008DF81D30079BADF820301B0C8DF8C0
:103DD00022300898FEF7D6FDC0F30743C2B2C0F305
:103DE00007212846FFF7DDFA02340135AEE700BFB0
:103DF000601B01206C170020B8FC0008690C002033
:103E00002DE9F04FDFF8C0A0DFF8C080DFF8C0B0C8
:103E100089B081469AF80000FFF7C7FA294B1E883F
:103E200098F804309B085E43C6F30726C5B2C0F37A
:103E3000072406F14000C0B2FEF732FE803843B2DC
:103E400030460393FEF72CFEA0F180077FB2EBB261
:103E50009C4206D8652C8CBF0020012009B0BDE82B
:103E6000F08F1BF805209AF801100A4228D000961E
:103E700098F8022098F8010098F803C0039940EAE6
:103E8000022040EA0C403A46C8478DF81400C0F3BF
:103E90000723C0F307408DF816008DF81530059BF9
:103EA000ADF818301B0C8DF81A300698FEF76AFD35
:103EB000C0F30743C2B2C0F307212846FFF771FAE7
:103EC0000135C4E76C170020690C0020601B01203D
:103ED000FBFD00082DE9FF47DFF89C90244EDFF83A
:103EE0009CA0074699F80000FFF75FFA214A337952
:103EF00015889B0803FB0555C0F30728C5F3072564
:103F0000C4B2E1B2884507D8B8F1650F8CBF002074
:103F1000012004B0BDE8F0871AF8043099F80120B8
:103F2000134223D0B2787378F07843EA022343EA4D
:103F300000402A46B8478DF80400C0F30723C0F3B9
:103F400007408DF806008DF80530019BADF808306C
:103F50001B0C8DF80A300298FEF714FDC0F30743DE
:103F6000C2B2C0F307212046FFF71BFA0134C8E7AD
:103F7000601B01206C170020690C0020FBFD00086D
:103F80002DE9F04FDFF8E490364DDFF8E4B0DFF8CC
:103F9000E4A085B0074699F80000FFF706FA2B79F0
:103FA0000133FF2BC0F30728C4B228BFFF234FF60D
:103FB000FF76B6FBF3F6E1B2884507D8B8F1650F96
:103FC0008CBF0020012005B0BDE8F08F1BF8043045
:103FD00099F80120134232D09AF800302248013B70
:103FE0005BB21A062DD5324629796B78E878013113
:103FF000FF2928BFFF215143AA7843EA0223C1F3D6
:104000000F2143EA0040B8478DF80400C0F30723AE
:10401000C0F307408DF806008DF80530019BADF820
:1040200008301B0C8DF80A300298FEF7ABFCC0F389
:104030000743C2B2C0F307212046FFF7B2F90134AB
:10404000B9E7C25C8A420AD103F10C020AEB4202D0
:1040500092F801C092784CEA02229642C4D8013B01
:10406000BFE700BF601B0120B6180120690C0020CB
:10407000FBFD0008A51801202DE9F04F494BDFF8A2
:1040800034A18DB0029018780491FFF78EF9464B59
:104090001B780393454BC5B203EB450403F243136E
:1040A000C0F3072905932846EBB2994507D8B9F123
:1040B000650F8CBF002001200DB0BDE8F08F059B7F
:1040C000384A5B5D5278134226D03949DFF8D8B0C0
:1040D000032209A8FCF7CAF9029F002107EB0B088D
:1040E000039AFBB29A421AD89AF8033013FB01F3F1
:1040F0001B128DF82630099BADF828301B0C8DF86B
:104100002A300A98FEF73EFCC0F30743C2B2C0F360
:1041100007212846FFF745F901350234C4E718F8AE
:10412000013F94F8770098F808200791C01A83B2ED
:104130001E4694F878309B1A9AB213FB03F300FBE7
:10414000003080B20692FEF773FC07F10C0E9AF86D
:1041500004C00799069A0BEB4E0E0CF1010C9EF869
:1041600001309EF802E08DF82610BCF1FF0F43EA03
:104170000E2328BF4FF0FF0C03FB0CFCCCF30F23E6
:1041800031B20093049E034612B20998B047C0F3BF
:1041900007238DF824008DF82530C0F3074101373F
:1041A0009EE700BF690C0020A5180120B8FC00089C
:1041B000611B0120601B012073B5174B174E1D8832
:1041C0003379DB085D43711C032204462D126846D7
:1041D000FCF74CF9E8B2FEF763FCA0F180035BB298
:1041E000002BBCBFC0F1800043B2F6785B00DBB2AD
:1041F00013FB06F31B128DF802300098FEF7C2FB8A
:10420000C0F30743C2B2C0F30721204602B0BDE8A5
:104210007040FFF7C6B800BF6C170020601B01207C
:10422000024A137843F0010313707047A418012069
:10423000064A137813F0030304BF05490B70137883
:10424000012161F301031370FFF7EABF601B012036
:10425000A80C00202DE9F04F074687B00E46154602
:10426000317881B93B6853B93A6942B1B96831B123
:10427000FB68934228BF02F1FF330022CA54F8685A
:1042800007B0BDE8F08F252906F1010603D03846B6
:10429000FEF700FAE4E7002406E02D2B22D0302BB5
:1042A0002CD144F001041646324612F8013B2B2B68
:1042B0001BD0F2D8202B1BD0232B1CD02A2B31D083
:1042C0004FF0000833782E2B6AD17278A2F13001BA
:1042D000092906F1010344F4006458D84FF0000A9C
:1042E0000A262FE044F00204DDE744F00404DAE794
:1042F00044F00804D7E744F01004D4E7303B092B1E
:104300004FF00008DED80A2004E000FB0833A3F1D8
:1043100030081646324612F8013BA3F13001092954
:10432000F3D9CFE755F8048BB8F1000FBCBF44F0C8
:104330000204C8F100081646C4E706FB0A22A2F1EF
:10434000300A0B46194611F8012BA2F1300009285A
:10435000F3D91E46334613F8012B6C2A2AD022D8F3
:10436000682A2ED06A2A36D016F8011B78298ED8F2
:10437000632933D862297AD0632900F0A2802529E5
:1043800085D0582983D144F0200410234AE02A2AFA
:1043900005D155F8043B023623EAE37ADAE71E46F4
:1043A0004FF0000AD6E7742A01D07A2ADCD144F40F
:1043B00000740BE072786C2AF9D144F4C0640236C0
:1043C000D2E77278682A03D044F080041E46CBE717
:1043D00044F0C004F3E744F48064F7E7A1F1640219
:1043E0000123D2B203FA02F2784B1A4013D1732997
:1043F00000F0868070297FF44AAF55F8041B44F41E
:10440000005444F00104002940F0D6807049009423
:104410000A2305227DE0642921D144F4804424F05C
:1044200010040A23220548BF24F00104600404F4A8
:10443000806228D5002A7FF413AFA10519D5296819
:10444000029400294FEAD172CDF80480CDF800A083
:10445000B8BF49423846FEF769F9043500E76929D3
:10446000DBD0782991D06F29D9D10823DAE702234C
:10447000D8E7620602D595F90010E1E72006DED5FF
:10448000B5F90010DCE7002A7FF4EAAEA10524F0BC
:104490000C0006D50290CDF80480CDF800A0296864
:1044A000D8E7620607D529780290CDF80480CDF8C8
:1044B00000A00022CEE7296814F0800F18BF89B24F
:1044C000F2E714F0020405F1040910D02978384607
:1044D000FEF7E0F800240134A0450FD9202138462A
:1044E000FEF7D8F8F7E720213846FEF7D3F8013475
:1044F0004445F8D329783846FEF7CCF84D46AFE668
:1045000055F804BBBBF1000F07D132490094434674
:1045100006223846FEF7DAF8A2E6BAF1000F14BF19
:1045200052466FF000425A44D94699F8001009B13A
:104530004A450DD114F40063A9EB0B09049302D092
:10454000D14528BFD14614F0020415D14A4609E0EE
:1045500009F10109E9E7202138460592FEF79AF8AA
:10456000059A01324245F6D3A8EB0902C84538BF87
:10457000002209F1010991440BF1FF3204E03846B1
:104580000592FEF787F8059A12F8011F39B1049BCE
:10459000002BF4D0AAEB02001BEB000FEFD1002C94
:1045A0003FF45EAEC8457FF65BAE20213846FEF78D
:1045B00071F809F10109F5E70A2301930294CDF896
:1045C00000A010233846FEF7B1F849E62108120092
:1045D00033A000082CA0000870B5302383F31188A5
:1045E0002F4D304B6B602B780022012BEA602A6143
:1045F0006A61AA61EA612A624CD12B4BEC6E596B5D
:1046000041F080015963596D41F080015965596D40
:10461000596941F080015961596921F0800159615E
:104620005B69224BE02183F843130821C3F888110A
:1046300099601F4BE3601F4BC4F80038C023C4F8D7
:10464000002E23604FF48033A3632369002BFCDA30
:10465000012323610C20FFF797F82369DB07FCD4C3
:104660001220FFF791F82369002BFCDA00260C4892
:10467000A660FFF719F9104BC4F81068C4F8146865
:10468000C4F81C68A3614FF0FF336361A36843F073
:104690000103A36002232B70002383F3118870BDF4
:1046A0005C1A012074FB00080038024000E100E0C1
:1046B0004014004003002002083C30C0890141F052
:1046C0002001016103699B06FCD41220FFF75CB84E
:1046D00010B5064A064C117824784B1C03F00F03E2
:1046E0009C421EBF034C1370605410BDE51801209E
:1046F000E4180120D4180120F0B50D4B0D4C1B78A7
:1047000026780D4CB34201D10020F0BD04EBC30567
:104710006F788F4206D114F83370874202D16D79D9
:10472000954203D1013303F00703EBE70120ECE7E7
:10473000741B0120731B0120761B01200B465118AE
:10474000B1F5803F03D3C3F57F42FF3222B101466A
:1047500002481844FBF78ABE704700BF701700205C
:1047600002484FF6FF720021FDF7AAB8701700202B
:1047700070B50D46144600210646FDF7A1F86319F1
:10478000B3F5803F03D3C5F57F44FF343CB1044902
:10479000224629443046BDE87040FBF767BE70BD35
:1047A0007017002037B500230D460446014601224C
:1047B0000DF107008DF80730FFF7DAFF9DF807309D
:1047C0009D4207D0012221460DF107008DF80750C8
:1047D000FFF7B4FF03B030BD07B500230146022246
:1047E0000DF10600ADF80630FFF7C2FFBDF8060078
:1047F00003B05DF804FB37B50C460546FFF7ECFF48
:10480000A04207D0022229460DF10600ADF806406D
:10481000FFF794FF03B030BD37B5042201460446CC
:1048200000250DEB02000195FFF7A2FF019B33B1BC
:10483000042221460DEB02000195FFF77FFF03B034
:1048400030BD000008B5074B4FF4806218460021C8
:10485000FDF736F8044A054B10604FF6FF721A80D8
:1048600008BD00BFFC100020F8100020F61000204A
:1048700070B5184C237863B3174D2E88FEF7B2FE3F
:10488000801B80B2962824D9FEF7ACFE134A137819
:10489000132180B201332860B3FBF1F001FB103328
:1048A00013700F4A32F813100E4A52F82300FEF725
:1048B000D7FD0D4B1D68FEF795FE0C4B401B984233
:1048C00007D900232370FFF7BDFFFEF78BFE084BCF
:1048D000186070BD890C002078100020CE180120CF
:1048E000FEF1000824F20008501B0120C027090037
:1048F0004C1B0120084B1B784BB1084B93F900303F
:10490000002B04DA06481E220021FCF7D9BF054817
:1049100006220021F9E700BF880C00205A1B012065
:1049200052100020721000202DE9F84300EB8106A0
:1049300081465069F2600C4615460FB218B1142238
:104940000021FCF7BDFFA86918B114220021FCF773
:10495000B7FFF368D9F86C501E6806F00306721EA4
:10496000022A05EB44124FF00001C2F8101B04F1BB
:1049700010014FF0010298BFB60402FA01F29969E2
:104980008EBF344E06F1805606F5004660010029C0
:104990003CD0B3F812C004F1580149014CEA060CAE
:1049A00045F801C0D5F81C180A43C5F81C282A1878
:1049B0000021C2F810195A694FF00108611E08FA67
:1049C00004F882B31F8A9B8BBA08012B88BF5A4315
:1049D000D9F87430D01843EA024201F1400305EBE4
:1049E0008303214647EA845748346401C9F87400B8
:1049F00037435A602846FFF761FE2F51D5F81C381F
:104A000048EA0303C5F81C38BDE8F88305EB471CEA
:104A1000DCF8001B21F40041CCF8001BD5F81C1871
:104A200021EA0202C1E704F13F0305EB83030A4ACE
:104A30005A6005EB471721462846FFF73FFED7F897
:104A4000003923F40043C7F80039D5F81C3823EAAD
:104A50000803D7E7008000100004000210B50446E8
:104A60000846052926D8DFE801F01F25031F1F236C
:104A7000302383F31188104A20460121FFF754FFA9
:104A800020460E4A0221FFF74FFF0D4A0321204620
:104A9000FFF74AFF002383F311880A4B1B7813B1F9
:104AA0000520FFF715FE0220BDE81040FFF710BEFD
:104AB0000520F9E710BD00BF6CF4000848F40008B9
:104AC00024F40008E6180120F7B51D4B1D4E1C8884
:104AD0003379DB085C43711C0322054624126846C7
:104AE000FBF7C4FCE0B2FDF7DBFFA0F1800464B289
:104AF000002CBCBFC0F1800044B2B778F678FBF759
:104B000069FC64003D23E4B290FBF3F21E3F02FB1C
:104B1000130014FB06F4384424128DF801008DF8BC
:104B200002400098FDF72EFFC0F30743C2B2C0F366
:104B30000721284603B0BDE8F040FEF732BC00BFB5
:104B40006C170020601B0120F7B51D4B1D4E1C8803
:104B50003379DB085C43711C032205462412684646
:104B6000FBF784FCE0B2FDF79BFFA0F1800464B288
:104B7000002CBCBFC0F1800044B27778F678FBF718
:104B800029FC64003D23E4B290FBF3F21E3F02FBDC
:104B9000130014FB06F4384424128DF800008DF83D
:104BA00002400098FDF7EEFEC0F30743C2B2C0F327
:104BB0000721284603B0BDE8F040FEF7F2BB00BF76
:104BC0006C170020601B012008B50A4664230146CB
:104BD0007A2005F059F8B0FA80F0400908BD10B508
:104BE00003689C68A2420CD85C688A600B604C60C9
:104BF000216059609968891A99604FF0FF3383608A
:104C000010BD1B68121BECE7022910B538BF02214A
:104C100002234FF0804442186263626A101A814294
:104C200003D8591C0B461046F5E7022B81BF034AF7
:104C3000D36A43F00103D36210BD00BF0018012006
:104C4000194A1369984210B40FD003684168846808
:104C50000B605960996821449960002303604FF00C
:104C6000FF3393615DF8044B70471346016843F8C6
:104C7000101F00244B6004601169994203D14FF06A
:104C80008043DC60EEE78B68806803448B604FF004
:104C90008041486AD169421A9342E3D9091A5DF802
:104CA000044B1944FFF7B0BF0018012070B5134D35
:104CB00005F11003E96143602B698260022A0360F9
:104CC00038BF0222586028614FF080408B18436340
:104CD000002303610223C360446A661A964205D327
:104CE0005A1C1144416313462146F5E7022B82BF4B
:104CF000EB6A43F00103EB6270BD00BF00180120B6
:104D0000F8B5114F3C464FF0804354F8106F5B6A82
:104D1000A64205460A4604D11946BDE8F840FFF709
:104D2000C5BFFC69B2681C1B0C1928BF0C46A24207
:104D300002D91846FFF768FF224629460348BDE816
:104D4000F840FFF74CBF00BF0018012010180120E9
:104D500070B5094C236805460E4613B12046FFF78F
:104D60006FFF064BE360002326616361294602481A
:104D7000BDE87040FFF7C4BF60180120DD4E000899
:104D800038B590F85C2002F07F03212B044679D1DE
:104D900012F0800F90F85D302FD0022B29D0032B1A
:104DA0001CD0012B6ED190F8603090F8612053EA4E
:104DB000022306D1414A026508226265A3650120EB
:104DC00038BD3F4B90F85E201A7090F86220036562
:104DD00090F8633042EA03220023EEE790F8603057
:104DE00090F8611053EA01234CD1364A0265012242
:104DF000E3E7354B03650122EEE70A2B39D00B2B95
:104E000010D0092B01D00020DAE790F8603090F83C
:104E1000612043EA0223012BF5D82C4B03650222C3
:104E20002B4BCAE790F8603090F8612053EA0223D8
:104E30001CD190F85E50234B1D70BDB9224B1A78DF
:104E4000A2B1302282F311881878224BA0FB030311
:104E50004FF47A72002300F2E7300021FBF76CFA7E
:104E600021468000FFF774FF85F311880022226538
:104E7000B2E71949144B097890F85F201A70CD09F0
:104E8000F4D1DDE702F09F02812ABCD194F85D30B5
:104E9000062BB8D194F86120616894F860304D68B1
:104EA00094F85E1043EA0223204694F85F20A84756
:104EB0000028A8D04368026823658DE79110002080
:104EC00089100020880C0020881000209C100020F1
:104ED00025370008A08601005A1B012038B50C4672
:104EE000302383F311880B78042B03D0002383F342
:104EF000118838BD124B1B78DB09F7D1114D2B7887
:104F0000002BF3D0104B1B78002BEFD00B899B07A5
:104F100005D40E4A082301212046FEF735FD2878E6
:104F20000B4BA0FB03034FF47A72002300F2E7302F
:104F30000021FBF701FA21468000FFF709FFD5E7C2
:104F40005A1B012088100020880C0020911000209E
:104F5000A086010000230375826803691B689968B5
:104F60009142FBD25A6803604260106058607047FB
:104F70000346006820B100221A608161FFF7EABF92
:104F80007047000011F00C0F38B5436B04D072B6B7
:104F9000144B154ADA65FEE7C26A11680C6824F002
:104FA0001F040C600C6814F00104FBD1557A5168A1
:104FB0003D22AA400A605A6822F480525A601A6858
:104FC00022F480621A601A6842F400721A60302378
:104FD00083F3118821461C30FFF7CAFF84F3118840
:104FE00038BD00BF0018012020A000082DE9F843BB
:104FF00090F84C30044613B1002380F84C3004EB99
:1050000081010822CB6804F15C00196AFBF72EFAD3
:1050100063689B68E3B994F85C3013F060053ED098
:10502000E36ED3F8002942F40012C3F80029D3F844
:10503000002B42F40012C3F8002B63681B6813B105
:10504000062120469847062384F84C30BDE8F883B3
:10505000204698470028DED094F8632094F8623008
:1050600043EA0223626D9A4288BF636594F95C301B
:10507000656D002B4FF0300380F24081002D00F071
:105080003081092284F84C2083F31188636D226DEE
:1050900000212046FEF778FC81F31188D6E794F8CA
:1050A0005D2003F07F0343EA022340F20232934281
:1050B00000F0FB8021D8B3F5807F4DD00DD8012BB7
:1050C00044D0022B00F0BE80002BA9D104F1640271
:1050D000226502226265A365BEE7B3F5817F00F019
:1050E000C580B3F5407F9BD194F85E30012B97D1FA
:1050F000B4F8643043F0020337E0B3F5006F58D0E2
:105100001CD8B3F5A06F36D0A3F5C063012B87D8A8
:1051100094F86120616894F860304E6894F85F10EC
:1051200043EA0223204694F85E20B04700283FF46B
:1051300077AF43682365036863651AE0B3F5106FC2
:105140003CD040F6024293427FF46AAF774B23652E
:10515000022363650023BEE794F85E30012B7FF4E1
:105160005FAFB4F8643023F00203A4F8643025651F
:105170006565A56570E7B4F85C30B3F5A06F14D130
:1051800094F85E10E26E84F86610D2F8003823F4CA
:10519000FE6343EA0113C2F8003863681B6813B169
:1051A000012120469847032323700023236563656C
:1051B00091E704F1670323650123BDE72378042BFE
:1051C00030D1302383F31188A36803F00113A36067
:1051D00004F10C0604F12009A84656F8047F6FB1CB
:1051E000786920B16FF001010C30FFF7C1FEB8699A
:1051F00020B16FF001010C30FFF7BAFEB145356008
:10520000EBD1236F1B6863672046FEF74DFB88F3E5
:1052100011880321636884F8675021701B680BB103
:105220002046984794F85E30002BBED084F8673053
:105230000423237063681B68002BB6D0022120462C
:105240009847B2E794F86010E26E080601F00F0389
:105250000AD548335B01D3581A047FF5E1AE9902B1
:105260004CBF334B334B72E75833F3E794F85E305F
:10527000002B7FF4D5AE94F8601011F00F0294D09B
:10528000E36E12B211F0800F03EB421306D0D3F895
:10529000002922F40012C3F8002986E7D3F8002B76
:1052A00022F40012C3F8002B7FE794F85E30002B45
:1052B0007FF4B6AE94F8601011F00F023FF475AFB2
:1052C000E36E12B211F0800F03EB421304D0D3F857
:1052D000002942F40012DEE7D3F8002B42F400125A
:1052E000E0E7142284F84C2083F311882A462946EB
:1052F0002046FEF7ECFB85F31188A7E66DB1152279
:1053000084F84C2083F31188626D216D2046FEF7EE
:10531000DEFB002383F3118898E60B2284F84C20EF
:1053200083F311882B462A462946B2E6C0F20008CC
:10533000BEF20008BCF200082DE9F8433F4DD5F855
:105340006C8008EB40130446D3F80899C3F8089919
:1053500019F0010F4FEA401619D0D8F81038DB07C2
:1053600015D5871C05EB870359684B6918681A69BE
:1053700090422CD2121A00271A605F60302383F308
:10538000118821462846FEF7BAFA87F3118819F0EA
:10539000800F1AD0D8F834380120A040034214D02E
:1053A00005EB8403ED6EDF680134E4B2796905EB47
:1053B000043405EB060ED1E900369E4221D3D5F820
:1053C000343823EA0003C5F83438BDE8F8832B8964
:1053D0000122A24023EA02032B818B6813B12146EC
:1053E00028469847302383F3118805EB870700216F
:1053F0007B6858690C30FFF7BBFD002383F31188ED
:10540000C5E73A8A9B1B934228BF1346DEF818294A
:1054100092B2B3EB820FD8D88A68A2F1040858F888
:1054200004CFC4F800C0A2EB080C9C44BCF1040FEC
:10543000F5D81A4433448A604B60BCE75C1A0120FB
:10544000F8B5294DEE6E06EB40130446D3F8087B01
:10545000C3F8087B38070AD5D6F81438190706D5DB
:1054600005EB84032146DB6828465B689847FA070A
:105470001FD5D6F81438DB071BD5A61C05EB860311
:1054800059688B69B4B9488A5A68B2FBF0F700FBD7
:1054900017227AB918681A6990420BD2121AC3E916
:1054A0000024302383F311880F48FEF7DDFA84F3DC
:1054B0001188F8BD6B890122A24023EA02036B81A7
:1054C000CB6813B1084821469847302383F31188ED
:1054D00005EB86056B68986941680C30FFF748FD5D
:1054E000002383F31188E4E75C1A012008B508461D
:1054F000302383F311880A7D0023052A06D8DFE8CC
:1055000002F00B050503120E826913604FF0FF33A2
:105510008361FFF71FFD002383F3118808BD8269B3
:105520009368013393604268036813605A60EDE743
:10553000054BD9680875186802681A605360012223
:105540000275D860FAF7DEBE0018012030B50E4BA8
:10555000DD684B1C87B0044612D00C4B03936846A1
:10556000002305930495FFF7CBFB2046FFF7E0FFF0
:10557000009B13B16846FFF763FBA86907B030BD15
:10558000FFF7D6FFF9E700BF00180120ED5400082F
:10559000054BDB6821B1036098610320FFF7D6BF9C
:1055A0004FF0FF30704700BF0018012070B5302366
:1055B00004460D46164683F311880F480378042BE2
:1055C00003D0002383F3118870BD02890123A34017
:1055D00013420AD000EB84004FF47A71C368586913
:1055E0000C30FFF7D5FF0130EBD0034833462A4695
:1055F0002146FEF7C9F9E4E75C1A012007B50C4B18
:105600001B688DF80130C3F307218DF80210C3F336
:10561000074105228DF803101B0E694602208DF804
:1056200000208DF80430FFF7C1FF03B05DF804FBE4
:10563000681B012010B50146044608220120FFF72F
:10564000B5FF082221460248FAF710FF10BD00BF3F
:1056500091100020014620220220FFF7A7BF01463B
:1056600003220220FFF7A2BF302383F31188104BDF
:105670005B6813F4006317D0F1EE103AEFF309837F
:10568000683B4FF08072DA610A4AD26B1A6683F384
:105690000988094A1168D2688968926891428CBF6A
:1056A000064A074A9A61704783F31188704700BF22
:1056B00000ED00E000EF00E0001801202F030008DB
:1056C0003203000813B50822044618216846FFF784
:1056D0004FF8082269462046FCF778FC38B10822CA
:1056E0001821204602B0BDE81040FFF727B802B0ED
:1056F00010BD00002DE9F04FAE4CAF4ED4F8008045
:105700008DB0FDF76FFF8146A0EB0805FDF76AFF3E
:1057100096F800C0206008F57F430024FF336146FF
:105720002746A3EB090EE3B29C4512D807B13170AE
:10573000A24DA34E2B7813F0030718BF9F083378B0
:10574000032B00F28082DFE813F01B0028005704CF
:10575000610404F10C0206EB42020134537892F822
:10576000028043EA08239E4529BF5B1901F1FF31FE
:105770005370C3F307233ABFC9B201279370D2E72E
:10578000904B8D4900221A708F4B292218608F4848
:10579000FAF76CFE0123337055E28D4B1B78BB4248
:1057A00042D18C4A2B78127803F003039B1A18BF5E
:1057B0000123844C6278A3706B799A4205D0002251
:1057C000114610466370FDF7EEFD292F00F21F828F
:1057D000DFE817F02C0040007100A7001401180149
:1057E0001A011E0120012A012C012E013001320173
:1057F0003401360138013A013C01400142014401C3
:10580000C0010E0210021202F502F902FB020503AA
:1058100008030F03110318031A03210323032A03A8
:105820002C035C038C03BC030123C2E7A378002B89
:1058300000F0DE83002211461046FDF7B4FD237808
:105840000133237002233370A378002B40F0FB81D7
:105850000323A0E720786049DFF880B1FDF7A5FDBC
:105860000322ADF82800C5B2C0F307280BA8FAF749
:10587000FDFD0B98FDF786F85FFA80F9C0F3072A63
:10588000C0F30747EBB2984508D82378013323705B
:10589000B8F1650F40F2D78102237CE71BF8053091
:1058A0006278134205D03B464A4651462846FDF7EA
:1058B00078FD0135E6E72078DFF82091FDF775FDEA
:1058C000EB7802932B7995F802A0ADF828009B089D
:1058D000C0F307280193C7B2A9F1CC0BFBB29845DE
:1058E000D3D919F807306278134218D0019B1BF8FE
:1058F00017208DF82DA05A436B7803EB62138DF8B7
:105900002C30029B8DF82E300B98FDF73BF8C0F33E
:105910000743C2B2C0F307213846FDF742FD013705
:10592000DCE72078FDF741FD274BADF828005FFA52
:1059300080F8C0F3072718882B7995F8039095F81D
:1059400001B095F802A0DB085843C0F30720FDF72B
:10595000A7F8A0F180035BB2002BBCBFC0F18000B0
:1059600043B25B00DBB213FB09F31B128DF82CB0C2
:105970008DF82DA08DF82E300B98DFF860B0FDF774
:1059800001F8C0F30729C0F3074A8DF819908DF884
:105990001AA08DF81800C5B25FFA89F95FFA8AFA81
:1059A0005FFA88F39F421BD8237801332370652F59
:1059B00070E700BF3016002004190120601B012091
:1059C000A80C0020690C00206C170020A5180120ED
:1059D000680C0020670C0020611B0120FBFD000803
:1059E0001BF808306278134205D053462A464946D0
:1059F0004046FDF7D6FC08F10108D1E7B848FEF7AC
:105A000069FA0AE0B748FAE7B748FEF721F904E077
:105A1000B648FAE7B648FEF77DF9237801332370DC
:105A2000002840F0108137E7B248F4E7B248E6E7D3
:105A3000B248E4E7B248E2E7B248E0E7B248EAE752
:105A4000B248E2E7B248E0E7B248E4E7B248FEF71E
:105A5000D7F9E2E7B148FAE7B148F8E72078DFF88C
:105A6000CCA2FDF7A2FC0A2395F80480B8FBF3F85A
:105A7000AC4BADF818001B8808F101085FFA88F8F4
:105A800003FB08F8C0F30729C8F30728C7B2AAF137
:105A9000CB0BF9B2894505D8237801332370B9F1CE
:105AA000650FF7E61AF807306278134230D01BF81A
:105AB0001730AA78E878202B6B7843EA022343EA70
:105AC0000040424626D9FDF783FA8DF81C00C0F34A
:105AD0000723C0F307408DF81E008DF81D30079B8B
