:020000040800F2
:1000000000040020FD020008FF020008FF020008B3
:10001000FF020008FF020008FF020008FF020008BC
:10002000FF020008FF020008FF0200082941000843
:10003000FF020008FF020008FF020008FF0200089C
:10004000FF020008FF020008FF020008FF0200088C
:10005000FF020008FF020008FF020008FF0200087C
:10006000FF020008FF020008FF0200082145000807
:100070004945000875450008A1450008CD45000820
:10008000F545000821460008FF020008FF020008AD
:10009000FF020008FF020008FF020008FF0200083C
:1000A000FF020008FF020008FF020008FF0200082C
:1000B00051440008FF020008FF020008ED55000847
:1000C00001570008FF020008FF020008FF020008B5
:1000D000FF020008FF020008FF020008FF020008FC
:1000E000FF020008FF020008FF020008FF020008EC
:1000F000FF020008FF020008FF0200084D4600084A
:10010000FF020008FF020008FF020008FF020008CB
:10011000FF020008FF020008FF020008FF020008BB
:1001200079460008A1460008CD460008F9460008B7
:1001300025470008FF020008FF020008FF02000830
:10014000FF020008FF020008FF020008D157000864
:100150004D47000879470008A5470008FF0200083E
:10016000FF020008FF020008FF020008FF0200086B
:10017000FF020008FF020008FF020008FF0200085B
:10018000FF020008FF020008FF020008FF0200084B
:10019000FF020008FF020008FF020008FF0200083B
:1001A000FF020008FF020008FF020008FF0200082B
:1001B000FF020008FF020008FF020008FF0200081B
:1001C000FF020008FF020008FF020008FF0200080B
:1001D000FF020008FF020008FF020008FF020008FB
:1001E00072B6374880F30888364880F30988364865
:1001F0003649086040F20000CCF200004EF634713F
:10020000CEF200010860BFF34F8FBFF36F8F40F253
:100210000000C0F2F0004EF68851CEF200010860F6
:10022000BFF34F8FBFF36F8F4FF00000E1EE100A66
:100230004EF63C71CEF200010860062080F314886F
:10024000BFF36F8F02F0E6FE02F0E6FE4FF055308E
:100250001F491B4A91423CBF41F8040BFAE71D4974
:10026000184A91423CBF41F8040BFAE71A491B4A6D
:100270001B4B9A423EBF51F8040B42F8040BF8E7BF
:1002800000201849184A91423CBF41F8040BFAE794
:1002900002F0DAFF02F0D6FF144C154DAC4203DA3F
:1002A00054F8041B8847F9E704F0BEFC114C124DCA
:1002B000AC4203DA54F8041B8847F9E702F0C3BFE5
:1002C00000040020000C00200000000808ED00E001
:1002D0000000002000040020B88B0008000C002063
:1002E000740C0020780C002018190120E00100088F
:1002F000E0010008E0010008E001000870E700F0FC
:1003000000F8FEE72DE9F04F2DED108AC1F80CD072
:10031000C3689D46BDEC108ABDE8F08F002383F3CF
:1003200011882846A047002003F02EF8FEE702F0CF
:10033000B7FF00DFFEE7000053B94AB9002908BF44
:1003400000281CBF4FF0FF314FF0FF3000F00CB819
:10035000ADF1080C6DE904CE05F036FDDDF804E0E2
:10036000DDE9022304B07047704700BF844641EACC
:10037000000313F003036DD1403A41D351F8043B1D
:1003800040F8043B51F8043B40F8043B51F8043B6F
:1003900040F8043B51F8043B40F8043B51F8043B5F
:1003A00040F8043B51F8043B40F8043B51F8043B4F
:1003B00040F8043B51F8043B40F8043B51F8043B3F
:1003C00040F8043B51F8043B40F8043B51F8043B2F
:1003D00040F8043B51F8043B40F8043B51F8043B1F
:1003E00040F8043B51F8043B40F8043B51F8043B0F
:1003F00040F8043B51F8043B40F8043B403ABDD27E
:10040000303211D351F8043B40F8043B51F8043B1F
:1004100040F8043B51F8043B40F8043B51F8043BDE
:1004200040F8043B103AEDD20C3205D351F8043BAE
:1004300040F8043B043AF9D2043208D0D2071CBF7A
:1004400011F8013B00F8013B01D30B8803806046A3
:10045000704700BF082A13D38B078DD010F0030319
:100460008AD0C3F10403D21ADB071CBF11F8013B89
:1004700000F8013B80D331F8023B20F8023B7BE7D8
:10048000043AD9D3013A11F8013B00F8013BF9D203
:100490000B7803704B7843708B788370604670479D
:1004A000024B0146186800F02FB800BF000C002076
:1004B000024B0146186800F0C3B800BF000C0020D2
:1004C00070B5104E336805460C46B3B12146284638
:1004D00005F0A6FB431C0CD0C41C24F00304A0426E
:1004E00005D0211A284605F09BFB013001D020469B
:1004F00070BD4FF0FF34204670BD194605F090FBEB
:100500003060E3E7780C00202DE9F041CD1C25F0A8
:10051000030508350C2D38BF0C25002D82B006468A
:1005200016DBA94214D8354F00F06AF87A68AAB1F0
:10053000144603E06368224683B11C4623685B1BB4
:10054000F8D40B2B21D8A242636855D053600DE03C
:100550000C233360002002B0BDE8F081294630460C
:10056000FFF7AEFF431C044619D00560304600F08B
:100570004DF804F10B00231D20F00700C21A1CBF28
:100580001B1AA35002B0BDE8F0816119A242256098
:1005900014BF51607960635163684B60E6E77B6824
:1005A00023B31C465B68002BFBD1226801931946DC
:1005B000304604EB020805F033FB804516D1226873
:1005C000AD1A29463046FFF77BFF01300ED0226876
:1005D0007868019B2A442260426812B90CE01046F8
:1005E0005268A242FBD100234360BFE70C23336073
:1005F000304600F00BF8ADE77B60B7E7780C0020E1
:10060000014800F013B800BF900C0020014800F032
:1006100015B800BF900C0020704700BF704700BFA6
:10062000704700BF704700BF704700BF704700BFF2
:100630000120704701207047704700BF704700BF1E
:10064000002950D038B551F8043C0C1F002BB8BF1E
:10065000E4180546FFF7D4FF274A13682BB1A342DD
:100660000CD92168601883422CD06360284614603E
:10067000BDE83840FFF7CABFA3420FD81A465B68EF
:10068000002BF9D111685018844217D02CD3636025
:1006900054602846BDE83840FFF7B8BF11685018CD
:1006A000A04214D020D8216860188342EFD1186886
:1006B0005B680844C4E900035460EAE723680B441C
:1006C0001360E6E718685B6808442060CDE720689F
:1006D0000144501883421160DBD1D3E90004014486
:1006E000C2E90014D5E770470C232B602846BDE80B
:1006F0003840FFF78BBF00BF7C0C0020830730B56C
:1007000047D0541E002A3ED0CAB2034601E0013C45
:1007100039D303F8012B9D07F9D1032C2CD9CDB285
:1007200005EB05250F2C05EB054535D9A4F1100285
:1007300022F00F0C03F1100EE6444FEA121C1A4689
:10074000156055609560D56010327245F8D10CF196
:10075000010214F00C0F03EB021204F00F0C13D083
:10076000ACF1040323F003030433134442F8045BA5
:100770009A42FBD10CF003042CB1C9B21C4403F81B
:10078000011B9C42FBD130BD64461346002CF4D1C2
:10079000F9E703461446C0E71A46A446E0E700BF5F
:1007A00001F0FF01102A2BDB10F0070F08D010F822
:1007B000013B013A8B422DD010F0070F42B3F6D126
:1007C000F0B441EA012141EA014122F007047FF03F
:1007D00000070023F0E80256083C85EA010586EA96
:1007E000010685FA47F5A3FA87F586FA47F6A5FAD2
:1007F00087F68EB9EED1F0BC01F0FF0102F00702DE
:1008000032B110F8013B013A83EA010313B1F8D188
:100810000020704701387047002D06BF3546033869
:10082000073815F0010F07D1013015F4807F02BFA2
:10083000013015F4C03F0130F0BC0138704700BFF3
:10084000032A70B511D940EA01039B071FD1044662
:100850000B4602E0043A032A1DD91946204653F8F4
:10086000045B54F8046BAE42F4D0541EB2B1421E85
:10087000013901E0C3180CD012F801EF11F801CFD3
:10088000E645A4EB0203F5D0AEEB0C0070BD541EA0
:10089000EDE7184670BD20461946E6E7104670BDE4
:1008A000034A0123118883400B431380704700BF24
:1008B00090180120034A01238340108820EA030096
:1008C000108070479018012001F0070330B5C90867
:1008D000012402EB81029C40E4B2013A002112F8AB
:1008E000015F20FA01F343F300036B402340013121
:1008F0005D4004291570F2D130BD10B5002200F022
:100900000704C00801EB800110468B5CE34003F054
:100910000103934001321843042AC0B2F5D110BD3F
:1009200017B40C46C1B2C0F3072006280BD8102913
:100930000FD801EB0011094A0144204603B05DF8CD
:10094000044BFFF7C1BF031DDBB2012B01D8044AE2
:10095000F3E703B05DF8044B704700BF2C1801208B
:1009600028180120C3B2C0F30720062882B008D897
:10097000102B0DD803EB00130749184402B0FFF702
:10098000BCBF0430C0B2012802D804491846F5E7BC
:10099000002002B0704700BF2C1801202818012049
:1009A000054B064A1B7812789A4200D170470133F2
:1009B00003F00703F8E700BF941801209318012003
:1009C000CBB2C1F30721062982B00AD8102B1AD85E
:1009D000B8B901EB011119440C4B33F8110002B006
:1009E0007047FD2906D173B9002847F6416018BF4A
:1009F0000120F4E7FC2906D12BB9002847F6406016
:100A0000F5E70120EBE70020E9E700BF808A000856
:100A1000E72850D8DF2807D8312865D00ED82928F4
:100A200058D02A2867D07047A0F1E003072B42D89E
:100A3000DFE803F01541242933413D42392804D031
:100A4000822802D0352840D07047334B1A7892075D
:100A50005CD15B7813F0080F18BF292070472E4A2D
:100A60001378D9074ED4527812F0010F23D013F027
:100A7000100F08BFE32018BF00207047264B1B78DB
:100A800013F0040FF2E7244A137859073CD4527844
:100A9000D2073BD413F0100FEDE71F4B5A789107A4
:100AA00009D51B7813F0100F08BFE720E3E71A4BB6
:100AB0001B781A07F6D47047174A1378190727D4FA
:100AC00052789107E6D5E4207047134B1B7813F05A
:100AD000200FC1E7104B1A7892061BD45B7813F0F5
:100AE000080F18BF392070470B4B1B7813F0400FCD
:100AF00018BF2A207047084B1B7813F0400F18BF0F
:100B00003120704739207047E2207047E02070475D
:100B1000E62070473520CEE77A18012010B52F4C1B
:100B200021784B0713D500F01402A2F1040C00F059
:100B30001803DCF1000242EB0C02A3F1080CDCF11B
:100B4000000343EB0C039A4218BF80F00C000B0724
:100B500013D500F01402A2F1140C00F01803DCF11C
:100B6000000242EB0C02A3F1180CDCF1000343EB92
:100B70000C039A4218BF80F00C006478E30713D589
:100B800000F0110202F1FF3C00F01803DCF100025A
:100B900042EB0C02A3F1080CDCF1000343EB0C0365
:100BA0009A4218BF80F00900A30711D500F0110286
:100BB00000F01803A2F111046242A3F1180C624183
:100BC000DCF1000343EB0C039A4218BF80F00900EC
:100BD000CB0648BF00F0E70010BD00BF7A18012027
:100BE00038B5FFF715FFB0F5A04F044635D2B0F584
:100BF000804F80F09D80DF2813D9B0F5005F25D3AA
:100C0000C0F30420FFF78AFF0546E0B2FFF700FFBC
:100C10002D0205F4F855054345F40055ACB22046C5
:100C200038BDCC2873D8A72809D8A42861D80128B2
:100C3000F5D0031F9BB2A12B28BF0024EFE7A0F142
:100C4000A8039BB21A2B5AD90024E8E7FF2861D8E1
:100C5000A0F1E0039BB2082BEEE745F25F23984238
:100C600020D845F23F23984277D845F21F23984277
:100C700006D900F01F044AF2F10343EA0424CEE748
:100C8000B0F5A44F5DD200F01F00FFF747FFC30689
:100C900076D4C4F3431400B240EA042040F4104078
:100CA00084B2BCE745F2BF23984214D845F29F2393
:100CB00098425DD8A0F5A443603B9BB21F2BC3D8DC
:100CC00000F003040123C0F38202A34043EA42136D
:100CD00043F40A433FE0A0F5A543403B9BB21F2BE2
:100CE000B2D8040204F4F85444F4204444F0F0046C
:100CF00095E7A0F1240444F48044A4B28FE758346B
:100D0000204BE4B233F8144044F4884487E740F4BD
:100D1000A044F2E7C0F30720FFF700FF0546E0B26A
:100D2000FFF776FE2D0205F4F85540EA0504E4E7E6
:100D3000C0B2FFF76DFE04F47064044344F4204431
:100D4000DBE700F003040123C0F38502A34043EA7C
:100D5000421343F40D439CB261E700F00304012306
:100D6000C0F38202A34043EA421343F40C43F2E788
:100D700000F01F00FFF7D2FE040204F4F8544EE71F
:100D8000000186E76E8B00087FB5114BADF80400BB
:100D90001D88104B1B881D43ADB20F2445FA04F388
:100DA000DB0705D4013CF9D20026304604B070BD03
:100DB000BDF80430ADF80C30E6B203993046FFF7C9
:100DC000FFFDFFF70DFF80B20128EBD0EDE700BF7C
:100DD000901801208E18012013B502884379ADF8D0
:100DE0000420019873B169B1FFF7CEFF04460146B4
:100DF0000198FFF795FD0199204602B0BDE810402B
:100E0000FFF7DEBDFFF7AEFD0446F4E71FB5ADF812
:100E100004000198FFF7B8FFBDF80430ADF80C30BE
:100E20000399FFF7CDFD05B05DF804EBFFF7D8BEE1
:100E300008B503460079A8B11888FFF7E7FFC3B2E9
:100E4000C0F30330062813D094BF0E30063000F0F4
:100E50000F00012810D8F02B10D004D8E72B8CBF3E
:100E60000020012008BDF42B14BF00200120F9E769
:100E7000E72B03D9F12BF7E70020F3E70120F1E797
:100E80000020704700207047704730BFFDE700002A
:100E9000F0B5234CA45C00293FD000EB4005FF22B5
:100EA0006D00B5FBF2F56FF054026A4302EB4000AF
:100EB00000EB4000C0B2C0F1FF0211FB00F64A4354
:100EC00036121212C1F1FF07C6F1FF06C2F1FF028E
:100ED000674366436243C7F30727C6F30726C2F397
:100EE0000722062D14D8DFE805F004060C0A0F13BC
:100EF0000400264614465E701C709F70F0BD2246AA
:100F000034463E461746F6E7164622463C46F9E783
:100F100022463C4637461646EDE727462646EAE790
:100F200024880008084A1378032B09D8012161F3AB
:100F300087031370D378782B84BF7823D3707047DE
:100F40001F2BF7D90721F2E780180120094B1B78E6
:100F500013F0010309D1084A19460133662B517079
:100F60001170917002F10302F7D10348662103F07A
:100F7000ABBC00BF80180120B014002070B5114B2D
:100F8000114E04460025F2782079B178782A284459
:100F900005F1020528BF7822C0B2EDB2FFF778FF55
:100FA000CC2D03F10303EED1FFF7D0FFA37813F0AC
:100FB000010F237914BF013303F1FF335BB22371B7
:100FC00070BD00BFB01400208018012000B1104790
:100FD00008470000144BF0B51A68144D144E521B0C
:100FE00093B211FA82F2B2F5806FC4BFC3F580618B
:100FF00089B23488002219444FF0010C8B4202DB85
:1010000002B13480F0BD10F8017B15F803E0BE4555
:1010100006D09A090CFA02F22243EF5494B201224C
:1010200001339BB2EAE700BFAC100020B0100020F3
:10103000AA100020064A074B002918BF134623F0C8
:101040000F0203F00F031069D84000F00100704751
:101050000A0402400F0002401C4970B50722012615
:10106000202406FA02F303400C8319D00023072B37
:1010700006D14C830023032B0AD1013AF1D270BD73
:1010800000BF00BF00BF00BF00BF00BF0133EEE7DD
:1010900000BF00BF00BF00BF00BF00BF0133EAE7D1
:1010A0001D46032D0AD14C83072BE6D000BF00BF9D
:1010B00000BF00BF00BF00BF0133F5E700BF00BFA6
:1010C00000BF00BF00BF00BF0135EAE700000240DB
:1010D000024B186808B10368184770471C180120B4
:1010E0000B4B07B51A8882420ED01880094B1B683B
:1010F00053B103228DF80500000A8DF806001B6924
:101100008DF8042001A8984703B05DF804FB00BFE8
:101110005A1000201C1801200B4B07B51A88824278
:101120000FD01880094B1B685BB104228DF80500B5
:10113000000A8DF806001B698DF804200DEB0200F3
:10114000984703B05DF804FB581000201C180120DC
:1011500010B5164B1B7893B1154B93F90030002B4B
:101160000DDAEF284FEAD00308D8124A1A4400F0EB
:1011700007009178012383400B43937010BD0E4903
:1011800000224FF0FF3311F8014FA042F6D0B3F127
:10119000FF3F01D104B953B20132062AF3D15A1CE0
:1011A000ECD0064A13449870E8E700BF700C0020AA
:1011B0007A180120001000202110002020100020AB
:1011C00010B5124B1B789BB1114B93F90030002BDB
:1011D0000EDAEF284FEAD00209D80E4B134400F084
:1011E00007009A780121814022EA01029A7010BD1D
:1011F0000023094A194612F8014F01338442DBB239
:1012000008BF1170062BF6D1F1E700BF700C00206B
:101210007A180120001000202110002070B5302322
:1012200083F311884FF08043114812495C6A0368C8
:101230000A68E41AA242104A0AD9A3F58333E03BB4
:10124000036010680D4B04F583340344E0341360ED
:101250000C601668002181F311880948094A4FF48F
:101260007A750023E4FB0501FFF766F8304470BD92
:10127000F0160120EC160120E816012088598F0293
:101280009F860100A0860100BFF34F8F0549064BE2
:10129000CA6802F4E0621343CB60BFF34F8F00BF14
:1012A000FDE700BF00ED00E00400FA0510B5244A98
:1012B0000023536090F85F4090F85E1041EA0421EB
:1012C00090F8604090F8610044EA00200C0A032C7A
:1012D00016D005D8012C0ED0022C2DD018461BE0BC
:1012E000212C1BD0222CF9D1E8B10128F6D1154BC5
:1012F00053608B2302E0144B5360122310460BE023
:10130000C9B20229EAD8114B53F82100104B5060A2
:1013100000285B5C18BF1046136010BD38B101286F
:10132000DCD10C4B04E00C4B53604423E6E70B4B41
:10133000536003480923EFE7094B53603B23DDE784
:1013400050100020E0820008EA83000800840008B2
:10135000FC830008DA8300086B830008C18300085F
:10136000AF8300087047000090F8622090F8630097
:10137000084942EA0022022A0B7807D1012B01D04A
:10138000062B05D1044B4A781A707047024A137035
:10139000704700BF4C10002049100020302383F319
:1013A0001188002383F3118870470000014B1878DF
:1013B000704700BF4910002070470000034A516881
:1013C00053685B1A9842FBD8704700BF001000E0DA
:1013D000C27A53099B0003F1604310B503F56143E2
:1013E00002F01F04012101FA04F4C3F88040C3F89D
:1013F000804102F1604303F56143002283F800233A
:10140000837A104A9940136823EA01031360DAB221
:101410004AB90D4A116B21F400111163116D21F4C9
:1014200000111165126D13F47F4F09D1064B1A6B31
:1014300022F480021A631A6D22F480021A651B6D71
:1014400010BD00BFE415012000380240436B4FF48B
:1014500000421A6000221A605A605A61036B1A68CF
:10146000116821F01F0111601168C907FCD4597A75
:101470005A683D238B401360C36A1A68116821F0D3
:101480001F0111601168C907FCD4597A5A683D23BD
:101490008B4013607047000011F00C0F10B5446BC7
:1014A00004D072B60B4B0C4ADA65FEE7036B1A6880
:1014B000116821F01F0111601168C907FCD4597A25
:1014C0005A683D238B401360636843F40073636084
:1014D00010BD00BF7016012098600008036F70B542
:1014E000C46E9E6800224FF0FF3504EB4213510199
:1014F000D3F800090028BEBFD3F8000940F08040AF
:10150000C3F80009D3F8000B0028BEBFD3F8000BC6
:1015100040F08040C3F8000B01326318B242C3F8B8
:101520000859C3F8085BE0D94FF00113C4F81C3820
:1015300070BD00EB810370B5DD68C36E6C69266811
:1015400026614A014EBB1A444FF40020C2F810092C
:101550002A6802F00302012A0AB20ED1D3F8080861
:1015600003EB421410F4807FD4F8000914BF40F05C
:10157000805040F00050C4F8000903EB4212D2F84A
:10158000000940F00440C2F80009D3F834080122F1
:101590008A400243C3F8342870BD19B9402E84BF75
:1015A0004020206020682E8A8419013CB4FBF6F4A8
:1015B00040EAC44040F000501A44C7E7F0B400EBE2
:1015C00081040789E468012564698D403D430581F4
:1015D00023600023A2606360E360F0BCFFF7A9BF53
:1015E00010B590F84C30142B04462DD01CD8062B87
:1015F00005D001D81BB110BD093B022BFBD8E36E0F
:10160000D3F8002942F40012C3F80029D3F8002BC4
:1016100042F40012C3F8002B63681B6813B1062163
:1016200020469847062318E0152BE4D10B2380F8B9
:101630004C30302383F3118800231A461946FFF7F4
:10164000BDFF81F31188D6E7C3689B695B68002BF7
:10165000D1D1836D03B19847002384F84C30CAE799
:101660004B6843608B688360CB68C3600B694361E0
:101670004B6903628B6943620B680360704700002B
:1016800005480178052906D190F868300370436851
:101690001B6803B1184770473017012010B5C468A4
:1016A000A26913681361402B84BF40231360116843
:1016B000638AC26E19440139B1FBF3F14B43033322
:1016C00023F0030343EAC14343F0C043C2F8103B95
:1016D000236803F00303012B0CD1D2F8083813F46C
:1016E000807FD2F8003B14BF43F0805343F0005397
:1016F000C2F8003BD2F8003B43F00443C2F8003B81
:1017000010BDC36810B444899B6944F0010444814E
:101710001A6000225DF8044B99605A60DA60FFF7A6
:10172000BDBF10B590F84C300446002B40D0063BAE
:10173000DAB20F2A36D80F2B34D8DFE803F039336A
:10174000330825343333333333333333393990F873
:10175000623090F86320416D43EA0223994213D22C
:10176000C3681B8AB1FBF3F203FB121161B930238A
:1017700083F311880B460A46FFF720FF81F3118897
:101780000A2384F84C300DE0142384F84C303023C5
:1017900083F31188002211462046FFF7B2FF002391
:1017A00083F3118810BD836D03B198470023E8E7E8
:1017B000E36ED3F8002942F40012C3F80029D3F8ED
:1017C000002B42F40012C3F8002B63681B6813B1AE
:1017D0000621204698470623D3E70000F0B5254EA2
:1017E0000124376884403C42024640D106EBC20CDB
:1017F0003C43CCF804102049CCF808101F49346051
:101800000C6B1F4B44F400140C630C6D0C2545430A
:1018100044F400140C65096D59590C6824F01F0438
:10182000E8180C600C6814F00104FBD10C2505FBD2
:1018300002333D225E7A5D68DB7AB2402A60212263
:101840000C604A6103F1604202F56142502182F866
:10185000001303F01F015B099B0003F1604303F5D4
:10186000614301228A40C3F880211A60F0BD002044
:10187000FCE700BFE4150120E01801200038024019
:101880002489000870B5302383F311882F4D304B25
:101890006B602B780022012BEA602A616A61AA61E1
:1018A000EA612A624CD12B4BEC6E596B41F08001FE
:1018B0005963596D41F080015965596D596941F07D
:1018C00080015961596921F0800159615B69224B9E
:1018D000E02183F843130821C3F8881199601F4B56
:1018E000E3601F4BC4F80038C023C4F8002E236007
:1018F0004FF48033A3632369002BFCDA01232361B7
:101900000C20FFF75BFD2369DB07FCD41220FFF7F7
:1019100055FD2369002BFCDA00260C48A660FFF772
:10192000DDFD104BC4F81068C4F81468C4F81C68D6
:10193000A3614FF0FF336361A36843F00103A36029
:1019400002232B70002383F3118870BD3017012010
:101950005C8A00080038024000E100E040140040CA
:1019600003002002083C30C0890141F020010161E0
:1019700003699B06FCD41220FFF720BD10B5064A70
:10198000064C117824784B1C03F00F039C421EBFB9
:10199000034C1370605410BD2D1701202C1701202B
:1019A0001C170120F0B50D4B0D4C1B7826780D4C03
:1019B000B34201D10020F0BD04EBC3056F788F4224
:1019C00006D114F83370874202D16D79954203D164
:1019D000013303F00703EBE70120ECE79418012043
:1019E000931801209618012010B51B4B1B4A1B7839
:1019F000127813431A4A1278DAB11A4A92F900207F
:101A0000002A16DA184C1949637020222046FEF786
:101A100017FF00B3154820222146FEF7A7FC144B00
:101A20001B68C3B106229B6822702046BDE81040A7
:101A30001847104C1049237008222046FEF700FF7B
:101A400048B10D4808222146FEF790FC084B1B6860
:101A50000BB15B68E9E710BD921801208C180120DA
:101A6000700C00207A18012000100020FC170120C3
:101A70001C180120201000202018012028B1034B41
:101A80001A7810431870FFF7AFBF70478C18012009
:101A900030B1044A137823EA00031370FFF7A4BFA0
:101AA000704700BF8C180120842808B503460BD16D
:101AB0004720FFF74DFBFFF797FF4720FFF780FB1D
:101AC000BDE80840FFF790BF021FD2B2A02AF5D9A7
:101AD00000F12002D2B2072A09D80F4900F007030B
:101AE00001229A400B7823EA02030B70E8E700F129
:101AF0005B02D2B2022A04D8BDE808400020FFF7FA
:101B0000EFBA5833DBB21A2B04D8BDE808400020E6
:101B1000FFF702BB08BD00BF8C18012008B5D0B18B
:101B200082280BD13920FFF713FBFFF75DFF392027
:101B3000FFF746FBBDE80840FFF756BF832806D1F4
:101B40005320FFF705FBFFF74FFF5320F0E7BDE8F9
:101B50000840FFF7A9BF08BD02484FF6FF720021F9
:101B6000FEF7CCBDE415002008B5074B4FF48062AA
:101B700018460021FEF7C2FD044A054B10604FF6DF
:101B8000FF721A8008BD00BFB0100020AC1000200A
:101B9000AA10002070B5214E33788CB0002B3AD0BB
:101BA0001F4C0FCC04AD0FC594E80F0085E80F0063
:101BB0001022A1181B4C6846FEF7D8FB2588FFF7BA
:101BC0002DFB401B80B2C82825D9FFF727FB164AFA
:101BD0001378013303F0070313700CA90CAA02EB6E
:101BE000430201EB830380B2206032F8301C53F8CB
:101BF000200CFFF7EFF90D4B1C68FFF70FFB0C4BA8
:101C0000001B984207D900233370FFF7ADFFFFF7A1
:101C100005FB084B18600CB070BD00BF710C0020B4
:101C20006860000828100020691801207018012041
:101C3000C02709006C180120084B1B784BB1084BDA
:101C400093F90030002B04DA06481E220021FEF72B
:101C500055BD054806220021F9E700BF700C0020A1
:101C60007A18012002100020221000202DE9F843EC
:101C700000EB810681465069F2600C4615460FB2B2
:101C800018B114220021FEF739FDA86918B11422F9
:101C90000021FEF733FDF368D9F86C501E6806F09A
:101CA0000306721E022A05EB44124FF00001C2F82F
:101CB000101B04F110014FF0010298BFB60402FAA4
:101CC00001F299698EBF344E06F1805606F5004642
:101CD000600100293CD0B3F812C004F15801490159
:101CE0004CEA060C45F801C0D5F81C180A43C5F8A3
:101CF0001C282A180021C2F810195A694FF001084F
:101D0000611E08FA04F882B31F8A9B8BBA08012B64
:101D100088BF5A43D9F87430D01843EA024201F11F
:101D2000400305EB8303214647EA845748346401A6
:101D3000C9F8740037435A602846FFF715FE2F5143
:101D4000D5F81C3848EA0303C5F81C38BDE8F88309
:101D500005EB471CDCF8001B21F40041CCF8001B0C
:101D6000D5F81C1821EA0202C1E704F13F0305EB94
:101D700083030A4A5A6005EB471721462846FFF7B6
:101D8000F3FDD7F8003923F40043C7F80039D5F83C
:101D90001C3823EA0803D7E7008000100004000283
:101DA00010B504460846052921D8DFE801F01A20BD
:101DB000031A1A1E302383F311880D4A204601218D
:101DC000FFF754FF0B4A02212046FFF74FFF002385
:101DD00083F31188084B1B7813B10520FFF7CEFD64
:101DE0000220BDE81040FFF7C9BD0520F9E710BD8E
:101DF000BC820008988200082E17012070B50D469D
:101E0000144600210646FEF779FC6319B3F5803FBE
:101E100003D3C5F57F44FF343CB10449224629442D
:101E20003046BDE87040FEF7A1BA70BDE415002051
:101E300007B50023014601220DF107008DF8073098
:101E4000FFF7DCFF9DF8070003B05DF804FB07B562
:101E50000023014602220DF10600ADF80630FFF71F
:101E6000CDFFBDF8060003B05DF804FB13B50422F6
:101E700000230DEB020008210193FFF7BFFF242090
:101E8000019CFFF7D5FF0146204602B010BD0000BF
:101E90000B465118B1F5803F03D3C3F57F42FF32A3
:101EA00022B1014602481844FEF760BA704700BFED
:101EB000E415002037B50C460546FFF7B9FFA042F0
:101EC00007D0012229460DF107008DF80740FFF7E2
:101ED000DFFF03B030BD37B50C460546FFF7B7FF4F
:101EE000A04207D0022229460DF10600ADF80640B7
:101EF000FFF7CEFF03B030BD37B5042200230D46F7
:101F0000044601460DEB02000193FFF777FF019BAA
:101F10009D4206D0042221460DEB02000195FFF7F9
:101F2000B7FF03B030BD10B50C46FEF7FBFF01460E
:101F30000820FFF7E1FFE1B22420BDE81040FFF7E1
:101F4000B9BF000008B5084B1A786FF300021A7089
:101F5000D3E90001FFF7E7FF044B00225A70BDE808
:101F60000840FEF7F3BF00BF80180120EA170120E8
:101F7000044A13790BB1013B1371D2E90001FFF759
:101F8000D2BF00BF80180120044A1379022B9CBFE6
:101F900001331371D2E90001FFF7C5BF801801209A
:101FA0002DE9F743204C25781646EA07074689466F
:101FB000984636D51D4AAB0805F0FC05D35C1C4A93
:101FC000042D137029D1782E01AB324628BF782218
:101FD000FEF75EFF2378DB0711D59DF805009DF81D
:101FE00004109DF80620134D00230133662B687002
:101FF0002970AA7005F10305F7D1FEF7A7FF6770F6
:1020000084F80290E670B8F1000F0AD0D4E900011C
:1020100003B0BDE8F043FFF786BF022B08BF677827
:10202000EDE703B0BDE8F083801801201C880008AC
:10203000EA170120B014002004494878CA7889784A
:1020400008300123C0B2FFF7ABBF00BF80180120EA
:1020500004494878CA78897808380123C0B2FFF764
:102060009FBF00BF8018012005488178C278407862
:102070000A31FF2928BFFF210123C9B2FFF790BF12
:102080008018012005488178C27840780A3921EA11
:10209000E1710123C9B2FFF783BF00BF801801209F
:1020A0000548C278817840780A32FF2A28BFFF228B
:1020B0000123D2B2FFF774BF801801200548C2780F
:1020C000817840780A3A22EAE2720123D2B2FFF71D
:1020D00067BF00BF8018012070B5194C2378DB075B
:1020E0002CD508B3072821D800F03F00237860F3EF
:1020F0008703237019B1D4E90001FFF714FF217899
:102100001048114D01228908FEF74AFB0F4B78B1A8
:1021100000225A700123EB70E278A17860780023E6
:10212000BDE87040FFF73CBF0120DFE70720DDE797
:1021300001225A70FFF772F82880EBE770BD00BFEC
:1021400080180120570C0020E4170120EA17012015
:10215000044B187840F00100187001218008FFF747
:10216000BBBF00BF80180120054B187880080130E4
:1021700008284FF0010128BF0846FFF7ADBF00BF98
:1021800080180120064B1878C0F38500013810F044
:10219000FF004FF0010108BF0720FFF79DBF00BF00
:1021A00080180120084B1B78DA0708D5C3F3850394
:1021B0003E3303F03F03042B01D8FFF7D5BF0121C5
:1021C0000220FFF789BF00BF8018012008B50A462A
:1021D000642301467A2003F07BFDB0FA80F04009C9
:1021E00008BD0000074B1B7810B54BB1064C237897
:1021F00033B106480221FFF7E9FF08B1002323703D
:1022000010BD00BFA810002068180120E58000085C
:102210000A4B1B7810B583B1FFF700F8084C094B47
:1022200000F56A4060301860237833B9064802210F
:10223000FFF7CCFF08B10123237010BDA8100020C8
:1022400068180120A4100020E380000810B503687E
:102250009C68A2420CD85C688A600B604C6021606C
:1022600059609968891A99604FF0FF33836010BDF7
:102270001B68121BECE70000022910B538BF0221D1
:1022800002234FF0804442186263626A101A81424E
:1022900003D8591C0B461046F5E7022B81BF034AB1
:1022A000D36A43F00103D36210BD00BF7016012052
:1022B000194A1369984210B40FD0036841688468C2
:1022C0000B605960996821449960002303604FF0C6
:1022D000FF3393615DF8044B70471346016843F880
:1022E000101F00244B6004601169994203D14FF024
:1022F0008043DC60EEE78B68806803448B604FF0BE
:102300008041486AD169421A9342E3D9091A5DF8BB
:10231000044B1944FFF7B0BF7016012070B5134D80
:1023200005F11003E96143602B698260022A0360B2
:1023300038BF0222586028614FF080408B184363F9
:10234000002303610223C360446A661A964205D3E0
:102350005A1C1144416313462146F5E7022B82BF04
:10236000EB6A43F00103EB6270BD00BF7016012001
:10237000F8B5114F3C464FF0804354F8106F5B6A3C
:10238000A64205460A4604D11946BDE8F840FFF7C3
:10239000C5BFFC69B2681C1B0C1928BF0C46A242C1
:1023A00002D91846FFF768FF224629460348BDE8D0
:1023B000F840FFF74BBF00BF7016012080160120C8
:1023C00070B5094C236805460E4613B12046FFF749
:1023D0006FFF064BE36000232661636129460248D4
:1023E000BDE87040FFF7C4BFD01601204D2500089E
:1023F00038B590F85C2002F07F03212B044679D198
:1024000012F0800F90F85D302FD0022B29D0032BD3
:102410001CD0012B6ED190F8603090F8612053EA07
:10242000022306D1414A026508226265A3650120A4
:1024300038BD3F4B90F85E201A7090F8622003651B
:1024400090F8633042EA03220023EEE790F8603010
:1024500090F8611053EA01234CD1364A02650122FB
:10246000E3E7354B03650122EEE70A2B39D00B2B4E
:1024700010D0092B01D00020DAE790F8603090F8F6
:10248000612043EA0223012BF5D82C4B036502227D
:102490002B4BCAE790F8603090F8612053EA022392
:1024A0001CD190F85E50234B1D70BDB9224B1A7899
:1024B000A2B1302282F311881878224BA0FB0303CB
:1024C0004FF47A72002300F2E7300021FDF734FF69
:1024D00021468000FFF774FF85F3118800222265F2
:1024E000B2E71949144B097890F85F201A70CD09AA
:1024F000F4D1DDE702F09F02812ABCD194F85D306F
:10250000062BB8D194F86120616894F860304D686A
:1025100094F85E1043EA0223204694F85F20A8470F
:102520000028A8D04368026823658DE74110002089
:1025300039100020700C0020381000204C100020B2
:1025400069130008A08601007A18012038B50C46EE
:10255000302383F311880B78042B03D0002383F3FB
:10256000118838BD124B1B78DB09F7D1114D2B7840
:10257000002BF3D0104B1B78002BEFD00B899B075F
:1025800005D40E4A082301212046FFF717F82878C2
:102590000B4BA0FB03034FF47A72002300F2E730E9
:1025A0000021FDF7C9FE21468000FFF709FFD5E7AE
:1025B0007A18012038100020700C002041100020F3
:1025C000A086010000230375826803691B6899686F
:1025D0009142FBD25A6803604260106058607047B5
:1025E0000346006820B100221A608161FFF7EABF4C
:1025F0007047000011F00C0F38B5436B04D072B671
:10260000144B154ADA65FEE7C26A11680C6824F0BB
:102610001F040C600C6814F00104FBD1557A51685A
:102620003D22AA400A605A6822F480525A601A6811
:1026300022F480621A601A6842F400721A60302331
:1026400083F3118821461C30FFF7CAFF84F31188F9
:1026500038BD00BF70160120986000082DE9F843CE
:1026600090F84C30044613B1002380F84C3004EB52
:1026700081010822CB6804F15C00196AFDF776FE3F
:1026800063689B68E3B994F85C3013F060053ED052
:10269000E36ED3F8002942F40012C3F80029D3F8FE
:1026A000002B42F40012C3F8002B63681B6813B1BF
:1026B000062120469847062384F84C30BDE8F8836D
:1026C000204698470028DED094F8632094F86230C2
:1026D00043EA0223626D9A4288BF636594F95C30D5
:1026E000656D002B4FF0300380F24081002D00F02B
:1026F0003081092284F84C2083F31188636D226DA8
:1027000000212046FEF75AFF81F31188D6E794F89E
:102710005D2003F07F0343EA022340F2023293423A
:1027200000F0FB8021D8B3F5807F4DD00DD8012B70
:1027300044D0022B00F0BE80002BA9D104F164022A
:10274000226502226265A365BEE7B3F5817F00F0D2
:10275000C580B3F5407F9BD194F85E30012B97D1B3
:10276000B4F8643043F0020337E0B3F5006F58D09B
:102770001CD8B3F5A06F36D0A3F5C063012B87D862
:1027800094F86120616894F860304E6894F85F10A6
:1027900043EA0223204694F85E20B04700283FF425
:1027A00077AF43682365036863651AE0B3F5106F7C
:1027B0003CD040F6024293427FF46AAF774B2365E8
:1027C000022363650023BEE794F85E30012B7FF49B
:1027D0005FAFB4F8643023F00203A4F864302565D9
:1027E0006565A56570E7B4F85C30B3F5A06F14D1EA
:1027F00094F85E10E26E84F86610D2F8003823F484
:10280000FE6343EA0113C2F8003863681B6813B122
:102810000121204698470323237000232365636525
:1028200091E704F1670323650123BDE72378042BB7
:1028300030D1302383F31188A36803F00113A36020
:1028400004F10C0604F12009A84656F8047F6FB184
:10285000786920B16FF001010C30FFF7C1FEB86953
:1028600020B16FF001010C30FFF7BAFEB1453560C1
:10287000EBD1236F1B6863672046FEF72FFE88F3BA
:1028800011880321636884F8675021701B680BB1BD
:102890002046984794F85E30002BBED084F867300D
:1028A0000423237063681B68002BB6D002212046E6
:1028B0009847B2E794F86010E26E080601F00F0343
:1028C0000AD548335B01D3581A047FF5E1AE99026B
:1028D0004CBF334B334B72E75833F3E794F85E3019
:1028E000002B7FF4D5AE94F8601011F00F0294D055
:1028F000E36E12B211F0800F03EB421306D0D3F84F
:10290000002922F40012C3F8002986E7D3F8002B2F
:1029100022F40012C3F8002B7FE794F85E30002BFE
:102920007FF4B6AE94F8601011F00F023FF475AF6B
:10293000E36E12B211F0800F03EB421304D0D3F810
:10294000002942F40012DEE7D3F8002B42F4001213
:10295000E0E7142284F84C2083F311882A462946A4
:102960002046FEF7CEFE85F31188A7E66DB115224D
:1029700084F84C2083F31188626D216D2046FEF7A8
:10298000C0FE002383F3118898E60B2284F84C20C4
:1029900083F311882B462A462946B2E63481000883
:1029A00032810008308100082DE9F8433F4DD5F809
:1029B0006C8008EB40130446D3F80899C3F80899D3
:1029C00019F0010F4FEA401619D0D8F81038DB077C
:1029D00015D5871C05EB870359684B6918681A6978
:1029E00090422CD2121A00271A605F60302383F3C2
:1029F000118821462846FEF79CFD87F3118819F0BF
:102A0000800F1AD0D8F834380120A040034214D0E7
:102A100005EB8403ED6EDF680134E4B2796905EB00
:102A2000043405EB060ED1E900369E4221D3D5F8D9
:102A3000343823EA0003C5F83438BDE8F8832B891D
:102A40000122A24023EA02032B818B6813B12146A5
:102A500028469847302383F3118805EB8707002128
:102A60007B6858690C30FFF7BBFD002383F31188A6
:102A7000C5E73A8A9B1B934228BF1346DEF8182904
:102A800092B2B3EB820FD8D88A68A2F1040858F842
:102A900004CFC4F800C0A2EB080C9C44BCF1040FA6
:102AA000F5D81A4433448A604B60BCE730170120E4
:102AB000F8B5294DEE6E06EB40130446D3F8087BBB
:102AC000C3F8087B38070AD5D6F81438190706D595
:102AD00005EB84032146DB6828465B689847FA07C4
:102AE0001FD5D6F81438DB071BD5A61C05EB8603CB
:102AF00059688B69B4B9488A5A68B2FBF0F700FB91
:102B000017227AB918681A6990420BD2121AC3E9CF
:102B10000024302383F311880F48FEF7BFFD84F3B0
:102B20001188F8BD6B890122A24023EA02036B8160
:102B3000CB6813B1084821469847302383F31188A6
:102B400005EB86056B68986941680C30FFF748FD16
:102B5000002383F31188E4E73017012008B5084605
:102B6000302383F311880A7D0023052A06D8DFE885
:102B700002F00B050503120E826913604FF0FF335C
:102B80008361FFF71FFD002383F3118808BD82696D
:102B90009368013393604268036813605A60EDE7FD
:102BA000054BD9680875186802681A6053600122DD
:102BB0000275D860FDF7A6BB7016012030B50E4B2C
:102BC000DD684B1C87B0044612D00C4B039368465B
:102BD000002305930495FFF7CBFB2046FFF7E0FFAA
:102BE000009B13B16846FFF763FBA86907B030BDCF
:102BF000FFF7D6FFF9E700BF701601205D2B000834
:102C0000054BDB6821B1036098610320FFF7D6BF55
:102C10004FF0FF30704700BF7016012070B53023B1
:102C200004460D46164683F311880F480378042B9B
:102C300003D0002383F3118870BD02890123A340D0
:102C400013420AD000EB84004FF47A71C3685869CC
:102C50000C30FFF7D5FF0130EBD0034833462A464E
:102C60002146FEF7ABFCE4E73017012007B50C4B1B
:102C70001B688DF80130C3F307218DF80210C3F3F0
:102C8000074105228DF803101B0E694602208DF8BE
:102C900000208DF80430FFF7C1FF03B05DF804FB9E
:102CA000881801200A4B10B500241C70FEF7C4FFE1
:102CB0002046FEF715FA2046FEF72EFA054B1C704B
:102CC000FEF792FE044B1C60BDE81040FFF7CEBF3C
:102CD0008C180120921801208818012010B5014697
:102CE000044608220120FFF799FF082221460248E6
:102CF000FDF73CFB10BD00BF411000200146202223
:102D00000220FFF78BBF014603220220FFF786BF98
:102D1000302383F31188104B5B6813F4006317D0E2
:102D2000F1EE103AEFF30983683B4FF08072DA61FD
:102D30000A4AD26B1A6683F30988094A1168D26875
:102D40008968926891428CBF064A074A9A61704727
:102D500083F31188704700BF00ED00E000EF00E052
:102D6000701601202F0300083203000810B5174C1D
:102D700000232370164B80221A7002F081FF154841
:102D80000B21FFF723FAF0B123789B074FF00501E1
:102D90001AD41148FFF71AFAA8B110480D21FFF70D
:102DA00015FA80B1FEF73AFA0D4B00F56A40603033
:102DB0001860FEF7D9FE0B4A012313700A4A1370FC
:102DC0000A4B00221A7010BD0948E3E79F1000204B
:102DD0005D100020FE800008F9800008E7800008F0
:102DE000A4100020A810002068180120A0100020C6
:102DF000F48000082DE9F04F734F3B7885B0002B2D
:102E000000F0DE80714B724C1C60724B1B78A3B1DA
:102E1000FEF75EF9704B714D1978C0F34002914294
:102E200064D01A70002A5CD000232B70FEF79CFE41
:102E30006B484FF48061FEF7CDF86A4E3388002B63
:102E40003DD03B78002B3AD0674B1D78002D36D112
:102E5000FFF7DEF9318891B32A46D6B241FA06F07F
:102E6000C007134602F10102F7D5604D2A78D20758
:102E7000DBB257D49B01710803F0400303F13F021A
:102E80000F465B488171072183704771C270FFF75D
:102E90009DF9A0B12B78DB074FEA861749D464234C
:102EA0000093E219402319467A2002F045FF30B919
:102EB0004C4901220B88B24023EA02030B80454BA8
:102EC0001B78002B7CD0FEF7A9F94A4B1B68C01A6F
:102ED0006FF00043984273D205B0BDE8F04FFFF7A2
:102EE00081B9FEF741FE01232B70A6E72E78B6B913
:102EF000DFF81481D8F80090FEF790F93E4BA0EB74
:102F00000900984299D9FFF731FF01232B70FEF792
:102F100085F93A4BC8F800601860394B1E70FEF70F
:102F200039FE8AE7DB00DBB2DA1DD2B200270721C7
:102F3000A7E73448DFF8D4B0DFF8D4A0402200215E
:102F4000FDF7DCFB00201BF8013B214A3B44134406
:102F50001AF8012B03932B4B013A1A440024012346
:102F6000C4F1070803FA04F912F801EF5FFA88F8D0
:102F70005FFA89F90025039B595DA8EB050309EA6F
:102F8000010103F0070301FA03FC5B4203F00703AE
:102F9000D9404CEA010C01354EEA0C0C082D5FFAC1
:102FA0008CFEE8D10134082C82F800E0D7D1013042
:102FB000C0B20828C7D164230093124A402372E7A5
:102FC00005B0BDE8F08F00BFA8100020AC100020B5
:102FD000B0100020681801205E100020710C002045
:102FE0000C840008AA100020A01000209F100020D0
:102FF000500C0020A410002040771B007018012006
:10300000691801205F1000206C1801201488000846
:103010000C88000870470000794A08B552F8041C73
:10302000784B994230D1002342F8043C72B6BFF38A
:103030004F8FBFF36F8F744A516A21F48031516210
:10304000D2F8941021F00101C2F894104FF0E02260
:103050004FF0FF311361936153619A0002F16042B6
:1030600002F561420133082BC2F88010C2F88011CA
:10307000F3D1002383F31488644B1A6882F3088821
:1030800062B65B689847FEE7614A62491369624825
:1030900043F0FF031361136923F0FF031361136906
:1030A000136B43F0FF031363136D43F0FF031365CA
:1030B000136DFEF7D5FA1C3100F58060FEF7D0FAEB
:1030C0001C3100F58060FEF7CBFA1C3100F5806002
:1030D000FEF7C6FA1C3100F58060FEF7C1FA1C311C
:1030E00000F58060FEF7BCFA1C3100F58060FEF749
:1030F000B7FA1C3100F58060FEF7B2FA4FF080534A
:103100001364464B4FF480411960136843F0010388
:10311000136013689807FCD5936823F0030393604A
:103120003B4B9A6812F00C02FBD1196801F0F901CF
:1031300019609A601A6842F480321A601A68910322
:10314000FCD55A6F42F001025A67314B5A6F920711
:10315000FCD5334A5A601A6842F080721A602F4ACE
:1031600053685B04FCD52A4B1A689001FCD52D4AA4
:10317000C3F884201A6842F080621A601A6811014C
:10318000FCD5294AC3F888201A6842F080521A6098
:103190001F4B1A689200FCD5244A9A60244AC3F84F
:1031A0008C200022C3F89420224B1A68224B9A42AA
:1031B000224B21D1144A1168214A91421CD140F27C
:1031C00003121A601D4A136803F00F03032BFAD190
:1031D0000F4B9A6842F002029A609A6802F00C0261
:1031E000082AFAD15A6C42F480425A645A6E42F468
:1031F00080425A665B6E08BD40F20372E1E700BF91
:1032000000000220EFBEADDE00ED00E00000FF1F79
:1032100000380240B8810008000002400070004001
:103220000F244005103040221030004200944840E6
:1032300001008000002004E011640020003C0240F6
:1032400041C20F417047FEE770B5144C0825606815
:103250002368A268043B01468A4219D8D31C1B1A72
:10326000C11E23F003038A4238BF00231844E368D9
:10327000DA1C121AC11E22F00302994288BF0022F2
:103280000021FDF73BFA013D04F11004DFD170BDD0
:1032900053F8046F41F8046BDEE700BF3881000883
:1032A0000D4B1868D968026810B453601A60012287
:1032B0000275D86000230B758A680B691B689C68CF
:1032C0009442FBD85A680B604A605DF8044B116069
:1032D0005960FDF717B800BF70160120F8B530230C
:1032E00083F31188234D2B78012B1AD02846EC6EDE
:1032F000FEF7F4F8204A00230821C4F81C38A36024
:10330000A363C2F88810C2F8881182F843331B4BBC
:103310005A6B22F080025A635A6D22F080025A657D
:103320005B6D002401236C602B70154D274655F80A
:10333000046F6EB1706920B16FF001010C30FFF7BE
:103340004FF9B06920B16FF001010C30FFF748F977
:103350000134062C2F60EAD10A4B1A68DB689268A8
:103360009B689A4201D9FFF79BFF002383F31188E2
:10337000F8BD00BF3017012000E100E00038024036
:103380003817012070160120302383F31188034B76
:10339000DB6898610F20FFF703BC00BF70160120A7
:1033A00008B50146302383F311880820FFF706FC97
:1033B000002383F3118808BD832810B504460FD17C
:1033C0005320FDF7C5FEFEF70FFB42F21070FFF72A
:1033D000E7FF5320FDF7F4FEBDE81040FEF704BB05
:1033E00084280AD14720FDF7B3FEFEF7FDFA42F22A
:1033F0001070FFF7D5FF4720ECE7031FDBB2A02BCF
:1034000024D8254B1B78A3B1244B93F90030002B13
:103410000FDA234B03EBD00300F007019A78012366
:103420008B401A420ED02046FDF7CAFEFEF7DCFAAA
:1034300008E01C4A002312F8011FA142F3D0013317
:10344000062BF8D12046FDF783FEC5E700F12003E7
:10345000DBB2072B08D8144A00F0070411780123C7
:10346000A3400B431370B7E700F15B03DBB2022B01
:1034700005D82438BDE8104080B2FDF731BE58347D
:10348000E4B21A2C06D8094B33F81400BDE81040FA
:10349000FDF742BE10BD00BF700C00207A1801205D
:1034A00000100020211000208C1801206E8B0008D5
:1034B00008B5A8B182280FD13920FDF749FEFEF7E3
:1034C00093FA4FF4FA50FFF76BFF3920FDF778FEBF
:1034D000BDE80840FEF788BABDE80840FFF76CBFBA
:1034E00008BD392810B504460AD1FFF7E1FF4FF4B3
:1034F000FA50FFF755FF2046BDE81040FEF70EBB1F
:10350000FFF7D6FF0120F4E72DE9F0411F460C46F6
:10351000254B164668B11970FDF780FE234B04F069
:10352000070418800120A040C0B2BDE8F041FEF7BA
:10353000A5BA1D788D4231D11C4BB3F80080FDF740
:103540006DFEA0EB080080B2C72827D8B5420BD18A
:103550003846FFF7C6FF06F007060120B040BDE879
:10356000F041C0B2FEF794BA05F00705012404FA51
:1035700005F5E8B2FEF78CFA06F12003DBB2072B63
:1035800007D806F0070304FA03F0C0B2FEF776FA94
:10359000DEE73846BDE8F041FFF7A3BF04F00704BB
:1035A0000120A040DBE700BF781801203610002082
:1035B0000379F7B50546002B00F0EF830121FDF7F5
:1035C0000BFC47F6406290426B79044631D047F6D7
:1035D0004162904242D047F24042904249D1002B92
:1035E00000F0DB83A84DA94F2C78A94EB4B9FEF7A3
:1035F0000FFEFFF7BBFBFDF711FEA64B1860FDF7B2
:103600000DFEA54B3C60186001232B703470FEF753
:10361000ABFA03B0BDE8F040FEF7BCBA00242C7052
:10362000FEF7A2FA3C60347003B0BDE8F040FEF74C
:10363000D9BD002B00F0B183E020FFF7BDFEE320F1
:10364000FFF7BAFE5020FFF74CFFE320FEF72CFAFD
:10365000E02003B0BDE8F040FEF726BA002B00F0F2
:103660009C83E020FFF7A8FEE320FFF7A5FE4F2094
:10367000E9E783B1FDF7D2FD864B1860874B1B78D5
:10368000DE0701D4FEF764FD854B1B781BB9FFF7FD
:103690006DFBFEF7BDFDA4F5F843183B6879062BDA
:1036A00024D8DFE803F00F13040C171B1F00262398
:1036B000E122114603B0BDE8F040FFF725BF272304
:1036C000E522F6E72623E122E021F3E72723E5229E
:1036D000E421EFE72623E122E221EBE72723E5229D
:1036E000E621E7E728230122E521E3E788B947F649
:1036F00016439C4240F029816A4B1B78002B14BF73
:1037000035202920FDF75CFD03B0BDE8F040FEF751
:103710006BB9654B0027A4F5E0461F70B3B2222BAE
:1037200000F200810420FEF792FB604C013E2080F5
:10373000212E23D8DFE816F06600E6006E00340084
:10374000380072003C00760082004800DE004C0029
:10375000860050008A00C50054008E00CD005A003B
:1037600094009C0040007A0044007E0060009800B5
:10377000BC00D700DC002F006A00EE00237843F085
:103780000103237021880420FEF7A5FB03B0BDE8E8
:10379000F040FFF787BA637843F008036370F1E7FE
:1037A000237843F00203ECE7237843F00403E8E7CF
:1037B000237843F00803E4E7637843F00103EDE77F
:1037C000637843F00203E9E7237843F01003D8E776
:1037D000237843F02003D4E7237843F04003D0E775
:1037E000FFF760FA237843F08003CAE7237823F0D9
:1037F0000C0343F00C03C4E7637823F0030343F0A6
:103800000303CBE723786FF30003BAE763786FF322
:10381000C303C3E723786FF34103B2E723786FF361
:103820008203AEE723786FF3C303AAE763786FF3ED
:103830000003B3E763786FF34103AFE723786FF3D7
:1038400004139EE723786FF345139AE723786FF309
:10385000861396E7FFF726FA23786FF3C71390E7EE
:10386000237823F00C038CE7637823F0030395E7B8
:103870002378C3F3800282F00102D2B262F38203A2
:1038800062F3C3037DE700BF710C00206C180120B8
:103890006918012074180120701801208018012077
:1038A000681801207C180120781801207A1801205E
:1038B0006378DA4302F0010262F3000362F341032A
:1038C0006CE72378C3F3801282F0010262F386135F
:1038D00057E7FFF7E7F92378C3F3C01282F001023C
:1038E00062F3C7134DE701210E20FEF7E3FA49E723
:1038F0000021F9E72378C3F3001282F0010262F39A
:1039000004133EE72378C3F3000282F0010262F35E
:10391000000336E76378C3F3C00282F0010262F36A
:10392000C3033BE747F616439C426BD19B4B1B7886
:1039300003F0AA03002B9A4B13BF01220022292077
:1039400035201A70FDF704FCDEE6944B1878A4F5D8
:10395000F043203B00F02200142B00F29280DFE8BD
:1039600013F0150023002A002D003000330036002C
:1039700039003C003F00420045001C021C024C0084
:103980001C021C021C021C021C021C02854B1B7820
:10399000DD0704D503B0BDE8F040FEF7D3BA03B0AD
:1039A000BDE8F040FEF7D4BB7F4A804903B0BDE8D4
:1039B000F040FDF70BBB7D4A7B49F7E77C4A7D4928
:1039C000F4E77C4A7A49F1E77B4A7C49EEE77B4A97
:1039D0007949EBE77A4A7B49E8E77A4A7849E5E7AB
:1039E000794A7A49E2E7794A7749DFE701210846CF
:1039F00003B0BDE8F040FEF76FBB03B0BDE8F04098
:103A0000FEF7D0BBA4F5E843403B9BB23F2B49D81F
:103A10006F4A3F3CE4B21168013C0123A3400B43D1
:103A20001360FFF723F92A886B79ADF8002000981E
:103A3000002B5BD0FDF7A8F9044601460098FCF77F
:103A40006FFFBDF80030ADF8043001992046FCF757
:103A5000B7FFFDF7C5F8A9796A790346C3F30330C8
:103A600009090B2874D8DFE810F0450045007C00F8
:103A70007C00C800730073007300DF004101530134
:103A80005301A4F5E843403B9BB23F2BCBD85049B0
:103A90003F3CE4B20B68013C0122A24023EA02034E
:103AA0000B60BEE747F601439C4218D047F603433C
:103AB0009C420DD0B4F5F84FB5D1FFF7F3F846F2BC
:103AC000A810FFF76DFC434B434A1A60FDF7DCFB7F
:103AD000FEF742F84FF6FF713846FEF7FCF9FFF7A4
:103AE000E1F846F2A810FFF75BFCEFE7FCF73AFFBE
:103AF0000446A6E7C3F30721C3F303240F2988BFB5
:103B00002401DEB292B15CB106F12003DBB2072BD7
:103B100000D94EB9214A137823431370FDF764FF8F
:103B20003046FFF7C5FC13E02C4AF4E73046FDF7BA
:103B3000F5FF6CB106F12003DBB2E443072BE4B2DE
:103B400000D966B9154B1A7814401C70FDF74CFF6C
:103B50000021284603B0BDE8F040FDF73DB91F4BFA
:103B6000F1E7C3F3072404F0F004202CC3F303208F
:103B7000DCB218BF0001012C0AD122B10529E7D817
:103B8000FDF77CFFE4E70429E2D8FDF781FFDFE7DA
:103B900032B30029F4D02046C3E700BF8C180120BF
:103BA0007C18012080180120852100086921000867
:103BB00051200008392000088520000869200008ED
:103BC000BD200008A1200008711F0008891F0008FF
:103BD00088180120FCFF0120EFBEADDE9218012005
:103BE0000029D2D0392C0CBF4FF4FA500120FFF736
:103BF000D7FB2046FDF792FFAAE713F4406FC3F30B
:103C0000812107D00129A3D162B1C3F30900FDF7D7
:103C100083FA9DE722B1C3F30900FDF761FA97E744
:103C20001046FAE71046F2E713F4407F2AD1002A43
:103C300051D1C3F34210DC064FEA800048BF0F2287
:103C4000C0B248BF824003F00F0148BFD243C3F364
:103C5000812301FA00F148BF92B2022B504889B289
:103C60000CD0032B3CD0012B04D003881143194006
:103C7000018030E0038819430A4328E00388114398
:103C80005940F5E7C3F301201AB3C20723D5C3F3A4
:103C9000421013F010014FEA800018BF0F21C0B28C
:103CA00018BF814003F00F0218BFC943C3F381233B
:103CB00002FA00F218BF89B2022B3A4892B211D030
:103CC000032BD9D0012B09D003880A431A40028064
:103CD00001E00128DBD8FDF7FBF939E703881A4337
:103CE0001143C5E703880A435A40F0E7DEB2C3F345
:103CF000032432B12046FCF7D3FD3046FDF7BEFE6B
:103D0000E9E73046FDF7C4FE2046FCF7D3FDE2E7C5
:103D1000DCB2A4F1F000032827D8DFE800F002109D
:103D2000171C52B10429D6D81E4AC3F3042101231B
:103D30008B4011884B401380CDE70529F3E7C3F38F
:103D40000420002AE1D0FCF7ABFDC4E7C3F3042054
:103D5000002AF8D0D9E713492AB1C3F3042201237A
:103D600093400B80B7E70A80B5E73AB119B1204616
:103D7000FFF79EFBAFE7C3F30420E4E751B1392C12
:103D80000CBF4FF4FA500120FFF70AFB2046FDF765
:103D9000C5FEA0E7C3F30420B7E703B0F0BD00BF42
:103DA0008E180120901801201B48F8B583790F2B3D
:103DB0000AD8437943B1194B194A1B7815780688FC
:103DC0004788184CAB4200D1F8BD04EBC3011AB2CE
:103DD0000979E1B134F83220B24218D104EBC301C1
:103DE0004A79A2B94A88D21B92B2C72A0FD88379DE
:103DF000012262F3071383718B79074862F307137B
:103E00008B71FFF7D5FBBDE8F840FCF7C9BD013366
:103E100003F00703D6E700BFD6180120941801204D
:103E200093180120961801202DE9FF477C4D044688
:103E3000014606226846FCF799FA95F8049094F832
:103E4000008061786779B4F802A02279B9F1000F97
:103E500012D17AB1002F00F0DF802046FCF7E8FF96
:103E6000002800F0D980082221466D48FCF77EFA30
:103E7000FFF79AFF01253BE06B886E79AAEB0303FD
:103E80009BB2002E00F09C80C72B61D8002AF1D095
:103E9000AB79288822880F2B4DD890420CD1002F67
:103EA00044D1012262F307132846AB71FFF780FB70
:103EB000AB79A37100251BE0002F37D13A4640466D
:103EC000FDF770FD4046FDF76DFD05460028F1D178
:103ED0000098FCF79BFFC0F30332032AC3B20BD850
:103EE000012A13D910F4706F15D0A2790F2A12D8B5
:103EF000284604B0BDE8F087063202F00F02012A1E
:103F00000ED92046FFF754FB3546F1E710F4706FE9
:103F100001D0002BECD02033DBB2072BE8D9F0E73F
:103F2000EF2BE5D90F33DBB2022BF7E7AB7943F088
:103F30000103AB71BEE7904227D137BB2046A37186
:103F4000FFF736FB082221462846FCF70FFA91E7D7
:103F5000AB790F2B08D82846FFF72AFB082200214F
:103F60002846FCF7CBFBA5E7002A83D029882288C6
:103F700091420AD14FB92046A371FFF719FB0822DD
:103F800039462846FCF7BAFB74E72046FCF750FF99
:103F9000002841D0002F3FD0AB791F2B7FF663AFB5
:103FA0002A88ADF8082002A80022ADF80AA08DF8F2
:103FB0000C908DF80D208DF80E30FFF7F9FA52E7CE
:103FC000C72BCBD8002A3FF455AF2FB32A882388BC
:103FD0009A4217D1AB79DA0710D40F2B0ED9A371FF
:103FE00003F0F003F02B06D0A379C3F303120132E0
:103FF00062F30713A3712046FFF7DAFA0848082294
:104000002146A2E72046FCF713FF00287FF42BAFE0
:10401000AB7943F00103AB712046FFF7C9FA29E7FA
:10402000D6180120F0B589B06B4683E803009DF8EF
:104030000510002209B129490A70ADF80E2093E855
:104040000300ADF80C10C9B2029002AC19B1012105
:104050002046FCF7C1FE94E8030004AE86E80300A6
:104060003046FFF7E1FE1E4F1E4D0446C0B996E8EC
:10407000030006AB83E803009DF8141038782A7813
:1040800071B1461C06F00706964210D01946164B31
:10409000082203EBC000FCF769F93E70FCF780FCD6
:1040A000114C28783B7883420BD109B0F0BDFEF764
:1040B000F9FD082221460D483C702C70FCF71EFBD0
:1040C000EEE704EBC000FFF7AFFE0028EDD02B7841
:1040D000013303F007032B70E3E700BF92180120C0
:1040E000931801209418012096180120D618012059
:1040F00073B5FDF793F80B4D2B8884B2A3420ED015
:104100000026ADF80060FDF789F8ADF80460ADF861
:10411000020002AB13E90300FFF784FF2C8002B01A
:1041200070BD00BFFA170120EFF3098305494A6B00
:1041300022F001024A63683383F30988002383F382
:104140001188704700EF00E02DE9F041302304466C
:104150000E4683F3118890F80080456B4160B8F1FA
:10416000010F3BD140F25643836240F21643436253
:104170004E4B984232D14E4F4E493B6A43F40013A6
:104180003B623B6A23F400133B6200203B6AFDF76D
:1041900025FB4949E0620620FDF720FB3B6C2063CC
:1041A00043F400133B643B6E43F400133B663B6EE9
:1041B000424B50224FF0004183F81F23C3F8801177
:1041C000196083F82023C3F88481C3F80480636AEC
:1041D0003B4A13436362A36A1343A362E36A1A6808
:1041E00005F110039360226B126893604FF4004353
:1041F0002B604FF4106200232B606A60696872685C
:10420000307A21F03F010904090C6960696841F0C6
:104210001D0169602B498A4220DC52002A4B93FB26
:10422000F2F31E22C3F30B032A62EB6132782B6890
:10423000022A9BB230D0032A34D0012A02D123F0C3
:104240000A039BB22B602B6843F001032B6002230F
:104250002370002080F31188BDE8F0811B498A4259
:10426000E3DC02280AD102EB4201174AB2FBF1F269
:1042700092B21A4342F400430922D5E7032801BF52
:1042800019235343104AB2FBF3F212BF40F6FF72F8
:1042900092B24FF48043ECE723F008039BB243F063
:1042A0000203CFE743F00A03CCE700BFE018012088
:1042B00000380240F52500089914000800E100E0EC
:1042C00000000302A086010074C3C901801A060021
:1042D00010B53023044683F311880378012B27D0CF
:1042E000FDF7B4F8006BFDF773F8E06AFDF770F8BE
:1042F000134B00229C422263E26219D1114B4FF012
:104300000041C3F88010C3F88011012183F81F23F6
:10431000C3F88410C3F8841183F820230A4B1A6C65
:1043200022F400121A641A6E22F400121A661B6E2E
:10433000002301226360227083F3118810BD00BF47
:10434000E018012000E100E000380240F8B5044622
:10435000302686F3118800258560490003202070EF
:104360002184606B85F31188216BA76A09680F604F
:10437000CA604B60E36A626A1B681A60069ADA6078
:10438000079A5A604FF0804241F28737516A86F3AC
:10439000118883699B0702D403689B052AD5536A59
:1043A0005B1ABB4223D9236B1A68116821F01F01E5
:1043B00011601168CF07FCD4597A5A683D238B40AD
:1043C0001360E36A1A68116821F01F011160116817
:1043D000CE07FCD4597A5A683D238B4013600523DD
:1043E0004FF0FF302370002383F31188F8BD85F36D
:1043F0001188CCE74368089943F40073436003686D
:1044000043F48073036004F11C00FEF7F9FBE8B18C
:10441000236B1A68116821F01F0111601168CD0724
:10442000FCD4597A5A683D238B401360E36A1A68BA
:10443000116821F01F0111601168C907FCD4597A75
:104440005A683D238B401360431CC8D00223C9E740
:104450004FF080422DE9F8431369D1680B40D9B27F
:10446000C9439B07116147D5302383F311882A4D37
:1044700005F110084FF080492C69D9F82400EE6945
:10448000A168264F821B8A423CD3236862680E448F
:10449000EE6113605A60002323602A69BA4208BFA4
:1044A000C9F80C3083F31188E368216920469847E6
:1044B000302383F311886269002ADDD04FF08043F6
:1044C0002869596AA1EB060C62450BD2EB6AB84227
:1044D00043F00203EB6213D0624621464046FDF7EB
:1044E000B5FEC7E7B842F8D1521A32442046FDF76C
:1044F00015FF002383F31188BDE8F843FEF708BCDD
:104500000022F3E7BC42F4D0091A3144E861A1600B
:10451000FDF7B2FEEDE700BF701601208016012006
:1045200008B5074B074A196801F03D0199605368C7
:104530000BB190689847BDE80840FEF7E9BB00BFA3
:1045400000600240E415012008B5084B196889098C
:1045500001F03D018A019A60054AD3680BB11069E8
:104560009847BDE80840FEF7D3BB00BF006002409B
:10457000E415012008B5084B1968090C01F03D014C
:104580000A049A60054A53690BB190699847BDE8DF
:104590000840FEF7BDBB00BF00600240E4150120EB
:1045A00008B5084B1968890D01F03D018A059A602C
:1045B000054AD3690BB1106A9847BDE80840FEF779
:1045C000A7BB00BF00600240E415012008B5074BFF
:1045D000074A596801F03D01D960536A0BB1906AEE
:1045E0009847BDE80840FEF793BB00BF006002405B
:1045F000E415012008B5084B5968890901F03D010F
:104600008A01DA60054AD36A0BB1106B9847BDE89E
:104610000840FEF77DBB00BF00600240E4150120AA
:1046200008B5084B5968090C01F03D010A04DA602D
:10463000054A536B0BB1906B9847BDE80840FEF7F5
:1046400067BB00BF00600240E415012008B5084BBD
:104650005968890D01F03D018A05DA60054AD36B7E
:104660000BB1106C9847BDE80840FEF751BB00BF86
:1046700000600240E415012008B5074B074A19689D
:1046800001F03D019960536C0BB1906C9847BDE807
:104690000840FEF73DBB00BF00640240E415012066
:1046A00008B5084B1968890901F03D018A019A6033
:1046B000054AD36C0BB1106D9847BDE80840FEF772
:1046C00027BB00BF00640240E415012008B5084B79
:1046D0001968090C01F03D010A049A60054A536DFE
:1046E0000BB1906D9847BDE80840FEF711BB00BFC5
:1046F00000640240E415012008B5084B1968890DD3
:1047000001F03D018A059A60054AD36D0BB1106E28
:104710009847BDE80840FEF7FBBA00BF00640240BE
:10472000E415012008B5074B074A596801F03D011F
:10473000D960536E0BB1906E9847BDE80840FEF704
:10474000E7BA00BF00640240E415012008B5084B39
:104750005968890901F03D018A01DA60054AD36E82
:104760000BB1106F9847BDE80840FEF7D1BA00BF03
:1047700000640240E415012008B5084B5968090C93
:1047800001F03D010A04DA60054A536F0BB1906FE6
:104790009847BDE80840FEF7BBBA00BF006402407E
:1047A000E415012008B5084B5968890D01F03D0159
:1047B0008A05DA60054AD36F13B1D2F880009847B2
:1047C000BDE80840FEF7A4BA00640240E4150120E9
:1047D0002DE9F74FC2F3C31302F0030AC2F38009B5
:1047E000C2F3C108C2F3411E0193574600224FF0A5
:1047F0000F0BCB0737D5019C02F007039B0004FA8F
:1048000003FC01254468954024EA050444EA0904B0
:10481000446085680324560004FA06F625EA060576
:1048200045EA08058560C56825EA060545EA0E05DE
:104830000BFA03F3BAF1020F6FEA0604C5606FEAE0
:1048400003031BD1072A95BF056A456A1D401D4019
:1048500095BF45EA0C0545EA0C050562456203680B
:1048600023403B43036049081AD04FEA49094FEA05
:1048700088084FEA8E0EBF000132BAE705682C4067
:104880003C430460072A95BF046A446A1C401C40EC
:1048900095BF44EA0C0444EA0C0404624462E2E773
:1048A00003B0BDE8F08F08B5302383F311880121F0
:1048B00000F00F039940202220F00F00FFF788FF3F
:1048C000002383F3118808BDF8B51D4E33780446E4
:1048D0000D4633B91B4801222021FFF779FF012340
:1048E0003370302383F311880023DAB2AA4203F134
:1048F00001070FD3DFED147A002307EE103AB8EE6C
:10490000C77AB4EEE77AF1EE10FA11D4002383F3FC
:104910001188F8BD02EB4202A618A05CFCF79CFBD4
:104920007078FCF799FBB078FCF796FB3B46DCE728
:1049300000BF00BF00BF00BF00BF00BF0133DCE706
:104940005C10002000000240FCFF1545064B0748A4
:10495000002918BF184600F00F03012120F00F00B6
:1049600020229940FFF734BF0A0402400F000240A2
:104970002DE9F04F8BB01C22002103A8FBF7BEFEEF
:1049800000259C4F03AE4FF03008A94657F8041B92
:104990004C1C54D088F311884FF0010A21F00F000D
:1049A00001F00F010AFA01F421465246A4B2FFF7C2
:1049B0000FFF448389F3118800BF00BF00BF00BF11
:1049C00000BF00BF00BF00BF00BF00BF00BF00BFEF
:1049D00000BF00BF00BF00BF00BF00BF00BF00BFDF
:1049E00000BF00BF00BF00BF00BF00BF00BF00BFCF
:1049F00000BF0024804A234652F8041B481C3FD0C5
:104A000021F00F0001F00F01006920FA01F111F00F
:104A1000010F0CBF514600210133DBB2112B44EAD8
:104A200001044FEA4A0AE7D157F8040C431C01D0AD
:104A3000FFF739FF4FF49660FCF7C0FC3460013596
:104A4000EDB2072D06F10406A0D16C48DFF8C08155
:104A50006B4F1C2203A9FBF7F3FE98F800C0044635
:104A600080B93870BCF1000F00F08C80FCF7D6FBE9
:104A7000644A13681060C31AFF2B3DD9FF233DE041
:104A80000021C9E703AD0FCD5C4E0FC695E80700C6
:104A9000002386E807003B70BCF1000FE6D1FCF76D
:104AA000BDFB584B1860584B544E1B68574F03F1D1
:104AB000770C00254FF00F0E57F8042B56F8044BD7
:104AC000002154401A4624FA01F010F0010000F0D1
:104AD0008680107810B982F800E001250131112993
:104AE00002F10102EFD111339C45E5D1002D49D0EF
:104AF000474B01221A7045E0002B41D0424A434EF9
:104B00001268DFF8F8C039780020DBB288F80000BE
:104B1000019302F17708074686464FF00109824665
:104B2000551E002015F801BFBBF1000F15D0019BE9
:104B30005B454CD385F800A03368DCF8007083EA4D
:104B4000070B09FA00F70BEA0707394387EA03075F
:104B5000376014BF01210021012701301128E1D164
:104B60001132904506F104060CF1040CD8D10FB1B6
:104B7000234B1970BEF1000F02D0254B01221A7091
:104B8000002C90D1234B1969234B49071A7828D45C
:104B900052B90122E3201A70FEF70EFC0C20FEF73A
:104BA000A0FCE320FCF780FF1C4B1C68FCF736FBE5
:104BB0001B4B001B984219D91A4B1B78DB0715D5E4
:104BC000FDF7C0F90BB0BDE8F04FFDF70BBB019B43
:104BD000ABEB030B85F800B04FF0010EBDE7107092
:104BE0007CE7012A04BF00221A70DDE70BB0BDE8A4
:104BF000F08F00BFFC890008188A0008F816012011
:104C00003510002030100020F4160120A8170120D4
:104C100034100020000402402C10002074180120E1
:104C2000E0930400801801202DE98048BA4B8BB036
:104C30001A6962F0FF021A611A69D2B21A614FF062
:104C4000FF301A695A69586100215A6959615A69D5
:104C50001A6A62F080521A621A6A02F080521A626C
:104C60001A6A5A6A58625A6A59625A6A1A6C42F047
:104C700080521A641A6E42F080521A661A6EA74A5F
:104C8000106840F480701060186F00F44070B0F548
:104C9000007F1EBF4FF48030186719675368A04922
:104CA00023F4007353609F4B002543F8045B00AF6F
:104CB0000C202C4600FB05F28A58146043F835405E
:104CC0000135102DF6D1984BDFF8E0824FF0FF3B15
:104CD000C3F808B0C3F80CB0C3F808B4C3F80CB4F8
:104CE000924B702283F81C234FF08052C3F880212E
:104CF0001A608F4B404603F10C020126DA601A61FC
:104D00008C4A5A6300F8246B282200211E705C60D4
:104D10005C61DC61DC621C63FBF7F0FC4FF0A043DC
:104D2000C8F86C30844BC8F870307B4BC8F804402E
:104D30001A6CC8F8084032431A641A6E32431A6675
:104D40007E4A1B6E9368334393604FF0804240F27B
:104D5000562393627A4BC2F82CB094469461546304
:104D6000D460546056611660764A1A60764A5A607A
:104D7000764B774A9C621A634FF0300989F31188A9
:104D800062B6744A7449D06820F4E0600004000CF4
:104D90000143D160D2F8FC10704841F08071C2F834
:104DA000FC1001684FF0200A3143016082F81FA017
:104DB00082F82290C3E906B49C60DC6203F1100221
:104DC000C3E90422DCF824205B6410462146C3E9D1
:104DD000080180226248DA639A6503F13402DA60DE
:104DE00000F5AA72C0F8C4215E4AC0F894215E4A58
:104DF000C0F8B4210222C0F89841C0F8C061A0F800
:104E0000CC21C3E90033C3E91444DC65A3F848604E
:104E1000C0F8C831C0E97646C0F8D44100F5DC706E
:104E2000E346FDF7CFFB84F31188504B504A1A60DC
:104E3000FCF792FE324651464E48DFF874A1FFF768
:104E4000C7FC00212A464C484C4DFBF757FCD8F8CC
:104E50006C204B4B8AF800401C70D2F8043843F0A9
:104E60000203C2F80438FEF739FA41F28830FEF73F
:104E700097FAFCF707FDD8F86C20D2F8043823F035
:104E80000203C2F804383F4B41F288301C603E4BAD
:104E90002B60FEF785FA89F311883C4BDBF8242060
:104EA0001A603B4B1C603B4B1C6084F3118808224A
:104EB00000213948FBF722FC384B002108461E70C0
:104EC000FFF744FD31460020FFF740FD42F6E06069
:104ED000FCF774FA00210846FCF7ACF831460446AA
:104EE0000020FCF7A7F82E4B2E4E44EA40041C701D
:104EF000072456F8040B411C01D0FFF7D4FC013CF9
:104F000014F0FF04F5D1284E56F8040B421C51D082
:104F1000FFF7C9FC4EE000BF0038024000700040BF
:104F200024890008E41501200060024000E100E04F
:104F3000E018012000540040E4890008002004E04B
:104F400068160120181901200000022070160120A7
:104F5000F089000800ED00E00003FA05001000E011
:104F6000200E00208B0E00081D030008580C0020A6
:104F7000810E0008000002401C17012018170120B4
:104F80002D170120D01601205C0C0020F016012006
:104F9000EC160120E8160120EF170120EE17012082
:104FA000ED170120FC890008188A0008301701203D
:104FB0002C1701200134E4B2112CA5D11C220021B0
:104FC000BE48BF4CFBF79AFB1C220021BD48FBF7F3
:104FD00095FB7720FBF764FABB4B77220021186022
:104FE000FBF78CFB0020FCF732FF4FF6E666B04281
:104FF00054D0FCF7B1FD31460020FCF76CFF0021D6
:105000000220FCF757FF012103202180FCF752FF0B
:105010004FF4A0510420FCF75EFF00210620FCF7AE
:1050200049FF00210720FCF745FF00210820FCF77D
:1050300063FF00212420FCF73DFF00211720FCF72F
:1050400039FF00210C20FCF735FF00210D20FCF773
:1050500031FF00220023C7E906231821082207F1A7
:105060002000FCF7CBFE082207F1200107F1180011
:105070006E46FBF7E5FB20B1182108227818FCF7F3
:1050800007FF0021B5462020FCF736FF00210F2046
:10509000FCF732FF00211320FCF72EFF0220FCF763
:1050A000C7FE8A4B8A4E18700420FCF7D0FE308071
:1050B000FFF75EFC40F6B830FEF772F9FFF758FCD8
:1050C0007E4B1B68DB040BD5FCF746FD4FF6FF71EA
:1050D0000020FCF700FF7F4B7F4A1A60FCF7D4F8F2
:1050E0000320FCF7A5FE2080FDF740FE7B4B93F8E4
:1050F0000090B9F1000F21D1FCF7B8FE784CC4E95B
:105100000001C0B203280BD8764B236084F80490CA
:10511000D4E90001FCF707FFFCF7A8FEC4E9000191
:10512000FBF700FF2078704B0021C407597002D5AF
:105130008008FCF7D1FF694A0123137042F2107016
:10514000FEF72EF9337843F080033370FDF700F853
:1051500001210620FCF7C0FFFCF760F8634B644AAE
:10516000186000231360634A1370FDF7FFFDFDF71D
:105170004FF8614B2A681A60604B614D1C789AF8B1
:105180000030002002469C427FD10AB18AF80040DC
:1051900098F80030052B06D198F80030052B00F068
:1051A000BB80FCF721FCFFF7E3FB564E434A354634
:1051B00010460724013C14F0FF0455F8041B50F876
:1051C000043B00F0F8809942F4D0002452F8043BEC
:1051D000FB60F96856F8043B8B4228D04B40002511
:1051E0004FF0010907F1100B19EA030F16D0BA604E
:1051F0007B603D747C74FCF711F84FF001033B7544
:10520000FB68788219EA030F14BF01210021797528
:105210009BE80300FEF706FF7B68BA680135EDB234
:10522000112D4FEA4909DFD1FB6846F8043C0134EF
:10523000E4B2072CCAD1FBF7F1FF0123FB60C0E009
:105240008AF80030304B4FF001021A7094E78AF868
:1052500000302D4B00241C702C4B1C702C4B1C70F0
:10526000FCF7EAFC2B4B1C60FDF700FD2046FBF72A
:1052700037FF2046FBF750FFFBF72AFFFDF776FDCF
:10528000FCF7C6FFFCF764FF76E719460122695C6C
:10529000013303F00F03104605293FF674AF01A652
:1052A00056F821F085510008875100088551000803
:1052B00085510008415200084F520008A8170120EC
:1052C0008E180120F8160120F4160120C4170120C1
:1052D0007A180120FCFF0120EFBEADDE141701207B
:1052E000801801200500FF64EA17012070180120D2
:1052F0006C180120691801201C1801202D170120AD
:105300001C170120C81701202E1701208C1801201E
:105310009218012088180120FCF764FFFCF712FEA8
:10532000FCF760FF40F2A460FEF73AF8B8F864308A
:1053300099077FF531AFFFF71BFB9E4A072352F811
:10534000041B21B9013B13F0FF03F8D124E798F8BF
:105350000030052B1AD1D8F86C30D3F8042842F06D
:105360000102C3F804285A6942F008025A619A6996
:1053700042F008029A61C820FEF712F8D8F86C20B3
:10538000D2F8043823F00103C2F80438D8F86C20AE
:10539000D2F8043843F00203C2F80438FDF79EFF48
:1053A000FCF770FAD8F86C20D2F8043823F0020326
:1053B000C2F80438F0E699427FF408AFFEF798FE91
:1053C000FC607D4B5A784AB31A787C4B7C4E1B7834
:1053D000C2EB9303022ADBB2B37005BF794A7A4C61
:1053E0007A4C5B0814BF4FF4FA65D55CF37843B18F
:1053F0004FF0000986F80390FBF710FFA6F8049021
:105400003080FBF70BFF3388C01A80B247F6FE727C
:10541000904203D82B446A483380A0476C4A1378E3
:1054200033B16C4B0020997810701A78D9705A708B
:10543000684C00236849A678097894F803905FFACD
:1054400083FB59452CD8002207F12005FC2640F2A9
:105450000319E378A178994200F09380E2180133B0
:1054600003F003031279E3706378C2F3060B013390
:10547000D209637064D187F820B087F82160FBF708
:10548000CDFEA7F82490788495E80300FEF7CAFDC6
:1054900087F818B07E76FBF7C1FE032380B266E082
:1054A00000215846BB60FBF7C5FD01210546584663
:1054B000FBF7C0FD494ABB6812F80B1045EA4005EE
:1054C000EDB201F0030085422CD045EA8105EDB232
:1054D000434802F80B50434905F00F05495D10F8A9
:1054E0000B50294449B2032900F80B101CDD09F1C7
:1054F000FF3909F003094E450BD0351903F07F0C35
:1055000085F804C02578013606F003060135A6703B
:1055100025704D4205F0030501F0030158BF6942B3
:1055200000F80B10013385E7CA1CF2DA09F1FF39E4
:1055300009F003094E45ECD0351963F07F0CDFE725
:10554000FD2387F8213087F820B0FBF767FE4FF482
:105550008172BA84788495E80300FEF763FDFD2329
:105560007B7687F818B0FBF759FE022380B23B77B1
:10557000002378837B77D7E90601FEF753FD0122EC
:1055800067E732B1FBF74AFEFDF734FCFCF740FE5B
:1055900004E0FDF72FFCFB68002BF7D1FBF798FD2B
:1055A000114B1A7882423FF4E7AD1870FBF736FED4
:1055B000E2E500BFA8170120EA17012080180120AA
:1055C000E41701206C8A00087D0F0008890E00088E
:1055D000F7170120EF170120EE170120ED1701202A
:1055E000EC1701206F8A0008F81701204048414A53
:1055F00070B5446BA369656945EA034303F0FF1383
:10560000934225D014D8073A934205D001329342F1
:1056100022D0B3F1011F14D1028C130A16D003F06B
:10562000060302F00102134343F0F003236108E094
:10563000314A934226D0023293422ED02F4A9342CF
:105640004ED015F00A0F18BFA36933E02261F8E7C6
:10565000038CC3F34703E9E7636823F400736360D3
:10566000C36A1B681A6842F001021A60626842F459
:10567000805262605B68012BE3D8236823F4806367
:105680002360DEE7636823F400736360036B1A68CA
:10569000136843F001031360D3E72369C36A1B68EF
:1056A0005E685EB1038C43F001030384236843F416
:1056B000A0632360BDE87040FDF72ABB636823F454
:1056C00000736360236843F400732360302383F323
:1056D000118831461C30FCF783FF86F31188B0E750
:1056E000FBF7B4FE636823F400736360A9E700BFAF
:1056F000E0180120080003008200070011000300E9
:10570000314B596B70B54C6904F45F40C04348613C
:10571000186B05682E6826F01F06A2B22E602E6850
:10572000F607FCD4467A45683D20B0402860D86A28
:1057300005682E6826F01F062E602E68F607FCD43A
:10574000467A45683D20B0402860C2F300209505A8
:1057500048BF40F00200986050050BD54D6898682E
:1057600025F400754D600D6840F0040045F40075A7
:105770000D609860160542BF996841F00801996074
:10578000550442BF996841F020019960D00442BF9E
:105790009A6842F010029A6021049A680ED542F08D
:1057A00040029A60302383F3118808486FF00101AA
:1057B000FCF716FF002383F3118801E0002AF1D1E2
:1057C000BDE87040FDF7A4BAE0180120FC180120E4
:1057D0002DE9F74F454CE56E6E69AB691E4016F436
:1057E00080586E6100F0888025460027022345F826
:1057F000087F2370676606264FF03009BA4655F8D1
:10580000043FABB189F31188D5F80080D8F81400B3
:1058100020B16FF001010C30FCF7E2FED8F818005F
:1058200020B16FF001010C30FCF7DAFE8AF3118829
:10583000013E2F60E3D1E56E84F84C603146284686
:10584000FCF792F8226FC5F834684FF0011397689F
:10585000C5F81C384FF000604FF0FF3105EB4613E0
:105860000136BE42C3F80009C3F8000BC3F808199B
:10587000C3F8081BF2D916686E6210232B612F69DA
:1058800017F01007FBD11220FBF798FDD5F8003870
:1058900023F4FE63C5F80038AB6943F4402343F0BA
:1058A0001003AB610923C5F81038C5F81438104B44
:1058B000E3604FF0C043C5F8103B0E4BC5F8003B0A
:1058C000C5F81079C5F8003906F1100363676368FD
:1058D0001B6846F48016AE6213B1044839469847F7
:1058E00003B0BDE8F04FFDF713BA00BF3017012039
:1058F0000C81000840800010002E11DAD5F8003E1F
:105900009B071EBFD5F8003E23F00303C5F8003EF9
:10591000D5F8043823F00103C5F80438FBF7B0FECE
:10592000370533D5A648FBF7D9FD2378052B2DD0B5
:1059300084F868300523237063681B6813B1A0489E
:10594000042198470027DFF87CA2A7604FF00609E2
:105950004FF0300B5AF8043FABB18BF31188DAF8F3
:105960000030586930B16FF001010C300093FCF742
:1059700037FE009B986920B16FF001010C30FCF7F5
:105980002FFE87F31188B9F10109E3D1B0040CD5DA
:10599000D5F8083813F0060FEB6823F470530CBFEA
:1059A00043F4105343F4A053EB6031071AD56368F6
:1059B000DB681BB9AB6923F00803AB612378052BC7
:1059C0000BD1D5F8003E9A071EBFD5F8003E23F054
:1059D0000303C5F8003EFBF753FE6368DB680BB1B9
:1059E00077489847F30243D50021D4F86CA00F46BE
:1059F0000AEB4713D3F8002902F44022B2F5802FB6
:105A00002FD1D3F80029002A2BDAD3F8002942F04D
:105A10009042C3F80029D3F80029002AFBDBE06E8E
:105A2000FBF7A2FF23890122BA4023EA020307F110
:105A30000209238104EB89035B689B6813B160480A
:105A400039469847302383F3118804EB89090021F4
:105A5000D9F8043058690C30FCF7C2FD002383F3F9
:105A60001188236F01379B68FFB29F423946BFD927
:105A7000B70238D5E36E009300274FF001094FF0CD
:105A8000300ABB46009B03EB4712D2F8003B03F4FD
:105A90004023B3F5802F20D1D2F8003B002B1CDA35
:105AA000638909FA07F223EA02036381BB1C04EB52
:105AB00083025268D26822B1414801933946904727
:105AC000019B8AF3118804EB83035B689869416842
:105AD0000C30FCF785FD8BF31188236F01379B6831
