:020000040800F2
:10000000000400201D0300081F0300081F03000850
:100010001F0300081F0300081F0300081F03000838
:100020001F0300081F0300081F0300080141000808
:100030001F0300081F0300081F0300081F03000818
:100040001F0300081F0300081F0300081F03000808
:100050001F0300081F0300081F0300081F030008F8
:100060001F0300081F0300081F030008F9440008CD
:10007000214500084D45000879450008A5450008C0
:10008000CD450008F94500081F0300081F030008BC
:100090001F0300081F0300081F0300081F030008B8
:1000A0001F0300081F0300081F0300081F030008A8
:1000B000294400081F0300081F030008915400088A
:1000C000A55500081F0300081F0300081F030008B0
:1000D0001F0300081F0300081F0300081F03000878
:1000E0001F0300081F0300081F0300081F03000868
:1000F0001F0300081F0300081F030008254600080F
:100100001F0300081F0300081F0300081F03000847
:100110001F0300081F0300081F0300081F03000837
:100120005146000879460008A5460008D146000857
:10013000FD4600081F0300081F0300081F030008F6
:100140001F0300081F0300081F030008755600085E
:1001500025470008514700087D4700081F03000895
:100160001F0300081F0300081F0300081F030008E7
:100170001F0300081F0300081F0300081F030008D7
:100180001F0300081F0300081F0300081F030008C7
:100190001F0300081F0300081F0300081F030008B7
:1001A0001F0300081F0300081F0300081F030008A7
:1001B0001F0300081F0300081F0300081F03000897
:1001C0001F0300081F0300081F0300081F03000887
:1001D0001F0300081F0300081F0300081F03000877
:1002000072B6374880F30888364880F30988364844
:100210003649086040F20000CCF200004EF634711E
:10022000CEF200010860BFF34F8FBFF36F8F40F233
:100230000000C0F2F0004EF68851CEF200010860D6
:10024000BFF34F8FBFF36F8F4FF00000E1EE100A46
:100250004EF63C71CEF200010860062080F314884F
:10026000BFF36F8F02F046FF02F046FF4FF05530AC
:100270001F491B4A91423CBF41F8040BFAE71D4954
:10028000184A91423CBF41F8040BFAE71A491B4A4D
:100290001B4B9A423EBF51F8040B42F8040BF8E79F
:1002A00000201849184A91423CBF41F8040BFAE774
:1002B00003F03AF803F036F8144C154DAC4203DA6B
:1002C00054F8041B8847F9E704F066FC114C124D02
:1002D000AC4203DA54F8041B8847F9E703F023B86B
:1002E00000040020000C00200000000808ED00E0E1
:1002F0000000002000040020A06B0008000C00207B
:10030000740C0020780C002000190120E001000886
:10031000E0010008E0010008E001000870E700F0DB
:1003200000F8FEE72DE9F04F2DED108AC1F80CD052
:10033000C3689D46BDEC108ABDE8F08F002383F3AF
:1003400011882846A047002003F08EF8FEE703F04E
:1003500017F800DFFEE7000053B94AB9002908BFCB
:1003600000281CBF4FF0FF314FF0FF3000F00CB8F9
:10037000ADF1080C6DE904CE05F078FCDDF804E081
:10038000DDE9022304B07047704700BF844641EAAC
:10039000000313F003036DD1403A41D351F8043BFD
:1003A00040F8043B51F8043B40F8043B51F8043B4F
:1003B00040F8043B51F8043B40F8043B51F8043B3F
:1003C00040F8043B51F8043B40F8043B51F8043B2F
:1003D00040F8043B51F8043B40F8043B51F8043B1F
:1003E00040F8043B51F8043B40F8043B51F8043B0F
:1003F00040F8043B51F8043B40F8043B51F8043BFF
:1004000040F8043B51F8043B40F8043B51F8043BEE
:1004100040F8043B51F8043B40F8043B403ABDD25D
:10042000303211D351F8043B40F8043B51F8043BFF
:1004300040F8043B51F8043B40F8043B51F8043BBE
:1004400040F8043B103AEDD20C3205D351F8043B8E
:1004500040F8043B043AF9D2043208D0D2071CBF5A
:1004600011F8013B00F8013B01D30B880380604683
:10047000704700BF082A13D38B078DD010F00303F9
:100480008AD0C3F10403D21ADB071CBF11F8013B69
:1004900000F8013B80D331F8023B20F8023B7BE7B8
:1004A000043AD9D3013A11F8013B00F8013BF9D2E3
:1004B0000B7803704B7843708B788370604670477D
:1004C000024B0146186800F02FB800BF000C002056
:1004D000024B0146186800F0C3B800BF000C0020B2
:1004E00070B5104E336805460C46B3B12146284618
:1004F00005F0E8FA431C0CD0C41C24F00304A0420D
:1005000005D0211A284605F0DDFA013001D0204639
:1005100070BD4FF0FF34204670BD194605F0D2FA89
:100520003060E3E7780C00202DE9F041CD1C25F088
:10053000030508350C2D38BF0C25002D82B006466A
:1005400016DBA94214D8354F00F06AF87A68AAB1D0
:10055000144603E06368224683B11C4623685B1B94
:10056000F8D40B2B21D8A242636855D053600DE01C
:100570000C233360002002B0BDE8F08129463046EC
:10058000FFF7AEFF431C044619D00560304600F06B
:100590004DF804F10B00231D20F00700C21A1CBF08
:1005A0001B1AA35002B0BDE8F0816119A242256078
:1005B00014BF51607960635163684B60E6E77B6804
:1005C00023B31C465B68002BFBD1226801931946BC
:1005D000304604EB020805F075FA804516D1226812
:1005E000AD1A29463046FFF77BFF01300ED0226856
:1005F0007868019B2A442260426812B90CE01046D8
:100600005268A242FBD100234360BFE70C23336052
:10061000304600F00BF8ADE77B60B7E7780C0020C0
:10062000014800F013B800BF900C0020014800F012
:1006300015B800BF900C0020704700BF704700BF86
:10064000704700BF704700BF704700BF704700BFD2
:100650000120704701207047704700BF704700BFFE
:10066000002950D038B551F8043C0C1F002BB8BFFE
:10067000E4180546FFF7D4FF274A13682BB1A342BD
:100680000CD92168601883422CD06360284614601E
:10069000BDE83840FFF7CABFA3420FD81A465B68CF
:1006A000002BF9D111685018844217D02CD3636005
:1006B00054602846BDE83840FFF7B8BF11685018AD
:1006C000A04214D020D8216860188342EFD1186866
:1006D0005B680844C4E900035460EAE723680B44FC
:1006E0001360E6E718685B6808442060CDE720687F
:1006F0000144501883421160DBD1D3E90004014466
:10070000C2E90014D5E770470C232B602846BDE8EA
:100710003840FFF78BBF00BF7C0C0020830730B54B
:1007200047D0541E002A3ED0CAB2034601E0013C25
:1007300039D303F8012B9D07F9D1032C2CD9CDB265
:1007400005EB05250F2C05EB054535D9A4F1100265
:1007500022F00F0C03F1100EE6444FEA121C1A4669
:10076000156055609560D56010327245F8D10CF176
:10077000010214F00C0F03EB021204F00F0C13D063
:10078000ACF1040323F003030433134442F8045B85
:100790009A42FBD10CF003042CB1C9B21C4403F8FB
:1007A000011B9C42FBD130BD64461346002CF4D1A2
:1007B000F9E703461446C0E71A46A446E0E700BF3F
:1007C00001F0FF01102A2BDB10F0070F08D010F802
:1007D000013B013A8B422DD010F0070F42B3F6D106
:1007E000F0B441EA012141EA014122F007047FF01F
:1007F00000070023F0E80256083C85EA010586EA76
:10080000010685FA47F5A3FA87F586FA47F6A5FAB1
:1008100087F68EB9EED1F0BC01F0FF0102F00702BD
:1008200032B110F8013B013A83EA010313B1F8D168
:100830000020704701387047002D06BF3546033849
:10084000073815F0010F07D1013015F4807F02BF82
:10085000013015F4C03F0130F0BC0138704700BFD3
:10086000032A70B511D940EA01039B071FD1044642
:100870000B4602E0043A032A1DD91946204653F8D4
:10088000045B54F8046BAE42F4D0541EB2B1421E65
:10089000013901E0C3180CD012F801EF11F801CFB3
:1008A000E645A4EB0203F5D0AEEB0C0070BD541E80
:1008B000EDE7184670BD20461946E6E7104670BDC4
:1008C00030B490F800F020F007016FF0000C10F049
:1008D000070491F820F040F048804FF000046FF0DA
:1008E0000700D1E9002391F840F000F1080082FAF6
:1008F0004CF2A4FA8CF283FA4CF3A2FA8CF34BBBC1
:10090000D1E9022382FA4CF200F10800A4FA8CF239
:1009100083FA4CF3A2FA8CF3E3B9D1E9042382FA07
:100920004CF200F10800A4FA8CF283FA4CF3A2FA1C
:100930008CF37BB9D1E9062301F1200182FA4CF254
:1009400000F10800A4FA8CF283FA4CF3A2FA8CF3BB
:10095000002BC6D0002A04BF04301A4612BAB2FADD
:1009600082F200EBD20030BC7047D1E9002304F0E2
:100970000305C4F100004FEAC50514F0040F91F817
:1009800040F00CFA05F562EA05021CBF63EA0503B4
:1009900062464FF00004AAE7034A0123118883400E
:1009A0000B431380704700BF78180120034A0123CE
:1009B0008340108820EA03001080704778180120D7
:1009C00037B5ADF80400C0F3072006281ED89DF8FF
:1009D0000430102B1AD803EB0013034403F0070272
:1009E000012090400A4AC3F3CF03C0B202EB830256
:1009F000002412F8015F21FA04F343F300036B4073
:100A0000034001345D40042C1570F2D103B030BDB9
:100A10002318012013B5ADF80400C0F30720062801
:100A20001BD89DF80430102B17D800EB0010184489
:100A30000B4900F007040022C0F3CF0001EB800156
:100A400010468B5CE34003F00103934001321843EE
:100A5000042AC0B2F5D102B010BD0020FBE700BFF0
:100A600024180120054B064A1B7812789A4200D1BF
:100A70007047013303F00703F8E700BF7C1801203B
:100A80007B18012082B0ADF80410C1F307210629BC
:100A90000CD89DF80430102B08D848B901EB01118F
:100AA0001944044B33F8110002B070470020FBE7F3
:100AB0000120F9E7686A0008E72850D8DF2807D83E
:100AC000312865D00ED8292858D02A2867D07047F9
:100AD000A0F1E003072B42D8DFE803F015412429F9
:100AE00033413D42392804D0822802D0352840D0F5
:100AF0007047334B1A7892075CD15B7813F0080F7C
:100B000018BF292070472E4A1378D9074ED452783F
:100B100012F0010F23D013F0100F08BFE32018BF0D
:100B200000207047264B1B7813F0040FF2E7244A8D
:100B3000137859073CD45278D2073BD413F0100FE6
:100B4000EDE71F4B5A78910709D51B7813F0100F6A
:100B500008BFE720E3E71A4B1B781A07F6D4704763
:100B6000174A1378190727D452789107E6D5E4205D
:100B70007047134B1B7813F0200FC1E7104B1A7806
:100B800092061BD45B7813F0080F18BF392070470A
:100B90000B4B1B7813F0400F18BF2A207047084BEF
:100BA0001B7813F0400F18BF312070473920704771
:100BB000E2207047E0207047E62070473520CEE7FE
:100BC0006218012010B52F4C21784B0713D500F087
:100BD0001402A2F1040C00F01803DCF1000242EB55
:100BE0000C02A3F1080CDCF1000343EB0C039A4266
:100BF00018BF80F00C000B0713D500F01402A2F10F
:100C0000140C00F01803DCF1000242EB0C02A3F11B
:100C1000180CDCF1000343EB0C039A4218BF80F080
:100C20000C006478E30713D500F0110202F1FF3CD9
:100C300000F01803DCF1000242EB0C02A3F1080CF7
:100C4000DCF1000343EB0C039A4218BF80F009006B
:100C5000A30711D500F0110200F01803A2F111044E
:100C60006242A3F1180C6241DCF1000343EB0C0378
:100C70009A4218BF80F00900CB0648BF00F0E70099
:100C800010BD00BF6218012038B5FFF715FFB0F5A1
:100C9000A04F044635D2B0F5804F80F09D80DF280C
:100CA00013D9B0F5005F25D3C0F30420FFF78AFF06
:100CB0000546E0B2FFF700FF2D0205F4F8550543A5
:100CC00045F40055ACB2204638BDCC2873D8A728CF
:100CD00009D8A42861D80128F5D0031F9BB2A12B05
:100CE00028BF0024EFE7A0F1A8039BB21A2B5AD922
:100CF0000024E8E7FF2861D8A0F1E0039BB2082BAD
:100D0000EEE745F25F23984220D845F23F23984210
:100D100077D845F21F23984206D900F01F044AF203
:100D2000F10343EA0424CEE7B0F5A44F5DD200F00E
:100D30001F00FFF747FFC30676D4C4F3431400B285
:100D400040EA042040F4104084B2BCE745F2BF23DF
:100D5000984214D845F29F2398425DD8A0F5A44349
:100D6000603B9BB21F2BC3D800F003040123C0F3E8
:100D70008202A34043EA421343F40A433FE0A0F552
:100D8000A543403B9BB21F2BB2D8040204F4F85495
:100D900044F4204444F0F00495E7A0F1240444F422
:100DA0008044A4B28FE75834204BE4B233F81440A7
:100DB00044F4884487E740F4A044F2E7C0F30720F6
:100DC000FFF700FF0546E0B2FFF776FE2D0205F4BF
:100DD000F85540EA0504E4E7C0B2FFF76DFE04F4FD
:100DE0007064044344F42044DBE700F0030401236F
:100DF000C0F38502A34043EA421343F40D439CB27F
:100E000061E700F003040123C0F38202A34043EA38
:100E1000421343F40C43F2E700F01F00FFF7D2FE49
:100E2000040204F4F8544EE7000186E7566B00080C
:100E30007FB5114BADF804001D88104B1B881D4376
:100E4000ADB20F2445FA04F3DB0705D4013CF9D217
:100E50000026304604B070BDBDF80430ADF80C304B
:100E6000E6B203993046FFF70DFEFFF70DFF80B2A3
:100E70000128EBD0EDE700BF78180120761801209B
:100E800013B502884379ADF80420019873B169B1B4
:100E9000FFF7CEFF044601460198FFF791FD019947
:100EA000204602B0BDE81040FFF7ECBDFFF7B2FDF1
:100EB0000446F4E71FB5ADF804000198FFF7B8FF4A
:100EC000BDF80430ADF80C300399FFF7DBFD05B039
:100ED0005DF804EBFFF7D8BE08B503460079A8B16A
:100EE0001888FFF7E7FFC3B2C0F30330062813D01A
:100EF00094BF0E30063000F00F00012810D8F02B00
:100F000010D004D8E72B8CBF0020012008BDF42BA3
:100F100014BF00200120F9E7E72B03D9F12BF7E7F5
:100F20000020F3E70120F1E7002070470020704720
:100F3000704730BFFDE70000F0B5234CA45C0029EA
:100F40003FD000EB4005FF226D00B5FBF2F56FF0DE
:100F500054026A4302EB400000EB4000C0B2C0F113
:100F6000FF0211FB00F64A4336121212C1F1FF07CD
:100F7000C6F1FF06C2F1FF02674366436243C7F34F
:100F80000727C6F30726C2F30722062D14D8DFE889
:100F900005F004060C0A0F130400264614465E7082
:100FA0001C709F70F0BD224634463E461746F6E759
:100FB000164622463C46F9E722463C463746164648
:100FC000EDE727462646EAE70C680008084A13784A
:100FD000032B09D8012161F387031370D378782B91
:100FE00084BF7823D37070471F2BF7D90721F2E70E
:100FF00068180120094B1B7813F0010309D1084A36
:1010000019460133662B51701170917002F1030281
:10101000F7D10348662103F043BC00BF68180120E4
:10102000B014002070B5114B114E04460025F27823
:101030002079B178782A284405F1020528BF782262
:10104000C0B2EDB2FFF778FFCC2D03F10303EED170
:10105000FFF7D0FFA37813F0010F237914BF0133FA
:1010600003F1FF335BB2237170BD00BFB0140020E9
:101070006818012000B1104708470000064A074BD6
:10108000002918BF134623F00F0203F00F03106965
:10109000D84000F0010070470A0402400F000240EF
:1010A0001C4970B507220126202406FA02F30340EA
:1010B0000C8319D00023072B06D14C830023032B6C
:1010C0000AD1013AF1D270BD00BF00BF00BF00BF1E
:1010D00000BF00BF0133EEE700BF00BF00BF00BF8D
:1010E00000BF00BF0133EAE71D46032D0AD14C8340
:1010F000072BE6D000BF00BF00BF00BF00BF00BF8E
:101100000133F5E700BF00BF00BF00BF00BF00BF55
:101110000135EAE700000240024B186808B1036895
:1011200018477047181801200B4B07B51A888242E0
:101130000ED01880094B1B6853B103228DF80500AF
:10114000000A8DF806001B698DF8042001A8984755
:1011500003B05DF804FB00BF5A10002018180120EE
:101160000B4B07B51A8882420FD01880094B1B68B9
:101170005BB104228DF80500000A8DF806001B699A
:101180008DF804200DEB0200984703B05DF804FBD6
:10119000581000201818012010B5164B1B7893B179
:1011A000154B93F90030002B0DDAEF284FEAD003EE
:1011B00008D8124A1A4400F00700917801238340AE
:1011C0000B43937010BD0E4900224FF0FF3311F80E
:1011D000014FA042F6D0B3F1FF3F01D104B953B2A1
:1011E0000132062AF3D15A1CECD0064A13449870F7
:1011F000E8E700BF700C00206218012000100020FA
:10120000211000202010002010B5124B1B789BB13C
:10121000114B93F90030002B0EDAEF284FEAD00281
:1012200009D80E4B134400F007009A780121814041
:1012300022EA01029A7010BD0023094A194612F8E9
:10124000014F01338442DBB208BF1170062BF6D187
:10125000F1E700BF700C0020621801200010002090
:101260002110002070B5302383F311884FF08043A4
:10127000114812495C6A03680A68E41AA242104ADB
:101280000AD9A3F58333E03B036010680D4B04F5E6
:1012900083340344E03413600C601668002181F34A
:1012A00011880948094A4FF47A750023E4FB0501C7
:1012B000FFF752F8304470BDF0160120EC16012003
:1012C000E816012088598F029F860100A086010040
:1012D000BFF34F8F0549064BCA6802F4E06213431F
:1012E000CB60BFF34F8F00BFFDE700BF00ED00E014
:1012F0000400FA0510B5244A0023536090F85F40BB
:1013000090F85E1041EA042190F8604090F8610086
:1013100044EA00200C0A032C16D005D8012C0ED06C
:10132000022C2DD018461BE0212C1BD0222CF9D1E9
:10133000E8B10128F6D1154B53608B2302E0144B22
:101340005360122310460BE0C9B20229EAD8114BB0
:1013500053F82100104B506000285B5C18BF10460A
:10136000136010BD38B10128DCD10C4B04E00C4BEC
:1013700053604423E6E70B4B536003480923EFE730
:10138000094B53603B23DDE750100020C86600087E
:10139000D2670008E8670008E4670008C267000831
:1013A00053670008A96700089767000870470000A6
:1013B00090F8622090F86300084942EA0022022A6D
:1013C0000B7807D1012B01D0062B05D1044B4A78AD
:1013D0001A707047024A1370704700BF4C1000200B
:1013E0004B100020302383F31188002383F31188EE
:1013F00070470000014B1878704700BF4B10002069
:1014000070470000034A516853685B1A9842FBD842
:10141000704700BF001000E0C27A53099B0003F13F
:10142000604310B503F5614302F01F04012101FA86
:1014300004F4C3F88040C3F8804102F1604303F52F
:101440006143002283F80023837A104A994013688D
:1014500023EA01031360DAB24AB90D4A116B21F491
:1014600000111163116D21F400111165126D13F457
:101470007F4F09D1064B1A6B22F480021A631A6D52
:1014800022F480021A651B6D10BD00BFE415012017
:1014900000380240436B4FF400421A6000221A6089
:1014A0005A605A61036B1A68116821F01F011160BC
:1014B0001168C907FCD4597A5A683D238B401360E0
:1014C000C36A1A68116821F01F0111601168C90709
:1014D000FCD4597A5A683D238B4013607047000052
:1014E00011F00C0F10B5446B04D072B60B4B0C4AC4
:1014F000DA65FEE7036B1A68116821F01F011160BD
:101500001168C907FCD4597A5A683D238B4013608F
:10151000636843F40073636010BD00BF7016012060
:101520000C5F0008036F70B5C46E9E6800224FF018
:10153000FF3504EB42135101D3F800090028BEBF68
:10154000D3F8000940F08040C3F80009D3F8000B3D
:101550000028BEBFD3F8000B40F08040C3F8000B5A
:1015600001326318B242C3F80859C3F8085BE0D9E6
:101570004FF00113C4F81C3870BD00EB810370B547
:10158000DD68C36E6C69266826614A014EBB1A4449
:101590004FF40020C2F810092A6802F00302012A61
:1015A0000AB20ED1D3F8080803EB421410F4807F7E
:1015B000D4F8000914BF40F0805040F00050C4F847
:1015C000000903EB4212D2F8000940F00440C2F8CF
:1015D0000009D3F8340801228A400243C3F83428B2
:1015E00070BD19B9402E84BF4020206020682E8A2B
:1015F0008419013CB4FBF6F440EAC44040F00050CA
:101600001A44C7E7F0B400EB81040789E4680125B8
:1016100064698D403D43058123600023A2606360BF
:10162000E360F0BCFFF7A9BF10B590F84C30142B65
:1016300004462DD01CD8062B05D001D81BB110BDF7
:10164000093B022BFBD8E36ED3F8002942F40012C9
:10165000C3F80029D3F8002B42F40012C3F8002B82
:1016600063681B6813B1062120469847062318E0DB
:10167000152BE4D10B2380F84C30302383F31188F1
:1016800000231A461946FFF7BDFF81F31188D6E7FC
:10169000C3689B695B68002BD1D1836D03B1984708
:1016A000002384F84C30CAE74B6843608B68836042
:1016B000CB68C3600B6943614B6903628B6943620A
:1016C0000B6803607047000005480178052906D1C2
:1016D00090F86830037043681B6803B1184770477F
:1016E0003017012010B5C468A26913681361402B3C
:1016F00084BF402313601168638AC26E19440139A4
:10170000B1FBF3F14B43033323F0030343EAC1433B
:1017100043F0C043C2F8103B236803F00303012BDE
:101720000CD1D2F8083813F4807FD2F8003B14BFF4
:1017300043F0805343F00053C2F8003BD2F8003B23
:1017400043F00443C2F8003B10BDC36810B44489A1
:101750009B6944F0010444811A6000225DF8044B47
:1017600099605A60DA60FFF7BDBF10B590F84C3051
:101770000446002B40D0063BDAB20F2A36D80F2B96
:1017800034D8DFE803F039333308253433333333C7
:1017900033333333393990F8623090F86320416D38
:1017A00043EA0223994213D2C3681B8AB1FBF3F2C6
:1017B00003FB121161B9302383F311880B460A46EB
:1017C000FFF720FF81F311880A2384F84C300DE0E5
:1017D000142384F84C30302383F3118800221146FF
:1017E0002046FFF7B2FF002383F3118810BD836DFD
:1017F00003B198470023E8E7E36ED3F8002942F4E9
:101800000012C3F80029D3F8002B42F40012C3F8E9
:10181000002B63681B6813B10621204698470623F6
:10182000D3E70000F0B5254E0124376884403C42E0
:10183000024640D106EBC20C3C43CCF804102049D0
:10184000CCF808101F4934600C6B1F4B44F4001493
:101850000C630C6D0C25454344F400140C65096DB4
:1018600059590C6824F01F04E8180C600C6814F037
:101870000104FBD10C2505FB02333D225E7A5D6835
:10188000DB7AB2402A6021220C604A6103F1604297
:1018900002F56142502182F8001303F01F015B0939
:1018A0009B0003F1604303F5614301228A40C3F8C2
:1018B00080211A60F0BD0020FCE700BFE415012084
:1018C000C8180120003802400C69000870B53023A8
:1018D00083F311882F4D304B6B602B780022012B46
:1018E000EA602A616A61AA61EA612A624CD12B4BE3
:1018F000EC6E596B41F080015963596D41F08001E4
:101900005965596D596941F080015961596921F052
:10191000800159615B69224BE02183F84313082160
:10192000C3F8881199601F4BE3601F4BC4F800385F
:10193000C023C4F8002E23604FF48033A3632369CF
:10194000002BFCDA012323610C20FFF75BFD2369E8
:10195000DB07FCD41220FFF755FD2369002BFCDACE
:1019600000260C48A660FFF7DDFD104BC4F8106898
:10197000C4F81468C4F81C68A3614FF0FF336361B6
:10198000A36843F00103A36002232B70002383F3B9
:10199000118870BD30170120446A000800380240E9
:1019A00000E100E04014004003002002083C30C089
:1019B000890141F02001016103699B06FCD41220DA
:1019C000FFF720BD10B5064A064C117824784B1C51
:1019D00003F00F039C421EBF034C1370605410BDF4
:1019E0002D1701202C1701201C17012030B5084BA2
:1019F0001C785D78621C02F00302AA4206D01C44E7
:101A000000F07F0040EAC111A1701A7030BD00BF24
:101A1000EF170120F0B50D4B0D4C1B7826780D4CBF
:101A2000B34201D10020F0BD04EBC3056F788F42B3
:101A300006D114F83370874202D16D79954203D1F3
:101A4000013303F00703EBE70120ECE77C180120EA
:101A50007B1801207E18012010B51B4B1B4A1B78F8
:101A6000127813431A4A1278DAB11A4A92F900200E
:101A7000002A16DA184C1949637020222046FEF716
:101A8000EFFE00B3154820222146FEF77FFC144BE1
:101A90001B68C3B106229B6822702046BDE8104037
:101AA0001847104C1049237008222046FEF7D8FE34
:101AB00048B10D4808222146FEF768FC084B1B6818
:101AC0000BB15B68E9E710BD7A180120741801209A
:101AD000700C00206218012000100020F81701206F
:101AE00018180120201000201C18012008B50346FA
:101AF000002845D082280BD13920FFF74DFBFFF796
:101B0000ABFF3920FFF780FBBDE80840FFF7A4BF1B
:101B1000832806D15320FFF73FFBFFF79DFF53209B
:101B2000F0E7842806D14720FFF736FBFFF794FF44
:101B30004720E7E7021FD2B2A02AE3D900F1200232
:101B4000D2B2072A09D80F4900F0070301229A40B0
:101B50000B7823EA02030B70D6E700F15B02D2B2E6
:101B6000022A04D8BDE808400020FFF7DDBA583348
:101B7000DBB21A2B04D8BDE808400020FFF7F0BA0A
:101B800008BD00BF7418012028B1034B1A78104318
:101B90001870FFF761BF70477418012030B1044A14
:101BA000137823EA00031370FFF756BF704700BF96
:101BB0007418012002484FF6FF720021FEF7AEBDF7
:101BC000E4150020084B1B784BB1084B93F900300B
:101BD000002B04DA06481E220021FEF79FBD0548AF
:101BE00006220021F9E700BF700C002062180120D6
:101BF00002100020221000202DE9F84300EB81069E
:101C000081465069F2600C4615460FB218B1142295
:101C10000021FEF783FDA86918B114220021FEF708
:101C20007DFDF368D9F86C501E6806F00306721E3D
:101C3000022A05EB44124FF00001C2F8101B04F118
:101C400010014FF0010298BFB60402FA01F299693F
:101C50008EBF344E06F1805606F50046600100291D
:101C60003CD0B3F812C004F1580149014CEA060C0B
:101C700045F801C0D5F81C180A43C5F81C282A18D5
:101C80000021C2F810195A694FF00108611E08FAC4
:101C900004F882B31F8A9B8BBA08012B88BF5A4372
:101CA000D9F87430D01843EA024201F1400305EB41
:101CB0008303214647EA845748346401C9F8740015
:101CC00037435A602846FFF773FE2F51D5F81C386A
:101CD00048EA0303C5F81C38BDE8F88305EB471C48
:101CE000DCF8001B21F40041CCF8001BD5F81C18CF
:101CF00021EA0202C1E704F13F0305EB83030A4A2C
:101D00005A6005EB471721462846FFF751FED7F8E2
:101D1000003923F40043C7F80039D5F81C3823EA0A
:101D20000803D7E7008000100004000210B5044645
:101D30000846052921D8DFE801F01A20031A1A1EE7
:101D4000302383F311880D4A20460121FFF754FF09
:101D50000B4A02212046FFF74FFF002383F311882F
:101D6000084B1B7813B10520FFF72CFE0220BDE8BD
:101D70001040FFF727BE0520F9E710BDA466000854
:101D8000806600082E17012070B50D46144600210C
:101D90000646FEF7C3FC6319B3F5803F03D3C5F5D0
:101DA0007F44FF343CB10449224629443046BDE813
:101DB0007040FEF7EBBA70BDE415002007B50023B4
:101DC000014601220DF107008DF80730FFF7DCFF17
:101DD0009DF8070003B05DF804FB07B5002301463A
:101DE00002220DF10600ADF80630FFF7CDFFBDF879
:101DF000060003B05DF804FB13B5042200230DEBCD
:101E0000020008210193FFF7BFFF2420019CFFF788
:101E1000D5FF0146204602B010BD00000B46511808
:101E2000B1F5803F03D3C3F57F42FF3222B10146B3
:101E300002481844FEF7AABA704700BFE415002014
:101E400037B50C460546FFF7B9FFA04207D001227F
:101E500029460DF107008DF80740FFF7DFFF03B0BB
:101E600030BD37B50C460546FFF7B7FFA04207D097
:101E7000022229460DF10600ADF80640FFF7CEFF1D
:101E800003B030BD37B5042200230D460446014699
:101E90000DEB02000193FFF777FF019B9D4206D0F7
:101EA000042221460DEB02000195FFF7B7FF03B0B6
:101EB00030BD10B50C46FFF789F801460820FFF742
:101EC000E1FFE1B22420BDE81040FFF7B9BF0000F8
:101ED00008B5084B1A786FF300021A70D3E90001B5
:101EE000FFF7E7FF044B00225A70BDE80840FFF7F8
:101EF00081B800BF68180120EA170120044A13794D
:101F00000BB1013B1371D2E90001FFF7D2BF00BF53
:101F100068180120044A1379022B9CBF0133137106
:101F2000D2E90001FFF7C5BF681801202DE9F7438A
:101F3000204C25781646EA0707468946984636D546
:101F40001D4AAB0805F0FC05D35C1C4A042D137038
:101F500029D1782E01AB324628BF7822FEF7ECFF5C
:101F60002378DB0711D59DF805009DF804109DF836
:101F70000620134D00230133662B68702970AA7068
:101F800005F10305F7D1FFF735F8677084F8029083
:101F9000E670B8F1000F0AD0D4E9000103B0BDE843
:101FA000F043FFF786BF022B08BF6778EDE703B069
:101FB000BDE8F0836818012004680008EA170120D2
:101FC000B014002004494878CA7889780830012381
:101FD000C0B2FFF7ABBF00BF6818012004494878C2
:101FE000CA78897808380123C0B2FFF79FBF00BFC5
:101FF0006818012005488178C27840780A31FF29A5
:1020000028BFFF210123C9B2FFF790BF6818012044
:1020100005488178C27840780A3921EAE1710123C4
:10202000C9B2FFF783BF00BF681801200548C27816
:10203000817840780A32FF2A28BFFF220123D2B2DA
:10204000FFF774BF681801200548C278817840788E
:102050000A3A22EAE2720123D2B2FFF767BF00BF59
:102060006818012070B5194C2378DB072CD508B30C
:10207000072821D800F03F00237860F387032370FE
:1020800019B1D4E90001FFF714FF21781048114D70
:1020900001228908FEF794FB0F4B78B100225A7099
:1020A0000123EB70E278A17860780023BDE87040EE
:1020B000FFF73CBF0120DFE70720DDE701225A7070
:1020C000FFF7D0F82880EBE770BD00BF681801204B
:1020D000570C0020E4170120EA170120044B187860
:1020E00040F00100187001218008FFF7BBBF00BF5E
:1020F00068180120054B18788008013008284FF037
:10210000010128BF0846FFF7ADBF00BF68180120D6
:10211000064B1878C0F38500013810F0FF004FF02F
:10212000010108BF0720FFF79DBF00BF681801200D
:10213000084B1B78DA0708D5C3F385033E3303F059
:102140003F03042B01D8FFF7D5BF01210220FFF781
:1021500089BF00BF6818012008B50A4664230146FC
:102160007A2003F007FDB0FA80F0400908BD0000B6
:10217000074B1B7810B54BB1064C237833B106489A
:102180000221FFF7E9FF08B10023237010BD00BF53
:10219000A9100020A81000208E5F00080A4B1B78B1
:1021A00010B583B1FFF75EF8084C094B00F56A40A3
:1021B00060301860237833B906480221FFF7CCFF5E
:1021C00008B10123237010BDA9100020A810002021
:1021D000A41000208C5F000810B503689C68A24220
:1021E0000CD85C688A600B604C602160596099680B
:1021F000891A99604FF0FF33836010BD1B68121B72
:10220000ECE70000022910B538BF022102234FF08D
:10221000804442186263626A101A814203D8591CD2
:102220000B461046F5E7022B81BF034AD36A43F001
:102230000103D36210BD00BF70160120194A136953
:10224000984210B40FD00368416884680B605960ED
:10225000996821449960002303604FF0FF33936134
:102260005DF8044B70471346016843F8101F0024C3
:102270004B6004601169994203D14FF08043DC60E8
:10228000EEE78B68806803448B604FF08041486ABA
:10229000D169421A9342E3D9091A5DF8044B1944F3
:1022A000FFF7B0BF7016012070B5134D05F1100394
:1022B000E96143602B698260022A036038BF022211
:1022C000586028614FF080408B18436300230361FE
:1022D0000223C360446A661A964205D35A1C11440D
:1022E000416313462146F5E7022B82BFEB6A43F0B8
:1022F0000103EB6270BD00BF70160120F8B5114FED
:102300003C464FF0804354F8106F5B6AA642054686
:102310000A4604D11946BDE8F840FFF7C5BFFC697D
:10232000B2681C1B0C1928BF0C46A24202D91846E1
:10233000FFF768FF224629460348BDE8F840FFF74B
:102340004BBF00BF701601208016012070B5094CEC
:10235000236805460E4613B12046FFF76FFF064B74
:10236000E36000232661636129460248BDE87040AE
:10237000FFF7C4BFD0160120D924000838B590F863
:102380005C2002F07F03212B044679D112F0800FEC
:1023900090F85D302FD0022B29D0032B1CD0012BBD
:1023A0006ED190F8603090F8612053EA022306D194
:1023B000414A026508226265A365012038BD3F4B92
:1023C00090F85E201A7090F86220036590F86330F0
:1023D00042EA03220023EEE790F8603090F86110A3
:1023E00053EA01234CD1364A02650122E3E7354B1B
:1023F00003650122EEE70A2B39D00B2B10D0092BF5
:1024000001D00020DAE790F8603090F8612043EACC
:102410000223012BF5D82C4B036502222B4BCAE774
:1024200090F8603090F8612053EA02231CD190F8B4
:102430005E50234B1D70BDB9224B1A78A2B13022D9
:1024400082F311881878224BA0FB03034FF47A72B1
:10245000002300F2E7300021FDF77EFF21468000D7
:10246000FFF774FF85F3118800222265B2E719494E
:10247000144B097890F85F201A70CD09F4D1DDE78C
:1024800002F09F02812ABCD194F85D30062BB8D1AE
:1024900094F86120616894F860304D6894F85E109B
:1024A00043EA0223204694F85F20A8470028A8D0DA
:1024B0004368026823658DE7431000203B1000202D
:1024C000700C00203A1000204C100020B1130008BE
:1024D000A08601006218012038B50C46302383F332
:1024E00011880B78042B03D0002383F3118838BDA7
:1024F000124B1B78DB09F7D1114D2B78002BF3D051
:10250000104B1B78002BEFD00B899B0705D40E4A8C
:10251000082301212046FFF775F828780B4BA0FB14
:1025200003034FF47A72002300F2E7300021FDF735
:1025300013FF21468000FFF709FFD5E7621801204D
:102540003A100020700C002043100020A0860100EB
:1025500000230375826803691B6899689142FBD266
:102560005A68036042601060586070470346006814
:1025700020B100221A608161FFF7EABF70470000B6
:1025800011F00C0F38B5436B04D072B6144B154ADA
:10259000DA65FEE7C26A11680C6824F01F040C605B
:1025A0000C6814F00104FBD1557A51683D22AA4011
:1025B0000A605A6822F480525A601A6822F48062D3
:1025C0001A601A6842F400721A60302383F311888B
:1025D00021461C30FFF7CAFF84F3118838BD00BFC5
:1025E000701601200C5F00082DE9F84390F84C307C
:1025F000044613B1002380F84C3004EB810108221B
:10260000CB6804F15C00196AFDF7C0FE63689B6843
:10261000E3B994F85C3013F060053ED0E36ED3F874
:10262000002942F40012C3F80029D3F8002B42F429
:102630000012C3F8002B63681B6813B10621204603
:102640009847062384F84C30BDE8F8832046984725
:102650000028DED094F8632094F8623043EA022325
:10266000626D9A4288BF636594F95C30656D002B9A
:102670004FF0300380F24081002D00F030810922BC
:1026800084F84C2083F31188636D226D002120466D
:10269000FEF7B8FF81F31188D6E794F85D2003F0C8
:1026A0007F0343EA022340F20232934200F0FB80B0
:1026B00021D8B3F5807F4DD00DD8012B44D0022B0B
:1026C00000F0BE80002BA9D104F164022265022231
:1026D0006265A365BEE7B3F5817F00F0C580B3F501
:1026E000407F9BD194F85E30012B97D1B4F86430D1
:1026F00043F0020337E0B3F5006F58D01CD8B3F5B0
:10270000A06F36D0A3F5C063012B87D894F8612061
:10271000616894F860304E6894F85F1043EA0223D1
:10272000204694F85E20B04700283FF477AF436816
:102730002365036863651AE0B3F5106F3CD040F67B
:10274000024293427FF46AAF774B236502236365AD
:102750000023BEE794F85E30012B7FF45FAFB4F83E
:10276000643023F00203A4F8643025656565A5652F
:1027700070E7B4F85C30B3F5A06F14D194F85E1034
:10278000E26E84F86610D2F8003823F4FE6343EA60
:102790000113C2F8003863681B6813B10121204699
:1027A00098470323237000232365636591E704F1B1
:1027B000670323650123BDE72378042B30D1302341
:1027C00083F31188A36803F00113A36004F10C06DE
:1027D00004F12009A84656F8047F6FB1786920B14A
:1027E0006FF001010C30FFF7C1FEB86920B16FF046
:1027F00001010C30FFF7BAFEB1453560EBD1236F14
:102800001B6863672046FEF78DFE88F3118803215D
:10281000636884F8675021701B680BB120469847A5
:1028200094F85E30002BBED084F867300423237008
:1028300063681B68002BB6D0022120469847B2E798
:1028400094F86010E26E080601F00F030AD54833D1
:102850005B01D3581A047FF5E1AE99024CBF334BAC
:10286000334B72E75833F3E794F85E30002B7FF474
:10287000D5AE94F8601011F00F0294D0E36E12B24E
:1028800011F0800F03EB421306D0D3F8002922F495
:102890000012C3F8002986E7D3F8002B22F40012B7
:1028A000C3F8002B7FE794F85E30002B7FF4B6AEC0
:1028B00094F8601011F00F023FF475AFE36E12B29E
:1028C00011F0800F03EB421304D0D3F8002942F437
:1028D0000012DEE7D3F8002B42F40012E0E71422E6
:1028E00084F84C2083F311882A4629462046FEF7B7
:1028F0002CFF85F31188A7E66DB1152284F84C20D2
:1029000083F31188626D216D2046FEF71EFF0023C0
:1029100083F3118898E60B2284F84C2083F3118806
:102920002B462A462946B2E61C6500081A650008AF
:10293000186500082DE9F8433F4DD5F86C8008EB89
:1029400040130446D3F80899C3F8089919F0010F09
:102950004FEA401619D0D8F81038DB0715D5871C78
:1029600005EB870359684B6918681A6990422CD2A5
:10297000121A00271A605F60302383F31188214602
:102980002846FEF7FAFD87F3118819F0800F1AD058
:10299000D8F834380120A040034214D005EB84035A
:1029A000ED6EDF680134E4B2796905EB043405EBC0
:1029B000060ED1E900369E4221D3D5F8343823EAF9
:1029C0000003C5F83438BDE8F8832B890122A24002
:1029D00023EA02032B818B6813B1214628469847CE
:1029E000302383F3118805EB870700217B68586942
:1029F0000C30FFF7BBFD002383F31188C5E73A8A4B
:102A00009B1B934228BF1346DEF8182992B2B3EB02
:102A1000820FD8D88A68A2F1040858F804CFC4F805
:102A200000C0A2EB080C9C44BCF1040FF5D81A447A
:102A300033448A604B60BCE730170120F8B5294D5C
:102A4000EE6E06EB40130446D3F8087BC3F8087B10
:102A500038070AD5D6F81438190706D505EB8403CC
:102A60002146DB6828465B689847FA071FD5D6F8E9
:102A70001438DB071BD5A61C05EB860359688B6948
:102A8000B4B9488A5A68B2FBF0F700FB17227AB94A
:102A900018681A6990420BD2121AC3E90024302335
:102AA00083F311880F48FEF71DFE84F31188F8BDEB
:102AB0006B890122A24023EA02036B81CB6813B128
:102AC000084821469847302383F3118805EB860593
:102AD0006B68986941680C30FFF748FD002383F369
:102AE0001188E4E73017012008B50846302383F346
:102AF00011880A7D0023052A06D8DFE802F00B05BD
:102B00000503120E826913604FF0FF338361FFF7F4
:102B10001FFD002383F3118808BD82699368013388
:102B200093604268036813605A60EDE7054BD9680B
:102B30000875186802681A60536001220275D8602F
:102B4000FDF7F0BB7016012030B50E4BDD684B1C55
:102B500087B0044612D00C4B0393684600230593BC
:102B60000495FFF7CBFB2046FFF7E0FF009B13B176
:102B70006846FFF763FBA86907B030BDFFF7D6FFD3
:102B8000F9E700BF70160120E92A0008054BDB6851
:102B900021B1036098610320FFF7D6BF4FF0FF30EB
:102BA000704700BF7016012070B5302304460D46F3
:102BB000164683F311880F480378042B03D00023B3
:102BC00083F3118870BD02890123A34013420AD008
:102BD00000EB84004FF47A71C36858690C30FFF73A
:102BE000D5FF0130EBD0034833462A462146FEF795
:102BF00009FDE4E73017012007B50C4B1B688DF881
:102C00000130C3F307218DF80210C3F307410522F9
:102C10008DF803101B0E694602208DF800208DF8F8
:102C20000430FFF7C1FF03B05DF804FB701801200A
:102C30000A4B10B500241C70FEF7C4FF2046FEF7B7
:102C400073FA2046FEF78CFA054B1C70FEF704FF62
:102C5000044B1C60BDE81040FFF7CEBF7418012084
:102C60007A1801207018012010B501460446082288
:102C70000120FFF799FF082221460248FDF786FB55
:102C800010BD00BF43100020014620220220FFF7A4
:102C90008BBF014603220220FFF786BF302383F358
:102CA0001188104B5B6813F4006317D0F1EE103AF3
:102CB000EFF30983683B4FF08072DA610A4AD26B06
:102CC0001A6683F30988094A1168D268896892688C
:102CD00091428CBF064A074A9A61704783F3118874
:102CE000704700BF00ED00E000EF00E0701601202B
:102CF0004F030008520300080A28F8B5064604D11D
:102D00000120BDE8F84000F053B80D2801D10020A3
:102D1000F7E7214D21482C6806222146FDF736FBB6
:102D2000DF2E2FD9062200212046FDF7F7FC214691
:102D30001A480622FDF794FD1949641AA3B260B13E
:102D4000184E1C46378801209A09053400FA02F211
:102D5000A4093A43A04002433280134A0633127852
:102D60009BB2B3FBF2F002FB1030121AD2B2052A6A
:102D70009CBF9B189BB2B3F5806F28BF00231944FA
:102D80002960F8BD094906EB4606062201EB46011B
:102D90002046FDF7FBFACAE7AC14002034100020EF
:102DA000AB100020A0100020AA100020B25F000885
:102DB00070B5124D124C2A68124B121B1B7891B23F
:102DC000B1FBF3F603FB16169B1BDBB258B10622D0
:102DD000B3FBF2F4631EDCB2FF2C00D170BD2020E7
:102DE000FFF78AFFF6E71944B1F5806FAABF0346E3
:102DF00092B21A461A4414442C60EFE7AC14002037
:102E0000AB100020AA10002038B50446FDF758FD8D
:102E10002518A54200D838BD14F8010BFFF76CFF48
:102E2000F7E700002DE9F04F734E337885B0002BA3
:102E300000F0DF807149724B724A0978724C1B783E
:102E4000146069B3234471481360FFF7DDFF704BD2
:102E50001A88130A002B18BF1A464FEA920343EA56
:102E6000121343EA52039BB20CBF00210821002B2E
:102E70006AD1002968D16748FFF7C6FFFEF74CF911
:102E8000654F10F0010F0546644808BF3846FFF74C
:102E9000BBFF15F0020F624808BF3846FFF7B4FFCA
:102EA000604F3B88002B3DD03378002B3AD05E4BEF
:102EB0001D78002D36D1FFF771F9398891B32A4674
:102EC000D6B241FA06F0C007134602F10102F7D567
:102ED000564D2A78D207DBB23DD49B01710803F02E
:102EE000400303F13F020F4651488171072183706F
:102EF0004771C270FFF730F9A0B12B78DB074FEABA
:102F000086172FD464230093E219402319467A20B0
:102F100002F064FE30B9434901220B88B24023EA33
:102F200002030B80354B1B78002B62D0FEF79AF919
:102F3000404B1B68C01A6FF00043984259D205B04D
:102F4000BDE8F04FFFF714B93B48FFF75DFF0120E4
:102F5000FFF72EFF92E7DB00DBB2DA1DD2B20027CB
:102F60000721C1E73548DFF8D8B0DFF8D8A0402204
:102F70000021FDF7D3FB00201BF8013B224A3B4414
:102F800013441AF8012B03932C4B013A1A440024E2
:102F90000123C4F1070803FA04F912F801EF5FFAFC
:102FA00088F85FFA89F90025039B595DA8EB0503B2
:102FB00009EA010103F0070301FA03FC5B4203F095
:102FC0000703D9404CEA010C01354EEA0C0C082DE0
:102FD0005FFA8CFEE8D10134082C82F800E0D7D1EA
:102FE0000130C0B20828C7D164230093134A40239C
:102FF0008CE705B0BDE8F08FA9100020A8100020D4
:10300000AA100020AC140020AB100020275F00089D
:10301000781801202F5F00081D5F0008185F000866
:10302000225F0008A01000209E1000209D100020AC
:10303000500C0020A4100020385F00085D10002014
:10304000FC670008F467000810B51D4C00232370CE
:103050001C4B80221A7002F065FD1B480B21FFF704
:103060007BF848B323789B074FF0050125D4174818
:10307000FFF772F800B316480D21FFF76DF8D8B1CD
:10308000FEF7F0F8134B00F56A4060301860124B01
:103090004FF4806218460021FDF740FB0F4A104BA9
:1030A00010604FF6FF721A800E4A012313700E4A09
:1030B00013700E4B00221A7010BD0D48D8E700BFE8
:1030C0009D100020AA100020A75F0008A25F000842
:1030D000905F0008A4100020AB100020AC1400206A
:1030E000A0100020A9100020A81000209E10002091
:1030F0009D5F000870470000794A08B552F8041C2B
:10310000784B994230D1002342F8043C72B6BFF3A9
:103110004F8FBFF36F8F744A516A21F4803151622F
:10312000D2F8941021F00101C2F894104FF0E0227F
:103130004FF0FF311361936153619A0002F16042D5
:1031400002F561420133082BC2F88010C2F88011E9
:10315000F3D1002383F31488644B1A6882F3088840
:1031600062B65B689847FEE7614A62491369624844
:1031700043F0FF031361136923F0FF031361136925
:10318000136B43F0FF031363136D43F0FF031365E9
:10319000136DFEF789FA1C3100F58060FEF784FAA2
:1031A0001C3100F58060FEF77FFA1C3100F580606D
:1031B000FEF77AFA1C3100F58060FEF775FA1C31D3
:1031C00000F58060FEF770FA1C3100F58060FEF7B4
:1031D0006BFA1C3100F58060FEF766FA4FF0805301
:1031E0001364464B4FF480411960136843F00103A8
:1031F000136013689807FCD5936823F0030393606A
:103200003B4B9A6812F00C02FBD1196801F0F901EE
:1032100019609A601A6842F480321A601A68910341
:10322000FCD55A6F42F001025A67314B5A6F920730
:10323000FCD5334A5A601A6842F080721A602F4AED
:1032400053685B04FCD52A4B1A689001FCD52D4AC3
:10325000C3F884201A6842F080621A601A6811016B
:10326000FCD5294AC3F888201A6842F080521A60B7
:103270001F4B1A689200FCD5244A9A60244AC3F86E
:103280008C200022C3F89420224B1A68224B9A42C9
:10329000224B21D1144A1168214A91421CD140F29B
:1032A00003121A601D4A136803F00F03032BFAD1AF
:1032B0000F4B9A6842F002029A609A6802F00C0280
:1032C000082AFAD15A6C42F480425A645A6E42F487
:1032D00080425A665B6E08BD40F20372E1E700BFB0
:1032E00000000220EFBEADDE00ED00E00000FF1F99
:1032F00000380240A0650008000002400070004055
:103300000F24400510304022103000420094484005
:1033100001008000002004E011640020003C024015
:1033200041C20F417047FEE770B5144C0825606834
:103330002368A268043B01468A4219D8D31C1B1A91
:10334000C11E23F003038A4238BF00231844E368F8
:10335000DA1C121AC11E22F00302994288BF002211
:103360000021FDF7DBF9013D04F11004DFD170BD50
:1033700053F8046F41F8046BDEE700BF20650008D6
:103380000D4B1868D968026810B453601A600122A6
:103390000275D86000230B758A680B691B689C68EE
:1033A0009442FBD85A680B604A605DF8044B116088
:1033B0005960FCF7B7BF00BF70160120F8B5302385
:1033C00083F31188234D2B78012B1AD02846EC6EFD
:1033D000FEF7A8F8204A00230821C4F81C38A3608F
:1033E000A363C2F88810C2F8881182F843331B4BDC
:1033F0005A6B22F080025A635A6D22F080025A659D
:103400005B6D002401236C602B70154D274655F829
:10341000046F6EB1706920B16FF001010C30FFF7DD
:10342000A5F8B06920B16FF001010C30FFF79EF8EC
:103430000134062C2F60EAD10A4B1A68DB689268C7
:103440009B689A4201D9FFF79BFF002383F3118801
:10345000F8BD00BF3017012000E100E00038024055
:103460003817012070160120302383F31188034B95
:10347000DB6898610F20FFF759BB00BF7016012071
:1034800008B50146302383F311880820FFF75CFB61
:10349000002383F3118808BD10B50446002878D0B6
:1034A00082280FD13920FDF777FEFEF7D5FA4FF4C9
:1034B000FA50FFF7E5FF3920FDF7A6FEBDE8104002
:1034C000FEF7CABA83280AD15320FDF765FEFEF73E
:1034D000C3FA42F21070FFF7D3FF5320ECE78428C1
:1034E0000AD14720FDF758FEFEF7B6FA42F21070F7
:1034F000FFF7C6FF4720DFE7031FDBB2A02B24D86E
:10350000244B1B78A3B1244B93F90030002B0FDA26
:10351000224B03EBD00300F007019A7801238B4084
:103520001A420ED02046FDF76FFEFEF795FA08E02E
:103530001B4A002312F8011FA142F3D00133062BCE
:10354000F8D12046FDF728FEB8E700F12003DBB2F2
:10355000072B08D8134A00F0070411780123A34071
:103560000B431370AAE700F15B03DBB2022B05D813
:103570002438BDE8104080B2FDF7D6BD5834E4B21F
:103580001A2C06D8084B33F81400BDE81040FDF79C
:10359000E7BD10BD700C0020621801200010002053
:1035A0002110002074180120566B000838B50C4615
:1035B0000546FFF771FFA4B10B4940F2E733A4FBC6
:1035C0000141E0184FF47A724FF0000341F100011D
:1035D000FCF7C2FEFFF754FF2846BDE83840FEF76F
:1035E00085BA0120F6E700BFA08601002DE9F84367
:1035F00098460C46264B1646074668B11970FDF7EB
:1036000031FE244B04F0070418800120A040C0B212
:10361000BDE8F843FEF7B8BA1D788D4233D11D4B93
:10362000B3F80090FDF71EFEA0EB090080B2B828A9
:1036300029D8B5420CD140463946FFF7B7FF06F00E
:1036400007060120B040BDE8F843C0B2FEF7A6BAB5
:1036500005F00705012404FA05F5E8B2FEF79EFA25
:1036600006F12003DBB2072B07D806F0070304FAA4
:1036700003F0C0B2FEF788FADDE739464046BDE800
:10368000F843FFF793BF04F007040120A040DAE7F6
:103690006018012032100020037973B50446002B16
:1036A00000F069830121FDF7EBFB0346A3F5F84227
:1036B000183A6079062A24D8DFE802F00F13040CC8
:1036C000171B1F002623E122114602B0BDE87040FF
:1036D000FFF78CBF2723E522F6E72623E122E0212E
:1036E000F3E72723E522E421EFE72623E122E22185
:1036F000EBE72723E522E621E7E728230122E5215E
:10370000E3E788B947F61642934240F003819E4BA7
:103710001B78002B14BF35202920FDF775FD02B062
:10372000BDE87040FEF798B9984A0026A3F5E04539
:103730001670AAB2222A00F2DA800420FEF74DFBAE
:10374000934C013D2080212D12D8DFE805F055C0B3
:103750005D2327612B657137B83B753F799F437DAA
:10376000A749838B2F69336D4F8796B1B61E59C811
:10377000237843F00103237021880420FEF771FBB6
:1037800002B0BDE87040FFF753BA637843F0080316
:103790006370F1E7237843F00203ECE7237843F00A
:1037A0000403E8E7237843F00803E4E7637843F091
:1037B0000103EDE7637843F00203E9E7237843F080
:1037C0001003D8E7237843F02003D4E7237843F0AD
:1037D0004003D0E7FFF72CFA237843F08003CAE7D1
:1037E000237823F00C0343F00C03C4E7637823F041
:1037F000030343F00303CBE723786FF30003BAE737
:1038000063786FF3C303C3E723786FF34103B2E731
:1038100023786FF38203AEE723786FF3C303AAE73D
:1038200063786FF30003B3E763786FF34103AFE7A7
:1038300023786FF304139EE723786FF345139AE719
:1038400023786FF3861396E7FFF7F2F923786FF387
:10385000C71390E7237823F00C038CE7637823F0F9
:10386000030395E72378C3F3800282F00102D2B20A
:1038700062F3820362F3C3037DE76378DA4302F005
:10388000010262F3000362F3410381E72378C3F38B
:10389000801282F0010262F386136CE7FFF7C8F929
:1038A0002378C3F3C01282F0010262F3C71362E708
:1038B00001210E20FEF7C4FA5EE70021F9E7237824
:1038C000C3F3001282F0010262F3041353E723787A
:1038D000C3F3000282F0010262F300034BE7637856
:1038E000C3F3C00282F0010262F3C30350E747F65C
:1038F000164293427AD1274B1B7803F0AA03002B80
:10390000214B13BF01220022292035201A70FDF718
:1039100043FC04E71F4A1078A3F5F042203A00F078
:103920002200142A00F2A280DFE812F01500230022
:103930002A003C003F004200450048004B004E007A
:1039400051005400250225025B00250225022502B4
:10395000250225022502104B1B78DE0704D502B094
:10396000BDE87040FEF7B4BA02B0BDE87040FEF7A3
:10397000B5BB0A4A0A4902B0BDE87040FDF77ABB00
:10398000074A0649F7E700BF6418012060180120C4
:103990006218012074180120681801201121000804
:1039A000F5200008A04AA149E5E7A04A9E49E2E7C0
:1039B0009F4AA049DFE79F4A9D49DCE79E4A9F490D
:1039C000D9E79E4A9C49D6E79D4A9E49D3E79D4A3E
:1039D0009B49D0E70121084602B0BDE87040FEF7E0
:1039E00041BB02B0BDE87040FEF7A2BBA3F5E842C0
:1039F000403A92B23F2A49D8A3F13F029249D2B24B
:103A0000013A012393400A6813430B60FFF7F4F86F
:103A100022886379ADF800200098002B5AD0FDF77A
:103A200007FA054601460098FCF7CAFFBDF80030CA
:103A3000ADF8043001992846FDF724F8FDF724F984
:103A4000A17962790346C3F3033009090B2873D8BF
:103A5000DFE810F0440044007B007B00A40072000B
:103A600072007200BB003A014C014C01A3F5E84220
:103A7000403A92B23F2ACBD83F3B7349DBB2013B7D
:103A800001229A400B6823EA0203BEE747F601428F
:103A9000934218D047F6034293420DD0B3F5F84F46
:103AA000B6D1FFF7C5F846F2A810FFF7E9FC674B5F
:103AB000674A1A60FDF70CFCFEF77CF84FF6FF71C1
:103AC0003046FEF7CEF9FFF7B3F846F2A810FFF73D
:103AD000D7FCEFE7FCF79EFF0546A7E7C3F30721F6
:103AE000C3F303250F2988BF2D01DEB292B15DB16A
:103AF00006F12003DBB2072B00D94EB9554A1378E3
:103B00002B431370FDF7A8FF3046FFF7C5FC13E009
:103B1000514AF4E73046FDF7E9FF6DB106F12003A5
:103B2000DBB2ED43072BEDB200D966B9494B1A78E9
:103B300015401D70FDF790FF0021204602B0BDE842
:103B40007040FDF79DB9444BF1E7C3F3072505F03D
:103B5000F005202DC3F30320DDB218BF0001012DB5
:103B60000AD122B10529E7D8FEF70EF8E4E70429C7
:103B7000E2D8FEF713F8DFE71AB10029F4D028469F
:103B8000C3E70029F5D0392D0CBF4FF4FA500120BE
:103B9000FFF776FC2846FDF7A9FFCDE713F4406F49
:103BA000C3F3812107D00129C6D162B1C3F3090053
:103BB000FDF7D6FAC0E722B1C3F30900FDF7B4FA66
:103BC000BAE71046FAE71046F2E713F4407F47D110
:103BD000002A6ED1C3F34210DD064FEA800048BFD1
:103BE0000F22C0B248BF824003F00F0148BFD2434A
:103BF000C3F3812301FA00F148BF92B2022B1748A8
:103C000089B20CD0032B59D0012B04D00388114367
:103C1000194001804DE0038819430A4345E00388B9
:103C200011435940F5E700BFDD1F0008C51F00081C
:103C300011200008F51F0008492000082D20000869
:103C4000FD1E0008151F000870180120FCFF012050
:103C5000EFBEADDE741801207A180120761801201D
:103C6000C3F301201AB3C20723D5C3F3421013F0E4
:103C700010014FEA800018BF0F21C0B218BF814069
:103C800003F00F0218BFC943C3F3812302FA00F205
:103C900018BF89B2022B394892B211D0032BBCD085
:103CA000012B09D003880A431A40028001E0012851
:103CB000DBD8FDF731FA3FE703881A431143A8E741
:103CC00003880A435A40F0E7DEB2C3F3032532B15A
:103CD0002846FCF761FE3046FDF756FFE9E730461F
:103CE000FDF75CFF2846FCF761FEE2E7DDB2A5F1D7
:103CF000F000032827D8DFE800F00210171C52B1AB
:103D00000429D6D81D4AC3F3042101238B4011880E
:103D10004B401380CDE70529F3E7C3F30420002AC5
:103D2000E1D0FCF739FEC4E7C3F30420002AF8D041
:103D3000D9E712492AB1C3F30422012393400B802F
:103D4000B7E70A80B5E73AB119B12846FFF7A4FBF7
:103D5000AFE7C3F30420E4E751B1392D0CBF4FF4B2
:103D6000FA500120FFF78CFB2846FDF7BFFEA0E7C5
:103D7000C3F30420B7E702B070BD00BF781801207C
:103D80001B48F8B583790F2B0AD8437943B1194BF7
:103D9000194A1B78157806884788184CAB4200D121
:103DA000F8BD04EBC3011AB20979E1B134F832204D
:103DB000B24218D104EBC3014A79A2B94A88D21B96
:103DC00092B2B82A0FD88379012262F30713837164
:103DD0008B79074862F307138B71FFF75DFCBDE831
:103DE000F840FCF73FBE013303F00703D6E700BFFE
:103DF000BE1801207C1801207B1801207E180120AC
:103E00002DE9FF477C4D0446014606226846FCF733
:103E1000BDFA95F8049094F8008061786779B4F859
:103E200002A02279B9F1000F12D17AB1002F00F06F
:103E3000DF802046FDF750F8002800F0D9800822E6
:103E400021466D48FCF7A2FAFFF79AFF01253BE0F7
:103E50006B886E79AAEB03039BB2002E00F09C8066
:103E6000B82B61D8002AF1D0AB79288822880F2B93
:103E70004DD890420CD1002F44D1012262F3071398
:103E80002846AB71FFF708FCAB79A37100251BE056
:103E9000002F37D13A464046FDF7BCFD4046FDF7BE
:103EA000B9FD05460028F1D10098FDF703F8C0F3ED
:103EB0000332032AC3B20BD8012A13D910F4706F4E
:103EC00015D0A2790F2A12D8284604B0BDE8F08791
:103ED000063202F00F02012A0ED92046FFF7DCFB62
:103EE0003546F1E710F4706F01D0002BECD0203391
:103EF000DBB2072BE8D9F0E7EF2BE5D90F33DBB2C4
:103F0000022BF7E7AB7943F00103AB71BEE79042B8
:103F100027D137BB2046A371FFF7BEFB08222146FD
:103F20002846FCF733FA91E7AB790F2B08D82846DF
:103F3000FFF7B2FB082200212846FCF7EFFBA5E7BC
:103F4000002A83D02988228891420AD14FB920467D
:103F5000A371FFF7A1FB082239462846FCF7DEFBD8
:103F600074E72046FCF7B8FF002841D0002F3FD06F
:103F7000AB791F2B7FF663AF2A88ADF8082002A823
:103F80000022ADF80AA08DF80C908DF80D208DF868
:103F90000E30FFF781FB52E7B82BCBD8002A3FF455
:103FA00055AF2FB32A8823889A4217D1AB79DA0705
:103FB00010D40F2B0ED9A37103F0F003F02B06D011
:103FC000A379C3F30312013262F30713A3712046EE
:103FD000FFF762FB084808222146A2E72046FCF7CB
:103FE0007BFF00287FF42BAFAB7943F00103AB716B
:103FF0002046FFF751FB29E7BE180120F0B589B034
:104000006B4683E803009DF80510002209B1294999
:104010000A70ADF80E2093E80300ADF80C10C9B299
:10402000029002AC19B101212046FCF729FF94E867
:10403000030004AE86E803003046FFF7E1FE1E4FA2
:104040001E4D0446C0B996E8030006AB83E80300A2
:104050009DF8141038782A7871B1461C06F00706CE
:10406000964210D01946164B082203EBC000FCF70D
:104070008DF93E70FCF7F6FC114C28783B788342B2
:104080000BD109B0F0BDFEF7D3FD082221460D4843
:104090003C702C70FCF742FBEEE704EBC000FFF72E
:1040A000AFFE0028EDD02B78013303F007032B700F
:1040B000E3E700BF7A1801207B1801207C1801205B
:1040C0007E180120BE18012073B5FDF7CBF80B4D0B
:1040D0002B8884B2A3420ED00026ADF80060FDF715
:1040E000C1F8ADF80460ADF8020002AB13E90300BB
:1040F000FFF784FF2C8002B070BD00BFF6170120CF
:10410000EFF3098305494A6B22F001024A636833E1
:1041100083F30988002383F31188704700EF00E0E0
:104120002DE9F041302304460E4683F3118890F8C0
:104130000080456B4160B8F1010F3BD140F256431E
:10414000836240F2164343624E4B984232D14E4F47
:104150004E493B6A43F400133B623B6A23F400136D
:104160003B6200203B6AFDF75DFB4949E0620620A7
:10417000FDF758FB3B6C206343F400133B643B6E3C
:1041800043F400133B663B6E424B50224FF000411C
:1041900083F81F23C3F88011196083F82023C3F824
:1041A0008481C3F80480636A3B4A13436362A36A51
:1041B0001343A362E36A1A6805F110039360226B4C
:1041C000126893604FF400432B604FF41062002399
:1041D0002B606A6069687268307A21F03F010904D7
:1041E000090C6960696841F01D0169602B498A42C8
:1041F00020DC52002A4B93FBF2F31E22C3F30B0385
:104200002A62EB6132782B68022A9BB230D0032AF3
:1042100034D0012A02D123F00A039BB22B602B6811
:1042200043F001032B6002232370002080F31188E8
:10423000BDE8F0811B498A42E3DC02280AD102EB87
:104240004201174AB2FBF1F292B21A4342F4004320
:104250000922D5E7032801BF19235343104AB2FBB3
:10426000F3F212BF40F6FF7292B24FF48043ECE7D4
:1042700023F008039BB243F00203CFE743F00A03A5
:10428000CCE700BFC8180120003802408125000893
:10429000E114000800E100E000000302A086010034
:1042A00074C3C901801A060010B53023044683F395
:1042B00011880378012B27D0FDF7ECF8006BFDF790
:1042C000ABF8E06AFDF7A8F8134B00229C4222638A
:1042D000E26219D1114B4FF00041C3F88010C3F8CE
:1042E0008011012183F81F23C3F88410C3F88411BF
:1042F00083F820230A4B1A6C22F400121A641A6EF7
:1043000022F400121A661B6E0023012263602270E1
:1043100083F3118810BD00BFC818012000E100E040
:1043200000380240F8B50446302686F3118800258F
:1043300085604900032020702184606B85F311881B
:10434000216BA76A09680F60CA604B60E36A626A02
:104350001B681A60069ADA60079A5A604FF080422A
:1043600041F28737516A86F3118883699B0702D42B
:1043700003689B052AD5536A5B1ABB4223D9236B7A
:104380001A68116821F01F0111601168CF07FCD471
:10439000597A5A683D238B401360E36A1A681168A2
:1043A00021F01F0111601168CE07FCD4597A5A68B8
:1043B0003D238B40136005234FF0FF302370002313
:1043C00083F31188F8BD85F31188CCE74368089919
:1043D00043F400734360036843F48073036004F1A3
:1043E0001C00FEF7D3FBE8B1236B1A68116821F0BB
:1043F0001F0111601168CD07FCD4597A5A683D231A
:104400008B401360E36A1A68116821F01F01116084
:104410001168C907FCD4597A5A683D238B40136050
:10442000431CC8D00223C9E74FF080422DE9F8436E
:104430001369D1680B40D9B2C9439B07116147D5B5
:10444000302383F311882A4D05F110084FF080497D
:104450002C69D9F82400EE69A168264F821B8A4294
:104460003CD3236862680E44EE6113605A600023F7
:1044700023602A69BA4208BFC9F80C3083F3118857
:10448000E368216920469847302383F311886269E5
:10449000002ADDD04FF080432869596AA1EB060C51
:1044A00062450BD2EB6AB84243F00203EB6213D0D1
:1044B000624621464046FDF78FFEC7E7B842F8D175
:1044C000521A32442046FDF7EFFE002383F3118891
:1044D000BDE8F843FEF7E2BB0022F3E7BC42F4D0AC
:1044E000091A3144E861A160FDF78CFEEDE700BFD9
:1044F000701601208016012008B5074B074A19687D
:1045000001F03D01996053680BB190689847BDE890
:104510000840FEF7C3BB00BF00600240E415012065
:1045200008B5084B1968890901F03D018A019A60B4
:10453000054AD3680BB110699847BDE80840FEF7FB
:10454000ADBB00BF00600240E415012008B5084B78
:104550001968090C01F03D010A049A60054A536983
:104560000BB190699847BDE80840FEF797BB00BFC4
:1045700000600240E415012008B5084B1968890D58
:1045800001F03D018A059A60054AD3690BB1106AB2
:104590009847BDE80840FEF781BB00BF00600240BD
:1045A000E415012008B5074B074A596801F03D01A1
:1045B000D960536A0BB1906A9847BDE80840FEF78E
:1045C0006DBB00BF00600240E415012008B5084B38
:1045D0005968890901F03D018A01DA60054AD36A08
:1045E0000BB1106B9847BDE80840FEF757BB00BF02
:1045F00000600240E415012008B5084B5968090C19
:1046000001F03D010A04DA60054A536B0BB1906B6F
:104610009847BDE80840FEF741BB00BF006002407C
:10462000E415012008B5084B5968890D01F03D01DA
:104630008A05DA60054AD36B0BB1106C9847BDE868
:104640000840FEF72BBB00BF00600240E4150120CC
:1046500008B5074B074A196801F03D019960536C92
:104660000BB1906C9847BDE80840FEF717BB00BF40
:1046700000640240E415012008B5084B1968890957
:1046800001F03D018A019A60054AD36C0BB1106DAF
:104690009847BDE80840FEF701BB00BF0064024038
:1046A000E415012008B5084B1968090C01F03D011B
:1046B0000A049A60054A536D0BB1906D9847BDE8A6
:1046C0000840FEF7EBBA00BF00640240E415012089
:1046D00008B5084B1968890D01F03D018A059A60FB
:1046E000054AD36D0BB1106E9847BDE80840FEF740
:1046F000D5BA00BF00640240E415012008B5074B9D
:10470000074A596801F03D01D960536E0BB1906EB4
:104710009847BDE80840FEF7C1BA00BF00640240F8
:10472000E415012008B5084B5968890901F03D01DD
:104730008A01DA60054AD36E0BB1106F9847BDE865
:104740000840FEF7ABBA00BF00640240E415012048
:1047500008B5084B5968090C01F03D010A04DA60FC
:10476000054A536F0BB1906F9847BDE80840FEF7BC
:1047700095BA00BF00640240E415012008B5084B5B
:104780005968890D01F03D018A05DA60054AD36F49
:1047900013B1D2F880009847BDE80840FEF77EBA12
:1047A00000640240E41501202DE9F74FC2F3C31362
:1047B00002F0030AC2F38009C2F3C108C2F3411E2A
:1047C0000193574600224FF00F0BCB0737D5019CC2
:1047D00002F007039B0004FA03FC0125446895409E
:1047E00024EA050444EA0904446085680324560069
:1047F00004FA06F625EA060545EA08058560C56857
:1048000025EA060545EA0E050BFA03F3BAF1020F95
:104810006FEA0604C5606FEA03031BD1072A95BF40
:10482000056A456A1D401D4095BF45EA0C0545EAED
:104830000C0505624562036823403B430360490859
:104840001AD04FEA49094FEA88084FEA8E0EBF0096
:104850000132BAE705682C403C430460072A95BF43
:10486000046A446A1C401C4095BF44EA0C0444EAB4
:104870000C0404624462E2E703B0BDE8F08F08B5BF
:10488000302383F31188012100F00F039940202287
:1048900020F00F00FFF788FF002383F3118808BD85
:1048A000F8B51D4E337804460D4633B91B48012236
:1048B0002021FFF779FF01233370302383F3118820
:1048C0000023DAB2AA4203F101070FD3DFED147A15
:1048D000002307EE103AB8EEC77AB4EEE77AF1EEAD
:1048E00010FA11D4002383F31188F8BD02EB4202C1
:1048F000A618A05CFCF7D4FB7078FCF7D1FBB0786D
:10490000FCF7CEFB3B46DCE700BF00BF00BF00BFAB
:1049100000BF00BF0133DCE75C1000200000024054
:10492000FCFF1545064B0748002918BF184600F044
:104930000F03012120F00F0020229940FFF734BF20
:104940000A0402400F0002402DE9F04F89B01C22FA
:10495000002101A8FBF7E2FE844F01AE07254FF0CE
:1049600030084FF0000957F8041B4C1C54D088F352
:1049700011884FF0010A21F00F0001F00F010AFA2F
:1049800001F421465246A4B2FFF70EFF448389F397
:10499000118800BF00BF00BF00BF00BF00BF00BF45
:1049A00000BF00BF00BF00BF00BF00BF00BF00BF0F
:1049B00000BF00BF00BF00BF00BF00BF00BF00BFFF
:1049C00000BF00BF00BF00BF00BF00BF0024684A97
:1049D000234652F8041B481C41D021F00F0001F07F
:1049E0000F01006920FA01F111F0010F0CBF5146CF
:1049F00000210133DBB2112B44EA01044FEA4A0AD9
:104A0000E7D157F8040C411C01D0FFF738FF4FF4F1
:104A10001660FCF7F7FC3460013D15F0FF0506F168
:104A20000406A0D15348DFF86891DFF868A1524F1F
:104A30001C2201A9FBF714FF99F800C0804680B939
:104A40008AF80050BCF1000F77D0FCF70BFC4B4A02
:104A500013681060C31AFF2B15D9FF2314E000213F
:104A6000C7E701AC0FCC434E8AF800500FC694E85C
:104A7000070086E80700BCF1000FE6D1FCF7F2FB67
:104A80003E4B18602BE02BB33D490C68DAB2002393
:104A900089F800303B7004F1770C1D469E46611E7C
:104AA00004F1100611F8010F40B1824233BF801AA1
:104AB00081F800E00123087038BF0125B142F1D12F
:104AC0001134A445EBD10BB101233B7015B1012387
:104AD00089F80030B8F1000F01D13B7883B3284B3F
:104AE000284E196800203870224F01F1770C4FF0E2
:104AF000010E4FF0120857F8042B56F8045B002300
:104B00006A400EFA03F4224208D011F803B0BBF158
:104B1000000F03D101F80380654001200133112B00
:104B2000EFD111318C4546F8045CE4D140B101234A
:104B30008AF8003089F8003002E03B78002B9DD1E4
:104B4000114B1A69114B5207197808D459B901222F
:104B5000AE201A7009B0BDE8F04FFEF727BD01295D
:104B600004BF00221A7009B0BDE8F08FE4690008A4
:104B7000006A0008F8160120291000202C100020DF
:104B8000F4160120A817012000040240281000207C
:104B900030100020311000202DE98048BA4B87B03A
:104BA0001A6962F0FF021A611A69D2B21A614FF0F3
:104BB000FF301A695A69586100215A6959615A6966
:104BC0001A6A62F080521A621A6A02F080521A62FD
:104BD0001A6A5A6A58625A6A59625A6A1A6C42F0D8
:104BE00080521A641A6E42F080521A661A6EA74AF0
:104BF000106840F480701060186F00F44070B0F5D9
:104C0000007F1EBF4FF48030186719675368A049B2
:104C100023F4007353609F4B002643F8046B00AFEE
:104C20000C20344600FB06F28A58146043F83640E4
:104C30000136102EF6D1984B984D4FF0FF3BC3F83C
:104C400008B0C3F80CB0C3F808B4C3F80CB4944B64
:104C5000702283F81C234FF08052C3F880211A6021
:104C6000904B284603F10C024FF00108DA601A61FC
:104C70008D4A5A6300F8248B2822002183F8008093
:104C80005C605C61DC61DC621C63FBF747FD4FF03C
:104C9000A043EB66854B2B677B4B6C601A6CAC605A
:104CA00042EA08021A641A6E42EA08021A66804A48
:104CB0001B6E93684FF0804943EA0803936040F20B
:104CC0005623C9F828307B4B7B4AC9F82CB0C9F869
:104CD0001840C9F83440C9F80C40C9F80440C9F874
:104CE0001480C9F800801A60744A5A60744B754A7F
:104CF0009C621A634FF0300A8AF3118862B6724AD6
:104D00007249D06820F4E0600004000C0143D160D7
:104D1000D2F8FC106E4841F08071C2F8FC100168B6
:104D200041EA080101604FF02001D17782F822A00A
:104D3000C3E906B49C60DC6203F11002C3E90422FB
:104D4000D9F824205B6410462146C3E9080180227B
:104D50006048DA639A6503F13402DA6000F5AA72FA
:104D6000C0F8C4215C4AC0F894215C4AC0F8B42160
:104D70000222C0F89841C0F8C081A0F8CC21C3E954
:104D80000033C3E91444DC65A3F84880C0F8C83197
:104D9000C0E97648C0F8D44100F5DC70FDF7D8FBD7
:104DA00084F311884E4B4F4A1A60FCF703FF4246CA
:104DB0004D482021FFF7F8FC002132464B484C4E6D
:104DC000FBF7ACFC4B4BEA6E1C704B4B1C70D2F8E3
:104DD000043843F00203C2F80438FEF7EFFA41F258
:104DE0008830FEF74DFBFCF771FDEA6ED2F804380F
:104DF00023F00203C2F80438404B41F288301C60B3
:104E00003F4B3360FEF73CFB8AF311883D4BD9F8EA
:104E100024201A603C4B1C603C4B1C6084F31188BE
:104E2000062200213A48DFF8F0A0FBF777FC394B67
:104E30000021084683F80080FFF774FD41460020FA
:104E4000FFF770FD42F6E060FCF7DCFA002108464F
:104E5000FCF714F9414604460020FCF70FF9DFF88F
:104E6000BC8044EA40048AF80040072458F8040B48
:104E7000421C01D0FFF703FD013C14F0FF04F5D103
:104E8000DFF89C8011244DE00038024000700040A3
:104E90000C690008E4150120006002403017012071
:104EA00000E100E0C818012000540040CC6900086F
:104EB000002004E0681601200019012000000220F3
:104EC00070160120D869000800ED00E00003FA0523
:104ED000001000E0200E0020330F00083D03000802
:104EE000580C0020290F0008000002401C17012068
:104EF000181701202D1701202C170120D016012092
:104F00005C0C0020F0160120EC160120E8160120B0
:104F1000EF170120EE170120ED170120E4690008CA
:104F2000006A000858F8040B431C01D0FFF7A7FCE7
:104F3000013C14F0FF04F5D11C222146C848DFF8DB
:104F40006483FBF7EBFB1C222146C648FBF7E6FB1C
:104F50007720FBF7B5FAC44B772221461860FBF7A0
:104F6000DDFB2046FCF739FF4FF6E669484554D093
:104F7000FCF720FE20464946FCF773FF214602203D
:104F8000FCF75EFF01210320A8F80010FCF758FF92
:104F90004FF4A0510420FCF764FF21460620FCF7E3
:104FA0004FFF21460720FCF74BFF21460820FCF766
:104FB00069FF21462420FCF743FF21461720FCF718
:104FC0003FFF21460C20FCF73BFF21460D20FCF75C
:104FD00037FF00220023C7E902231821082207F126
:104FE0001000FCF7D1FE082207F11001B8186C463A
:104FF000FBF736FC20B108221821B818FCF70EFF89
:105000000021A5462020FCF73DFF00210F20FCF7E2
:1050100039FF00211320FCF735FF0220FCF7CEFEFC
:10502000924B934C18700420FCF7D7FE2080FFF7BA
:105030008BFC4FF46160FEF723FAFFF785FC884B89
:105040001B68D9040BD5FCF7B5FD4FF6FF710020A6
:10505000FCF707FF874B884A1A60FCF739F90320F1
:10506000FCF7ACFEA8F80000DFF83C82FDF7ECFF8F
:1050700098F800B0BBF1000F24D1FCF7BDFEDFF8BB
:105080002C92C9E90001C0B203280CD87B4BC9F8A7
:10509000003089F804B0D9E90001FCF70AFFFCF7F9
:1050A000ABFEC9E90001FBF791FF99F80000744BD2
:1050B0000021C207597002D58008FCF7D3FF0123F5
:1050C00088F8003042F21070FEF7DAF9237843F0E6
:1050D00080032370FDF702F801210620FCF7C2FFD0
:1050E000FDF7B2FFFDF75AF8664B32681A60664B5F
:1050F000664C1878664B1B7800263246984278D169
:105100000AB1634B18702B78052B05D12B78052B32
:1051100000F08A80FCF7A0FCFFF716FCDFF8908116
:105120004F4A464610460724013C14F0FF0456F847
:10513000041B50F8043B00F0EC809942F4D00024AA
:1051400052F8049B58F8043B4B4527D083EA0903E7
:1051500000264FF0010B1BEA030F17D03E747C743E
:105160007A603B60FCF77EF81BEA090F14BF01214F
:1051700000214FF001033B75788207F11003797528
:1051800093E80300FEF73AFF3B687A680136F6B20F
:10519000112E4FEA4B0BDED148F8049C0134E4B2E7
:1051A000072CCDD1FCF75EF80124B7E0384A137024
:1051B000384B4FF001021A7099E7354A1370354B9E
:1051C00000241C70344B1C70344B1C70FCF7FAFC30
:1051D000334B1C60FDF710FD2046FBF7A5FF204672
:1051E000FBF7BEFFFBF798FFFCF7D8FFFCF776FF55
:1051F0007DE719460122615C013303F00F03164677
:1052000005293FF67BAF0FF2080C5CF821F000BFD8
:10521000FB500008FD500008FB500008FB50000840
:10522000AD510008BB510008FCF7A2FFFCF750FE8F
:10523000FCF79EFF40F2A460FEF722F9B5F8643057
:105240009B077FF563AFFFF77FFB054A072352F803
:10525000041B79BB013B13F0FF03F8D156E700BFF5
:10526000A8170120F8160120F4160120C417012008
:1052700062180120FCFF0120EFBEADDE1900FF64C3
:10528000EA170120181801202D1701201C170120F2
:105290002C1701202E170120741801207A180120E4
:1052A00070180120761801201417012068180120B9
:1052B000C81701202B78052B18D1EB6ED3F80428E2
:1052C00042F00102C3F804285A6942F008025A6108
:1052D0009A6942F008029A61C820FEF7D1F8EA6E96
:1052E000D2F8043823F00103C2F80438EA6ED2F889
:1052F000043843F00203C2F80438FEF75FF8FCF705
:10530000E5FAEA6ED2F8043823F00203C2F8043852
:10531000FCE699427FF414AFFEF7D6FE514B5A7863
:1053200082B31A78504BDFF850911B78C2EB93038D
:10533000022ADBB289F8023005BF4C4A4C4E4D4E72
:105340005B0814BF4FF4FA6812F8038099F8033031
:105350004BB1002389F80330FBF784FF0023A9F841
:105360000000A9F80430FBF77DFFB9F80030C01A3F
:1053700080B247F6FE72904204D843443E48A9F8F2
:105380000030B047DFF804B100263C4B1B785FFAD1
:1053900086F94B450ED83A4E0022737831789942FF
:1053A00041D1002A4FD0FBF75DFFFDF73BFDFCF735
:1053B000F5FE4CE000214846FBF760FE01218046E7
:1053C0004846FBF75BFE1AF8093048EA4000C0B2D5
:1053D00003F00302904224D040EA8300C0B20AF8EE
:1053E0000900284A00F00F0012F809201BF80030CD
:1053F00013444FFA83F8B8F1030F04DD0021484647
:10540000FCF7F4FA02E018F1030FF8DBD8F1000220
:1054100002F0030208F0030358BF5342194A02F88E
:1054200009300136B1E7F218013303F0030373705A
:105430009378DB094FF00A0114BFA920AA20FEF7D8
:10544000B5F80122A9E7FDF7EDFC002CAFD1FBF781
:1054500063FE0D4B1A7882423FF449AE1870FBF799
:1054600001FF44E6EA17012068180120546A000889
:1054700025100008310F0008E4170120EE17012065
:10548000EF170120EC170120F5170120576A0008DB
:105490004048414A70B5446BA369656945EA0343D6
:1054A00003F0FF13934225D014D8073A934205D056
:1054B0000132934222D0B3F1011F14D1028C130A9E
:1054C00016D003F0060302F00102134343F0F00389
:1054D000236108E0314A934226D0023293422ED013
:1054E0002F4A93424ED015F00A0F18BFA36933E03C
:1054F0002261F8E7038CC3F34703E9E7636823F409
:1055000000736360C36A1B681A6842F001021A6084
:10551000626842F4805262605B68012BE3D82368C2
:1055200023F480632360DEE7636823F40073636021
:10553000036B1A68136843F001031360D3E7236910
:10554000C36A1B685E685EB1038C43F00103038489
:10555000236843F4A0632360BDE87040FDF79EBB61
:10556000636823F400736360236843F4007323606B
:10557000302383F3118831461C30FCF7F7FF86F3A4
:105580001188B0E7FBF786FF636823F4007363605C
:10559000A9E700BFC8180120080003008200070027
:1055A00011000300314B596B70B54C6904F45F4036
:1055B000C0434861186B05682E6826F01F06A2B22A
:1055C0002E602E68F607FCD4467A45683D20B04030
:1055D0002860D86A05682E6826F01F062E602E689F
:1055E000F607FCD4467A45683D20B0402860C2F3F7
:1055F0000020950548BF40F00200986050050BD58B
:105600004D68986825F400754D600D6840F0040001
:1056100045F400750D609860160542BF996841F029
:1056200008019960550442BF996841F020019960D2
:10563000D00442BF9A6842F010029A6021049A682E
:105640000ED542F040029A60302383F31188084857
:105650006FF00101FCF78AFF002383F3118801E05A
:10566000002AF1D1BDE87040FDF718BBC818012031
:10567000E41801202DE9F74F454CE56E6E69AB69E2
:105680001E4016F480586E6100F088802546002781
:10569000022345F8087F2370676606264FF030091D
:1056A000BA4655F8043FABB189F31188D5F80080AC
:1056B000D8F8140020B16FF001010C30FCF756FF50
:1056C000D8F8180020B16FF001010C30FCF74EFF44
:1056D0008AF31188013E2F60E3D1E56E84F84C60B7
:1056E00031462846FCF764F9226FC5F834684FF05C
:1056F00001139768C5F81C384FF000604FF0FF3178
:1057000005EB46130136BE42C3F80009C3F8000B8F
:10571000C3F80819C3F8081BF2D916686E62102383
:105720002B612F6917F01007FBD11220FBF76AFEDF
:10573000D5F8003823F4FE63C5F80038AB6943F4AC
:10574000402343F01003AB610923C5F81038C5F8B6
:105750001438104BE3604FF0C043C5F8103B0E4BBC
:10576000C5F8003BC5F81079C5F8003906F11003FB
:10577000636763681B6846F48016AE6213B1044821
:105780003946984703B0BDE8F04FFDF787BA00BF30
:1057900030170120F464000840800010002E11DA58
:1057A000D5F8003E9B071EBFD5F8003E23F003034B
:1057B000C5F8003ED5F8043823F00103C5F80438D5
:1057C000FBF782FF370533D5A648FBF7ABFE2378FE
:1057D000052B2DD084F868300523237063681B687F
:1057E00013B1A048042198470027DFF87CA2A760E6
:1057F0004FF006094FF0300B5AF8043FABB18BF372
:105800001188DAF80030586930B16FF001010C30BE
:105810000093FCF7ABFE009B986920B16FF001018B
:105820000C30FCF7A3FE87F31188B9F10109E3D12D
:10583000B0040CD5D5F8083813F0060FEB6823F444
:1058400070530CBF43F4105343F4A053EB60310783
:105850001AD56368DB681BB9AB6923F00803AB6139
:105860002378052B0BD1D5F8003E9A071EBFD5F83B
:10587000003E23F00303C5F8003EFBF725FF6368F5
:10588000DB680BB177489847F30243D50021D4F881
:105890006CA00F460AEB4713D3F8002902F440220C
:1058A000B2F5802F2FD1D3F80029002A2BDAD3F8B4
:1058B000002942F09042C3F80029D3F80029002AB9
:1058C000FBDBE06EFCF774F823890122BA4023EA7F
:1058D000020307F10209238104EB89035B689B68DB
:1058E00013B1604839469847302383F3118804EB9D
:1058F00089090021D9F8043058690C30FCF736FECC
:10590000002383F31188236F01379B68FFB29F4206
:105910003946BFD9B70238D5E36E009300274FF060
:1059200001094FF0300ABB46009B03EB4712D2F847
:10593000003B03F44023B3F5802F20D1D2F8003B85
:10594000002B1CDA638909FA07F223EA0203638158
:10595000BB1C04EB83025268D26822B14148019318
:1059600039469047019B8AF3118804EB83035B68F7
:10597000986941680C30FCF7F9FD8BF31188236FAF
:1059800001379B68FFB29F42CED9F00616D5E76E6D
:105990003A6AC2F30A1002F00F0302F4F012B2F5F1
:1059A000802F63D0B2F5402F08D104EB830300228F
:1059B000DB681B6A07F58057904244D13303D5F862
:1059C00018481DD5E70302D50020FDF737F8A503D9
:1059D00002D50120FDF732F8600302D50220FDF761
:1059E0002DF8210302D50320FDF728F8E20202D5A5
:1059F0000420FDF723F8A30202D50520FDF71EF8C9
:105A000077037FF5BFAEE60702D50020FCF792FFD3
:105A1000A50702D50120FCF78DFF600702D5022003
:105A2000FCF788FF210702D50320FCF783FFE2067D
:105A300002D50420FCF77EFFA3067FF5A3AE052068
:105A4000FCF778FF9EE6910708BFD7F80080072A89
:105A500098BF03F8018B02F1010298BF4FEA1828A2
:105A6000AAE700BF3017012038170120023304EBEA
:105A7000830207F580575268D2F818C0DCF8082076
:105A8000DCE9001CA1EB0C0C002188420AD104EBDC
:105A9000830463689B699A6802449A605A68024466
:105AA0005A608BE711F0030F08BFD7F800808C45D0
:105AB00088BF02F8018B01F1010188BF4FEA182865
:105AC000E3E700BF10B50346302282F311880B4C88
:105AD00020686268014491424FF0000206D982F3C7
:105AE00011880C221A604FF0FF3006E08842F6D889
:105AF000216082F311880028F3D010BD68160120C0
