:020000040800F2
:1000000000040020FD020008FF020008FF020008B3
:10001000FF020008FF020008FF020008FF020008BC
:10002000FF020008FF020008FF020008D543000895
:10003000FF020008FF020008FF020008FF0200089C
:10004000FF020008FF020008FF020008FF0200088C
:10005000FF020008FF020008FF020008FF0200087C
:10006000FF020008FF020008FF020008CD47000859
:10007000F5470008214800084D4800087948000865
:10008000A1480008CD480008FF020008FF02000850
:10009000FF020008FF020008FF020008FF0200083C
:1000A000FF020008FF020008FF020008FF0200082C
:1000B000FD460008FF020008FF020008D1580008B2
:1000C000E5590008FF020008FF020008FF020008CF
:1000D000FF020008FF020008FF020008FF020008FC
:1000E000FF020008FF020008FF020008FF020008EC
:1000F000FF020008FF020008FF020008F94800089C
:10010000FF020008FF020008FF020008FF020008CB
:10011000FF020008FF020008FF020008FF020008BB
:10012000254900084D49000879490008A5490008FB
:10013000D1490008FF020008FF020008FF02000882
:10014000FF020008FF020008FF020008B55A00087D
:10015000F9490008254A0008514A0008FF02000832
:10016000FF020008FF020008FF020008FF0200086B
:10017000FF020008FF020008FF020008FF0200085B
:10018000FF020008FF020008FF020008FF0200084B
:10019000FF020008FF020008FF020008FF0200083B
:1001A000FF020008FF020008FF020008FF0200082B
:1001B000FF020008FF020008FF020008FF0200081B
:1001C000FF020008FF020008FF020008FF0200080B
:1001D000FF020008FF020008FF020008FF020008FB
:1001E00072B6374880F30888364880F30988364865
:1001F0003649086040F20000CCF200004EF634713F
:10020000CEF200010860BFF34F8FBFF36F8F40F253
:100210000000C0F2F0004EF68851CEF200010860F6
:10022000BFF34F8FBFF36F8F4FF00000E1EE100A66
:100230004EF63C71CEF200010860062080F314886F
:10024000BFF36F8F02F066FF02F066FF4FF055308C
:100250001F491B4A91423CBF41F8040BFAE71D4974
:10026000184A91423CBF41F8040BFAE71A491B4A6D
:100270001B4B9A423EBF51F8040B42F8040BF8E7BF
:1002800000201849184A91423CBF41F8040BFAE794
:1002900003F05AF803F056F8144C154DAC4203DA4B
:1002A00054F8041B8847F9E704F014FE114C124D72
:1002B000AC4203DA54F8041B8847F9E703F043B86B
:1002C00000040020000C00200000000808ED00E001
:1002D0000000002000040020E0BA0008000C00200C
:1002E000940C0020980C002040190120E001000827
:1002F000E0010008E0010008E001000870E700F0FC
:1003000000F8FEE72DE9F04F2DED108AC1F80CD072
:10031000C3689D46BDEC108ABDE8F08F002383F3CF
:1003200011882846A047002003F0AEF8FEE703F04E
:1003300037F800DFFEE7000053B94AB9002908BFCB
:1003400000281CBF4FF0FF314FF0FF3000F00CB819
:10035000ADF1080C6DE904CE05F0A8FEDDF804E06F
:10036000DDE9022304B07047704700BF844641EACC
:10037000000313F003036DD1403A41D351F8043B1D
:1003800040F8043B51F8043B40F8043B51F8043B6F
:1003900040F8043B51F8043B40F8043B51F8043B5F
:1003A00040F8043B51F8043B40F8043B51F8043B4F
:1003B00040F8043B51F8043B40F8043B51F8043B3F
:1003C00040F8043B51F8043B40F8043B51F8043B2F
:1003D00040F8043B51F8043B40F8043B51F8043B1F
:1003E00040F8043B51F8043B40F8043B51F8043B0F
:1003F00040F8043B51F8043B40F8043B403ABDD27E
:10040000303211D351F8043B40F8043B51F8043B1F
:1004100040F8043B51F8043B40F8043B51F8043BDE
:1004200040F8043B103AEDD20C3205D351F8043BAE
:1004300040F8043B043AF9D2043208D0D2071CBF7A
:1004400011F8013B00F8013B01D30B8803806046A3
:10045000704700BF082A13D38B078DD010F0030319
:100460008AD0C3F10403D21ADB071CBF11F8013B89
:1004700000F8013B80D331F8023B20F8023B7BE7D8
:10048000043AD9D3013A11F8013B00F8013BF9D203
:100490000B7803704B7843708B788370604670479D
:1004A000024B0146186800F02FB800BF000C002076
:1004B000024B0146186800F0C3B800BF000C0020D2
:1004C00070B5104E336805460C46B3B12146284638
:1004D00005F018FD431C0CD0C41C24F00304A042FA
:1004E00005D0211A284605F00DFD013001D0204627
:1004F00070BD4FF0FF34204670BD194605F002FD77
:100500003060E3E7980C00202DE9F041CD1C25F088
:10051000030508350C2D38BF0C25002D82B006468A
:1005200016DBA94214D8354F00F06AF87A68AAB1F0
:10053000144603E06368224683B11C4623685B1BB4
:10054000F8D40B2B21D8A242636855D053600DE03C
:100550000C233360002002B0BDE8F081294630460C
:10056000FFF7AEFF431C044619D00560304600F08B
:100570004DF804F10B00231D20F00700C21A1CBF28
:100580001B1AA35002B0BDE8F0816119A242256098
:1005900014BF51607960635163684B60E6E77B6824
:1005A00023B31C465B68002BFBD1226801931946DC
:1005B000304604EB020805F0A5FC804516D1226800
:1005C000AD1A29463046FFF77BFF01300ED0226876
:1005D0007868019B2A442260426812B90CE01046F8
:1005E0005268A242FBD100234360BFE70C23336073
:1005F000304600F00BF8ADE77B60B7E7980C0020C1
:10060000014800F013B800BFB00C0020014800F012
:1006100015B800BFB00C0020704700BF704700BF86
:10062000704700BF704700BF704700BF704700BFF2
:100630000120704701207047704700BF704700BF1E
:10064000002950D038B551F8043C0C1F002BB8BF1E
:10065000E4180546FFF7D4FF274A13682BB1A342DD
:100660000CD92168601883422CD06360284614603E
:10067000BDE83840FFF7CABFA3420FD81A465B68EF
:10068000002BF9D111685018844217D02CD3636025
:1006900054602846BDE83840FFF7B8BF11685018CD
:1006A000A04214D020D8216860188342EFD1186886
:1006B0005B680844C4E900035460EAE723680B441C
:1006C0001360E6E718685B6808442060CDE720689F
:1006D0000144501883421160DBD1D3E90004014486
:1006E000C2E90014D5E770470C232B602846BDE80B
:1006F0003840FFF78BBF00BF9C0C0020830730B54C
:1007000047D0541E002A3ED0CAB2034601E0013C45
:1007100039D303F8012B9D07F9D1032C2CD9CDB285
:1007200005EB05250F2C05EB054535D9A4F1100285
:1007300022F00F0C03F1100EE6444FEA121C1A4689
:10074000156055609560D56010327245F8D10CF196
:10075000010214F00C0F03EB021204F00F0C13D083
:10076000ACF1040323F003030433134442F8045BA5
:100770009A42FBD10CF003042CB1C9B21C4403F81B
:10078000011B9C42FBD130BD64461346002CF4D1C2
:10079000F9E703461446C0E71A46A446E0E700BF5F
:1007A00001F0FF01102A2BDB10F0070F08D010F822
:1007B000013B013A8B422DD010F0070F42B3F6D126
:1007C000F0B441EA012141EA014122F007047FF03F
:1007D00000070023F0E80256083C85EA010586EA96
:1007E000010685FA47F5A3FA87F586FA47F6A5FAD2
:1007F00087F68EB9EED1F0BC01F0FF0102F00702DE
:1008000032B110F8013B013A83EA010313B1F8D188
:100810000020704701387047002D06BF3546033869
:10082000073815F0010F07D1013015F4807F02BFA2
:10083000013015F4C03F0130F0BC0138704700BFF3
:10084000032A70B511D940EA01039B071FD1044662
:100850000B4602E0043A032A1DD91946204653F8F4
:10086000045B54F8046BAE42F4D0541EB2B1421E85
:10087000013901E0C3180CD012F801EF11F801CFD3
:10088000E645A4EB0203F5D0AEEB0C0070BD541EA0
:10089000EDE7184670BD20461946E6E7104670BDE4
:1008A000A0F58072B2F5F85F10B4034622D213F4BB
:1008B000805F00F4007403F48062C0F3002003F44E
:1008C00000630CD000010CB140F020000AB140F0F0
:1008D00040000BB140F080005DF8044B08470CB1BC
:1008E00040F002000AB140F00400002BF4D040F0C8
:1008F0000800F1E70020EFE7034A01231188834055
:100900000B431380704700BFB8180120034A01232E
:100910008340108820EA030010807047B818012037
:1009200001F0070330B5C908012402EB81029C40A5
:10093000E4B2013A002112F8015F20FA01F343F317
:1009400000036B40234001315D4004291570F2D152
:1009500030BD10B5002200F00704C00801EB800193
:1009600010468B5CE34003F00103934001321843CF
:10097000042AC0B2F5D110BD17B40C46C1B2C0F301
:10098000072006280BD810290FD801EB0011094ABF
:100990000144204603B05DF8044BFFF7C1BF031DBF
:1009A000DBB2012B01D8044AF3E703B05DF8044B36
:1009B000704700BF4C18012048180120C3B2C0F393
:1009C0000720062882B008D8102B0DD803EB00139F
:1009D0000749184402B0FFF7BCBF0430C0B2012879
:1009E00002D804491846F5E7002002B0704700BF5E
:1009F0004C18012048180120054B064A1B78127834
:100A00009A4200D17047013303F00703F8E700BFB3
:100A1000BC180120BB180120CBB2C1F30721062965
:100A200082B00AD8102B1AD8B8B901EB01111944B9
:100A30000C4B33F8110002B07047FD2906D173B991
:100A4000002847F6416018BF0120F4E7FC2906D1D1
:100A50002BB9002847F64060F5E70120EBE70020BE
:100A6000E9E700BFA8B90008E72850D8DF2807D871
:100A7000312865D00ED8292858D02A2867D0704749
:100A8000A0F1E003072B42D8DFE803F01541242949
:100A900033413D42392804D0822802D0352840D045
:100AA0007047334B1A7892075CD15B7813F0080FCC
:100AB00018BF292070472E4A1378D9074ED4527890
:100AC00012F0010F23D013F0100F08BFE32018BF5E
:100AD00000207047264B1B7813F0040FF2E7244ADE
:100AE000137859073CD45278D2073BD413F0100F37
:100AF000EDE71F4B5A78910709D51B7813F0100FBB
:100B000008BFE720E3E71A4B1B781A07F6D47047B3
:100B1000174A1378190727D452789107E6D5E420AD
:100B20007047134B1B7813F0200FC1E7104B1A7856
:100B300092061BD45B7813F0080F18BF392070475A
:100B40000B4B1B7813F0400F18BF2A207047084B3F
:100B50001B7813F0400F18BF3120704739207047C1
:100B6000E2207047E0207047E62070473520CEE74E
:100B70009E18012010B52F4C21784B0713D500F09B
:100B80001402A2F1040C00F01803DCF1000242EBA5
:100B90000C02A3F1080CDCF1000343EB0C039A42B6
:100BA00018BF80F00C000B0713D500F01402A2F15F
:100BB000140C00F01803DCF1000242EB0C02A3F16C
:100BC000180CDCF1000343EB0C039A4218BF80F0D1
:100BD0000C006478E30713D500F0110202F1FF3C2A
:100BE00000F01803DCF1000242EB0C02A3F1080C48
:100BF000DCF1000343EB0C039A4218BF80F00900BC
:100C0000A30711D500F0110200F01803A2F111049E
:100C10006242A3F1180C6241DCF1000343EB0C03C8
:100C20009A4218BF80F00900CB0648BF00F0E700E9
:100C300010BD00BF9E18012038B5FFF715FFB0F5B5
:100C4000A04F044635D2B0F5804F80F09D80DF285C
:100C500013D9B0F5005F25D3C0F30420FFF78AFF56
:100C60000546E0B2FFF700FF2D0205F4F8550543F5
:100C700045F40055ACB2204638BDCC2873D8A7281F
:100C800009D8A42861D80128F5D0031F9BB2A12B55
:100C900028BF0024EFE7A0F1A8039BB21A2B5AD972
:100CA0000024E8E7FF2861D8A0F1E0039BB2082BFD
:100CB000EEE745F25F23984220D845F23F23984261
:100CC00077D845F21F23984206D900F01F044AF254
:100CD000F10343EA0424CEE7B0F5A44F5DD200F05F
:100CE0001F00FFF747FFC30676D4C4F3431400B2D6
:100CF00040EA042040F4104084B2BCE745F2BF2330
:100D0000984214D845F29F2398425DD8A0F5A44399
:100D1000603B9BB21F2BC3D800F003040123C0F338
:100D20008202A34043EA421343F40A433FE0A0F5A2
:100D3000A543403B9BB21F2BB2D8040204F4F854E5
:100D400044F4204444F0F00495E7A0F1240444F472
:100D50008044A4B28FE75834204BE4B233F81440F7
:100D600044F4884487E740F4A044F2E7C0F3072046
:100D7000FFF700FF0546E0B2FFF776FE2D0205F40F
:100D8000F85540EA0504E4E7C0B2FFF76DFE04F44D
:100D90007064044344F42044DBE700F003040123BF
:100DA000C0F38502A34043EA421343F40D439CB2CF
:100DB00061E700F003040123C0F38202A34043EA89
:100DC000421343F40C43F2E700F01F00FFF7D2FE9A
:100DD000040204F4F8544EE7000186E796BA0008CE
:100DE0007FB5114BADF804001D88104B1B881D43C7
:100DF000ADB20F2445FA04F3DB0705D4013CF9D268
:100E00000026304604B070BDBDF80430ADF80C309B
:100E1000E6B203993046FFF7FFFDFFF70DFF80B202
:100E20000128EBD0EDE700BFB8180120B61801206B
:100E300013B502884379ADF80420019873B169B104
:100E4000FFF7CEFF044601460198FFF795FD019993
:100E5000204602B0BDE81040FFF7DEBDFFF7AEFD53
:100E60000446F4E71FB5ADF804000198FFF7B8FF9A
:100E7000BDF80430ADF80C300399FFF7CDFD05B097
:100E80005DF804EBFFF7D8BE08B503460079A8B1BA
:100E90001888FFF7E7FFC3B2C0F30330062813D06A
:100EA00094BF0E30063000F00F00012810D8F02B50
:100EB00010D004D8E72B8CBF0020012008BDF42BF4
:100EC00014BF00200120F9E7E72B03D9F12BF7E746
:100ED0000020F3E70120F1E7002070470020704771
:100EE000704730BFFDE70000F0B5234CA45C00293B
:100EF0003FD000EB4005FF226D00B5FBF2F56FF02F
:100F000054026A4302EB400000EB4000C0B2C0F163
:100F1000FF0211FB00F64A4336121212C1F1FF071D
:100F2000C6F1FF06C2F1FF02674366436243C7F39F
:100F30000727C6F30726C2F30722062D14D8DFE8D9
:100F400005F004060C0A0F130400264614465E70D2
:100F50001C709F70F0BD224634463E461746F6E7A9
:100F6000164622463C46F9E722463C463746164698
:100F7000EDE727462646EAE74CB70008084A13780B
:100F8000032B09D8012161F387031370D378782BE1
:100F900084BF7823D37070471F2BF7D90721F2E75E
:100FA000A8180120094B1B7813F0010309D1084A46
:100FB00019460133662B51701170917002F10302D2
:100FC000F7D10348662103F0D5BD00BFA818012062
:100FD000D014002070B5114B114E04460025F27854
:100FE0002079B178782A284405F1020528BF7822B3
:100FF000C0B2EDB2FFF778FFCC2D03F10303EED1C1
:10100000FFF7D0FFA37813F0010F237914BF01334A
:1010100003F1FF335BB2237170BD00BFD014002019
:10102000A818012000B1104708470000144BF0B584
:101030001A68144D144E521B93B211FA82F2B2F593
:10104000806FC4BFC3F5806189B23488002219441F
:101050004FF0010C8B4202DB02B13480F0BD10F87E
:10106000017B15F803E0BE4506D09A090CFA02F29E
:101070002243EF5494B2012201339BB2EAE700BF4E
:10108000CC100020D0100020CA100020064A074BC8
:10109000002918BF134623F00F0203F00F03106955
:1010A000D84000F0010070470A0402400F000240DF
:1010B0001C4970B507220126202406FA02F30340DA
:1010C0000C8319D00023072B06D14C830023032B5C
:1010D0000AD1013AF1D270BD00BF00BF00BF00BF0E
:1010E00000BF00BF0133EEE700BF00BF00BF00BF7D
:1010F00000BF00BF0133EAE71D46032D0AD14C8330
:10110000072BE6D000BF00BF00BF00BF00BF00BF7D
:101110000133F5E700BF00BF00BF00BF00BF00BF45
:101120000135EAE70000024002B1104770470000B5
:10113000024B186808B10368184770473C18012033
:101140000B4B07B51A8882420ED01880094B1B68DA
:1011500053B103228DF80500000A8DF806001B69C3
:101160008DF8042001A8984703B05DF804FB00BF88
:101170007A1000203C1801200B4B07B51A888242D8
:101180000FD01880094B1B685BB104228DF8050055
:10119000000A8DF806001B698DF804200DEB020093
:1011A000984703B05DF804FB781000203C1801203C
:1011B00010B5164B1B7893B1154B93F90030002BEB
:1011C0000DDAEF284FEAD00308D8124A1A4400F08B
:1011D00007009178012383400B43937010BD0E49A3
:1011E00000224FF0FF3311F8014FA042F6D0B3F1C7
:1011F000FF3F01D104B953B20132062AF3D15A1C80
:10120000ECD0064A13449870E8E700BF740C002045
:101210009E180120201000204110002040100020C6
:1012200010B5124B1B789BB1114B93F90030002B7A
:101230000EDAEF284FEAD00209D80E4B134400F023
:1012400007009A780121814022EA01029A7010BDBC
:101250000023094A194612F8014F01338442DBB2D8
:1012600008BF1170062BF6D1F1E700BF740C002007
:101270009E180120201000204110002070B530235E
:1012800083F311884FF08043114812495C6A036868
:101290000A68E41AA242104A0AD9A3F58333E03B54
:1012A000036010680D4B04F583340344E03413608D
:1012B0000C601668002181F311880948094A4FF42F
:1012C0007A750023E4FB0501FFF736F8304470BD62
:1012D000101701200C1701200817012088598F02D0
:1012E0009F860100A0860100BFF34F8F0549064B82
:1012F000CA6802F4E0621343CB60BFF34F8F00BFB4
:10130000FDE700BF00ED00E00400FA0510B5244A37
:101310000023536090F85F4090F85E1041EA04218A
:1013200090F8604090F8610044EA00200C0A032C19
:1013300016D005D8012C0ED0022C2DD018461BE05B
:10134000212C1BD0222CF9D1E8B10128F6D1154B64
:1013500053608B2302E0144B5360122310460BE0C2
:10136000C9B20229EAD8114B53F82100104B506042
:1013700000285B5C18BF1046136010BD38B101280F
:10138000DCD10C4B04E00C4B53604423E6E70B4BE1
:10139000536003480923EFE7094B53603B23DDE724
:1013A0007010002008B2000812B3000828B300082B
:1013B00024B3000802B3000893B20008E9B20008A1
:1013C000D7B200087047000090F8622090F86300E0
:1013D000084942EA0022022A0B7807D1012B01D0EA
:1013E000062B05D1044B4A781A707047024A1370D5
:1013F000704700BF6C10002069100020302383F379
:101400001188002383F3118870470000014B18787E
:10141000704700BF6910002070470000034A516800
:1014200053685B1A9842FBD8704700BF001000E079
:10143000C27A53099B0003F1604310B503F5614381
:1014400002F01F04012101FA04F4C3F88040C3F83C
:10145000804102F1604303F56143002283F80023D9
:10146000837A104A9940136823EA01031360DAB2C1
:101470004AB90D4A116B21F400111163116D21F469
:1014800000111165126D13F47F4F09D1064B1A6BD1
:1014900022F480021A631A6D22F480021A651B6D11
:1014A00010BD00BF0416012000380240436B4FF40A
:1014B00000421A6000221A605A605A61036B1A686F
:1014C000116821F01F0111601168C907FCD4597A15
:1014D0005A683D238B401360C36A1A68116821F073
:1014E0001F0111601168C907FCD4597A5A683D235D
:1014F0008B4013607047000011F00C0F10B5446B67
:1015000004D072B60B4B0C4ADA65FEE7036B1A681F
:10151000116821F01F0111601168C907FCD4597AC4
:101520005A683D238B401360636843F40073636023
:1015300010BD00BF901601204C630008036F70B50A
:10154000C46E9E6800224FF0FF3504EB4213510138
:10155000D3F800090028BEBFD3F8000940F080404E
:10156000C3F80009D3F8000B0028BEBFD3F8000B66
:1015700040F08040C3F8000B01326318B242C3F858
:101580000859C3F8085BE0D94FF00113C4F81C38C0
:1015900070BD00EB810370B5DD68C36E6C692668B1
:1015A00026614A014EBB1A444FF40020C2F81009CC
:1015B0002A6802F00302012A0AB20ED1D3F8080801
:1015C00003EB421410F4807FD4F8000914BF40F0FC
:1015D000805040F00050C4F8000903EB4212D2F8EA
:1015E000000940F00440C2F80009D3F83408012291
:1015F0008A400243C3F8342870BD19B9402E84BF15
:101600004020206020682E8A8419013CB4FBF6F447
:1016100040EAC44040F000501A44C7E7F0B400EB81
:1016200081040789E468012564698D403D43058193
:1016300023600023A2606360E360F0BCFFF7A9BFF2
:1016400010B590F84C30142B04462DD01CD8062B26
:1016500005D001D81BB110BD093B022BFBD8E36EAE
:10166000D3F8002942F40012C3F80029D3F8002B64
:1016700042F40012C3F8002B63681B6813B1062103
:1016800020469847062318E0152BE4D10B2380F859
:101690004C30302383F3118800231A461946FFF794
:1016A000BDFF81F31188D6E7C3689B695B68002B97
:1016B000D1D1836D03B19847002384F84C30CAE739
:1016C0004B6843608B688360CB68C3600B69436180
:1016D0004B6903628B6943620B68036070470000CB
:1016E00005480178052906D190F8683003704368F1
:1016F0001B6803B1184770475017012010B5C46824
:10170000A26913681361402B84BF402313601168E2
:10171000638AC26E19440139B1FBF3F14B430333C1
:1017200023F0030343EAC14343F0C043C2F8103B34
:10173000236803F00303012B0CD1D2F8083813F40B
:10174000807FD2F8003B14BF43F0805343F0005336
:10175000C2F8003BD2F8003B43F00443C2F8003B20
:1017600010BDC36810B444899B6944F001044481EE
:101770001A6000225DF8044B99605A60DA60FFF746
:10178000BDBF10B590F84C300446002B40D0063B4E
:10179000DAB20F2A36D80F2B34D8DFE803F039330A
:1017A000330825343333333333333333393990F813
:1017B000623090F86320416D43EA0223994213D2CC
:1017C000C3681B8AB1FBF3F203FB121161B930232A
:1017D00083F311880B460A46FFF720FF81F3118837
:1017E0000A2384F84C300DE0142384F84C30302365
:1017F00083F31188002211462046FFF7B2FF002331
:1018000083F3118810BD836D03B198470023E8E787
:10181000E36ED3F8002942F40012C3F80029D3F88C
:10182000002B42F40012C3F8002B63681B6813B14D
:101830000621204698470623D3E70000F0B5254E41
:101840000124376884403C42024640D106EBC20C7A
:101850003C43CCF804102049CCF808101F493460F0
:101860000C6B1F4B44F400140C630C6D0C254543AA
:1018700044F400140C65096D59590C6824F01F04D8
:10188000E8180C600C6814F00104FBD10C2505FB72
:1018900002333D225E7A5D68DB7AB2402A60212203
:1018A0000C604A6103F1604202F56142502182F806
:1018B000001303F01F015B099B0003F1604303F574
:1018C000614301228A40C3F880211A60F0BD0020E4
:1018D000FCE700BF0416012008190120003802406F
:1018E0004CB8000870B5302383F311882F4D304B6E
:1018F0006B602B780022012BEA602A616A61AA6181
:10190000EA612A624CD12B4BEC6E596B41F080019D
:101910005963596D41F080015965596D596941F01C
:1019200080015961596921F0800159615B69224B3D
:10193000E02183F843130821C3F8881199601F4BF5
:10194000E3601F4BC4F80038C023C4F8002E2360A6
:101950004FF48033A3632369002BFCDA0123236156
:101960000C20FFF75BFD2369DB07FCD41220FFF797
:1019700055FD2369002BFCDA00260C48A660FFF712
:10198000DDFD104BC4F81068C4F81468C4F81C6876
:10199000A3614FF0FF336361A36843F00103A360C9
:1019A00002232B70002383F3118870BD5017012090
:1019B00084B900080038024000E100E04014004013
:1019C00003002002083C30C0890141F02001016180
:1019D00003699B06FCD41220FFF720BD10B5064A10
:1019E000064C117824784B1C03F00F039C421EBF59
:1019F000034C1370605410BD4D1701204C1701208B
:101A00003C170120F0B50D4B0D4C1B7826780D4C82
:101A1000B34201D10020F0BD04EBC3056F788F42C3
:101A200006D114F83370874202D16D79954203D103
:101A3000013303F00703EBE70120ECE7BC180120BA
:101A4000BB180120BE18012010B51B4B1B4A1B7888
:101A5000127813431A4A1278DAB11A4A92F900201E
:101A6000002A16DA184C1949637020222046FEF726
:101A7000E7FE00B3154820222146FEF777FC144B01
:101A80001B68C3B106229B6822702046BDE8104047
:101A90001847104C1049237008222046FEF7D0FE4C
:101AA00048B10D4808222146FEF760FC084B1B6830
:101AB0000BB15B68E9E710BDBA180120B41801202A
:101AC000740C00209E180120201000201C180120FA
:101AD0003C180120401000204018012028B1034B81
:101AE0001A7810431870FFF7AFBF7047B418012081
:101AF00030B1044A137823EA00031370FFF7A4BF40
:101B0000704700BFB418012028B1034B1A78104366
:101B10001870FFF799BF7047BA18012030B1044A16
:101B2000137823EA00031370FFF78EBF704700BFDE
:101B3000BA180120842808B503460BD14720FFF7C7
:101B400037FBFFF781FF4720FFF76AFBBDE808403E
:101B5000FFF77ABF021FD2B2A02AF5D900F1200206
:101B6000D2B2072A09D80F4900F0070301229A4090
:101B70000B7823EA02030B70E8E700F15B02D2B2B4
:101B8000022A04D8BDE808400020FFF7D9BA58332C
:101B9000DBB21A2B04D8BDE808400020FFF7ECBAEE
:101BA00008BD00BFB418012008B5D0B182280BD100
:101BB0003920FFF7FDFAFFF747FF3920FFF730FB29
:101BC000BDE80840FFF740BF832806D15320FFF748
:101BD000EFFAFFF739FF5320F0E7BDE80840FFF7C1
:101BE000A9BF08BD10B50446C0B2FFF7DDFFA4F1E0
:101BF000E003072B00D92CB903492046BDE810406B
:101C0000FEF74EBE0149F8E7F11A00081D1B000857
:101C100010B5026981690446FFF786FA054AE17842
:101C2000137823EA01031370FFF70EFF00232360EC
:101C3000A38010BDBA18012003799A0710B5044695
:101C40000ED40D4A43F0020311780371C3780B439D
:101C50001370FFF7F9FEE268A1692046FFF764FA06
:101C6000064B00221A802379DB0704D42046BDE806
:101C70001040FFF7CDBF10BDBA1801209818012001
:101C800002484FF6FF720021FEF738BD041600200F
:101C900008B5074B4FF4806218460021FEF72EFD71
:101CA000044A054B10604FF6FF721A8008BD00BF52
:101CB000D0100020CC100020CA10002070B5184CA5
:101CC000237863B3174D2E88FFF7D8FA801B80B2B4
:101CD000962824D9FFF7D2FA134A1378132180B239
:101CE00001332860B3FBF1F001FB103313700F4A8E
:101CF00032F813100E4A52F82300FFF797F90D4BF4
:101D00001D68FFF7BBFA0C4B401B984207D9002314
:101D10002370FFF7BDFFFFF7B1FA084B186070BDE5
:101D2000750C0020481000203517012098AF0008DE
:101D3000C0AF000894180120C027090090180120A6
:101D4000084B1B784BB1084B93F90030002B04DA99
:101D500006481E220021FEF7D1BC054806220021BC
:101D6000F9E700BF740C00209E180120221000200B
:101D7000421000202DE9F84300EB810681465069AE
:101D8000F2600C4615460FB218B114220021FEF77E
:101D9000B5FCA86918B114220021FEF7AFFCF36866
:101DA000D9F86C501E6806F00306721E022A05EB75
:101DB00044124FF00001C2F8101B04F110014FF063
:101DC000010298BFB60402FA01F299698EBF344E3F
:101DD00006F1805606F50046600100293CD0B3F8B4
:101DE00012C004F1580149014CEA060C45F801C043
:101DF000D5F81C180A43C5F81C282A180021C2F877
:101E000010195A694FF00108611E08FA04F882B3EC
:101E10001F8A9B8BBA08012B88BF5A43D9F87430AC
:101E2000D01843EA024201F1400305EB8303214647
:101E300047EA845748346401C9F8740037435A604C
:101E40002846FFF7C1FD2F51D5F81C3848EA030397
:101E5000C5F81C38BDE8F88305EB471CDCF8001B0F
:101E600021F40041CCF8001BD5F81C1821EA02022D
:101E7000C1E704F13F0305EB83030A4A5A6005EB0F
:101E8000471721462846FFF79FFDD7F8003923F46E
:101E90000043C7F80039D5F81C3823EA0803D7E710
:101EA000008000100004000210B504460846052911
:101EB00021D8DFE801F01A20031A1A1E302383F319
:101EC00011880D4A20460121FFF754FF0B4A0221D9
:101ED0002046FFF74FFF002383F31188084B1B7840
:101EE00013B10520FFF77AFD0220BDE81040FFF78F
:101EF00075BD0520F9E710BDE4B10008C0B10008C8
:101F00004E17012070B50D46144600210646FEF717
:101F1000F5FB6319B3F5803F03D3C5F57F44FF3468
:101F20003CB10449224629443046BDE87040FEF7E2
:101F30001DBA70BD0416002007B50023014601221A
:101F40000DF107008DF80730FFF7DCFF9DF8070063
:101F500003B05DF804FB07B50023014602220DF132
:101F60000600ADF80630FFF7CDFFBDF8060003B060
:101F70005DF804FB13B5042200230DEB02000821D9
:101F80000193FFF7BFFF2420019CFFF7D5FF014617
:101F9000204602B010BD00000B465118B1F5803F3D
:101FA00003D3C3F57F42FF3222B1014602481844F1
:101FB000FEF7DCB9704700BF0416002037B50C46A9
:101FC0000546FFF7B9FFA04207D0012229460DF1CF
:101FD00007008DF80740FFF7DFFF03B030BD37B5CE
:101FE0000C460546FFF7B7FFA04207D0022229465C
:101FF0000DF10600ADF80640FFF7CEFF03B030BD8F
:1020000037B5042200230D46044601460DEB0200BD
:102010000193FFF777FF019B9D4206D004222146E2
:102020000DEB02000195FFF7B7FF03B030BD10B50F
:102030000C46FEF7A3FF01460820FFF7E1FFE1B2DF
:102040002420BDE81040FFF7B9BF000008B5084BD9
:102050001A786FF300021A70D3E90001FFF7E7FF67
:10206000044B00225A70BDE80840FEF79BBF00BF3A
:10207000A81801200A180120044A13790BB1013B6A
:102080001371D2E90001FFF7D2BF00BFA8180120E9
:10209000044A1379022B9CBF01331371D2E900016A
:1020A000FFF7C5BFA81801202DE9F743204C25787C
:1020B0001646EA0707468946984636D51D4AAB08B4
:1020C00005F0FC05D35C1C4A042D137029D1782E31
:1020D00001AB324628BF7822FEF706FF2378DB07E4
:1020E00011D59DF805009DF804109DF80620134DAC
:1020F00000230133662B68702970AA7005F103056F
:10210000F7D1FEF74FFF677084F80290E670B8F1E0
:10211000000F0AD0D4E9000103B0BDE8F043FFF797
:1021200086BF022B08BF6778EDE703B0BDE8F083F8
:10213000A818012044B700080A180120D014002074
:1021400004494878CA78897808300123C0B2FFF77B
:10215000ABBF00BFA818012004494878CA78897825
:1021600008380123C0B2FFF79FBF00BFA8180120A5
:1021700005488178C27840781131FF2928BFFF21B6
:102180000123C9B2FFF790BFA81801200548817844
:10219000C2784078113921EAE1710123C9B2FFF711
:1021A00083BF00BFA81801200548C2788178407815
:1021B0001132FF2A28BFFF220123D2B2FFF774BFDA
:1021C000A81801200548C27881784078113A22EA9F
:1021D000E2720123D2B2FFF767BF00BFA818012047
:1021E00070B5194C2378DB072CD508B3072821D804
:1021F00000F03F00237860F38703237019B1D4E91E
:102200000001FFF714FF21781048114D01228908C1
:10221000FEF7C6FA0F4B78B100225A700123EB701B
:10222000E278A17860780023BDE87040FFF73CBFFA
:102230000120DFE70720DDE701225A70FFF71EF8D3
:102240002880EBE770BD00BFA81801205B0C0020C0
:10225000041801200A180120044B187840F00100EE
:10226000187001218008FFF7BBBF00BFA81801202C
:10227000054B18788008013008284FF0010128BF6D
:102280000846FFF7ADBF00BFA8180120064B18781D
:10229000C0F38500013810F0FF004FF0010108BFC6
:1022A0000720FFF79DBF00BFA8180120084B1B782F
:1022B000DA0708D5C3F385033E3303F03F03042B4D
:1022C00001D8FFF7D5BF01210220FFF789BF00BF6A
:1022D000A818012008B50A46642301467A2003F0B5
:1022E00069FEB0FA80F0400908BD0000074B1B787A
:1022F00010B54BB1064C237833B106480221FFF7E5
:10230000E9FF08B10023237010BD00BFC8100020F2
:10231000881801200EB000080A4B1B7810B583B155
:10232000FEF7ACFF084C094B00F56A4060301860BE
:10233000237833B906480221FFF7CCFF08B1012307
:10234000237010BDC810002088180120C410002080
:102350000CB000082DE9F04F724E337885B0002B99
:1023600000F0DC80704B714C1C60714B1B78A3B18A
:10237000FEF7DEFE6F4B704D1978C0F340029142BC
:1023800064D01A70002A5CD000232B70FFF780FC09
:102390006A484FF48061FEF749FE694F3B88002B85
:1023A0003DD03378002B3AD0664B1D78002D36D1C6
:1023B000FFF7B2FF398891B32A46D6B241FA06F048
:1023C000C007134602F10102F7D55F4D2A78D20704
:1023D000DBB255D49B01710803F0400303F13F02C7
:1023E0000F465A488171072183704771C270FFF709
:1023F00071FFA0B12B78DB074FEA861747D464231F
:102400000093E219402319467A2003F007FE30B901
:102410004B4901220B88B24023EA02030B80444B54
:102420001B78002B7AD0FEF729FF494B1B68C01A96
:102430006FF00043984271D205B0BDE8F04FFFF74E
:1024400055BFFFF725FC01232B70A6E795F8008008
:10245000B8F1000F11D13F4FD7F80090FEF70EFFF3
:102460003D4BA0EB0900984297D901232B70FEF752
:1024700005FF3A4BC7F800801860FFF71FFC8CE798
:10248000DB00DBB2DA1DD2B200270721A9E734480E
:10249000DFF8D0B0DFF8D0A040220021FEF72EF9FF
:1024A00000201BF8013B214A3B4413441AF8012B3E
:1024B00003932B4B013A1A4400240123C4F107086B
:1024C00003FA04F912F801EF5FFA88F85FFA89F964
:1024D0000025039B595DA8EB050309EA010103F000
:1024E000070301FA03FC5B4203F00703D9404CEAFF
:1024F000010C01354EEA0C0C082D5FFA8CFEE8D178
:102500000134082C82F800E0D7D10130C0B208288D
:10251000C7D164230093124A402374E705B0BDE895
:10252000F08F00BFC8100020CC100020D010002079
:10253000881801207E100020750C002034B300089C
:10254000CA100020C0100020BF100020540C002032
:10255000C41000209018012040771B00941801201F
:102560007F1000203CB7000834B7000810B503689E
:102570009C68A2420CD85C688A600B604C60216049
:1025800059609968891A99604FF0FF33836010BDD4
:102590001B68121BECE70000022910B538BF0221AE
:1025A00002234FF0804442186263626A101A81422B
:1025B00003D8591C0B461046F5E7022B81BF034A8E
:1025C000D36A43F00103D36210BD00BF901601200F
:1025D000194A1369984210B40FD00368416884689F
:1025E0000B605960996821449960002303604FF0A3
:1025F000FF3393615DF8044B70471346016843F85D
:10260000101F00244B6004601169994203D14FF000
:102610008043DC60EEE78B68806803448B604FF09A
:102620008041486AD169421A9342E3D9091A5DF898
:10263000044B1944FFF7B0BF9016012070B5134D3D
:1026400005F11003E96143602B698260022A03608F
:1026500038BF0222586028614FF080408B184363D6
:10266000002303610223C360446A661A964205D3BD
:102670005A1C1144416313462146F5E7022B82BFE1
:10268000EB6A43F00103EB6270BD00BF90160120BE
:10269000F8B5114F3C464FF0804354F8106F5B6A19
:1026A000A64205460A4604D11946BDE8F840FFF7A0
:1026B000C5BFFC69B2681C1B0C1928BF0C46A2429E
:1026C00002D91846FFF768FF224629460348BDE8AD
:1026D000F840FFF74BBF00BF90160120A016012065
:1026E00070B5094C236805460E4613B12046FFF726
:1026F0006FFF064BE36000232661636129460248B1
:10270000BDE87040FFF7C4BFF01601206D28000837
:1027100038B590F85C2002F07F03212B044679D174
:1027200012F0800F90F85D302FD0022B29D0032BB0
:102730001CD0012B6ED190F8603090F8612053EAE4
:10274000022306D1414A026508226265A365012081
:1027500038BD3F4B90F85E201A7090F862200365F8
:1027600090F8633042EA03220023EEE790F86030ED
:1027700090F8611053EA01234CD1364A02650122D8
:10278000E3E7354B03650122EEE70A2B39D00B2B2B
:1027900010D0092B01D00020DAE790F8603090F8D3
:1027A000612043EA0223012BF5D82C4B036502225A
:1027B0002B4BCAE790F8603090F8612053EA02236F
:1027C0001CD190F85E50234B1D70BDB9224B1A7876
:1027D000A2B1302282F311881878224BA0FB0303A8
:1027E0004FF47A72002300F2E7300021FDF7A4FDD8
:1027F00021468000FFF774FF85F3118800222265CF
:10280000B2E71949144B097890F85F201A70CD0986
:10281000F4D1DDE702F09F02812ABCD194F85D304B
:10282000062BB8D194F86120616894F860304D6847
:1028300094F85E1043EA0223204694F85F20A847EC
:102840000028A8D04368026823658DE76110002046
:1028500059100020740C0020581000206C1000202B
:10286000C9130008A08601009E18012038B50C4647
:10287000302383F311880B78042B03D0002383F3D8
:10288000118838BD124B1B78DB09F7D1114D2B781D
:10289000002BF3D0104B1B78002BEFD00B899B073C
:1028A00005D40E4A082301212046FEF7B7FE2878FA
:1028B0000B4BA0FB03034FF47A72002300F2E730C6
:1028C0000021FDF739FD21468000FFF709FFD5E71C
:1028D0009E18012058100020740C00206110002068
:1028E000A086010000230375826803691B6899684C
:1028F0009142FBD25A680360426010605860704792
:102900000346006820B100221A608161FFF7EABF28
:102910007047000011F00C0F38B5436B04D072B64D
:10292000144B154ADA65FEE7C26A11680C6824F098
:102930001F040C600C6814F00104FBD1557A516837
:102940003D22AA400A605A6822F480525A601A68EE
:1029500022F480621A601A6842F400721A6030230E
:1029600083F3118821461C30FFF7CAFF84F31188D6
:1029700038BD00BF901601204C6300082DE9F843D4
:1029800090F84C30044613B1002380F84C3004EB2F
:1029900081010822CB6804F15C00196AFDF7E6FCAE
:1029A00063689B68E3B994F85C3013F060053ED02F
:1029B000E36ED3F8002942F40012C3F80029D3F8DB
:1029C000002B42F40012C3F8002B63681B6813B19C
:1029D000062120469847062384F84C30BDE8F8834A
:1029E000204698470028DED094F8632094F862309F
:1029F00043EA0223626D9A4288BF636594F95C30B2
:102A0000656D002B4FF0300380F24081002D00F007
:102A10003081092284F84C2083F31188636D226D84
:102A200000212046FEF7FAFD81F31188D6E794F8DD
:102A30005D2003F07F0343EA022340F20232934217
:102A400000F0FB8021D8B3F5807F4DD00DD8012B4D
:102A500044D0022B00F0BE80002BA9D104F1640207
:102A6000226502226265A365BEE7B3F5817F00F0AF
:102A7000C580B3F5407F9BD194F85E30012B97D190
:102A8000B4F8643043F0020337E0B3F5006F58D078
:102A90001CD8B3F5A06F36D0A3F5C063012B87D83F
:102AA00094F86120616894F860304E6894F85F1083
:102AB00043EA0223204694F85E20B04700283FF402
:102AC00077AF43682365036863651AE0B3F5106F59
:102AD0003CD040F6024293427FF46AAF774B2365C5
:102AE000022363650023BEE794F85E30012B7FF478
:102AF0005FAFB4F8643023F00203A4F864302565B6
:102B00006565A56570E7B4F85C30B3F5A06F14D1C6
:102B100094F85E10E26E84F86610D2F8003823F460
:102B2000FE6343EA0113C2F8003863681B6813B1FF
:102B30000121204698470323237000232365636502
:102B400091E704F1670323650123BDE72378042B94
:102B500030D1302383F31188A36803F00113A360FD
:102B600004F10C0604F12009A84656F8047F6FB161
:102B7000786920B16FF001010C30FFF7C1FEB86930
:102B800020B16FF001010C30FFF7BAFEB14535609E
:102B9000EBD1236F1B6863672046FEF7CFFC88F3F9
:102BA00011880321636884F8675021701B680BB19A
:102BB0002046984794F85E30002BBED084F86730EA
:102BC0000423237063681B68002BB6D002212046C3
:102BD0009847B2E794F86010E26E080601F00F0320
:102BE0000AD548335B01D3581A047FF5E1AE990248
:102BF0004CBF334B334B72E75833F3E794F85E30F6
:102C0000002B7FF4D5AE94F8601011F00F0294D031
:102C1000E36E12B211F0800F03EB421306D0D3F82B
:102C2000002922F40012C3F8002986E7D3F8002B0C
:102C300022F40012C3F8002B7FE794F85E30002BDB
:102C40007FF4B6AE94F8601011F00F023FF475AF48
:102C5000E36E12B211F0800F03EB421304D0D3F8ED
:102C6000002942F40012DEE7D3F8002B42F40012F0
:102C7000E0E7142284F84C2083F311882A46294681
:102C80002046FEF76EFD85F31188A7E66DB115228B
:102C900084F84C2083F31188626D216D2046FEF785
:102CA00060FD002383F3118898E60B2284F84C2002
:102CB00083F311882B462A462946B2E65CB0000809
:102CC0005AB0000858B000082DE9F8433F4DD5F838
:102CD0006C8008EB40130446D3F80899C3F80899B0
:102CE00019F0010F4FEA401619D0D8F81038DB0759
:102CF00015D5871C05EB870359684B6918681A6955
:102D000090422CD2121A00271A605F60302383F39E
:102D1000118821462846FEF73CFC87F3118819F0FC
:102D2000800F1AD0D8F834380120A040034214D0C4
:102D300005EB8403ED6EDF680134E4B2796905EBDD
:102D4000043405EB060ED1E900369E4221D3D5F8B6
:102D5000343823EA0003C5F83438BDE8F8832B89FA
:102D60000122A24023EA02032B818B6813B1214682
:102D700028469847302383F3118805EB8707002105
:102D80007B6858690C30FFF7BBFD002383F3118883
:102D9000C5E73A8A9B1B934228BF1346DEF81829E1
:102DA00092B2B3EB820FD8D88A68A2F1040858F81F
:102DB00004CFC4F800C0A2EB080C9C44BCF1040F83
:102DC000F5D81A4433448A604B60BCE750170120A1
:102DD000F8B5294DEE6E06EB40130446D3F8087B98
:102DE000C3F8087B38070AD5D6F81438190706D572
:102DF00005EB84032146DB6828465B689847FA07A1
:102E00001FD5D6F81438DB071BD5A61C05EB8603A7
:102E100059688B69B4B9488A5A68B2FBF0F700FB6D
:102E200017227AB918681A6990420BD2121AC3E9AC
:102E30000024302383F311880F48FEF75FFC84F3EE
:102E40001188F8BD6B890122A24023EA02036B813D
:102E5000CB6813B1084821469847302383F3118883
:102E600005EB86056B68986941680C30FFF748FDF3
:102E7000002383F31188E4E75017012008B50846C2
:102E8000302383F311880A7D0023052A06D8DFE862
:102E900002F00B050503120E826913604FF0FF3339
:102EA0008361FFF71FFD002383F3118808BD82694A
:102EB0009368013393604268036813605A60EDE7DA
:102EC000054BD9680875186802681A6053600122BA
:102ED0000275D860FDF716BA9016012030B50E4B7A
:102EE000DD684B1C87B0044612D00C4B0393684638
:102EF000002305930495FFF7CBFB2046FFF7E0FF87
:102F0000009B13B16846FFF763FBA86907B030BDAB
:102F1000FFF7D6FFF9E700BF901601207D2E0008CD
:102F2000054BDB6821B1036098610320FFF7D6BF32
:102F30004FF0FF30704700BF9016012070B530236E
:102F400004460D46164683F311880F480378042B78
:102F500003D0002383F3118870BD02890123A340AD
:102F600013420AD000EB84004FF47A71C3685869A9
:102F70000C30FFF7D5FF0130EBD0034833462A462B
:102F80002146FEF74BFBE4E75017012007B50C4B39
:102F90001B688DF80130C3F307218DF80210C3F3CD
:102FA000074105228DF803101B0E694602208DF89B
:102FB00000208DF80430FFF7C1FF03B05DF804FB7B
:102FC000B01801200A4B10B500241C70FEF7B8FEA3
:102FD0002046FEF7B5F82046FEF7CEF8054B1C70EC
:102FE000FEF732FD044B1C60BDE81040FFF7CEBF7A
:102FF000B4180120BA180120B018012010B50146FC
:10300000044608220120FFF799FF082221460248C2
:10301000FDF7ACF910BD00BF611000200146202271
:103020000220FFF78BBF014603220220FFF786BF75
:10303000302383F31188104B5B6813F4006317D0BF
:10304000F1EE103AEFF30983683B4FF08072DA61DA
:103050000A4AD26B1A6683F30988094A1168D26852
:103060008968926891428CBF064A074A9A61704704
:1030700083F31188704700BF00ED00E000EF00E02F
:10308000901601202F0300083203000810B5174CDA
:1030900000232370164B80221A7002F063FF15483C
:1030A0000B21FFF717F9F0B123789B074FF00501CB
:1030B0001AD41148FFF70EF9A8B110480D21FFF7F7
:1030C00009F980B1FEF7DAF80D4B00F56A4060307F
:1030D0001860FEF7DDFD0B4A012313700A4A1370D6
:1030E0000A4B00221A7010BD0948E3E7BF10002008
:1030F0007D10002027B0000822B0000810B00008A2
:10310000C4100020C810002088180120C010002022
:103110001DB0000870470000794A08B552F8041C39
:10312000784B994230D1002342F8043C72B6BFF389
:103130004F8FBFF36F8F744A516A21F4803151620F
:10314000D2F8941021F00101C2F894104FF0E0225F
:103150004FF0FF311361936153619A0002F16042B5
:1031600002F561420133082BC2F88010C2F88011C9
:10317000F3D1002383F31488644B1A6882F3088820
:1031800062B65B689847FEE7614A62491369624824
:1031900043F0FF031361136923F0FF031361136905
:1031A000136B43F0FF031363136D43F0FF031365C9
:1031B000136DFEF785FA1C3100F58060FEF780FA8A
:1031C0001C3100F58060FEF77BFA1C3100F5806051
:1031D000FEF776FA1C3100F58060FEF771FA1C31BB
:1031E00000F58060FEF76CFA1C3100F58060FEF798
:1031F00067FA1C3100F58060FEF762FA4FF08053E9
:103200001364464B4FF480411960136843F0010387
:10321000136013689807FCD5936823F00303936049
:103220003B4B9A6812F00C02FBD1196801F0F901CE
:1032300019609A601A6842F480321A601A68910321
:10324000FCD55A6F42F001025A67314B5A6F920710
:10325000FCD5334A5A601A6842F080721A602F4ACD
:1032600053685B04FCD52A4B1A689001FCD52D4AA3
:10327000C3F884201A6842F080621A601A6811014B
:10328000FCD5294AC3F888201A6842F080521A6097
:103290001F4B1A689200FCD5244A9A60244AC3F84E
:1032A0008C200022C3F89420224B1A68224B9A42A9
:1032B000224B21D1144A1168214A91421CD140F27B
:1032C00003121A601D4A136803F00F03032BFAD18F
:1032D0000F4B9A6842F002029A609A6802F00C0260
:1032E000082AFAD15A6C42F480425A645A6E42F467
:1032F00080425A665B6E08BD40F20372E1E700BF90
:1033000000000220EFBEADDE00ED00E00000FF1F78
:1033100000380240E0B000080000024000700040A9
:103320000F244005103040221030004200944840E5
:1033300001008000002004E011640020003C0240F5
:1033400041C20F417047FEE770B5144C0825606814
:103350002368A268043B01468A4219D8D31C1B1A71
:10336000C11E23F003038A4238BF00231844E368D8
:10337000DA1C121AC11E22F00302994288BF0022F1
:103380000021FDF7BBF9013D04F11004DFD170BD50
:1033900053F8046F41F8046BDEE700BF60B000082B
:1033A0000D4B1868D968026810B453601A60012286
:1033B0000275D86000230B758A680B691B689C68CE
:1033C0009442FBD85A680B604A605DF8044B116068
:1033D0005960FCF797BF00BF90160120F8B5302365
:1033E00083F31188234D2B78012B1AD02846EC6EDD
:1033F000FEF7A4F8204A00230821C4F81C38A36073
:10340000A363C2F88810C2F8881182F843331B4BBB
:103410005A6B22F080025A635A6D22F080025A657C
:103420005B6D002401236C602B70154D274655F809
:10343000046F6EB1706920B16FF001010C30FFF7BD
:103440005FFAB06920B16FF001010C30FFF758FA54
:103450000134062C2F60EAD10A4B1A68DB689268A7
:103460009B689A4201D9FFF79BFF002383F31188E1
:10347000F8BD00BF5017012000E100E00038024015
:103480005817012090160120302383F31188034B35
:10349000DB6898610F20FFF713BD00BF9016012075
:1034A00008B50146302383F311880820FFF716FD85
:1034B000002383F3118808BD832810B504460FD17B
:1034C0005320FDF775FEFEF7BFFA42F21070FFF7CA
:1034D000E7FF5320FDF7A4FEBDE81040FEF7B4BAA5
:1034E00084280AD14720FDF763FEFEF7ADFA42F2C9
:1034F0001070FFF7D5FF4720ECE7031FDBB2A02BCE
:1035000024D8254B1B78A3B1244B93F90030002B12
:103510000FDA234B03EBD00300F007019A78012365
:103520008B401A420ED02046FDF77AFEFEF78CFA49
:1035300008E01C4A002312F8011FA142F3D0013316
:10354000062BF8D12046FDF733FEC5E700F1200336
:10355000DBB2072B08D8144A00F0070411780123C6
:10356000A3400B431370B7E700F15B03DBB2022B00
:1035700005D82438BDE8104080B2FDF7E1BD5834CD
:10358000E4B21A2C06D8094B33F81400BDE81040F9
:10359000FDF7F2BD10BD00BF740C00209E18012085
:1035A0002010002041100020B418012096BA000815
:1035B00008B5A8B182280FD13920FDF7F9FDFEF733
:1035C00043FA4FF4FA50FFF76BFF3920FDF728FE5E
:1035D000BDE80840FEF738BABDE80840FFF76CBF09
:1035E00008BD0000A0F1E003072B10B5044600D988
:1035F00040B905492046FDF753F9E0B2BDE8104057
:10360000FFF7D6BF0149F6E7DD1A0008091B0008DD
:1036100010B58378022B044606D14888FFF7E2FFF5
:10362000237943F00203237110BD0888FFF7DABF46
:10363000392810B504460AD1FFF7BAFF4FF4FA5003
:10364000FFF72EFF2046BDE81040FEF7ADBAFFF7AA
:10365000AFFF0120F4E700002DE9F0411F460C46C2
:10366000254B164668B11970FDF708FE234B04F090
:10367000070418800120A040C0B2BDE8F041FEF769
:103680002DBA1D788D4231D11C4BB3F80080FDF767
:10369000F5FDA0EB080080B2C72827D8B5420BD1B2
:1036A0003846FFF7C5FF06F007060120B040BDE829
:1036B000F041C0B2FEF71CBA05F00705012404FA78
:1036C00005F5E8B2FEF714FA06F12003DBB2072B8A
:1036D00007D806F0070304FA03F0C0B2FEF7FEF9BC
:1036E000DEE73846BDE8F041FFF7A2BF04F007046B
:1036F0000120A040DBE700BF9C18012056100020ED
:103700000379F7B50546002B00F0A1800121FDF7F4
:103710008FFB6B790446C3B1AA4B1B88ABB19842AF
:1037200013D0A9491C22DBB25343C818CC520279EA
:1037300042F004020271FEF77FFAA44B002201213D
:1037400028461A70FDF774FB044647F6406294421F
:103750006B7900F0A7804BD847F24042944260D08A
:1037600047F24242944274D0002B47D1A4F5AE43B5
:10377000FF2B6F7900F20E81934EE3B21C2202FB05
:103780000366337967F300033371002F00F0A880DC
:10379000FDF774FD8E4B8F4A1880B3781278B169AB
:1037A0000133B370894B1B7830461343B268F37012
:1037B000FDF7BAFC337913F0020F824B0CBF22469F
:1037C00000221A806B79002B40F07381A4F5E84346
:1037D000403B9BB23F2B00F2AD807F493F3CE4B2BF
:1037E0000B68013C0122A24023EA02030B609FE028
:1037F00047F64162944269D0002BE7D0FDF73EFDC9
:10380000764B1860764B1B78DA0701D4FEF724FD5F
:10381000744B1B78002BA9D1FFF738FCFEF77CFD19
:10382000A4E7A3B1704C714D26785EB9FDF726FD73
:103830006F4B2E6018600123237003B0BDE8F04089
:10384000FEF73CBA00262670FEF722FA2E6003B07F
:10385000F0BD002BFBD05F4B1B7813F0110F0CD089
:1038600013F0220F04D003B0BDE8F040FEF780BC97
:1038700003B0BDE8F040FEF789BC13F0440F0CD054
:1038800013F0220F04D003B0BDE8F040FEF758BC9F
:1038900003B0BDE8F040FEF75FBC03B0BDE8F04008
:1038A000FEF7E6BC002BD2D0E020FFF705FEE320B8
:1038B000FFF702FE5020FFF7BBFEE320FEF73AF9C8
:1038C000E02003B0BDE8F040FEF734B9002BBED0D5
:1038D000E020FFF7F1FDE320FFF7EEFD4F20EAE7E0
:1038E0007269B1693046FDF71FFC33799B0740F1DF
:1038F00097803046FEF78CF9324B1A88A24240F08E
:103900008F801F806B79002B3FF460AF394B1F70A5
:10391000A4F5E843403B9BB23F2B00F20D822E4AB8
:103920003F3CE4B21168013C0123A3400B43136008
:10393000FFF72CFB2A886B79ADF800200098002B4C
:1039400000F01F82FDF74CFA044601460098FDF78F
:1039500013F8BDF80030ADF8043001992046FDF7AA
:103960005BF8FDF769F9A9796A790346C3F3033077
:1039700009090B2800F23782DFE810F0070207027E
:103980003E023E0267023502350235027E02DF0248
:1039900012031203A4F5F843183B062B7AD8DFE88C
:1039A00003F02B2F040D33373B002623E122114671
:1039B000384603B0BDE8F040FFF74EBE2723E522AE
:1039C000F5E700BF98180120780C0020BA180120F4
:1039D0009A180120B4180120B01801208C18012079
:1039E000A818012088180120750C002090180120CB
:1039F000941801209C1801202623E122E021D7E71A
:103A00002723E522E421D3E72623E122E221CFE7A1
:103A10002723E522E621CBE728230122E521C7E77A
:103A20006B79002B45D1A84B1878A4F5F043203BC7
:103A300000F02200142B3FF6C9AE01A252F823F089
:103A4000AD3C0008DD3C0008EB3C0008F13C000800
:103A5000F73C0008FD3C0008033D0008093D000854
:103A60000F3D0008153D00081B3D0008213D0008E2
:103A70004F3800084F3800082F3D00084F38000825
:103A80004F3800084F3800084F3800084F380008FA
:103A90004F3800086B7983B947F616439C42C2D170
:103AA0008A4B1B78002B14BF35202920FDF7B8FB6B
:103AB0001DE0874B00221A702AE7854B0022A4F5EF
:103AC000E0461A70B3B2222B16D947F616439C4231
:103AD0007FF41EAF7C4B1B7803F0AA0393427B4B11
:103AE0001ABF0122352029201A70FDF761FB03B0AF
:103AF000BDE8F040FDF7A8BF0420FEF72CFA754C96
:103B0000013E2080212E12D8DFE806F055C05D234B
:103B100027612B657137B83B753F799F437DA74976
:103B2000838B2F69336D4F8796B1B61E59C82378A2
:103B300043F00103237021880420FEF750FA03B0FC
:103B4000BDE8F040FFF73EBA637843F008036370C6
:103B5000F1E7237843F00203ECE7237843F0040312
:103B6000E8E7237843F00803E4E7637843F00103D0
:103B7000EDE7637843F00203E9E7237843F01003AD
:103B8000D8E7237843F02003D4E7237843F04003B9
:103B9000D0E7FFF717FA237843F08003CAE72378CA
:103BA00023F00C0343F00C03C4E7637823F0030312
:103BB00043F00303CBE723786FF30003BAE763789E
:103BC0006FF3C303C3E723786FF34103B2E72378AE
:103BD0006FF38203AEE723786FF3C303AAE763783A
:103BE0006FF30003B3E763786FF34103AFE7237824
:103BF0006FF304139EE723786FF345139AE7237856
:103C00006FF3861396E7FFF7DDF923786FF3C71399
:103C100090E7237823F00C038CE7637823F0030309
:103C200095E72378C3F3800282F00102D2B262F3F7
:103C3000820362F3C3037DE76378DA4302F0010293
:103C400062F3000362F3410381E72378C3F3801238
:103C500082F0010262F386136CE7FFF7B3F9237871
:103C6000C3F3C01282F0010262F3C71362E70121BD
:103C70000E20FEF7A3F95EE70021F9E72378C3F3EE
:103C8000001282F0010262F3041353E72378C3F3B6
:103C9000000282F0010262F300034BE76378C3F392
:103CA000C00282F0010262F3C30350E70A4B1B78A3
:103CB000DD0704D503B0BDE8F040FEF7C7B903B097
:103CC000BDE8F040FEF7C8BAB4180120A0180120E2
:103CD0009C1801209E180120A8180120A04AA14983
:103CE00003B0BDE8F040FDF79DB99E4A9C49F7E757
:103CF0009D4A9E49F4E79D4A9B49F1E79C4A9D49AC
:103D0000EEE79C4A9A49EBE79B4A9C49E8E79B4AC5
:103D10009949E5E79A4A9B49E2E79A4A9849DFE7D9
:103D20000121084603B0BDE8F040FEF759BA03B0E0
:103D3000BDE8F040FEF7BABA47F601439C4219D0FD
:103D400047F603439C420ED0B4F5F84F7FF4F2AD32
:103D5000FFF738F946F2A810FFF7A2FB8A4B8B4A0F
:103D60001A60FDF7C1FAFDF78BFF4FF6FF710020D7
:103D7000FEF735F9FFF726F946F2A810FFF790FB9A
:103D8000EFE7FCF71BFE0446E3E5C3F30721C3F3AB
:103D900003240F2988BF2401DEB292B15CB106F181
:103DA0002003DBB2072B00D94EB9794A137823439D
:103DB0001370FDF749FE3046FFF7FAFB13E0754A32
:103DC000F4E73046FDF7F0FE6CB106F12003DBB2FC
:103DD000E443072BE4B200D966B96D4B1A7814405E
:103DE0001C70FDF731FE0021284603B0BDE8F0400D
:103DF000FDF71EB8674BF1E7C3F3072404F0F004A6
:103E0000202CC3F30320DCB218BF0001012C0AD11F
:103E100022B10529E7D8FDF761FEE4E70429E2D8DD
:103E2000FDF766FEDFE71AB10029F4D02046C3E7AC
:103E30000029F5D0392C0CBF4FF4FA500120FFF7C0
:103E40002FFB2046FDF7B0FECDE713F4406FC3F320
:103E5000812107D00129C6D162B1C3F30900FDF762
:103E60008BF9C0E722B1C3F30900FDF769F9BAE79E
:103E70001046FAE71046F2E713F4407F2BD1FAB967
:103E8000C3F34210DC064FEA800048BF0F22C0B2E5
:103E900048BF824003F00F0148BFD243C3F38123E0
:103EA00001FA00F148BF92B2022B3B4889B20ED012
:103EB000032B3CD0012B06D003881143194001800D
:103EC000FDF736F98FE7038819430A4328E0038892
:103ED00011435940F3E7C3F301201AB3C207EFD5EA
:103EE000C3F3421013F010014FEA800018BF0F21F6
:103EF000C0B218BF814003F00F0218BFC943C3F31B
:103F0000812302FA00F218BF89B2022B234892B231
:103F10000FD0032BD9D0012B07D003880A431A40B6
:103F20000280CDE70128CBD9DAE703881A43114391
:103F3000C5E703880A435A40F2E7DEB2C3F303241D
:103F400032B12046FCF7D8FC3046FDF7C7FDB7E795
:103F50003046FDF7CDFD2046FCF7D8FCB0E700BFAA
:103F60008D22000871220008592100084121000813
:103F70008D21000871210008C5210008A921000831
:103F80007920000891200008FCFF0120EFBEADDE83
:103F9000B4180120BA180120B6180120B818012061
:103FA000DCB2A4F1F000032827D8DFE800F002100B
:103FB000171C52B1042983D81C4AC3F304210123DE
:103FC0008B4011884B4013807AE70529F3E7C3F350
:103FD0000420002AC0D0FCF78FFC71E7C3F3042053
:103FE000002AF8D0B8E711492AB1C3F3042201230B
:103FF00093400B8064E70A8062E73AB119B120462A
:10400000FFF7D6FA5CE7C3F30420E4E751B1392C9B
:104010000CBF4FF4FA500120FFF742FA2046FDF79B
:10402000C3FD4DE7C3F3042096E700BFB818012095
:104030001B48F8B583790F2B0AD8437943B1194B44
:10404000194A1B78157806884788184CAB4200D16E
:10405000F8BD04EBC3011AB20979E1B134F832209A
:10406000B24218D104EBC3014A79A2B94A88D21BE3
:1040700092B2C72A0FD88379012262F307138371A2
:104080008B79074862F307138B71FFF739FBBDE8A3
:10409000F840FCF7B1BC013303F00703D6E700BFDB
:1040A000FE180120BC180120BB180120BE180120F9
:1040B0002DE9FF477C4D0446014606226846FCF781
:1040C00055F995F8049094F8008061786779B4F810
:1040D00002A02279B9F1000F12D17AB1002F00F0BD
:1040E000DF802046FCF7D0FE002800F0D9800822AF
:1040F00021466D48FCF73AF9FFF79AFF01253BE0AE
:104100006B886E79AAEB03039BB2002E00F09C80B3
:10411000C72B61D8002AF1D0AB79288822880F2BD1
:104120004DD890420CD1002F44D1012262F30713E5
:104130002846AB71FFF7E4FAAB79A37100251BE0C9
:10414000002F37D13A464046FDF75CFC4046FDF76C
:1041500059FC05460028F1D10098FCF783FEC0F316
:104160000332032AC3B20BD8012A13D910F4706F9B
:1041700015D0A2790F2A12D8284604B0BDE8F087DE
:10418000063202F00F02012A0ED92046FFF7B8FAD4
:104190003546F1E710F4706F01D0002BECD02033DE
:1041A000DBB2072BE8D9F0E7EF2BE5D90F33DBB211
:1041B000022BF7E7AB7943F00103AB71BEE7904206
:1041C00027D137BB2046A371FFF79AFA0822214670
:1041D0002846FCF7CBF891E7AB790F2B08D8284697
:1041E000FFF78EFA082200212846FCF787FAA5E798
:1041F000002A83D02988228891420AD14FB92046CB
:10420000A371FFF77DFA082239462846FCF776FAB3
:1042100074E72046FCF738FE002841D0002F3FD03D
:10422000AB791F2B7FF663AF2A88ADF8082002A870
:104230000022ADF80AA08DF80C908DF80D208DF8B5
:104240000E30FFF75DFA52E7C72BCBD8002A3FF4B8
:1042500055AF2FB32A8823889A4217D1AB79DA0752
:1042600010D40F2B0ED9A37103F0F003F02B06D05E
:10427000A379C3F30312013262F30713A37120463B
:10428000FFF73EFA084808222146A2E72046FCF73D
:10429000FBFD00287FF42BAFAB7943F00103AB713A
:1042A0002046FFF72DFA29E7FE180120F0B589B066
:1042B0006B4683E803009DF80510002209B12949E7
:1042C0000A70ADF80E2093E80300ADF80C10C9B2E7
:1042D000029002AC19B101212046FCF7A9FD94E837
:1042E000030004AE86E803003046FFF7E1FE1E4FF0
:1042F0001E4D0446C0B996E8030006AB83E80300F0
:104300009DF8141038782A7871B1461C06F007061B
:10431000964210D01946164B082203EBC000FCF75A
:1043200025F83E70FCF768FB114C28783B788342F7
:104330000BD109B0F0BDFEF745FE082221460D481D
:104340003C702C70FCF7DAF9EEE704EBC000FFF7E5
:10435000AFFE0028EDD02B78013303F007032B705C
:10436000E3E700BFBA180120BB180120BC180120E8
:10437000BE180120FE18012073B5FCF77FFF0B4D1E
:104380002B8884B2A3420ED00026ADF80060FCF763
:1043900075FFADF80460ADF8020002AB13E903004D
:1043A000FFF784FF2C8002B070BD00BF1A180120F7
:1043B00010B5807801280C4606D1FFF771F82088E7
:1043C000BDE81040FDF70EBC022801D14888F7E790
:1043D00010BD0000EFF3098305494A6B22F001028A
:1043E0004A63683383F30988002383F31188704795
:1043F00000EF00E02DE9F041302304460E4683F340
:10440000118890F80080456B4160B8F1010F3BD1F5
:1044100040F25643836240F2164343624E4B984249
:1044200032D14E4F4E493B6A43F400133B623B6A24
:1044300023F400133B6200203B6AFDF7FFF9494972
:10444000E0620620FDF7FAF93B6C206343F40013A9
:104450003B643B6E43F400133B663B6E424B502281
:104460004FF0004183F81F23C3F88011196083F8CF
:104470002023C3F88481C3F80480636A3B4A134352
:104480006362A36A1343A362E36A1A6805F1100327
:104490009360226B126893604FF400432B604FF4DB
:1044A000106200232B606A6069687268307A21F0BC
:1044B0003F010904090C6960696841F01D016960E8
:1044C0002B498A4220DC52002A4B93FBF2F31E2236
:1044D000C3F30B032A62EB6132782B68022A9BB28A
:1044E00030D0032A34D0012A02D123F00A039BB230
:1044F0002B602B6843F001032B6002232370002004
:1045000080F31188BDE8F0811B498A42E3DC022870
:104510000AD102EB4201174AB2FBF1F292B21A43FE
:1045200042F400430922D5E7032801BF192353436E
:10453000104AB2FBF3F212BF40F6FF7292B24FF490
:104540008043ECE723F008039BB243F00203CFE77C
:1045500043F00A03CCE700BF0819012000380240ED
:1045600015290008F914000800E100E0000003022A
:10457000A086010074C3C901801A060010B530235B
:10458000044683F311880378012B27D0FCF78EFFB4
:10459000006BFCF74DFFE06AFCF74AFF134B00226B
:1045A0009C422263E26219D1114B4FF00041C3F8E3
:1045B0008010C3F88011012183F81F23C3F88410F1
:1045C000C3F8841183F820230A4B1A6C22F40012DA
:1045D0001A641A6E22F400121A661B6E002301225E
:1045E0006360227083F3118810BD00BF0819012099
:1045F00000E100E000380240F8B50446302686F3BA
:104600001188002585604900032020702184606B9B
:1046100085F31188216BA76A09680F60CA604B6037
:10462000E36A626A1B681A60069ADA60079A5A603F
:104630004FF0804241F28737516A86F311888369CF
:104640009B0702D403689B052AD5536A5B1ABB42B9
:1046500023D9236B1A68116821F01F0111601168BA
:10466000CF07FCD4597A5A683D238B401360E36A24
:104670001A68116821F01F0111601168CE07FCD47F
:10468000597A5A683D238B40136005234FF0FF3061
:104690002370002383F31188F8BD85F31188CCE7DC
:1046A0004368089943F400734360036843F48073DC
:1046B000036004F11C00FEF733FCE8B1236B1A68B9
:1046C000116821F01F0111601168CD07FCD4597ADF
:1046D0005A683D238B401360E36A1A68116821F021
:1046E0001F0111601168C907FCD4597A5A683D232B
:1046F0008B401360431CC8D00223C9E74FF08042AF
:104700002DE9F8431369D1680B40D9B2C9439B071F
:10471000116147D5302383F311882A4D05F1100824
:104720004FF080492C69D9F82400EE69A168264F22
:10473000821B8A423CD3236862680E44EE61136098
:104740005A60002323602A69BA4208BFC9F80C30B6
:1047500083F31188E368216920469847302383F367
:1047600011886269002ADDD04FF080432869596AB8
:10477000A1EB060C62450BD2EB6AB84243F0020390
:10478000EB6213D0624621464046FDF7EFFEC7E7D5
:10479000B842F8D1521A32442046FDF74FFF0023A9
:1047A00083F31188BDE8F843FEF742BC0022F3E72B
:1047B000BC42F4D0091A3144E861A160FDF7ECFE77
:1047C000EDE700BF90160120A016012008B5074BA9
:1047D000074A196801F03D01996053680BB1906870
:1047E0009847BDE80840FEF723BC00BF00600240C8
:1047F0000416012008B5084B1968890901F03D012C
:104800008A019A60054AD3680BB110699847BDE8E0
:104810000840FEF70DBC00BF0060024004160120F6
:1048200008B5084B1968090C01F03D010A049A60AB
:10483000054A53690BB190699847BDE80840FEF7F7
:10484000F7BB00BF006002400416012008B5084B0A
:104850001968890D01F03D018A059A60054AD369FE
:104860000BB1106A9847BDE80840FEF7E1BB00BFF6
:10487000006002400416012008B5074B074A59683A
:1048800001F03D01D960536A0BB1906A9847BDE8C9
:104890000840FEF7CDBB00BF0060024004160120B7
:1048A00008B5084B5968890901F03D018A01DA60B1
:1048B000054AD36A0BB1106B9847BDE80840FEF774
:1048C000B7BB00BF006002400416012008B5084BCA
:1048D0005968090C01F03D010A04DA60054A536B7E
:1048E0000BB1906B9847BDE80840FEF7A1BB00BF35
:1048F000006002400416012008B5084B5968890D74
:1049000001F03D018A05DA60054AD36B0BB1106CEA
:104910009847BDE80840FEF78BBB00BF006002402F
:104920000416012008B5074B074A196801F03D013C
:104930009960536C0BB1906C9847BDE80840FEF746
:1049400077BB00BF006402400416012008B5084B85
:104950001968890901F03D018A019A60054AD36C02
:104960000BB1106D9847BDE80840FEF761BB00BF72
:10497000006402400416012008B5084B1968090CB0
:1049800001F03D010A049A60054A536D0BB1906D28
:104990009847BDE80840FEF74BBB00BF00640240EB
:1049A0000416012008B5084B1968890D01F03D0176
:1049B0008A059A60054AD36D0BB1106E9847BDE821
:1049C0000840FEF735BB00BF00640240041601201A
:1049D00008B5074B074A596801F03D01D960536E8D
:1049E0000BB1906E9847BDE80840FEF721BB00BFB1
:1049F000006402400416012008B5084B5968890973
:104A000001F03D018A01DA60054AD36E0BB1106FE7
:104A10009847BDE80840FEF70BBB00BF00640240AA
:104A20000416012008B5084B5968090C01F03D0136
:104A30000A04DA60054A536F0BB1906F9847BDE8DE
:104A40000840FEF7F5BA00BF0064024004160120DA
:104A500008B5084B5968890D01F03D018A05DA60F7
:104A6000054AD36F13B1D2F880009847BDE80840DB
:104A7000FEF7DEBA00640240041601202DE9F74F6C
:104A8000C2F3C31302F0030AC2F38009C2F3C108E0
:104A9000C2F3411E0193574600224FF00F0BCB0784
:104AA00037D5019C02F007039B0004FA03FC0125A3
:104AB0004468954024EA050444EA09044460856892
:104AC0000324560004FA06F625EA060545EA080519
:104AD0008560C56825EA060545EA0E050BFA03F36D
:104AE000BAF1020F6FEA0604C5606FEA03031BD137
:104AF000072A95BF056A456A1D401D4095BF45EAD6
:104B00000C0545EA0C0505624562036823403B43FA
:104B1000036049081AD04FEA49094FEA88084FEA6A
:104B20008E0EBF000132BAE705682C403C4304609A
:104B3000072A95BF046A446A1C401C4095BF44EA9A
:104B40000C0444EA0C0404624462E2E703B0BDE8EA
:104B5000F08F08B5302383F31188012100F00F0393
:104B60009940202220F00F00FFF788FF002383F3F5
:104B7000118808BDF8B51D4E337804460D4633B98B
:104B80001B4801222021FFF779FF012333703023D6
:104B900083F311880023DAB2AA4203F101070FD38D
:104BA000DFED147A002307EE103AB8EEC77AB4EEC0
:104BB000E77AF1EE10FA11D4002383F31188F8BDDF
:104BC00002EB4202A618A05CFCF772FA7078FCF7C0
:104BD0006FFAB078FCF76CFA3B46DCE700BF00BF29
:104BE00000BF00BF00BF00BF0133DCE77C10002026
:104BF00000000240FCFF1545064B0748002918BF7E
:104C0000184600F00F03012120F00F0020229940E8
:104C1000FFF734BF0A0402400F0002402DE9F04FB5
:104C20008BB01C22002103A8FBF768FD00259C4FD8
:104C300003AE4FF03008A94657F8041B4C1C54D063
:104C400088F311884FF0010A21F00F0001F00F01E5
:104C50000AFA01F421465246A4B2FFF70FFF44833B
:104C600089F3118800BF00BF00BF00BF00BF00BFB5
:104C700000BF00BF00BF00BF00BF00BF00BF00BF3C
:104C800000BF00BF00BF00BF00BF00BF00BF00BF2C
:104C900000BF00BF00BF00BF00BF00BF00BF0024B7
:104CA000804A234652F8041B481C3FD021F00F00D5
:104CB00001F00F01006920FA01F111F0010F0CBFA2
:104CC000514600210133DBB2112B44EA01044FEAC3
:104CD0004A0AE7D157F8040C431C01D0FFF739FF0B
:104CE0004FF49660FCF79AFB34600135EDB2072D66
:104CF00006F10406A0D16C48DFF8C0816B4F1C227E
:104D000003A9FBF79DFD98F800C0044680B93870F0
:104D1000BCF1000F00F08C80FCF7B0FA644A136815
:104D20001060C31AFF2B3DD9FF233DE00021C9E7E6
:104D300003AD0FCD5C4E0FC695E80700002386E853
:104D400007003B70BCF1000FE6D1FCF797FA584B17
:104D50001860584B544E1B68574F03F1770C0025D1
:104D60004FF0050E57F8042B56F8044B0021544021
:104D70001A4624FA01F010F0010000F08680107845
:104D800010B982F800E001250131112902F1010278
:104D9000EFD111339C45E5D1002D49D0474B01227D
:104DA0001A7045E0002B41D0424A434E1268DFF8AA
:104DB000F8C039780020DBB288F80000019302F1D6
:104DC0007708074686464FF001098246551E0020A7
:104DD00015F801BFBBF1000F15D0019B5B454CD30B
:104DE00085F800A03368DCF8007083EA070B09FA45
:104DF00000F70BEA0707394387EA0307376014BF58
:104E000001210021012701301128E1D11132904503
:104E100006F104060CF1040CD8D10FB1234B197024
:104E2000BEF1000F02D0254B01221A70002C90D148
:104E3000234B1969234B49071A7828D452B9012208
:104E4000E3201A70FEF738FB2B20FEF7F1FBE3207E
:104E5000FCF770FE1C4B1C68FCF710FA1B4B001B88
:104E6000984219D91A4B1B78DB0715D5FDF7EEF8D8
:104E70000BB0BDE8F04FFDF739BA019BABEB030B6C
:104E800085F800B04FF0010EBDE710707CE7012AF5
:104E900004BF00221A70DDE70BB0BDE8F08F00BF41
:104EA00024B9000840B90008181701205510002047
:104EB0005010002014170120C817012054100020A2
:104EC000000402404C1000208C180120E0930400E4
:104ED000A81801202DE98048B94B89B01A6962F001
:104EE000FF021A611A69D2B21A614FF0FF301A69D3
:104EF0005A69586100215A6959615A691A6A62F0FF
:104F000080521A621A6A02F080521A621A6A5A6A47
:104F100058625A6A59625A6A1A6C42F080521A648C
:104F20001A6E42F080521A661A6EA64A106840F451
:104F300080701060186F00F44070B0F5007F1EBFE5
:104F40004FF480301867196753689F4923F4007342
:104F500053609E4B002543F8045B00AF0C202C46A9
:104F600000FB05F28A58146043F835400135102DD6
:104F7000F6D1974B97484FF0FF3BC3F808B0C3F802
:104F80000CB0C3F808B4C3F80CB4934B702283F888
:104F90001C234FF08052C3F880211A608F4B03F11D
:104FA0000C020126DA601A618D4A5A6300F8246BFC
:104FB000282200211E705C605C61DC61DC621C6385
:104FC000FBF79CFB834A4FF0A043D366854B1367E6
:104FD0007B4B946054601A6C32431A641A6E3243ED
:104FE0001A66814A1B6E93684FF080483343936082
:104FF00040F25623C8F828307C4B7D4AC8F82CB0C4
:10500000C8F81840C8F83440C8F80C40C8F8044044
:10501000C8F81460C8F800601A60764A5A60764B87
:10502000764A9C621A634FF0300989F3118862B6A0
:10503000734A7449D06820F4E0600004000C014316
:10504000D160D2F8FC10704841F08071C2F8FC10B9
:1050500001684FF0200A3143016082F81FA082F8F6
:105060002290C3E906B49C60DC6203F11002C3E93C
:105070000422D8F824205B6410462146C3E90801C5
:1050800080226248DA639A6503F13402DA6000F53F
:10509000AA72C0F8C4215E4AC0F894215D4AC0F8E3
:1050A000B4210222C0F89841C0F8C061A0F8CC2118
:1050B000C3E90033C3E91444DC65A3F84860C0F8D1
:1050C000C831C0E97646C0F8D44100F5DC70FDF780
:1050D00009FC84F31188504B504A1A60FCF7D0FD4C
:1050E000324651464E48DFF870A1FFF7C7FC2A460A
:1050F000384D4C480021FBF701FBEA6E4A4B8AF819
:1051000000401C70D2F8043843F00203C2F804389F
:10511000FEF764F941F28830FEF7C2F9FCF7E2FBD2
:10512000EA6E424DD2F8043823F00203C2F8043884
:105130003F4B41F288301C603E4B2B60FEF7B0F9CC
:1051400089F311883C4BD8F824201A603B4B1C6033
:105150003B4B1C6084F31188082200213948FBF77F
:10516000CDFA394B002108461E70FFF745FD314648
:105170000020FFF741FD42F6E060FCF74FF9002107
:105180000846FBF783FF314604460020FBF77EFF0D
:105190002E4B2F4E44EA40041C70072456F8040B93
:1051A000411C01D0FFF7D5FC013C14F0FF04F5D100
:1051B000284E56F8040B421C50D0FFF7CAFC4DE0B5
:1051C00000380240007000404CB80008041601206E
:1051D000006002405017012000E100E008190120A2
:1051E000005400400CB90008002004E0881601209B
:1051F00040190120000002209016012018B9000873
:1052000000ED00E00003FA05001000E0400E002071
:10521000E30E00081D0300085C0C0020D90E0008F6
:10522000000002403C1701204D17012038170120D3
:10523000F0160120600C0020101701200C1701202F
:10524000081701200F1801200E1801200D18012049
:1052500024B9000840B900084C1701200134E4B219
:10526000112CA6D11C220021BC48BD4CFBF746FAEC
:105270001C220021BB48FBF741FA7720FBF710F90D
:10528000B94B772200211860FBF738FA0020FCF7B1
:1052900062FE4FF6E666B04254D0FCF7F1FC3146B0
:1052A0000020FCF79CFE00210220FCF787FE012174
:1052B00003202180FCF782FE4FF4A0510420FCF76C
:1052C0008EFE00210620FCF779FE00210720FCF766
:1052D00075FE00210820FCF793FE00212420FCF736
:1052E0006DFE00211720FCF769FE00210C20FCF761
:1052F00065FE00210D20FCF761FE1821002200232D
:105300007818C7E904230822FCF7FCFD082207F1FE
:10531000180107F110006E46FBF792FA28B1082237
:10532000182107F11000FCF737FE0021B5462020B8
:10533000FCF766FE00210F20FCF762FE002113201F
:10534000FCF75EFE0220FCF7F7FD884B884E1870D4
:105350000420FCF700FE3080FFF760FC4FF47A7009
:10536000FEF79EF8FFF75AFC7C4B1B68DB040BD55D
:10537000FCF786FC4FF6FF710020FCF730FE7D4BFA
:105380007D4A1A60FBF7B0FF0320FCF7D5FDDFF87C
:1053900028822080FDF77AFE98F80090B9F1000F7E
:1053A00021D1FCF7E7FD754CC4E90001C0B2032828
:1053B0000BD8734B236084F80490D4E90001FCF708
:1053C00036FEFCF7D7FDC4E90001FBF7D7FD2078D6
:1053D0006C4B0021C407597002D58008FCF700FF10
:1053E000012388F8003042F21070FEF759F8337844
:1053F00043F080033370FCF72FFF01210F20FCF7EF
:10540000EFFEFBF73BFF604B604A18600023136020
:105410005F4A1370FDF73AFEFCF77EFF5D4B2A688A
:105420001A605D4B5D4D1C789AF8003000200246F2
:105430009C4279D10AB18AF80040594B1B78052B60
:1054400006D1574B1B78052B00F0B880FCF7FCFA0F
:10545000FFF7E4FB534E414A354610460724013C12
:1054600014F0FF0455F8041B50F8043B00F0F480DE
:105470009942F4D0002452F8048B56F8043B43457B
:1054800027D083EA080300254FF0010907F1080B34
:1054900019EA030F15D07A603B603D727C72FBF70E
:1054A000EDFE19EA080F4FF0010314BF012100219E
:1054B0003B73788179739BE80300FEF7F7FE3B6846
:1054C0007A680135EDB2112D4FEA4909E0D146F86D
:1054D000048C0134E4B2072CCDD1FBF7CFFE0126BA
:1054E000C0E08AF80030304B4FF001021A7098E7A4
:1054F0008AF800302C4B00241C702C4B1C702C4B59
:105500001C70FCF71DFC2B4B1C60FDF73FFD20467B
:10551000FBF716FE2046FBF72FFEFBF709FEFCF714
:10552000FBFEFCF799FE7CE719460122695C01331A
:1055300003F00F03104605293FF67AAF01A656F88F
:1055400021F000BF2F540008315400082F540008E8
:105550002F540008E3540008F1540008C817012034
:10556000B61801201817012014170120E417012094
:105570009E180120FCFF0120EFBEADDEA81801201F
:105580000500FF640A1801209418012090180120DA
:10559000351701203C1801204D1701203C17012030
:1055A00050170120E81701204E170120B4180120E0
:1055B000BA180120B018012034170120FCF796FE1C
:1055C000FCF744FDFCF792FE40F2A460FDF768FF93
:1055D000AD4BB3F8643098077FF533AFFFF71EFB90
:1055E000AA4A072352F8041B21B9013B13F0FF0319
:1055F000F8D126E7A44B1B78052B19D1A24CE36EFA
:10560000D3F8042842F00102C3F804285A6942F092
:1056100008025A619A6942F008029A61C820FDF7AF
:105620003FFFE26ED2F8043823F00103C2F80438D9
:10563000954CE26ED2F8043843F00203C2F8043805
:10564000FDF7CCFEFCF74EF9E26ED2F8043823F0F9
:105650000203C2F80438F4E699427FF40CAFFEF777
:105660008BFE26468A4B1C888CB18A4B1D88FBF723
:1056700005FE401B80B2C82809D987481C23E4B224
:1056800003FB04000379590701D4FCF7D5FA834BD7
:105690005A787AB31A78824BDFF814821B78C2EBFF
:1056A0009303022ADBB288F8023005BF7D4A7E4CA4
:1056B0007E4C5B0814BF4FF4FA65D55C98F8033054
:1056C0004BB14FF0000988F80390FBF7D7FDA8F81D
:1056D0000490A8F80000FBF7D1FDB8F80030C01A1C
:1056E00080B247F6FE72904204D82B447048A8F866
:1056F0000030A0476F4A137833B16F4B0020997880
:1057000010701A78D9705A706B4C4FF0000B6B49BF
:10571000E378097894F802905FFA8BF841452ED827
:10572000002207F118054FF0FC0840F20319E37856
:10573000A178994200F09180E218013303F003034D
:105740001279E3706378C2F3060B0133D2096370F8
:1057500063D187F818B087F81980FBF78FFDA7F899
:105760001C90788395E80300FEF7A0FD87F810B041
:1057700087F81180FBF782FD032380B263E00021EC
:1057800040467B60FBF782FC012105464046FBF763
:105790007DFC4B4A12F8081045EA4005EDB201F0D5
:1057A000030085422AD045EA8105EDB2454802F85A
:1057B000085005F00F01444D415C15F808007B6866
:1057C000014449B2032905F808101ADD09F1010066
:1057D00000F00300834208D0A1440BF07F0389F856
:1057E00004302378A070013323704B4203F003038D
:1057F00001F0030158BF594205F808100BF1010BE5
:1058000085E7CA1CF1DA09F1010000F003008342C8
:10581000EBD0A1446BF07F03E1E7FD237B7687F8B3
:1058200018B0FBF72BFD4FF48172BA83788395E8AB
:105830000300FEF73BFDFD237B7487F810B0FBF7F8
:105840001DFD022380B23B75002378827B75D7E96A
:105850000401FEF72BFD012269E732B1FBF70EFDD3
:10586000FCF778FDFCF758FD03E0FCF773FD002E14
:10587000F8D1FBF75DFC154B1A7882423FF4D1ADAD
:105880001870FBF7FBFCCCE550170120C81701206E
:10589000981801209A180120780C00200A1801207D
:1058A000A818012094B90008D50F0008E10E0008DF
:1058B00004180120171801200F1801200E180120CC
:1058C0000D18012097B900080C18012018180120A4
:1058D0004048414A70B5446BA369656945EA034392
:1058E00003F0FF13934225D014D8073A934205D012
:1058F0000132934222D0B3F1011F14D1028C130A5A
:1059000016D003F0060302F00102134343F0F00344
:10591000236108E0314A934226D0023293422ED0CE
:105920002F4A93424ED015F00A0F18BFA36933E0F7
:105930002261F8E7038CC3F34703E9E7636823F4C4
:1059400000736360C36A1B681A6842F001021A6040
:10595000626842F4805262605B68012BE3D823687E
:1059600023F480632360DEE7636823F400736360DD
:10597000036B1A68136843F001031360D3E72369CC
:10598000C36A1B685E685EB1038C43F00103038445
:10599000236843F4A0632360BDE87040FDF748BB73
:1059A000636823F400736360236843F40073236027
:1059B000302383F3118831461C30FCF7A1FF86F3B6
:1059C0001188B0E7FBF772FD636823F4007363602E
:1059D000A9E700BF081901200800030082000700A2
:1059E00011000300314B596B70B54C6904F45F40F2
:1059F000C0434861186B05682E6826F01F06A2B2E6
:105A00002E602E68F607FCD4467A45683D20B040EB
:105A10002860D86A05682E6826F01F062E602E685A
:105A2000F607FCD4467A45683D20B0402860C2F3B2
:105A30000020950548BF40F00200986050050BD546
:105A40004D68986825F400754D600D6840F00400BD
:105A500045F400750D609860160542BF996841F0E5
:105A600008019960550442BF996841F0200199608E
:105A7000D00442BF9A6842F010029A6021049A68EA
:105A80000ED542F040029A60302383F31188084813
:105A90006FF00101FCF734FF002383F3118801E06C
:105AA000002AF1D1BDE87040FDF7C2BA0819012003
:105AB000241901202DE9F74F454CE56E6E69AB695D
:105AC0001E4016F480586E6100F08880254600273D
:105AD000022345F8087F2370676606264FF03009D9
